:4000000000800020110000002BC200002BC2000008B5044B1A6803F53F5302331A600CF01BF900BFFA46004010B5054C237833B9044B13B10448AFF300800123237010BD7D
:4000400098E0FF1F000000003C0A0100084B10B51BB108480849AFF300800848036803B910BD074B002BFBD0BDE81040184700BF000000003C0A01009CE0FF1F0881FF1FD5
:4000800000000000044B1A78A52A03D0824201D04C33F8E7184670470C81FF1F38B500234FF486725A430D498C188A5CC02A0FD1C123002523706580FFF7E4FF2946C4F8F3
:4000C00008014FF48072201D10F02BF8204638BD0133142BE4D1002038BD00BFF4E0FF1F70B50E4D00244FF4867363430C4A0026D118C020D05401344E80284631464FF4FF
:40010000807210F00EF8142CC5F8046105F58675E9D10448BDE8704000F046B8F8E0FF1FF4E0FF1F4901000038B504460025C0230370294645804FF4807204300FF0F1FFB7
:40014000C4F8085138BD000070B50B4C002526464FF486736B43F35CC22B07D1D4F8083120465B6898472046FFF7DEFF0135142D04F58674ECD170BDF4E0FF1F10B5084BC6
:400180001C78A52C09D0844205D10846BDE810405B68114618470833F2E7002010BD00BFD482FF1F70470000054B93F840200F2A9EBF511C83F8401043F82200704700BFE2
:4001C000E4F5FF1F10B50024074AE3B292F84010994207D952F82330044A013413600BB19847F1E710BD00BFE4F5FF1F28F6FF1F2DE9F04F06460F46154685B001242046CE
:400200000FF050F98046894642464B46002055490DF02AFF0FF056FC39460246002330460FF070FC9F4208BF964204F1FF3A4FF000004C4942464B464BD00DF015FFCDE94B
:40024000000150460FF03EF98046894642464B46002044490DF008FF42464B4682468B46002040490DF000FF05EB040C80468946DDE90001CDF80CC00FF024FC3946024628
:40028000002330460FF03EFC59465046CDE900230FF018FC39460246002330460FF032FCDDE900AB4946BAEB020A40466BEB030B0FF008FC59460246002350460FF022FC63
:4002C000DDF80CC040F0300001340CF8010CE4B295E70DF0C9FECDE9000150460FF0F2F88046894642464B4600201E490DF0BCFE42464B4682468B4600201A490DF0B4FEDB
:4003000005EB040C80468946DDE90001CDF80CC00FF0D8FB39460246002330460FF0F2FB5946504614461D460FF0CCFB39460246002330460FF0E6FB4946A41A404665EB97
:4003400003050FF0BFFB29460246002320460FF0D9FBDDF80CC040F030000CF8010C05B0BDE8F08F00002440F0B50025ECB24B1E9C420FDA431813F8016C8B1EDBB25AB2AD
:40038000A24204DB875C02445770013BF6E706550135EBE7F0BD2DE9F84F002305460C461E465FFA83FBA34503F1010A22D258460FF078F80DF000FE8046304689460FF01C
:4003C00071F8064615F80B000F4600F00F000FF079F802460B46404649460FF0D9F80B460246394630460EF021FF0FF06BFB53460646D6E73046BDE8F88F4840082310F0E6
:40040000010F03F1FF334FEA500014BF80F08C00C0B213F0FF03F2D17047013938B5451E44180020A54204D015F8011FFFF7E5FFF8E738BD00220E494FF4CC7303FB021393
:400440009878072808D09878062805D09878082802D09B78052B07D14FF4CC7303FB02110B8901339BB20B8101322E2AE3D170473CF6FF1FD0F89031002201215A70D970CB
:400480009970DA8070470000F8B50FF053FE00234FF4CC7000FB03F50D4F7C19E278012A11D1002602232670A680E3700DF07AFDE0802046268131464FF4C0720C300FF0D6
:4004C00030FE2046F8BD01332E2BE1D10020F8BD3CF6FF1F10B504460FF02CFE002307494FF4CC7202FB03125278A24204D001332E2BF4D1002010BD012010BD3CF6FF1F12
:4005000070B504460FF016FE0021164B4FF4CC7000FB01304278A2421A4621D001312E29F3D100234FF4CC755D435419E178012912D1002602232670E3700DF033FDE080F5
:40054000084826812844A68031464FF4C0720C300FF0E7FD204670BD01332E2BE2D1002070BD00BF3CF6FF1F70B50F4D002406462C606C60AC60EC600FF0DCFD23460B4982
:400580004FF4CC7202FB04125178B14202BF591C45F82320CBB22D2C03D0032B04F10104EDD9014870BD00BF2CF6FF1F3CF6FF1F002301224370C2708270C38070470000C2
:4005C000002209494FF4CC7303FB02135978814206D1002201215A70D9709970DA80704701322E2AEDD170473CF6FF1F007BFFF7E7BF000000232C225A43064988188A5CCC
:40060000012A02D10323037070470133102BF2D1002070478C3F002038B500254FF4CC736B431D480121C21800240C3354701844D1700135917021464FF4C0720FF071FD91
:400640002E2DEBD1154D2C236343154A0121D1542846002108220FF064FD013405F10B00002108220FF05DFD102C05F12C05EAD1FFF7C0FF58B1042343700A4BC36005231D
:400680008370094B03610623C370084B43610848BDE83840FFF788BD3CF6FF1F8D3F00208C3F002035040000ED05000075040000B90700002DE9F041804600240C4B04F18C
:4006C000080604F12805E7181E441D4417F8013F2BB92C34B4F5307FF0D1BDE8F08156F8043F002BF5D040469847AE42EED1F0E78C3F002070B500232C245C4300220C4941
:4007000015190D446D787DB14678B54209D10B2404FB032301EB8303DB6843B1BDE8704018470132082AEAD10133102BE4D170BD8C3F002070B5054600242C2161430023E3
:400740000C4A58181044407878B16E78B04209D10B2101FB043302EB8302D3682BB12846984702E00133082BEAD10134102CE4D170BD00BF8C3F00202DE9F0418046002465
:400780000C4B04F1080604F12805E7181E441D4417F8013F2BB92C34B4F5307FF0D1BDE8F08156F8043F0BB140469847AE42EFD1F1E700BF8C3F00202DE9F84F854F002400
:4007C0003D464FF4CC7303FB0453DA78032A40F0F8809B78023B062B00F2F380DFE803F00408161A467CB1003846FFF763FF02E03846FFF77FFF4FF4CC7303FB0453002286
:4008000001215A70D9709970DA80DAE03846FFF791FFF0E70DF0C6FB4FF4CC7606FB045633894FF47A719BB201FB0300F288B6F804A092B2801A0EF045FE0022664B0EF0FB
:40084000D1FF1FFA8AFA8046504689460EF03AFE02460B46404649460FF02AF9002800F0B0803846FFF766FF0023A5E00DF09AFB4FF4CC7A0AFB04FA05EB0A0633894FF4F4
:400880007A719BB201FB0300F28892B2801A0EF019FE0022504B0EF0A5FF80467089894680B20EF00FFE02460B46404649460FF0FFF8002800F08580B08880B20EF002FE41
:4008C00002460B46404649460FF0F2F8002878D03846FFF70FFF66E00DF064FB4FF4CC7A0AFB04FA05EB0A0633894FF47A719BB201FB0300F28892B2801A0EF0E3FD0022B3
:40090000354B0EF06FFF80467089894680B20EF0D9FD02460B46404649460FF0C9F800284FD0B08880B20EF0CDFD02460B46404649460FF0BDF8002843D03846FFF71CFF24
:4009400031E00DF02FFB4FF4CC7A0AFB04FA05EB0A0633894FF47A719BB201FB0300F28892B2801A0EF0AEFD00221B4B0EF03AFF80467089894680B20EF0A4FD02460B46C5
:40098000404649460FF094F8D8B1B08880B20EF099FD02460B46404649460FF089F880B13846FFF7C7FE0DF0FDFA0023F0803381B38015F80A2022B101227370F270B27076
:4009C000F38001342E2C07F5CC777FF4FAAEBDE8F88F00BF3CF6FF1F00408F40004870474E4200200248002142220FF09ABB00BF4C420020014B01221A707047B4E0FF1FB0
:400A0000014B00221A707047B4E0FF1F38B50546124C0DF0CBF92B0A54200021237065700DF0F6F8C0B920780DF070F960780DF06DF9542001210DF023F918B1BDE838409A
:400A40000DF04CB9651C413401200DF085F905F8010FA542F8D1F1E738BD00BF4C420020F8B5064600200DF0D9F9370A0B24104D0DF09CF9542000212F706E700DF0C8F8D5
:400A800060B90446285D01340DF040F9422CF9D10DF024F905200BF08FFF03E0013C14F0FF04E4D10120BDE8F8400DF0B7B900BF4C420020004870478E42002002480021D5
:400AC00010220FF02EBB00BF8E42002010B50DF06DF9682000210DF09BF818BB1A4C0DF015F9207800F07F000DF010F9607800F07F000DF00BF9A07800F03F000DF006F9F0
:400B0000E07800F007000DF001F9207900F03F000DF0FCF8607900F01F000DF0F7F8A0790DF0F4F80DF0DAF8682000210DF070F848B90E200DF0EAF804200DF0E7F8BDE850
:400B400010400DF0CBB810BD8E42002038B50DF02DF9682000210DF05BF808B90DF0D6F80DF0BCF80DF022F9682001210DF050F818B1BDE838400DF0B1B80446062C074D7F
:400B800004D001200DF0E8F8285503E000200DF0E3F8A8710134072CF0D1EAE78E42002008B5682000210DF033F848B90E200DF0ADF804200DF0AAF8BDE808400DF08EB8B6
:400BC00008BD08B50BF00AFD0BF09CFF0CF0B6FA0CF0B0FC0CF0AEF80CF0F0FE00F036F8FFF71AFD00F072F8FFF77AFAFFF7DAFA07F06AFB03F0A2F805F058F901F042F8E8
:400C0000BDE8084005F0BAB908B50DF0C5F90420FFF776FC20B10423437003238370C370024A53680133536008BD00BF7473002008B50DF007F90720FFF762FC20B10723BB
:400C4000437003238370C37008BD000008B50DF095F905480CF028FE0DF02CF9BDE8084002480DF035B900BF090C0000310C0000F8B51746044646180025B44211D00DF0F9
:400C800095F8072000210CF0C3FF054638B938460DF03CF820780DF039F80DF01FF80134EBE72846F8BD0000024B1B780BB10BF0DFBE7047B5E0FF1F034B0122032000215F
:400CC0001A700BF0B5BE00BFB5E0FF1F08B5FFF791FC18B129234370034BC3600348BDE80840FFF761BA00BFB90C0000A90C000070B50F4C0646E3880D469BB27BB1E38821
:400D00009BB2994212D32A4631460A480FF0FEF9094B01200222E58020711A6070BDA368206831462A4698470028ECD1002070BDA0420020AC42002080E100E038B504462E
:400D4000A0B105200BF038FE002362885D1C92B2DBB293420AD2D4F8082123441879926B904702200BF028FE2B46EEE738BD0000F8B505462E2003F0D3FF2844017B334B14
:400D80001A78FF2A09D0012A05D15A788A4202D15C681CB9F8BD0833F2E7F8BD05F10C014FF4C07204F120000FF0B0F90B2003F0B7FF204490F820300420A3F13902534249
:400DC0005341E37303F0ACFF2844037B0D2B16D1052003F0A5FF2844057B4A2005F0DCFB0A23A371E061E571072003F099FF204490F8203003F00F0384F8723907E00E2B72
:400E000005D14A2005F0C8FB0B23E061A371E56900230435A37215D1F8BD0D4FD7F8F03738469847064660B1002383614561C461D4F8883920469847D7F8F437384631463E
:400E4000984734352B68002BE7D1F8BD0483FF1F646B0020F8B505462E2003F061FF2844017B334B1A78FF2A09D0022A05D15A788A4202D15C681CB9F8BD0833F2E7F8BD4E
:400E800005F10C014FF4C07204F120000FF03EF90B2003F045FF204490F820300420A3F1390253425341E37303F03AFF2844037B0D2B16D1052003F033FF2844057B4A208A
:400EC00005F06AFB0A23A371E061E571072003F027FF204490F8203003F00F0384F8723907E00E2B05D14A2005F056FB0B23E061A371E56900230435A37215D1F8BD0D4F39
:400F0000D7F8F03738469847064660B1002383614561C461D4F8883920469847D7F8F43738463146984734352B68002BE7D1F8BD0483FF1F646B0020F8B5D0F890614A2097
:400F400005F02AFB041DF06116D1F8BD0C4FD7F8F03738469847054668B10023037083614461C661D6F8883930469847D7F8F43738462946984734342368002BE6D1F8BDBD
:400F8000646B0020F8B5D0F89061442005F004FB041DF06116D1F8BD0C4FD7F8F03738469847054668B10023037083614461C661D6F8883930469847D7F8F4373846294653
:400FC000984734342368002BE6D1F8BD646B0020F8B5D0F89061007B05F0DEFA041DF06116D1F8BD0C4FD7F8F03738469847054668B10023037083614461C661D6F88839F6
:4010000030469847D7F8F43738462946984734342368002BE6D1F8BD646B0020F8B5D0F890614E2005F0B8FA041DF06116D1F8BD0C4FD7F8F03738469847054668B100235E
:40104000037083614461C661D6F8883930469847D7F8F43738462946984734342368002BE6D1F8BD646B0020F8B5837804460B2B02D083780A2B31D1237A7BB34B2005F0D3
:401080008BFA051DE06125D11320FFF7FDF91323437003238370227802730122A0F88C21C37000232372F8BD0D4FD7F8F03738469847064668B10023037083614561C461C1
:4010C000D4F8883920469847D7F8F43738463146984734352B68002BE6D1D5E7F8BD00BF646B0020F8B5837804460B2B02D083780A2B20D14C2005F04FFA051DE06116D144
:40110000F8BD104FD7F8F03738469847064668B10023037083614561C461D4F8883920469847D7F8F43738463146984734352B68002BE6D1F8BD8378092B04BF01230372E0
:40114000F8BD00BF646B0020F8B583780546062B02D08378072B21D16B7AFBB1472005F01BFA041DE86116D1F8BD0D4FD7F8F03738469847064668B10023037083614461BC
:40118000C561D5F8883928469847D7F8F43738463146984734342368002BE6D1F8BD00BF646B00202DE9F04780462D4B99780023DAB28A4225D22B4D4FF4196000FB035692
:4011C000327B1F46D2B2012A03F10103F0D18B42B8BF00FB03534FF4196404FB07544FF0020E86F80CE0B8BF1A734FF00103A8BF2A734920637105F0CFF9E061041D23D172
:4012000025E0BDE8F087DFF860A0DAF8F037504698478146B8B10023037083614FF4196303FB07534461C661D3F8883930469847D8F894315046C9F82030C9F82480DAF867
:40124000F4374946984734342368002BDBD13046FFF70AFF3046BDE8F047FFF775BF00BF506B002010450020646B00202DE9F74F2B4E8246B37801960BB9012373704FF0B3
:4012800000084546019B5FFA88FB9B785B453CD94FF4196404FB0BF4224F04EB07094846FFF720FF6DBB04F120000AF10C014FF4C07238440EF02AFF512005F06DF9041D40
:4012C000C9F81C001DD02368DBB1174ED6F8F02730469047054690B10022027082614FF4196202FB0B724461C0F81C90D2F8882948469047D6F8F427304629469047343445
:40130000E1E708F101080125BCE7084B1B680BB15046984701238AF8003003B0BDE8F08F506B002010450020646B0020B8E0FF1F2DE9F74F4FF00009019033495FFA89F5E9
:401340008B78AB4259D9314E4FF4196303FB056200921A46032D0FD8DFE805F00205080B91F803B00AE091F804B007E091F805B004E091F806B001E04FF0000B02FB05628F
:401380000027D770FAB25A4534D24FF4196808FB05F808F1200000214FF4C07230440EF0C0FE462005F0F8F8B044041DC8F81C001ED02268E2B1DFF858A0DAF8F027504636
:4013C0009047804690B10022027082614FF4196202FB0562009B4461C361D2F8882918469047DAF8F4275046414690473434E0E70137C7E709F101099FE7019A01231370A0
:4014000003B0BDE8F08F00BF506B002010450020646B00202DE9F843FFF7E4FA4FF40070FFF7F4FAFFF7DAFA002404704FF40070FFF716FBFFF7D6FA4FF41070FFF7E6FAA0
:40144000FFF7CCFA04704FF41070FFF709FBFFF7C9FA4FF42070FFF7D9FAFFF7BFFA04704FF42070FFF7FCFAFFF7BCFA4FF43070FFF7CCFAFFF7B2FA04704FF43070FFF70E
:40148000EFFA1D4B21464FF4B4721C489C700EF048FE4D2005F080F8194E051DF06126D1BDE8F883174FD7F8F037384698470446E0B14FF000084561C0F81880C6614FF055
:4014C000010980F80090D6F888390F489847E369384683F83099E369214683F83189E36993F830291A70D7F8F437984734352B68002BD7D1BDE8F883506B0020304500202D
:4015000010450020646B00201045002038B5FFF769FA4FF4E070FFF779FAFFF75FFA4E4C437AA374FFF75AFA4C4B827A1A71FFF755FAC37A1BB1FFF751FAC37A00E0162386
:40154000474D2B70FFF74AFA037B1BB1FFF746FA037B00E018236B70FFF744FA4FF4A070FFF754FAFFF73AFA4578FFF737FA03782D021D433B4B1D80FFF734FA4FF4A07091
:40158000FFF744FAFFF72AFA1022002102300EF0C8FDFFF723FA00258570FFF71FFAC570FFF71CFA05230371FFF718FA45714FF4A070FFF755FAFFF711FA08210230FEF7D5
:4015C000EAFEA081FFF70EFA4FF4C070FFF71EFAFFF704FA0821FEF7DEFEE081FFF702FA4FF40070FFF712FAFFF7F8F943791E4CB3FA83F35B096373FFF7F4F94FF410705D
:40160000FFF704FAFFF7EAF94379B3FA83F35B0984F89D39FFF7E6F94FF42070FFF7F6F9FFF7DCF9437941F22D32B3FA83F35B09A354FFF7D7F94FF43070FFF7E7F9FFF7AF
:40164000CDF9437941F6BD42B3FA83F35B09A354BDE83840FFF7A4BA506B002068730020094500201AE0FF1F10450020194B9B78022B02D0042B0CD021E0174B1A788242B8
:401680001FD093F8903983420CBF4FF4886000207047114B1A78824213D093F89029824212D003F599521278824210D041F6B0429B5C83420CBF4FF49860002070470020E3
:4016C00070474FF4806070474FF4886070474FF490607047506B00201045002070B50B4B9E780023DAB2B2420ED21A464FF41965013305FB03F1064CA1F51961095D814255
:40170000F0D105FB024070BD002070BD506B0020104500202DE9F8430446007BFFF7DEFF064618B901232370BDE8F883637BC370FFF760F9FFF756F93078FFF797FF0746D9
:40174000FFF764F9F378032B00F2A280DFE803F002284F76624B04F10E05DA79032A1CD11B7A022B19D1217D2846FEF714FE0A23B0FBF3F00DF096FE0CF026FC80468946E0
:40178000227D002128460EF0CCFC494640460EF099F900212A46FEF72BFDFFF71FF973E04F4B04F10E05DA79032A1CD11B7A022B19D1217D2846FEF7EEFD0A23B0FBF3F01F
:4017C0000DF070FE0CF000FC80468946227D002128460EF0A6FC494640460EF073F900212A46FEF705FDFFF7F9F810304CE03C4B04F10E05DA79032A1CD11B7A022B19D121
:40180000217D2846FEF7C7FD0A23B0FBF3F00DF049FE0CF0D9FB80468946227D002128460EF07FFC494640460EF04CF900212A46FEF7DEFCFFF7D2F8203025E0284B04F1A3
:401840000E05DA79032A1CD11B7A022B19D1217D2846FEF7A0FD0A23B0FBF3F00DF022FE0CF0B2FB80468946227D002128460EF058FC494640460EF025F900212A46FEF751
:40188000B7FCFFF7ABF830302946227D0EF03EFC3846FFF7E5F8FFF7B3F8462004F07CFE051DF0613FF43EAF2B68002B3FF43AAFDFF83080D8F8F03740469847074668B1BA
:4018C0000023037083614561C661D6F8883930469847D8F8F4374046394698473435E3E7506B0020646B00202DE9F0418046007BFFF7F4FE064620B9012388F80030BDE8D3
:40190000F081482004F048FE041DF061F4D02368002BF1D00B4FD7F8F03738469847054668B10023037083614461C661D6F8883930469847D7F8F43738462946984734347E
:40194000E5E700BF646B002010B50E4C0E48238801332380D0F8F837984768B182695AB1138A1BB1438A01339BB2438253691BB1838901339BB283810CF06AFA0023608019
:40198000238010BDBCE0FF1F646B00202DE9F041334ED6F8F83730469847044600285CD04369002B59D02F4F002529464FF4007207F10C003D71FD800EF0B3FBE0692946FC
:4019C0004FF4B47200F5C4700EF0ABFB2946636903F11D0203F1210C12F801EFBEF1FF0F0ED009B912F8041CE0698578754502D1DB6A4BB909E062454FF00105ECD122E011
:401A00000DBBDB6A0BB1E06998476369E06993E8060092B138601A7E124D12B192B2EA8001E0DB68AB6088476369A361002363610CF00EFA2082BDE8F0818847236A1BB143
:401A4000606A984700E011B1D6F8FC3701E0D6F8EC370348BDE8F0411847BDE8F08100BF646B0020A04200202DE97043254DD5F8F837284698470446002841D08369002BE4
:401A80003ED01B8A002B3BD00CF0E2F9638A4FF47A719BB201FB0300228AA66992B2801A0DF010FD0022184B0DF09CFE8046308A89460DF007FD02460B46404649460DF045
:401AC000F7FFE8B1002363822382E38901339BB2E381B3680BB120469847E3899BB2142B04D9D5F8FC370748984703E0A36963610023A3610BF008FABDE870430BF0FCB85C
:401B0000BDE87083646B002000408F402DE9F041594E3379002B00F0AD80584FD7F8F837384698470446002800F099808369002B68D0002545820582F288C06992B200F512
:401B4000C47006F10C010EF0E1FAF288E369A846A3F8F0222A46A369591991F82600FF2829D0B8F1000F01D191F822805B6820469847E3699A78A369591991F8261091420B
:401B800013D122783AB91B6B0BB120469847236A0BB1606A9847237803F0FF0553BBD7F8FC37364898472C462CE00135042D4FF00102D0D101E0002A3BD0B8F1000F06D1CF
:401BC000A269537E83B123899BB2132B04D9D7F8FC372A48984742E02389626101339BB22381C4F818800DE063899BB213B90CF02FF96081A369214863610023A361D7F83E
:401C0000EC379847002529464FF400721C483571F5800EF086FAE06929464FF4B47200F5C4700EF07EFA0BF06FF9BDE8F0410BF063B85B6820469847237843B9A3691B6B1C
:401C40000BB120469847236A0BB1606A98472378002BBCD0A36963610023A361D2E7002421464FF4007206483471F4800EF059FAE369FFDEBDE8F081A0420020646B002047
:401C8000AC42002008B504F0F3FBFEF7B3FCF8B11E234370454BC36022238370444B03610723C370434B436108230371424B83610D234371414BC36109238371404B036215
:401CC0000A23C3713F4B43620B2303723E4B8362FEF790FCF8B10E2343703C4BC3600F2383703B4B03611023C3703A4B436112230371394B836113234371384BC361112317
:401D00008371374B03621423C371364B436215230372354B8362FEF7B7FB40B10E23437042F210738380052383700323C370FEF7ABFB40B10F23437043F6982383800523EB
:401D400083700323C370FEF79FFB40B12923437044F620638380052383700323C370FEF793FB50B10823437044F620638380FA234381062383700323C370FEF785FB40B186
:401D800014230022437082804381062383700323C3700CF05DF8154B58801548FEF704FABDE808401348FEF7FFB900BF710D0000550E000049190000A51100000D15000034
:401DC000390F0000D10F0000850F0000151400006D1200003113000015170000E9180000491100008D1900001D100000BCE0FF1F691A00000D1B0000F8B50546046B02F023
:401E0000ABFF354A4FF4196303FB002308335B790646174673BB314B1B78012B01D0002657E0002CFBD02E2002F07AFF2044037B002BF4D0042002F073FF2044037B0E2B26
:401E400006D02B691B78042BE9D1EB780E2BE6D1FF236B71AB72042002F062FF0026204406732E2002F05CFF8C2320440673AB7001262EE0002CD2D02E2002F051FF20445B
:401E8000037B002BCBD0042002F04AFF2044037B452B00D033B92B691B78042BBFD1EB78452BBCD04FF4196303FB0676FF230836767904206B71AB7202F032FF00272044D9
:401EC00007732E2002F02CFF2B2320440773F6B2AB703046F8BD00BF104500206873002013B5D0F890411CB31323A37250F80C3FC4F81D304368C4F8213008232377FEF72B
:401F0000C3FA0346A0B16A460A490868496803C222780AB91D2200E021225A706A46032403CA08229C70D860A3F88C211961DC7002B010BD480A010070B5042388B08DF8DD
:401F400018304FF6FF730578ADF81C300026C523ADF81E608DF81A30002D6ED103691B783E2B40F03881A320FEF798F80446002861D0FEF73FFDFEF7A1FDFEF7E7FD049516
:401F80000595FEF797FD83785A0605D5FEF792FD8378C3F3001304E0FEF78CFD8378C3F3011343F030038DF81030FEF783FD83783A2503F00F0343F030038DF811308DF8AA
:401FC0001250FEF777FD4378C3F3021343F030038DF81330FEF76EFD43788DF8155003F00F0343F030038DF81430FEF763FD0378C3F3021343F030038DF81630FEF75AFD11
:40200000037803F00F0343F030038DF81730FEF7F7FC6B46082243F8042B08AA12E90300221D83E8030004ABC920BA2101F0E4FEC22360802370A32070E0012D40F0CB800A
:4020400003691B783E2B40F0C680A420FEF726F80446002861D0FEF7CDFCFEF72FFDFEF775FD04960596FEF725FD83785B0605D5FEF720FD8378C3F3001304E0FEF71AFD7A
:402080008378C3F3011343F030038DF81030FEF711FD83783A2503F00F0343F030038DF811308DF81250FEF705FD4378C3F3021343F030038DF81330FEF7FCFC43788DF8E3
:4020C000155003F00F0343F030038DF81430FEF7F1FC0378C3F3021343F030038DF81630FEF7E8FC037803F00F0343F030038DF81730FEF785FC6B46082243F8042B08AAF6
:4021000012E90300221D83E8030004ABC920BA2101F072FEC22360802370A420FDF7BEFF0446002857D0FEF765FCFEF7C7FCFEF70DFD002304930593FEF7BCFC03792F25DE
:40214000C3F3011343F030038DF81030FEF7B2FC03798DF8125003F00F0343F030038DF81130FEF7A7FC4379C3F3001343F030038DF81330FEF79EFC43798DF8155003F0C0
:402180000F0343F030038DF81430FEF793FC83791B0943F030038DF81630FEF78BFC837903F00F0343F030038DF81730FEF728FC6B46082243F8042B08AA12E90300221D0D
:4021C00083E8030004ABC9204FF4957101F014FEC2236080237008B070BD0000444B73B51B7803F0FF02002B73D1B0F88C11414CC9B20C30627301F0C8FEE070204601F0E7
:402200003DFEA3782646FF2B05D16379FF2B02D1A37AFF2B56D0B36B0BB136489847F278354B13F8015FFF2D02D09542F9D106E0304C204601F04AFE0346002850D12D4863
:4022400002F0B4FC2B4801F08DFE034608B129489847284801F0D1FE264801F070FE034608B124489847AA238DF8003070238DF8013000238DF802303369A3201B788DF815
:402280000330CC238DF8043033238DF80530C3238DF806303C238DF80730FDF7FFFE044648B10823438042886946043092B20DF02DFFC22323700F4801F02EFE034640B115
:4022C0000C4805E0204601F014FE034608B1204698470BF01DF802B0BDE870400AF00ABF204698470028AAD1A5706571A572F0E7506B00202C83FF1F6783FF1F4B4B73B5EC
:402300001B7803F0FF02002B7DD1B0F88C11484CC9B20C3084F84D2001F037FE84F8430004F1400001F0AAFD94F842302646FF2B07D194F84530FF2B03D194F84A30FF2BD7
:4023400058D0B36F0BB13B48984796F843203A4B13F8015FFF2D02D09542F9D107E0344C04F1400001F0B2FD0346002852D1314802F01CFC2F4801F0F5FD034608B12D4851
:4023800098472C4801F039FE2A4801F0D8FD034608B128489847AA238DF8003070238DF8013000238DF80230336DA4201B788DF80330CC238DF8043033238DF80530C32327
:4023C0008DF806303C238DF80730FDF767FE044648B10823438042886946043092B20DF095FEC2232370134801F096FD034650B1104807E004F1400001F07BFD034610B174
:4024000004F1400098470BF07FF902B0BDE870400BF06EB804F1400098470028A7D184F8425084F8455084F84A50ECE7506B00202C83FF1F6C83FF1F6783FF1FF0B50323A9
:402440008BB08DF810304FF6FF730026ADF8143085238DF812300546ADF81660FEF7CAFAFEF7C0FA4FF4E070FEF7D0FAFEF7B6FA047AFEF7C5FA2F783FB9A320FDF70EFECE
:40248000054650B306A8394606E0A420FDF706FE054610B3314606A810220DF042FE012C0CBF0F490F49224606A80DF07DFE06A80DF0B4FE6B4680B243F8040B04AA92E875
:4024C00003002A1D83E8030006ABF0204FF4957101F092FCC22368802B700BB0F0BD00BF980A0100A30A010010B5032386B08DF810304FF6FF73ADF814300023ADF8163027
:40250000C5238DF8123003780BB9A32000E0A420FDF7C4FD044688B16B461D2243F8042B06AA12E90300221D83E80300044B6020EA2101F061FCC2236080237006B010BD56
:40254000AF0A010010B5032386B08DF810304FF6FF73ADF814300023ADF81630C5238DF8123003780BB9A32000E0A420FDF796FD044688B16B46242243F8042B06AA12E9A2
:402580000300221D83E80300044B2020EA2101F033FCC2236080237006B010BDCD0A010038B5037804464BBB056B2E2002F0B8FB2844037B562B12D1FEF71CFAFEF712FA89
:4025C0004FF40070FEF722FAFEF708FA4579FEF717FA0DB9A52300E0A623237138BD2E20256B02F09DFB2844037B572B26D1FEF701FAFEF7F7F94FF42070E3E7012B1DD145
:40260000056B2E2002F08CFB2844037B562B06D1FEF7F0F9FEF7E6F94FF43070D2E72E20256B02F07DFB2844037B572B06D1FEF7E1F9FEF7D7F94FF41070C3E738BD000052
:402640002DE9F047804602F087FB4FF4196545432D4FEC19D4F80C3920469847D4F82039204698470646D4F8103920469847002E47D0E3237370EB5D2420B370D8F8305076
:4026800002F04EFB284400F10C05242002F056FB29460246F01C0DF039FD242002F04EFB0130C5B22520D8F8308002F039FB404400F10C08252002F041FB771902370246D5
:4026C000414638460DF022FD38460DF0A7FDC1B23846FDF749FE252002F030FB2844C0B2A6F80201D4F80C3920469847D4F81839204631469847D4F810392046BDE8F04707
:402700001847BDE8F08700BF1045002070B5032386B08DF810304FF6FF730678ADF814300025C523ADF816508DF8123036B9A320FDF7B4FC0446F8B1468005E0A420FDF7FB
:40274000ADFC0446C0B145806B466288262192B243F8041B224406A911E90300043283E80300064B1A20BA2101F046FB6388184480B2C2236080237006B070BD670B01003B
:402780002DE9F047032388B08DF818300023ADF81C304FF6FF73ADF81E3085238DF81A30044602F0D9FA03281FD8DFE800F002091017854B4FF44076DF784FF4007817E080
:4027C000814B4FF450761F794FF4107810E07E4B4FF460765F794FF4207809E07A4B4FF470769F794FF4307802E00026B04637462478764D002C70D1FEF7FCF8FEF7F2F833
:402800004046FEF703F9FEF7E9F8D0F801000590FEF7F6F8FEF7EEF8FEF7E4F83046FEF7F5F82E46E3B2BB4280F0C88005ABE35C013B032B4ED8DFE803F002101E2CA320F0
:40284000FDF72CFC8046002844D035F824A0B6F80290FEF7C3F8034628E0A320FDF71EFC8046B8B335F824A0B6F80290FEF7B6F800F110031AE0A320FDF710FC804648B3B0
:4028800035F824A0B6F80290FEF7A8F800F120030CE0A320FDF702FC8046D8B135F824A0B6F80290FEF79AF800F130036A46102142F8041B08A911E9030082E80300504687
:4028C000494608F1040201F097FAC223A8F8020088F8003001340436A4E7FEF78BF8FEF781F84046FEF792F8FEF778F8D0F8010000240590FEF784F8FEF77CF8FEF772F88C
:402900003046FEF783F82E46E3B2BB4256D205ABE35C013B032B4ED8DFE803F002101E2CA420FDF7BBFB8046002844D035F824A0B6F80290FEF752F8034628E0A420FDF705
:40294000ADFB8046B8B335F824A0B6F80290FEF745F800F110031AE0A420FDF79FFB804648B335F824A0B6F80290FEF737F800F120030CE0A420FDF791FB8046D8B135F8F5
:4029800024A0B6F80290FEF729F800F130036A46102142F8041B08A911E9030082E803005046494608F1040201F026FAC223A8F8020088F8003001340436A5E708B0BDE8C0
:4029C000F047FEF71DB800BF506B0020A883FF1F70B5032386B08DF810304FF6FF730678ADF814300025C523ADF816508DF8123036B9A320FDF752FB0446F8B1468005E01F
:402A0000A420FDF74BFB0446C0B145806B466288262192B243F8041B224406A911E90300043283E80300064B1A20BA2101F0E4F96388184480B2C2236080237006B070BDFA
:402A40008E0B010070B5054602F086F9154A4FF4196303FB002090F8703903B3002680F870690B202C6B02F05BF9204400F10C040B2002F063F93146024620460DF051FBED
:402A80000B202C6B02F04CF939232044037305202C6B02F045F944232044037370BD0823837370BD1045002070B5064638B3FDF7A1FFFDF797FF4FF4A070FDF7A7FFFDF76F
:402AC0008DFF4478FDF78AFF037806F11D0524021C43FDF795FF2846002110220DF021FB204600212A46FDF783FB28460DF096FBC1B231772846BDE87040FDF735BC70BD41
:402B0000F0B5044685B018B303699A8DDB8D0283438303780BB9A32000E0A420FDF7BEFA0546A8B16B462269278B92F83010668B43F8041B52F8320F51682A1D03C304F121
:402B40001D033846314601F057F9C22368802B7005B0F0BD2DE9F843064608B9BDE8F88300231D46307FDCB2844203F101071DD2001B01380CF0A6FC02460B460020184937
:402B80000BF072FA33198046587F894600F00F000CF098FC0B460246494640460CF0F8FC0CF090FF284485B23B46DBE7FDF722FFFDF718FF4FF4A070FDF728FFFDF70EFFC9
:402BC0000570FDF70BFF2B0A43704FF4A070FDF747FF044B1D80BDE8F843FDF711BF00BF000024401AE0FF1F70B5054610B3FDF701FFFDF7F7FE4FF4E070FDF707FFFDF791
:402C0000EDFE05F11D04467AFDF7FAFE2046002110220DF086FA304600212246FDF7E8FA20460DF0FBFAC1B229772046BDE87040FDF79ABB70BDF0B5044685B018B30369E4
:402C40009A8DDB8D0283438303780BB9A32000E0A420FDF723FA0546A8B16B462269278B92F83010668B43F8041B52F8320F51682A1D03C304F11D033846314601F0BCF81C
:402C8000C22368802B7005B0F0BD00002DE9F843064608B9BDE8F88300231D46307FDCB2844203F101071DD2001B01380CF00AFC02460B46002016490BF0D6F9331980460E
:402CC000587F894600F00F000CF0FCFB0B460246494640460CF05CFC0CF0F4FE2844C5B23B46DBE7FDF786FEFDF77CFE4FF4E070FDF78CFEFDF772FE45724FF4E070FDF78D
:402D0000AFFE044B9D74BDE8F843FDF779BE00BF00002440506B002010B5037804463BB9FDF7B2FBD0B160632523C0F8904108E0012B13D1FDF7A8FB80B160632623C0F8C5
:402D400090414370322343814FF47A738380044BC0F89431062383700323C37010BD00BFE11E0000436B1BB101221A70002343637047000010B5037804465BB91F20FDF73F
:402D8000BFFBE0B10E4B6063C0F89431C0F890411F230CE0012B12D12320FDF7B1FB70B1074B6063C0F89431C0F8904123234370062383704FF47A7343810323C37010BD1B
:402DC000391F0000037823B9436B3BB101221A707047012B02D1426B02B113707047D0F8943113B1D0F890011847704738B5057804465DB92020FDF783FBE0B10E4B6063A4
:402E000083F89250C0F8904120230DE0012D12D12420FDF775FB70B1074B002283F8992060632423C0F89041437006238370642343810323C37038BD2C83FF1F037823B9DB
:402E4000436B3BB101221A707047012B02D1426B02B113707047000070B5022388B08DF818304FF6FF730578ADF81C300026C523ADF81E608DF81A30002D62D103691B78E8
:402E8000012B40F02181A320FDF708F90446002855D0FDF7AFFDFDF711FEFDF757FE04950595FDF707FE83785A0605D5FDF702FE8378C3F3001304E0FDF7FCFD8378C3F33E
:402EC000011343F030038DF81030FDF7F3FD837803F00F0343F030038DF811307B4B93F891300BB13A2300E020238DF81230FDF7E1FD4378C3F3021343F030038DF81330E8
:402F0000FDF7D8FD437803F00F0343F030038DF81430FDF775FD6B46052243F8042B08AA12E9030083E8030010200DEB00034FF4DD71221D00F060FFC22360802370A320AE
:402F400064E0012D40F0C08003691B78012B40F0BB80A420FDF7A2F80446002855D0FDF749FDFDF7ABFDFDF7F1FD04960596FDF7A1FD83785B0605D5FDF79CFD8378C3F3FD
:402F8000001304E0FDF796FD8378C3F3011343F030038DF81030FDF78DFD837803F00F0343F030038DF81130484B93F898300BB13A2300E020238DF81230FDF77BFD4378E9
:402FC000C3F3021343F030038DF81330FDF772FD437803F00F0343F030038DF81430FDF70FFD6B46052243F8042B08AA12E9030083E8030010200DEB00034FF4DD71221D2B
:4030000000F0FAFEC22360802370A420FDF746F80446002858D0FDF7EDFCFDF74FFDFDF795FD002304930593FDF744FD03792F25C3F3011343F030038DF81030FDF73AFDA6
:4030400003798DF8125003F00F0343F030038DF81130FDF72FFD4379C3F3001343F030038DF81330FDF726FD43798DF8155003F00F0343F030038DF81430FDF71BFD8379F0
:403080001B0943F030038DF81630FDF713FD837903F00F0343F030038DF81730FDF7B0FC6B46082243F8042B08AA12E90300221D83E8030004AB4FF404704FF4DD7100F05B
:4030C0009BFEC2236080237008B070BD2C83FF1FF0B5042395B08DF820304FF6FF73D0F89041ADF8243025780026C523ADF826608DF82230002D40F0C48123691B78012B64
:4031000040F0B083A320FCF7C9FF064610B3B94B93F890104A1CD2B2032A83F89020194488BF83F890506B4691F8931001228DF8141043F8042B08AA92E80300321D83E833
:40314000030005AB4FF41470122100F055FEC223708033700023204606A9ADF8183001F007F9204607A901F087F99DF81930A3201BBBFCF793FF0246002833D09DF81D30F9
:40318000061D63B19C4D0AAB2868696803C329890AAD198003CD506071601B880BE0974B0AAD186859681B8903C52B800AAB03CB506071602B88338110E0FCF76FFF02463D
:4031C00080B18F4D0AAB2868696803C329890AAD198003CD506091601B8893810A235380C2231370A320FCF759FF064620B30AAD2A46844B03F1080E2F4618685968083336
:4032000003C773453D46F7D118689B883860BB8013460CAF321D1D4603CDBD42106051602B4602F10802F6D128681060AB8893800E237380C22333709DF81830A3201BBBF8
:40324000FCF72CFF0246002833D09DF81C30061D63B1694D0AAB2868696803C329890AAD198003CD506071601B880BE0634B0AAD186859681B8903C52B800AAB03CB506042
:4032800071602B88338110E0FCF708FF024680B15B4D0AAB2868696803C329890AAD198003CD506091601B8893810A235380C2231370A320FCF7F2FE064620B30AAD2A4671
:4032C000514B03F1080E2F4618685968083303C773453D46F7D118689B883860BB8013460CAF321D1D4603CDBD42106051602B4602F10802F6D128681060AB8893800E2392
:403300007380C22333703B4D642295F892305A43B2F5FA6F0CDD2046FFF79EFD002385F8923095F8913083F0010385F8913002E0013385F8923001238DF820306B7BB3BB21
:40334000324B1878FDF7C6F80646A32096B1FCF7A5FE044658B36B46202243F8042B6A4492E80300221D83E80300B8204FF4E871274B17E0FCF792FE0446C0B12025314641
:403380002A460AA80CF0CDFE6B460DEB050243F8045B92E80300221D83E80300B8204FF4E8710AAB00F028FDC22360802370194D2B78ABB3A320FCF771FE0446002800F02C
:4033C00051826B78021D53B11146134B03F1240053F8045B834241F8045BF9D1DEE111460E4B03F1200053F8045B834241F8045BF9D1EAE12C83FF1F680A0100720A01007A
:40340000500A01007C0A01008A0A010009450020B50B0100506B0020D60B0100FB0B0100B94B1A781E46002A40F01C82A320FCF735FE044610B3202128220AA80CF071FE92
:40344000AB780AA8042B0CBFB049B1490CF0DEFE0AA80CF0E3FE6B4680B243F8040B08AA92E80300221D83E803000AABA0204FF4E87100F0C1FCC22360802370012333703D
:40348000F0E1012D40F0EE8123691B78012B40F0E981A420FCF702FE054610B39D4B93F897104A1CD2B2032A83F89720194488BF83F897606B4691F89A1001228DF814109B
:4034C00043F8042B08AA92E803002A1D83E8030005AB4FF41470122100F08EFCC22368802B700023204606A9ADF8183000F040FF204607A900F0C0FF9DF81930A4201BBB61
:40350000FCF7CCFD0246002833D09DF81D30061D63B1814D0AAB2868696803C329890AAD198003CD506071601B880BE07B4B0AAD186859681B8903C52B800AAB03CB5060B0
:4035400071602B88338110E0FCF7A8FD024680B1734D0AAB2868696803C329890AAD198003CD506091601B8893810A235380C2231370A420FCF792FD064620B30AAD2A4658
:40358000684B03F1080E2F4618685968083303C773453D46F7D118689B883860BB8013460CAF321D1D4603CDBD42106051602B4602F10802F6D128681060AB8893800E23B8
:4035C0007380C22333709DF81830A4201BBBFCF765FD0246002833D09DF81C30061D63B14D4D0AAB2868696803C329890AAD198003CD506071601B880BE0484B0AAD1868D8
:4036000059681B8903C52B800AAB03CB506071602B88338110E0FCF741FD024680B1404D0AAB2868696803C329890AAD198003CD506091601B8893810A235380C2231370B2
:40364000A420FCF72BFD064620B30AAD2A46364B03F1080E2F4618685968083303C773453D46F7D118689B883860BB8013460CAF321D1D4603CDBD42106051602B4602F14C
:403680000802F6D128681060AB8893800E237380C22333701F4D642295F899305A43B2F5FA6F0CDD2046FFF7D7FB002385F8993095F8983083F0010385F8983002E00133AB
:4036C00085F8993001238DF8203095F84D30002B4DD1164B5878FCF7FDFE0646A4204EB3FCF7DCFC0446002841D06B46202243F8042B6A4492E80300221D83E80300B820AD
:403700004FF4E8710A4B2DE0C0E0FF1F1F0C0100470C01002C83FF1F680A0100720A0100500A01007C0A01008A0A010009450020B50B0100FCF7B2FC0446C0B120253146D2
:403740002A460AA80CF0EDFC6B460DEB050243F8045B92E80300221D83E80300B8204FF4E8710AAB00F048FBC223608023703E4E3378002B3FD0A420FCF790FC04460028F4
:4037800070D07378021DB3B11146384B03F1240053F8045B834241F8045BF9D16B46242143F8041B08A903C983E80300B8204FF4E8712E4B19E011462D4B03F1200053F849
:4037C000045B834241F8045BF9D118889B7808808B706B46232143F8041B08A903C983E80300234BB8204FF4E87100F005FBC2236080237036E01F4B5A781D4692BBA420E3
:40380000FCF74CFC044658B3202128220AA80CF088FC0AA80CF002FD271D0AA9024638460CF074FCB3780AA8042B0CBF124913490CF0ECFC0AA80CF0F1FC6B4680B243F83A
:40384000040B08AA92E803003A4683E803000AABA0204FF4E87100F0CFFAC2236080237001236B7015B0F0BD506B0020D60B0100FB0B0100C0E0FF1F1F0C0100470C010087
:4038800010B5C378392B18D10C4C1623237018236370FDF7A7F84FF4E070FDF7B7F8FDF79DF82378C372FDF799F863780373BDE810404FF4E070FDF7D3B810BD094500204F
:4038C00010B5C3780E4C8C2B03D08D2B04D1162300E0182323706370FDF784F84FF4E070FDF794F8FDF77AF82378C372FDF776F863780373BDE810404FF4E070FDF7B0B84D
:40390000094500200139F0B5CEB200243246234655B2002D0FDD475D2C2F00D034B16C1E075D475500250555012401E00133DBB2013AD2B2ECE7164A002C527A08BF00233D
:403940009B1ADBB25AB2002A0EDD324651B2002904DD0024013A4454D2B2F7E7013BDAB2D3B2002AF1D111E083B10024E2B252B28A4204F1010405DA551C465D8654302207
:403980004255F3E7013313F0FF03EED1F0BD00BF506B00202DE9F74F824601F0DDF94FF4196545435E4C80462F19D7F80C3938469847D7F82039384698470646D7F8103911
:4039C00038469847A146002E00F0A680A22373702B5D0720B370DAF8304001F0A1F92044037B1220F370DAF8304001F099F9204400F10C04122001F0A1F9351D0246214699
:403A000028460CF083FB122001F098F901462846FCF7AAFC122001F091F90330C5B20E20DAF8304001F07CF9204400F10C040E2001F084F906EB050B0BF1020B02462146B5
:403A400058460CF063FB0E2001F078F901465846FCF78AFC0E2001F071F92844C4B20520DAF8305001F05CF92844057B3319102D06D0432D07D00F2D09D10134022204E053
:403A80000134012201E0013403229A70E4B2DAF830303219062002F1020B0192009301F03FF9009B0830184450F8043F019A102DC2F802304368CBF8043003D15846082126
:403AC000FFF720FF58460821FCF74EFC0620DAF8305001F025F90834284408220021E4B20C300CF01EFBA6F802414FF4196404FB0894002384F870393846D4F80C3998475A
:403B0000D4F818393846314698473846D4F8103903B0BDE8F04F184703B0BDE8F08F00BF104500202DE97343514C524B25691A78FF2A45D02978914240D19B88002B00F0D9
:403B4000898023890A2001339BB2238158430BF0B9FC8046A88889460BF0A4FC02460B4640464946424E0BF099FF002872D00023F370AB79B3720BE00133062B20D012F842
:403B8000010F8842F8D12B445B7E0022E2706371FCF77AFC034698B16A46374903240868496803C21D225A706A469C7003CA0822A3F88C21D8601961DC7001E04433B6E7A3
:403BC0002E4C2F4B25691A78FF2A4DD0297891423ED19B88002B42D023890A2001339BB2238158430BF06EFC8046A88889460BF059FC02460B4640464946204E0BF058FF0A
:403C000068B30023F370AB79B3720BE00133062B2AD012F8010F8842F8D12B445B7E0022E2706371FCF730FC0346E8B16A46124903240868496803C221225A706A469C7031
:403C400003CA0822A3F88C21D8601961DC700BE04433B8E7217905F1120200238FE7217905F112020023D4E702B0BDE8708300BF2C83FF1FDC90FF1F750C01006C83FF1F58
:403C8000D883FF1F7FB5AA232A4D8DF8003070238DF801302B6900261B78A3208DF80330CC238DF8043033238DF80530C3238DF806303C238DF802608DF80730FCF7EEF918
:403CC000044650B108232E63438042886946043092B20CF01BFAC2232370AA23164D8DF8083070238DF809302B6900261B78A4208DF80B30CC238DF80C3033238DF80D30A9
:403D0000C3238DF80E303C238DF80A608DF80F30FCF7C4F9044658B108232E63438042880DEB0301043092B20CF0F0F9C223237004B070BD2C83FF1F6C83FF1F08B5FCF740
:403D400059FC90B11D234370244B2322C36021238370234B427103612723C370214B43611F230371204B8361C361FCF743FC30B1202343701D4B2422C36082700361FFF74B
:403D800081FFFCF781FB38B127234370062383700A2343810323C3702020FCF7B1FB58B1134B5863C0F890312023437006238370642343810323C3702420FCF7A1FB58B1BC
:403DC0000C4B5863C0F890312423437006238370642343810323C37008BD00BFDD210000FD220000253B0000DF2D0000D13000002C83FF1F6C83FF1FF7B58646BDF82050F9
:403E0000BDF82860BDF82A70144692B31A4A6171106892880090ADF80420BDF8002084F803E022804FEA1E22A2700A0A22719DF824209DF8261002F00F0242F02002A27120
:403E4000022222723A0A6272320AE171E27219462A46A772267304F10D000CF057F905F10D03DDF802209BB205F11100E25080B200E0104603B0F0BD7D0C010070B542691C
:403E80001378FF2B21D0136823F07F4103691B6823F07F43994216D1C478911D002311F8015FA54203D113445B7B837070BD0E7B0579AE4203D113445B7E437170BD0133FA
:403EC000062BECD170BD4432DAE770BD43691A78FF2A0CD01A6822F07F410269126822F07F42914201D1986A70474433EFE70020704743691A78FF2A0CD01A6822F07F41DB
:403F00000269126822F07F42914201D1586A70474433EFE70020704743691A78FF2A0CD01A6822F07F410269126822F07F42914201D1186A70474433EFE70020704743698A
:403F40001A78FF2A0CD01A6822F07F410269126822F07F42914201D1D86B70474433EFE70020704743691A78FF2A0CD01A6822F07F410269126822F07F42914201D1186C63
:403F800070474433EFE700207047014411F8013C3C2B0ED111F8023CC32B0AD111F8033C332B06D111F8043CCC2B02D111F8050C70470020704730B582784369FF2A03D185
:403FC0004279FF2A08BF827A0169C4780D781978FF290FD08A420BD159788D4201D0FF2906D19878844206D0FF2804D0FF2902D04433ECE70023184630BDF8B50446FFF7F9
:40400000DAFF0025FF2304F11D071026294632462061A3706371A3722571E570258138460CF07FF809F0BEFF2577E080294638463246BDE8F8400CF074B8007F003018BF89
:404040000120704710B50446007FE0B1FCF7CAFC4FF4E070FCF7DAFCFCF7C0FC042200F10D0104F11D000CF0E1F858B994F821302C2B0BBF1E231D23E370E3700CBF2F2326
:404080002623A370012010BD10B5037F04468BB1FCF7A8FC4FF4E070FCF7B8FCFCF79EFCD4F81D30C0F80D30BDE810404FF4E070FCF7D6BC10BDF0B5037F85B00BB9184625
:4040C00053E06F466D46C3F11004E4B200F11D0600F12D02BE46306871680836AEE8030096427746F6D1DAB251B20F2907DC04A801440132002001F8100CD2B2F4E7013B4D
:40410000DBB25AB2002A0EDB04A904A821441144024412F8100C00F00F0001F8100C002102F8101CEBE72846102103F011FD28461021FCF719F910212846FCF72CF90446E2
:40414000FCF758FCFCF74EFC4FF4A070FCF75EFCFCF744FC10210230FCF71DF90546FCF74FFCAC4234BF0020012005B0F0BDF0B5037F85B00BB9184641E06F466D46C3F1B4
:404180001004E4B200F11D0600F12D02BE46306871680836AEE8030096427746F6D1DAB251B20F2907DC04A801440132002001F8100CD2B2F4E7013BDBB25AB2002A0EDB2F
:4041C00004A904A821441144024412F8100C00F00F0001F8100C002102F8101CEBE728461021FCF7C1F828461021FCF7D4F80F23B0FBF3F3C3EB0313C31A5842584105B01E
:40420000F0BD000010B5304B9B78042B59D103782BBBC278562A02D0572A0AD01BE02B4A91780629114602D09278072A10D1CB7A0CE041F22231254A505C0628104602D0C8
:40424000525C072A04D141F22B33C35C83F0010303F0010400E001241D4B18782BE0012B2FD1C278562A02D0572A0ED020E041F6B242164B995C0629194602D09B5C072B42
:4042800012D141F6BB43CB5C0BE0104B93F89229062A1A4603D093F89239072B04D192F89B3983F0010300E0002303F0010400E01C46074B5878FCF70DF980F00100204075
:4042C00010BD012010BD00BF506B0020104500200945002010B5234B9B78022B24D1007868B9214B9A78062A1A4602D09B78072B03D1D07A80F0010425E0044623E0012852
:404300002BD1194B93F89229062A1A4603D093F89239072B04D192F89B4984F0010400E00024124B587810E0012B16D10478B4B90D4B9A78062A1A4602D09B78072B02D12F
:40434000D47A84F00104094B1878FCF7C3F880F00100204000F0010010BD012010BD184610BD00BF506B002010450020094500203F4B9B78042B28D10378BBB93D4A90787C
:40438000062802D09078072802D1D37A83F001030B7041F22233D05C062803D03548C35C072B62D141F22B33D35C5BE0012B5ED141F6B2422F4B985C062802D09A5C072AE8
:4043C0002BD141F6BB429A5C24E0022B33D103789BB9284A9078062802D09078072802D1D37A83F001030B709378062B03D0214B9B78072B39D1D37A34E0012B37D11D4B09
:4044000093F89229062A03D093F89229072A04D193F89B2982F0010200E000220A7093F89229062A04D0134A92F89229072A1CD193F89B3916E0012B19D10278BAB90D4BED
:404440009878062802D09878072802D1DA7A82F001020A709A78062A03D0064A9278072A03D1DB7A83F0010300E000234B707047506B002010450020154B9B78042B0FD150
:40448000037833B9134BDA7B0A7041F22F329B5C1BE0012B1AD141F6BF420E4B9A5C08E0022B0AD1037863B1012B0FD1094B93F89F290A7093F89F3907E0012B06D10378D0
:4044C00023B9044BDA7B0A70DB7B4B70704700BF506B00201045002070B5054648B300F03BFC03280FD8DFE800F00205080B114BDB7809E00F4B1B7906E00E4B5B7903E0FA
:404500000C4B9B7900E000230B4C22788AB1E97891420CD162789A4209DA07202E6B00F0FFFB637830440373A3232B7170BD0234EBE770BD506B0020CC83FF1FF0B50446CD
:4045400085B000283ED0C0780B2802D10026267702E000F0D7FB0646257F55B9236904F11D009A8DDB8D22836383202110220BF0D8FD236993F83030AB4223D91EB16B1C7C
:40458000254423776E7723780BB9A32000E0A420FBF784FD0546A8B16B462269278B92F83010668B43F8041B52F8320F51682A1D03C304F11D0338463146FFF71DFCC223E4
:4045C00068802B7005B0F0BDF0B5044685B0002846D0C0780B2802D1002525770AE000F091FBA0F13003DBB2092B054602D9237F002B35D0267F56B9236904F11D009A8D19
:40460000DB8D22836383202110220BF08AFD236993F83030B34223D91DB1731C26442377757723780BB9A32000E0A420FBF736FD0546A8B16B462269278B92F83010668BA5
:4046400043F8041B52F8320F51682A1D03C304F11D0338463146FFF7CFFBC22368802B7005B0F0BDF0B5044685B0002848D0C0780B2802D1002525770CE000F043FBA0F1ED
:404680003103DBB2082B054604D9237F002B37D02C2835D0267F56B9236904F11D009A8DDB8D22836383202110220BF03AFD236993F83030B34223D91DB1731C26442377D7
:4046C000757723780BB9A32000E0A420FBF7E6FC0546A8B16B462269278B92F83010668B43F8041B52F8320F51682A1D03C304F11D0338463146FFF77FFBC22368802B705A
:4047000005B0F0BDF0B5044689B0002870D0C0780B2808D10025257704F11D00294610220BF0FFFC2AE000F0EDFAA0F13103DBB2082B054602D9237F002B59D004F11D063F
:4047400030462C210BF054FD08B12C2D50D0294BDB790BB92C2D4BD00021102204A80BF0E0FC314604A8227F0BF0D0FC04A82C210BF03EFD10B10378002B39D1267F56B943
:40478000236904F11D009A8DDB8D22836383202110220BF0C6FC236993F83030B34227D9144B1B7CB34223D91DB1731C26442377757723780BB9A32000E0A420FBF76EFC4F
:4047C0000546A8B16B462269278B92F83010668B43F8041B52F8320F51682A1D03C304F11D0338463146FFF707FBC22368802B7009B0F0BD506B00202DE9F041044688B04D
:40480000002800F08180C0780B2808D10025257704F11D00294610220BF083FC39E000F071FAA0F13003DBB2092B054602D9237F002B69D004F11D0840462C210BF0D8FC4C
:4048400008B12C2D60D0637F302B04D12C2D02D1A37F2C2B58D02E4B5E7A1F460EB92C2D52D00021102204A80BF05BFC414604A8227F0BF04BFC04A82C210BF0B9FC40B11E
:404880000BF0CCFC3B7C062B08BF06F1FF36B0423AD8267F56B9236904F11D009A8DDB8D22836383202110220BF03BFC236993F83030B34228D9164B1B7C013B9E4223DAC7
:4048C0001DB1731C26442377757723780BB9A32000E0A420FBF7E2FB0546A8B16B462269278B92F83010668B43F8041B52F8320F51682A1D03C304F11D0338463146FFF7DE
:404900007BFAC22368802B7008B0BDE8F08100BF506B002070B5044688B000284DD0C0780B2802D10026267702E000F0EBF90646257F55B9236904F11D009A8DDB8D2283BF
:404940006383202110220BF0ECFB236993F83030AB4232D91EB16B1C254423776E7726783EB9A320FBF79AFB054630B304A8314606E0A420FBF792FB0546F0B104A800213D
:4049800010220BF0CEFB227F2A2104A80BF0C9FB6B462269268B92F83010648B43F8041B52F8320F51682A1D03C304AB30462146FFF722FAC22368802B7008B070BD00006E
:4049C00038B5044600284CD0006B08B1FBF7F0FDFBF75AFD237820630BB91E2300E022234370236B03229A7004F11D00002110220BF097FB1B4B9B78032B00D938BD1A4D6A
:404A00002B7863B3226912789A4226D12E2A26D1217859B96B88206B2A7918440C300BF080FB226B6B88134456220DE0012916D16B88206B2A7918440C3000210BF071FB1E
:404A4000226B6B88134457221A73FA20256B00F067F923782844037301E00635D0E7A423237138BD506B0020309EFF1F10B5044658B1006B08B1FBF79BFD04F11D000021FF
:404A80001022BDE810400BF04CBB10BD38B50446002800F08980056B002D00F08580FBF7A9FFFBF79FFF23782E20002B3CD100F037F92844037B562B0AD0572B6ED1FBF7B3
:404AC00091FFFBF78BFF236B03F10C024C3319E0FBF788FFFBF782FF236B03F10C024C3352F8041B9A4240F8041BF9D1042000F017F92844037B0D2B0CBF4FF4C0604FF48A
:404B0000D06049E052F8041B9A4240F8041BF9D1042000F005F92844037B0D2B0CBF4FF400604FF4086037E000F0FAF82844037B562B08D0572B31D1FBF750FF236B03F1E6
:404B40000C024C3317E0FBF749FF236B03F10C024C3352F8041B9A4240F8041BF9D1042000F0DEF82844037B0D2B0CBF4FF410604FF4186010E052F8041B9A4240F8041B31
:404B8000F9D1042000F0CCF82844037B0D2B0CBF4FF4E0604FF4F060FBF762FFFBF730FF0323EB700023236338BD000038B50546002870D0036B03B938BD374C21780029B9
:404BC00069D02A6912788A4263D10D2A32D00CD8062A2FD004D8042A3CD0052A3AD038BD0A2A44D00B2A35D038BD242A3FD004D80E2A3CD0122A3AD038BD252A37D02E2AF2
:404C000000D038BD254A9278042A44D160882279184400210C300BF084FA6388296BEA780B441A73FA202C6B00F07AF82B782044037338BD60880021184422790C300BF0C5
:404C400070FA2A7F60882B6B801A1844143005F11D011AE060880021184422790C300BF060FA296B6388EA780B441A7338BD60880021184422790C300BF053FA6388286B16
:404C80002A7F18440C3005F11D01BDE838400BF03DBA063492E738BD309EFF1F506B0020144B9B78022B02D0042B07D01CE0124B1A7882421CD093F890290FE00E4B1A78F1
:404CC000824215D093F8902982420FD003F59952127882420CD041F6B0429A5C074B82420CBF184600207047002070470348704703487047506B0020104500206C83FF1FAA
:404D00002C83FF1F054A13782BB1834201D1507870470232F7E71846704700BFE09DFF1F054A13782BB1834201D1508870470632F7E71846704700BF309EFF1F054A1378CD
:404D40002BB1834201D1107970470632F7E71846704700BF309EFF1F10B504462E20FFF7DFFF236B1844037B562B07D0572B0BD12378002B0CBF0220012010BD2378002BF4
:404D80000CBF0020032010BD002010BD38B503780446AA2B0D4601D0072922D8631913F8012C3C2A1FD113F8022CC32A1BD113F8032C332A17D113F8043CCC2B13D1FBF7A3
:404DC00063FB70B11D2343700523837023680422C3606368A0F88C5103610323C370034B1A60012038BD002038BD00BF80E100E038B503780446AA2B0D4601D0072922D88D
:404E0000631913F8012C3C2A1FD113F8022CC32A1BD113F8032C332A17D113F8043CCC2B13D1FBF731FB70B1212343700523837023680822C3606368A0F88C5103610323BE
:404E4000C370034B1A60012038BD002038BD00BF80E100E038B5044600B938BD002362885D1C92B2DBB2934207D2D4F8082123441879926B90472B46F1E738BD10B5044614
:404E8000064B22461868064B1988FBF7F1FE2246BDE8104003480621FBF7EABE14E0FF1F18E0FF1F969EFF1F024610B500F12001131A12F8014BDBB214B18A42F8D11F2338
:404EC000184610BD70B506460D461446FBF78AFD4FF40070FBF79AFDFBF780FD0378B34253D1032D13D8DFE805F002060A0EFBF775FD45780CE0FBF771FD857808E0FBF776
:404F00006DFDC57804E0FBF769FD057900E00025FBF768FD013D4FF44070FBF777FD032D00F24E81DFE805F0020D1925FBF756FD00F1100350F8042B984244F8042BF9D154
:404F400070BDFBF74BFD103000F1100350F8042B984244F8042BF9D170BDFBF73FFD00F12003303053F8042B834244F8042BF9D170BDFBF733FD00F13003403053F8042B60
:404F8000834244F8042BF9D170BDFBF72BFD4FF41070FBF73BFDFBF721FD0378B34253D1032D13D8DFE805F002060A0EFBF716FD45780CE0FBF712FD857808E0FBF70EFD97
:404FC000C57804E0FBF70AFD057900E00025FBF709FD013D4FF45070FBF718FD032D00F2EF80DFE805F0020D1925FBF7F7FC00F1100350F8042B984244F8042BF9D170BD9E
:40500000FBF7ECFC103000F1100350F8042B984244F8042BF9D170BDFBF7E0FC00F12003303053F8042B834244F8042BF9D170BDFBF7D4FC00F13003403053F8042B834227
:4050400044F8042BF9D170BDFBF7CCFC4FF42070FBF7DCFCFBF7C2FC0378B34253D1032D13D8DFE805F002060A0EFBF7B7FC45780CE0FBF7B3FC857808E0FBF7AFFCC5788E
:4050800004E0FBF7ABFC057900E00025FBF7AAFC013D4FF46070FBF7B9FC032D00F29080DFE805F0020D1925FBF798FC00F1100350F8042B984244F8042BF9D170BDFBF7F6
:4050C0008DFC103000F1100350F8042B984244F8042BF9D170BDFBF781FC00F12003303053F8042B834244F8042BF9D170BDFBF775FC00F13003403053F8042B834244F83A
:40510000042BF9D170BDFBF76DFC4FF43070FBF77DFCFBF763FC0378B34251D1032D13D8DFE805F002060A0EFBF758FC45780CE0FBF754FC857808E0FBF750FCC57804E051
:40514000FBF74CFC057900E00025FBF74BFC013D4FF47070FBF75AFC032D31D8DFE805F0020D1925FBF73AFC00F1100350F8042B984244F8042BF9D170BDFBF72FFC103012
:4051800000F1100350F8042B984244F8042BF9D170BDFBF723FC00F12003303053F8042B834244F8042BF9D170BDFBF717FC00F13003403053F8042B834244F8042BF9D105
:4051C00070BD00002DE9F04180460D461E461446104641462A460AF099FF002E32D0771C08EB0601AA1BE0190AF090FF1B4BD97C1A4611F0010F214614BF2E232C23A35583
:40520000E35D43F03003E355D07C0B7810F0010F14BF2E202C20834204D043F0300301F8013BF1E70135EDB20CE0CE1AA05D013240B9DB430B44E15CA155E054D3B2691E86
:405240008B42F2DB631913F8012C002AF6D020462946FBF789F82846BDE8F081506B00202DE9F8430C460546FBF7C4FB01212246B448FBF7FDFCFBF7B5FB0020FBF7C6FBC4
:40528000FBF7ACFBFFF710FE0227C0F11F0191FBF7F10646C9B22246AB48FBF7E9FCFBF79DFBB1B22246FBF7E3FC01212246A548FBF7DEFCFBF792FB2030FFF7F5FDC0F119
:4052C0001F0191FBF7F10646C9B222469E48FBF7CFFCFBF783FBB1B222462030FBF7C8FC012122469748FBF7C3FCFBF77BFB4020FBF78CFBFBF772FBFFF7D6FDC0F11F01B3
:4053000091FBF7F10646C9B222468F48FBF7B0FCFBF764FBB1B22246FBF7AAFC012122468848FBF7A5FCFBF759FB2030FFF7BCFDC0F11F0191FBF7F10646C9B22246824831
:40534000FBF796FCFBF74AFBB1B222462030FBF78FFC012122467B48FBF78AFCFBF742FB8020FBF753FBFBF739FBFFF79DFDC0F11F0191FBF7F10646C9B222467248FBF730
:4053800077FCFBF72BFBB1B22246FBF771FC012122466C48FBF76CFC1F2122466B48FBF767FC012122466748FBF762FC012122466548FBF75DFC012000F0BAFD06460AF0D7
:4053C0002DFF81B23046624E2246FBF751FCFBF7BDFB00211F2230460AF0A3FEFBF76AFB03794FF02F08C3F3011343F030033370FBF760FB037986F8028003F00F0343F047
:4054000030037370FBF756FB4379C3F3001343F03003F370FBF74EFB437986F8058003F00F0343F0300333713223B3713023F371FBF740FB83791B0943F030033372FBF742
:4054400039FB83790A2103F00F0343F03003224630467372FBF70CFC012122463948FBF707FC012122463848FBF702FC384600F05FFD07460AF0D2FE224681B23846FBF7C3
:40548000F7FBFBF717FB837803F0400303F0FF079BB1FBF70FFB83780127C3F3001343F030033370FBF706FB837803F00F0343F030037370FBF7FEFA0FE0FBF7FBFA837898
:4054C000C3F3011343F030033370FBF7F3FA837803F00F0343F0300373704FF03A0986F80290FBF7E7FA4378DFF86480C3F3021343F03003F370FBF7DDFA437886F80590AB
:4055000003F00F0343F030033371FBF7D3FA0378C3F3021343F03003B371FBF7CBFA037803F00F0343F03003F3719FB1202388F80830412388F809304D2388F80A300B210E
:4055400009E000BF9C9EFF1FAC440020EA440020CB44002008212246B048FBF789FB01212246AF48FBF784FB1F212246AD48FBF77FFB01212246AA48FBF77AFB0121224637
:40558000A948FBF775FB062000F0D2FC06460AF045FEDFF8988281B222463046FBF768FB00211F229D480AF0BCFD98F81230287B9A4A1844C117FAF71BFE98480AF02EFE3D
:4055C000C1B29648FAF7D0FE94480AF027FE224681B29248FBF74CFB012122469048FBF747FB012122469048FBF742FB072000F09FFC06460AF012FE224681B23046FBF7C0
:4056000037FB0A21224605F12C00FBF731FB012122468348FBF72CFB012122468248FBF727FB152000F084FC06460AF0F7FD224681B23046FBF71CFB00211F2277480AF07B
:4056400070FD287B697B754AFFF73CFC0A2122467248FBF70DFB012122467148FBF708FB012122467048FBF703FB162000F060FC06460AF0D3FD224681B23046FBF7F8FA0B
:4056800000211F2265480AF04CFD0023A97B634A05F10F00FFF796FDA97B22465F48FBF7E7FA98F80A0000F05FFC06460AF0B6FD224681B23046FBF7DBFA01212246584830
:4056C000FBF7D6FA012122465748FBF7D1FA172000F02EFC06460AF0A1FD224681B23046FBF7C6FAAE7B0021F71C1F22FFB24B480AF017FDE819074698F80930397B474ABE
:405700000D30FFF75FFD397B22464448FBF7B0FA98F80A0000F01AFC80460AF07FFD224681B24046FBF7A4FA012122463C48FBF79FFA012122463C48FBF79AFA182000F0B4
:40574000F7FB80460AF06AFD224681B24046FBF78FFA331D3E7B00211E441F22F6B22F480AF0DFFCA81907460023397B2B4A0D30FFF728FD397B22462848FBF779FA0121EE
:4057800022462748FBF774FA224601212648FBF76FFAFBF727F94FF40070FBF737F9FBF71DF92B7B02789A420AD1FBF71BF995F827300D2B0CBF4FF4C0604FF4D0604DE0A9
:4057C000FBF710F94FF41070FBF720F9FBF706F92B7B02789A420AD1FBF704F995F827300D2B0CBF4FF4E0604FF4F06036E0FBF7F9F84FF42070FBF709F9FBF7EFF82B7BED
:4058000002789A4214D1FBF7EDF895F827300D2B0CBF4FF400604FF408601FE0CB4400209C9EFF1FEA440020AC440020506B0020FBF7D8F84FF43070FBF7E8F8FBF7CEF833
:405840002B7B02789A420BD1FBF7CCF895F827300D2B0CBF4FF410604FF41860FBF7D6F895F82780B8F10D0F58D10A20FFF766FA07460A20FFF754FA002105461F2224480F
:405880000AF04FFCFBF7AAF8E9B201443A4620480AF03CFC032000F04BFB05460AF0BEFCB6B281B222462846FBF7E2F9314622461748FBF7DDF9012122461648FBF7D8F9CE
:4058C000012122461448FBF7D3F90E20FFF736FA07460E20FFF724FA002105461F220C480AF01FFCFBF77AF8E9B201443A4608480AF00CFC042000F01BFB05460AF08EFCFC
:40590000224681B22846FBF7B3F901483146ADE1CB4400209C9EFF1FAC440020B8F10E0F40F0A7814046FFF709FA81464046FFF7F7F9002107461F22DA480AF0F2FBFBF761
:405940004DF8F9B201444A46D6480AF0DFFB042000F0EEFA07460AF061FC224681B23846FBF786F931462246CE48FBF781F901212246CD48FBF77CF91F212246CB48FBF732
:4059800077F901212246C848FBF772F901212246C748FBF76DF9032000F0CAFA06460AF03DFC224681B23046FBF762F90821224605F13600FBF75CF901212246BA48FBF759
:4059C00057F901212246BA48FBF752F9082000F0AFFA06460AF022FC224681B23046FBF747F90A21224605F13E00FBF741F901212246AD48FBF73CF901212246AC48FBF71D
:405A000037F9092000F094FA06460AF007FC224681B23046FBF72CF91421224605F14800FBF726F9012122469F48FBF721F9012122469F48FBF71CF90A2000F079FA064664
:405A40000AF0ECFB224681B23046FBF711F91421224605F15C00FBF70BF9012122469248FBF706F9012122469148FBF701F90B2000F05EFA06460AF0D1FB224681B2304619
:405A8000FBF7F6F800211F2286480AF04AFB854A002195F87000FAF7ABFB82480AF0BEFBC6B231467F48FAF75FFC314622467D48FBF7DEF8012122467B48FBF7D9F80121F6
:405AC00022467B48FBF7D4F80C2000F031FA06460AF0A4FB224681B23046FBF7C9F800211F2270480AF01DFB6E4A002195F87100FAF77EFB6B480AF091FBC6B23146694887
:405B0000FAF732FC314622466648FBF7B1F8012122466548FBF7ACF8012122466448FBF7A7F80D2000F004FA06460AF077FB224681B23046FBF79CF800211F2259480AF023
:405B4000F0FA584A002195F87200FAF751FB55480AF064FBC6B231465248FAF705FC314622465048FBF784F8012122464E48FBF77FF8012122464E48FBF77AF895F8973085
:405B8000012B0CBF4046112000F0D2F906460AF045FB224681B23046FBF76AF80721224605F17300FBF764F8012122463E48FBF75FF8012122463E48FBF75AF895F8973049
:405BC000012B0CBF0F20122000F0B2F906460AF025FB224681B23046FBF74AF80721224605F17A00FBF744F8012122462E48FBF73FF8012122462E48FBF73AF895F8973038
:405C0000012B0CBF1020132000F092F906460AF005FB224681B23046FBF72AF80721224605F18100FBF724F8012122461E48FBF71FF8012122461E48FBF71AF8142000F0FE
:405C400077F906460AF0EAFA224681B23046FBF70FF80F21224605F18800FBF709F8012111482246FBF704F8114801212246FAF7FFFF224601210C48FAF7FAFF22461F2164
:405C80000A48FAF7F5FF224601210748FAF7F0FFFAF7A8FE8020FAF7B9FEFAF79FFE203008E000BFCB4400209C9EFF1FEA440020AC440020FFF7F8F80225C0F11F0191FB41
:405CC000F5F122460646C9B22D48FAF7D1FFFAF785FEB1B222462030FAF7CAFF224601212848FAF7C5FFFAF77DFEC020FAF78EFEFAF774FEFFF7D8F8C0F11F0191FBF5F12C
:405D000006462246C9B21E48FAF7B2FFFAF766FEB1B22246FAF7ACFF224601211948FAF7A7FFFAF75BFE2030FFF7BEF8C0F11F0191FBF5F122460646C9B21148FAF798FF55
:405D4000FAF74CFEB1B222462030FAF791FF224601210C48FAF78CFF224601210948FAF787FF224601210748FAF782FF224605480121FAF77DFFBDE8F843FAF741BE00BF82
:405D8000AC4400209C9EFF1F70B50646FAF732FEFAF728FE4FF4E070FAF738FEFAF71EFE057AFAF72DFE0024E3B2AB4208D20120FFF764F830460121FFF752FA0134F3E794
:405DC00070BD70B50646FAF715FEFAF70BFE4FF4E070FAF71BFEFAF701FE057AFAF710FE0024E3B2AB4208D20320FFF747F830460321FFF735FA0134F3E770BD70B50646B8
:405E0000FAF7F8FDFAF7EEFD4FF4E070FAF7FEFDFAF7E4FD057AFAF7F3FD0024E3B2AB4208D20220FFF72AF830460221FFF718FA0134F3E770BD70B50646FAF7DBFDFAF72D
:405E4000D1FD4FF4E070FAF7E1FDFAF7C7FD057AFAF7D6FD0024E3B2AB4208D20420FFF70DF830460421FFF7FBF90134F3E770BD38B50C460546224601210848FAF7F8FE4F
:405E8000FAF7B8FDB5F88C1105F10D00224689B2FAF7EEFEBDE83840FAF7B2BD9C9EFF1F0121FFF7E5BF0221FFF7E2BF08B5FAF7A1FBB8B116234370134BC36017238370D7
:405EC000124B03611823C370114B436119230371104B83611A2343710F4BC3611B2383710E4B03620E4B16221A7018225A7020211F220C480AF015F9BDE808400A482A219E
:405F00001F220AF00EB900BF895D0000C35D0000FD5D0000375E0000A15E0000A75E000009450020AC440020EA44002070470000054A13782BB1834201D15068704708322E
:405F4000F7E71846704700BFA49EFF1F054A13782BB1834201D1506870470832F7E71846704700BF6C9FFF1F034B03280CBFD3F80401D3F8FC007047A49EFF1F08B5FAF79E
:405F800039FB38B125234370034BC36026238370024B036108BD00BFA15F00000B6000002DE9F0410446002006F022FD6378252B29D1012000F05BF828B30120332104F1E8
:405FC0000B0500F0C0F82E4604F11307012000F07DF806F8010FBE42F8D104F11206002015F8011FFAF709FAB542F9D1E37C834209D140B1D4F894312BB101222270204683
:40600000BDE8F0411847BDE8F0812DE9F0410446002006F0EDFC022000F029F828B30220332104F10B0500F08EF82E4604F11307022000F04BF806F8010FBE42F8D104F1E2
:406040001206002015F8011FFAF7D7F9B542F9D1E37C834209D140B1D4F894312BB1012222702046BDE8F0411847BDE8F081012810B5044611D0022822D1002007F0BCFE70
:406080004FF4FA7006F0ACFC012007F0B5FE462006F0A6FC07F0BCFE0EE0002007F098FE4FF4FA7006F09CFC204607F091FE462006F096FC07F098FEB0FA80F4640900E073
:4060C0000024642006F08CFC204610BD012838B504D0022834D100252C4619E000252C46002007F075FE062006F07AFC012007F06FFE092006F074FC07F076FEA84004433D
:406100000135372006F06CFC082DE4B2E8D118E0002007F071FE062006F062FC012007F06BFE092006F05CFC07F072FEA84004430135372006F054FC082DE4B2E8D100E033
:406140000024204638BD012838B50D4602D002281DD038BD0024002007F03AFE45FA04F3DA0707D5062006F03BFC012007F030FE402006E03C2006F033FC012007F028FE55
:406180000A20013406F02CFC082CE4D138BD0024002007F031FE45FA04F3DB0707D5062006F01EFC012007F027FE402006E03C2006F016FC012007F01FFE0A20013406F07F
:4061C0000FFC082CE4D138BD8378DBB20C2B09D841F6C170012202FA03F31840003018BF0120704700207047024630B5002100F5E665282404FB0104013100232E29A371ED
:4062000002F1280242F8083C42F8103C42F80C3C45F8043FEDD1038030BD10B50021282303FB01039C7904F0FF0274B9012199711A815A819A81DA811A825A829A82DA829B
:406240001A715A629A62181D10BD01312E29E6D1002010BD03889BB213B1D0F8340770471846704700214FF4827202FB01F3C21892F8F222022A03D1184400F2F220704769
:4062800001310629EFD10020704702230B70704700F5C36390F8F3228A4205D000F582709842F7D10020704701207047002380F80A397047002380F83039002280F8313961
:4062C00000F51461A0F83239A0F83439C0F83839C0F83C390023C1E9002300F64811C1E9002300F51561C1E9002300F65811C1E9002300F516610022002300F66810C1E99D
:406300000023C0E90023704738B500224FF482735343C51895F8F21261B903F53C73C418201D4FF4807209F0FCFE012385F8F232A01C38BD0132062AE8D1002038BD0023A0
:4063400070B50B7000F6060400F2F2231E7803F582753EB9184629464FF4827209F0D6FE80F80461A5422B46F0D170BD0000000010B5044609F0DEFE09F0A4F80AA3D3E924
:40638000002309F02FFA09F09DFB00EB8000013080B206F025FB94F80A39002BEAD1012384F80A3910BD00BF0000C0FFFFFFDF4103889BB22D2B11D8038802229BB200EB22
:4063C0008303C3F8341703889BB200EB8303D3F834379A70038801339BB20380704703889BB24BB3D0F8342700239370D0F83427D361536193610123028892B2934208D283
:4064000000EB8302D2F834170133C2F83017DBB2F2E70388013B03F0FF032D2B08D803F5E67200EB8202002101335160DBB2F4E70388013B9BB203807047038810B59BB230
:40644000ABB1D0F834170123028892B2934208D200EB8302D2F834470133C2F83047DBB2F2E703889BB200EB8300C0F8301710BDF8B5374C374B2646012200251A705D70BD
:406480004FF4196303FB056300210622217065709A70FF22DA70012703F1080202204FF0080E1F76587682F806E0D1705170D17159710DB9177100E01071234604F5C362EF
:4064C000002183F8F212A3F8F41383F8F31203F582739342F4D1204B04F517601822C4F8883909F01EFE1D4B0135C4F80C391C4B042DC4F810391B4B04F5196444F87C3CA0
:40650000194B44F8783C194B44F86C3C184B44F8703C184B44F8743C174B44F8683CAFD11648174BC0F80038164BC0F8F037164BC0F8F437154BC0F8F837154BC0F8FC379D
:40654000144BC0F8EC37BDE8F840FFF74DBE00BF10450020506B0020B562000071630000AD620000916200008B62000065620000096300003F630000C9610000646B00202C
:40658000E96100001B620000B163000055620000DF6300003B640000054B1A78FF2A04D0824203D003F56B73F7E7002318467047B49FFF1F2DE9F041164D012380466B7125
:4065C0004E20FFF7E9FF041DE8612F461CD1BDE8F081114ED6F8F03730469847054690B1002344618361C7610370D7F8883909489847D8F8943130462B62C5F82480D6F86A
:40660000F4372946984734342368002BE1D1BDE8F08100BF10450020646B002038B5044610B3C36993F888219D7812099A70C069EDB2D0F828399847E36910B101221A76B4
:4066400003E002221A76E3699D70E3699A78062A02D09A78072A04D1083D032D9CBF08229A73E36900225A7138BD40B1C26992F8883111785940090704BF1B09937070474B
:4066800010B500283ED0C269082192F8883103F00F0382F88831C26992F8893103F00F0382F88931C26992F88A3103F00F0382F88A31C26992F88B3103F00F0382F88B3112
:4066C000C26992F88C3103F00F0382F88C31C26992F88D3103F00F0382F88D31C26992F88E3103F00F0382F88E31C26992F88F3103F00F0382F88F31C46904F5C470F9F78C
:406700004AFE206110BD10B5002844D0C269082192F8883103F00F03D370C26992F8893103F00F0382F88931C26992F88A3103F00F0382F88A31C26992F88B3103F00F031B
:4067400082F88B31C26992F88C3103F00F0382F88C31C26992F88D3103F00F0382F88D31C26992F88E3103F00F0382F88E31C26992F88F3103F00F0382F88F31C26992F86A
:40678000903103F00F0382F89031C46904F28910F9F701FE606110BD70B50446002800F00E83C26992F8913103F00F0382F89131C36993F8912183F87229C36993F8202059
:4067C0000D2A40F09580FAF715F9FAF70BF9E3691878FAF74BFFFAF719F9E56995F87239032B43D8DFE803F0021121316520FEF797FA20300544FAF7F1F806466520FEF7DD
:406800009DFA3146024628462EE06520FEF788FA20300544FAF7E2F806466520FEF78EFA06F11001024628461EE06520FEF778FA20300544FAF7D2F806466520FEF77EFA9E
:4068400006F12001024628460EE06520FEF768FA20300544FAF7C2F806466520FEF76EFA0246284606F1300109F050FCFAF7C8F86520E569FEF754FA2030284403680621D6
:40688000C5F894318388A5F89831E26992F8943103F00F0382F89431E26992F8953103F00F0382F89531E26992F8963103F00F0382F89631E26992F8973103F00F0382F829
:4068C0009731E26992F8983103F00F0382F89831E26992F8993103F00F0382F89931E56905F5CA70F9F757FD80B2A5F8740928E093F8942102F00F0283F89421C26992F8C0
:40690000953103F00F0382F89531C26992F8963103F00F0382F89631C26992F8973103F00F0382F89731C26992F8983103F00F0382F89831C26992F8993103F00F0382F802
:406940009931E0690021082200F29B1009F0E9FBE26900255069294602F29B12F9F748FCE0692946082200F5D27009F0DAFBE2692946106902F2A512F9F73AFCE269082173
:4069800092F89B3103F00F0382F89B31E26992F89C3103F00F0382F89C31E26992F89D3103F00F0382F89D31E26992F89E3103F00F0382F89E31E26992F89F3103F00F03BC
:4069C00082F89F31E26992F8A03103F00F0382F8A031E26992F8A13103F00F0382F8A131E26992F8A23103F00F0382F8A231E66906F29B10F9F7CFFCC34BC6F87C091A7CD1
:406A0000E369072A17BF93F8A41183F8A45101F00F0183F8A411E169072A91F8A53103F00F0381F8A531E16991F8A63103F00F0381F8A631E16991F8A73103F00F0381F8CC
:406A4000A731E16991F8A83103F00F0381F8A831E16991F8A93103F00F0381F8A931E16991F8AA3103F00F0381F8AA31E16991F8AB3103F00F0381F8AB31E5694FF0080190
:406A800005F5D27005D1F9F786FC0A23B0FBF3F001E0F9F780FCC5F87809FAF70FF8FAF755F8F9F7A7FFF9F79DFFE3694FF4007093F820300D2B40F0A980F9F7A7FFF9F7C3
:406AC0008DFFE369027893F88C3103F00F0301339A4219D1F9F786FFF9F780FF0546F9F7E9FF03682B608388AB808379AB71F9F775FFE369073003F5C471B3F8F02209F0E8
:406B000005FB4FF4C8602BE1F9F76CFF4FF41070F9F77CFFF9F762FFE369027893F88C3103F00F0301339A4219D1F9F75BFFF9F755FF0546F9F7BEFF03682B608388AB8045
:406B40008379AB71F9F74AFFE369073003F5C471B3F8F02209F0DAFA4FF4E86000E1F9F741FF4FF42070F9F751FFF9F737FFE369027893F88C3103F00F0301339A4219D1A8
:406B8000F9F730FFF9F72AFF0546F9F793FF03682B608388AB808379AB71F9F71FFFE369073003F5C471B3F8F02209F0AFFA4FF40460D5E0F9F716FF4FF43070F9F726FF16
:406BC000F9F70CFFE369027893F88C3103F00F0301339A4240F0C680F9F704FFF9F7FEFE0546F9F767FF03682B608388AB808379AB71F9F7F3FEE369073003F5C471B3F801
:406C0000F02209F083FA4FF41460A9E0F9F7FEFEF9F7E4FEE369027893F88C3103F00F0301339A4219D1F9F7DDFEF9F7D7FE0546F9F740FF03682B608388AB808379AB7173
:406C4000F9F7CCFEE369073003F5C471B3F8F02209F05CFA4FF4D86082E0F9F7C3FE4FF41070F9F7D3FEF9F7B9FEE369027893F88C3103F00F0301339A4219D1F9F7B2FE38
:406C8000F9F7ACFE0546F9F715FF03682B608388AB808379AB71F9F7A1FEE369073003F5C471B3F8F02209F031FA4FF4F86057E0F9F798FE4FF42070F9F7A8FEF9F78EFE4A
:406CC000E369027893F88C3103F00F0301339A421CD1F9F787FEF9F781FE0546F9F7EAFE03682B608388AB808379AB71F9F776FEE369073003F5C471B3F8F02209F006FA6F
:406D00004FF40C602CE000BF506B0020F9F76AFE4FF43070F9F77AFEF9F760FEE369027893F88C3103F00F0301339A421AD1F9F759FEF9F753FE0546F9F7BCFE03682B608C
:406D40008388AB808379AB71F9F748FEE369073003F5C471B3F8F02209F0D8F94FF41C60F9F77EFEF9F74CFEE069D0F80C399847E069D0F8203998470546E069D0F81039D0
:406D80009847E5B1A4236B70E369A81C03F5C471B3F8F02209F0BAF9E069B0F8F032A5F80231D0F80C399847E0692946D0F818399847E069BDE87040D0F81039184770BD5C
:406DC00050B1C3899BB2132B81BFC369FF229A70C36984BF02221A76704750B1C3899BB2132B81BFC369FF229A70C36984BF02221A76704710B50446B8B1837AABB100F53B
:406E0000C47000214FF4B47209F08BF9A220F9F745F950B12378C22203F00F0343F010030371012343800270237210BD10B50446C8B100F5C47000214FF4B47209F071F98F
:406E4000A220F9F72BF948B1237803F00F0343F01003037101234380C22303706420BDE8104005F0A9BD10BD10B5044690B100F5C47000214FF4B47209F053F9A220F9F70F
:406E80000DF938B1237803F00F03037101234380C223037010BD10B50446A0B100F5C47000214FF4B47209F03CF9A220F9F7F6F848B1237803F00F0343F06003037101231B
:406EC0004380C223037010BD10B50446A0B100F5C47000214FF4B47209F023F9A220F9F7DDF848B1237803F00F0343F07003037101234380C223037010BD10B50446A0B1DC
:406F000000F5C47000214FF4B47209F00AF9A220F9F7C4F848B1237803F00F0343F04003037101234380C223037010BD10B50446A0B100F5C47000214FF4B47209F0F1F8B0
:406F4000A220F9F7ABF848B1237803F00F0343F05003037101234380C223037010BD10B50446A0B100F5C47000214FF4B47209F0D8F8A220F9F792F848B1237803F00F036C
:406F800043F02003037101234380C223037010BD2DE9F0410446002862D0C069D0F80C399847E069D0F8203998470546E069D0F810399847002D53D0AA236B70E3690821C1
:406FC0001B78AB70E36993F824300F2B0CBFF223F123EB70E0692830F9F7C6F9E2690A2052F8283F6B605368AB60E669FDF798FE203006440A20FDF7A1FE3146024605F143
:407000000C0009F083F80A20FDF798FE0A30C6B205EB060808F8026F0E20E769FDF780FE203007440E20FDF789FE39460246404609F06CF80E20FDF781FE3044C0B2A5F8F9
:407040000201E069D0F80C399847E0692946D0F818399847E069BDE8F041D0F810391847BDE8F08170B5044620B3C069D0F80C399847E069D0F8203998470546E069D0F887
:4070800010399847B5B1AE236B70E3691B78AB70E0690123A5F80231D0F80C399847E0692946D0F818399847E069BDE87040D0F81039184770BD10B50446A0B100F5C470FF
:4070C00000214FF4B47209F02CF8A220F8F7E6FF48B1237803F00F0343F03003037101234380C223037010BD10B5044690B100F5C47000214FF4B47209F013F8A220F8F71C
:40710000CDFF38B1237863F00F03037101234380C223037010BD10B50446002868D0C36993F88821BA2A63D193F8962102F00F02013A032A0BD8DFE802F0020406080122B3
:4071400004E0112202E0212200E031221A71E3691A79120713D1F9F797F9002848D0092343704FF4FA73838005238370E3690122C0F890310323C370E369DA7210BD197994
:4071800093F87229B2EB111F1CD0F9F77DF970B1092343704FF4FA73838005238370E3690122C0F890310323C370E369DA72F9F76BF9E8B11523437003238370E269C0F8EF
:4071C000902114E00022DA72F9F75EF980B1E3699B79DBB243704FF47A73838005238370E369DB790373E369C0F890310323C37010BD0000437800B5023B012B324B15D8D2
:4072000004229A700278042A05D0052A08D0032A1ED1012205E00222DA701A71012202E00222DA701A715A719A7111E002229A700178013904290BD8DFE801F003030805FC
