:40000000008000201100000031C5000031C5000008B5044B1A6803F53F5302331A600CF09FFA00BFFA46004010B5054C237833B9044B13B10448AFF300800123237010BDE6
:40004000A0D0FF1F00000000440D0100084B10B51BB108480849AFF300800848036803B910BD074B002BFBD0BDE81040184700BF00000000440D0100A4D0FF1F0881FF1FCF
:4000800000000000044B1A78A52A03D0824201D04C33F8E7184670470C81FF1F38B500234FF486725A430D498C188A5CC02A0FD1C123002523706580FFF7E4FF2946C4F8F3
:4000C00008014FF48072201D10F0AFF9204638BD0133142BE4D1002038BD00BFFCD0FF1F70B50E4D00244FF4867363430C4A0026D118C020D05401344E80284631464FF482
:40010000807210F092F9142CC5F8046105F58675E9D10448BDE8704000F046B800D1FF1FFCD0FF1F4901000038B504460025C0230370294645804FF48072043010F075F9C2
:40014000C4F8085138BD000070B50B4C002526464FF486736B43F35CC22B07D1D4F8083120465B6898472046FFF7DEFF0135142D04F58674ECD170BDFCD0FF1F10B5084BCE
:400180001C78A52C09D0844205D10846BDE810405B68114618470833F2E7002010BD00BFD482FF1F70470000054B93F840200F2A9EBF511C83F8401043F82200704700BFE2
:4001C000ECE5FF1F10B50024074AE3B292F84010994207D952F82330044A013413600BB19847F1E710BD00BFECE5FF1F30E6FF1F2DE9F04F06460F46154685B001242046E6
:400200000FF0D4FA8046894642464B46002055490EF0AEF80FF0DAFD39460246002330460FF0F4FD9F4208BF964204F1FF3A4FF000004C4942464B464BD00EF099F8CDE9C0
:40024000000150460FF0C2FA8046894642464B46002044490EF08CF842464B4682468B46002040490EF084F805EB040C80468946DDE90001CDF80CC00FF0A8FD3946024622
:40028000002330460FF0C2FD59465046CDE900230FF09CFD39460246002330460FF0B6FDDDE900AB4946BAEB020A40466BEB030B0FF08CFD59460246002350460FF0A6FDCA
:4002C000DDF80CC040F0300001340CF8010CE4B295E70EF04DF8CDE9000150460FF076FA8046894642464B4600201E490EF040F842464B4682468B4600201A490EF038F8D8
:4003000005EB040C80468946DDE90001CDF80CC00FF05CFD39460246002330460FF076FD5946504614461D460FF050FD39460246002330460FF06AFD4946A41A404665EB7F
:4003400003050FF043FD29460246002320460FF05DFDDDF80CC040F030000CF8010C05B0BDE8F08F00002440F0B50025ECB24B1E9C420FDA431813F8016C8B1EDBB25AB2A1
:40038000A24204DB875C02445770013BF6E706550135EBE7F0BD2DE9F84F002305460C461E465FFA83FBA34503F1010A22D258460FF0FCF90DF084FF8046304689460FF012
:4003C000F5F9064615F80B000F4600F00F000FF0FDF902460B46404649460FF05DFA0B460246394630460FF0A5F80FF0EFFC53460646D6E73046BDE8F88F4840082310F053
:40040000010F03F1FF334FEA500014BF80F08C00C0B213F0FF03F2D17047013938B5451E44180020A54204D015F8011FFFF7E5FFF8E738BD00220E494FF4CC7303FB021393
:400440009878072808D09878062805D09878082802D09B78052B07D14FF4CC7303FB02110B8901339BB20B810132302AE3D1704744E6FF1FD0F89031002201215A70D970D1
:400480009970DA8070470000F8B50FF0D7FF00234FF4CC7000FB03F50D4F7C19E278012A11D1002602232670A680E3700DF0FEFEE0802046268131464FF4C0720C300FF0CC
:4004C000B4FF2046F8BD0133302BE1D10020F8BD44E6FF1F10B504460FF0B0FF002307494FF4CC7202FB03125278A24204D00133302BF4D1002010BD012010BD44E6FF1F14
:4005000070B504460FF09AFF0021164B4FF4CC7000FB01304278A2421A4621D001313029F3D100234FF4CC755D435419E178012912D1002602232670E3700DF0B7FEE080E9
:40054000084826812844A68031464FF4C0720C300FF06BFF204670BD0133302BE2D1002070BD00BF44E6FF1F70B50F4D002406462C606C60AC60EC600FF060FF23460B497C
:400580004FF4CC7202FB04125178B14202BF591C45F82320CBB22F2C03D0032B04F10104EDD9014870BD00BF34E6FF1F44E6FF1F002209494FF4CC7303FB0213597881424A
:4005C00006D1002201215A70D9709970DA8070470132302AEDD1704744E6FF1F007BFFF7E7BF000000232C225A43064988188A5C012A02D10323037070470133102BF2D1EF
:4006000000207047C432002038B500254FF4CC736B431D480121C21800240C3354701844D1700135917021464FF4C0720FF0FDFE302DEBD1154D2C236343154A0121D15443
:400640002846002108220FF0F0FE013405F10B00002108220FF0E9FE102C05F12C05EAD1FFF7C0FF58B1042343700A4BC36005238370094B03610623C370084B43610848C9
:40068000BDE83840FFF790BD44E6FF1FC5320020C432002035040000DD05000075040000A90700002DE9F041804600240C4B04F1080604F12805E7181E441D4417F8013F63
:4006C0002BB92C34B4F5307FF0D1BDE8F08156F8043F002BF5D040469847AE42EED1F0E7C432002070B500232C245C4300220C4915190D446D787DB14678B54209D10B2407
:4007000004FB032301EB8303DB6843B1BDE8704018470132082AEAD10133102BE4D170BDC432002070B5054600242C21614300230C4A58181044407878B16E78B04209D15B
:400740000B2101FB043302EB8302D3682BB12846984702E00133082BEAD10134102CE4D170BD00BFC43200202DE9F041804600240C4B04F1080604F12805E7181E441D44A9
:4007800017F8013F2BB92C34B4F5307FF0D1BDE8F08156F8043F0BB140469847AE42EFD1F1E700BFC43200202DE9F84F854F00243D464FF4CC7303FB0453DA78032A40F00A
:4007C000F8809B78023B062B00F2F380DFE803F00408161A467CB1003846FFF763FF02E03846FFF77FFF4FF4CC7303FB0453002201215A70D9709970DA80DAE03846FFF7C9
:4008000091FFF0E70DF052FD4FF4CC7606FB045633894FF47A719BB201FB0300F288B6F804A092B2801A0EF0D1FF0022664B0FF05DF91FFA8AFA8046504689460EF0C6FFC4
:4008400002460B46404649460FF0B6FA002800F0B0803846FFF766FF0023A5E00DF026FD4FF4CC7A0AFB04FA05EB0A0633894FF47A719BB201FB0300F28892B2801A0EF01A
:40088000A5FF0022504B0FF031F980467089894680B20EF09BFF02460B46404649460FF08BFA002800F08580B08880B20EF08EFF02460B46404649460FF07EFA002878D07D
:4008C0003846FFF70FFF66E00DF0F0FC4FF4CC7A0AFB04FA05EB0A0633894FF47A719BB201FB0300F28892B2801A0EF06FFF0022354B0FF0FBF880467089894680B20EF06F
:4009000065FF02460B46404649460FF055FA00284FD0B08880B20EF059FF02460B46404649460FF049FA002843D03846FFF71CFF31E00DF0BBFC4FF4CC7A0AFB04FA05EB55
:400940000A0633894FF47A719BB201FB0300F28892B2801A0EF03AFF00221B4B0FF0C6F880467089894680B20EF030FF02460B46404649460FF020FAD8B1B08880B20EF0B8
:4009800025FF02460B46404649460FF015FA80B13846FFF7C7FE0DF089FC0023F0803381B38015F80A2022B101227370F270B270F3800134302C07F5CC777FF4FAAEBDE85A
:4009C000F88F00BF44E6FF1F00408F40004870478635002008B50DF06DFB024B00221A7008BD00BFBCD0FF1F38B50546124C0DF061FB2B0A54200021237065700DF08CFA93
:400A0000C0B920780DF006FB60780DF003FB542001210DF0B9FA18B1BDE838400DF0E2BA651C413401200DF01BFB05F8010FA542F8D1F1E738BD00BF84350020014B012254
:400A40001A707047BCD0FF1FF8B5064600200DF069FB370A0B24104D0DF02CFB542000212F706E700DF058FA60B90446285D01340DF0D0FA422CF9D10DF0B4FA05200CF0D7
:400A80001FF903E0013C14F0FF04E4D10120BDE8F8400DF047BB00BF843500200248002142220FF0C2BC00BF8435002000487047C63500200248002110220FF0B6BC00BFE2
:400AC000C635002010B50DF0F5FA682000210DF023FA18BB1A4C0DF09DFA207800F07F000DF098FA607800F07F000DF093FAA07800F03F000DF08EFAE07800F007000DF01B
:400B000089FA207900F03F000DF084FA607900F01F000DF07FFAA0790DF07CFA0DF062FA682000210DF0F8F948B90E200DF072FA04200DF06FFABDE810400DF053BA10BD27
:400B4000C635002038B50DF0B5FA682000210DF0E3F908B90DF05EFA0DF044FA0DF0AAFA682001210DF0D8F918B1BDE838400DF039BA0446062C074D04D001200DF070FAD3
:400B8000285503E000200DF06BFAA8710134072CF0D1EAE7C635002008B5682000210DF0BBF948B90E200DF035FA04200DF032FABDE808400DF016BA08BD08B50BF092FE9F
:400BC0000CF024F90CF03EFC0CF038FE0CF036FA0DF078F800F036F8FFF716FD00F072F8FFF77EFAFFF7DEFA07F014FC03F0A8F805F0B2F900F0B2FFBDE8084005F020BA87
:400C000008B50DF04DFB0420FFF77AFC20B10423437003238370C370024A53680133536008BD00BFE46F002008B50DF08FFA0720FFF766FC20B10723437003238370C3708A
:400C400008BD000008B50DF01DFB05480CF0B0FF0DF0B4FABDE8084002480DF0BDBA00BF010C0000290C0000F8B51746044646180025B44211D00DF01DFA072000210DF087
:400C80004BF9054638B938460DF0C4F920780DF0C1F90DF0A7F90134EBE72846F8BD0000024B1B780BB10CF067B87047BDD0FF1F034B0122032000211A700CF03DB800BF5E
:400CC000BDD0FF1F08B5FFF78DFC18B12B234370034BC3600348BDE80840FFF765BA00BFB10C0000A10C000070B50F4C0646E3880D469BB27BB1E3889BB2994212D32A4671
:400D000031460A480FF086FB094B01200222E58020711A6070BDA368206831462A4698470028ECD1002070BDD8350020E435002080E100E038B50446A0B132200BF0C0FF6E
:400D4000002362885D1C92B2DBB293420AD2D4F8082123441879926B904701200BF0B0FF2B46EEE738BD0000F8B5D0F890614F2005F072FC041DF06116D1F8BD0C4FD7F834
:400D8000483838469847054668B10023037083614461C661D6F8C03B30469847D7F84C3838462946984734342368002BE6D1F8BD7C670020F8B5837804460B2B02D08378ED
:400DC0000A2B31D1A3797BB3492005F045FC051DE06125D11320FFF757FB1323437003238370227802730122A0F88C21C3700023A371F8BD0D4FD7F8483838469847064613
:400E000068B10023037083614561C461D4F8C03B20469847D7F84C3838463146984734352B68002BE6D1D5E7F8BD00BF7C670020F8B5837804460B2B02D083780A2B20D1F5
:400E40004A2005F009FC051DE06116D1F8BD104FD7F8483838469847064668B10023037083614561C461D4F8C03B20469847D7F84C3838463146984734352B68002BE6D149
:400E8000F8BD8378092B04BF01238371F8BD00BF7C670020F8B583780546062B02D08378072B21D1EB79FBB1462005F0D5FB041DE86116D1F8BD0D4FD7F84838384698479E
:400EC000064668B10023037083614461C561D5F8C03B28469847D7F84C3838463146984734342368002BE6D1F8BD00BF7C6700202DE9F04780462C4B99780023DAB28A42AA
:400F000024D240F6C830294D1F4600FB0356B27A0133D2B2012AF1D140F6C8348B42B8BF00FB035304FB07544FF0020E86F80AE0B8BF9A724FF00103A8BFAA724820637130
:400F400005F08AFBE061041D23D125E0BDE8F087DFF85CA0DAF84838504698478146B8B100230370836140F6C83303FB07534461C661D3F8C03B30469847D8F894315046A1
:400F8000C9F82030C9F82480DAF84C384946984734342368002BDBD13046FFF70BFF3046BDE8F047FFF776BF68670020483800207C6700202DE9F74F2B4E8246B378019649
:400FC0000BB9012373704FF000084546019B5FFA88FB9B785B453CD940F6C83404FB0BF4224F04EB07094846FFF722FF6DBB04F120000AF10C014FF4C07238440FF00AFA96
:401000004E2005F029FB041DC9F81C001DD02368DBB1174ED6F8482830469047054690B100220270826140F6C83202FB0B724461C0F81C90D2F8C02B48469047D6F84C2825
:401040003046294690473434E1E708F101080125BCE7084B1B680BB15046984701238AF8003003B0BDE8F08F68670020483800207C670020C0D0FF1F2DE9F74F4FF0000921
:40108000019033495FFA89F58B78AB4259D940F6C833304E03FB056200921A46032D0FD8DFE805F00205080B91F803B00AE091F804B007E091F805B004E091F806B001E0AB
:4010C0004FF0000B02FB05620027D770FAB25A4534D240F6C83808FB05F808F1200000214FF4C07230440FF0A0F9452005F0B4FAB044041DC8F81C001ED02268E2B1DFF8B7
:4011000058A0DAF8482850469047804690B100220270826140F6C83202FB0562009B4461C361D2F8C02B18469047DAF84C285046414690473434E0E70137C7E709F1010955
:401140009FE7019A0123137003B0BDE8F08F00BF68670020483800207C6700202DE9F843FFF76CFCFFF79AFC4FF40070FFF73CFCFFF72CFC002404704FF40070FFF764FCA4
:40118000FFF78CFC4FF41070FFF72EFCFFF71EFC04704FF41070FFF757FCFFF77FFC4FF42070FFF721FCFFF711FC04704FF42070FFF74AFCFFF772FC4FF43070FFF714FC14
:4011C000FFF704FC04704FF43070FFF73DFCFFF701FC1D4B21464FF4C0721C489C700FF024F94B2005F038FA194E051DF06126D1BDE8F883174FD7F84838384698470446D1
:40120000E0B14FF000084561C0F81880C6614FF0010980F80090D6F8C03B0F489847E369384683F8689BE369214683F8698BE36993F8682B1A70D7F84C38984734352B68DD
:40124000002BD7D1BDE8F8836867002068380020483800207C6700204838002038B5FFF7EDFBFFF71BFC4FF4E070FFF7BDFBFFF7ADFB4F4C437AA374FFF7A8FB4D4B827A36
:401280001A71FFF7A3FBC37A1BB1FFF79FFBC37A00E01623484D2B70FFF798FB037B1BB1FFF794FB037B00E018236B70FFF7F6FB4FF4A070FFF798FBFFF788FB4578FFF735
:4012C00085FB03782D021D433C4B1D80FFF7E6FB4FF4A070FFF788FBFFF778FB1022002102300FF0A2F8FFF771FB00258570FFF76DFBC570FFF76AFB05230371FFF766FBB9
:4013000045714FF4A070FFF79FFBFFF75FFB08210230FFF740F8A081FFF7C0FB4FF4C070FFF762FBFFF752FB0821FFF734F8E081FFF7B4FB4FF40070FFF756FBFFF746FBDE
:4013400043791F4CB3FA83F35B09E372FFF7A6FB4FF41070FFF748FBFFF738FB4379B3FA83F35B0984F8D33BFFF798FB4FF42070FFF73AFBFFF72AFB437941F29B72B3FA96
:4013800083F35B09A354FFF789FB4FF43070FFF72BFBFFF71BFB437942F26332B3FA83F35B09A354FFF7F8FBBDE83840FFF712BB68670020D86F0020413800201ED0FF1F10
:4013C00048380020194B9B78022B02D0042B0CD021E0174B1A7882421FD093F8C83B83420CBF4FF4886000207047114B1A78824213D093F8C82B824212D041F290729A5C20
:40140000824210D042F258329B5C83420CBF4FF4986000207047002070474FF4806070474FF4886070474FF490607047686700204838002070B50B4B9E780023DAB2B24271
:401440000ED240F6C8351A46013305FB03F1064CA1F6C831095D8142F0D105FB024070BD002070BD68670020483800202DE9F8430446007BFFF7DEFF064618B901232370FD
:40148000BDE8F883637BC370FFF7D8FAFFF706FB3078FFF797FF0746FFF7A6FAF378032B00F2A280DFE803F002284F76624B04F10E05DA79032A1CD11B7A022B19D1217D63
:4014C0002846FEF768FF0A23B0FBF3F00EF06EF90CF0FEFE80468946227D002128460EF0A4FF494640460EF071FC00212A46FEF77FFEFFF76BFA73E04F4B04F10E05DA7980
:40150000032A1CD11B7A022B19D1217D2846FEF742FF0A23B0FBF3F00EF048F90CF0D8FE80468946227D002128460EF07EFF494640460EF04BFC00212A46FEF759FEFFF76C
:4015400045FA10304CE03C4B04F10E05DA79032A1CD11B7A022B19D1217D2846FEF71BFF0A23B0FBF3F00EF021F90CF0B1FE80468946227D002128460EF057FF4946404653
:401580000EF024FC00212A46FEF732FEFFF71EFA203025E0284B04F10E05DA79032A1CD11B7A022B19D1217D2846FEF7F4FE0A23B0FBF3F00EF0FAF80CF08AFE80468946A9
:4015C000227D002128460EF030FF494640460EF0FDFB00212A46FEF70BFEFFF7F7F930302946227D0EF016FF3846FFF72DFAFFF7F1F9452005F030F8051DF0613FF43EAFFF
:401600002B68002B3FF43AAFDFF83080D8F8483840469847074668B10023037083614561C661D6F8C03B30469847D8F84C384046394698473435E3E7686700207C6700206C
:401640002DE9F0418046007BFFF7F4FE064620B9012388F80030BDE8F081472004F0FCFF041DF061F4D02368002BF1D00B4FD7F8483838469847054668B100230370836104
:401680004461C661D6F8C03B30469847D7F84C383846294698473434E5E700BF7C670020F8B505462E2003F057FB2844017B2A4B1A78FF2A09D0012A05D15A788A4202D13D
:4016C0005C681CB9F8BD0833F2E7F8BD05F10C014FF4C07204F120000EF09CFE0B2003F03BFB204490F820300420A3F1390253425341637303F030FB2844037B0D2B05D116
:40170000052003F029FB2844007B02E00E2B03D1442004F0A1FFE061E56900230435237215D1F8BD0D4FD7F8483838469847064660B1002383614561C461D4F8C03B204620
:401740009847D7F84C3838463146984734352B68002BE7D1F8BD00BF0483FF1F7C670020F8B505462E2003F0F7FA2844017B2A4B1A78FF2A09D0022A05D15A788A4202D1DA
:401780005C681CB9F8BD0833F2E7F8BD05F10C014FF4C07204F120000EF03CFE0B2003F0DBFA204490F820300420A3F1390253425341637303F0D0FA2844037B0D2B05D177
:4017C000052003F0C9FA2844007B02E00E2B03D1442004F041FFE061E56900230435237215D1F8BD0D4FD7F8483838469847064660B1002383614561C461D4F8C03B204621
:401800009847D7F84C3838463146984734352B68002BE7D1F8BD00BF0483FF1F7C67002010B50E4C0E48238801332380D0F85038984768B182695AB1138A1BB1438A013308
:401840009BB2438253691BB1838901339BB283810CF082FC00236080238010BDC4D0FF1F7C6700202DE97043254DD5F85038284698470446002841D08369002B3ED01B8A71
:40188000002B3BD00CF068FC638A4FF47A719BB201FB0300228AA66992B2801A0DF096FF0022184B0EF022F98046308A89460DF08DFF02460B46404649460EF07DFAE8B1CE
:4018C000002363822382E38901339BB2E381B3680BB120469847E3899BB2142B04D9D5F854380748984703E0A36963610023A3610BF08EFCBDE870430BF082BBBDE87083EB
:401900007C67002000408F402DE9F041334ED6F8503830469847044600285CD04369002B59D02F4F002529464FF4007207F10C003D71FD800EF079FDE06929464FF4C072ED
:4019400000F5D0700EF071FD2946636903F11D0203F1210C12F801EFBEF1FF0F0ED009B912F8041CE0698578754502D1DB6A4BB909E062454FF00105ECD122E00DBBDB6A19
:401980000BB1E06998476369E06993E8060092B138601A7E124D12B192B2EA8001E0DB68AB6088476369A361002363610CF0D4FB2082BDE8F0818847236A1BB1606A984761
:4019C00000E011B1D6F8543801E0D6F844380348BDE8F0411847BDE8F08100BF7C670020D83500202DE9F041594E3379002B00F0AD80584FD7F8503838469847044600288C
:401A000000F099808369002B68D0002545820582F288C06992B200F5D07006F10C010EF0F9FCF288E369A846A3F820232A46A369591991F82600FF2829D0B8F1000F01D1EF
:401A400091F822805B6820469847E3699A78A369591991F82610914213D122783AB91B6B0BB120469847236A0BB1606A9847237803F0FF0553BBD7F85438364898472C4611
:401A80002CE00135042D4FF00102D0D101E0002A3BD0B8F1000F06D1A269537E83B123899BB2132B04D9D7F854382A48984742E02389626101339BB22381C4F818800DE064
:401AC00063899BB213B90CF047FB6081A369214863610023A361D7F844389847002529464FF400721C483571F5800EF09EFCE06929464FF4C07200F5D0700EF096FC0BF0EB
:401B000087FBBDE8F0410BF07BBA5B6820469847237843B9A3691B6B0BB120469847236A0BB1606A98472378002BBCD0A36963610023A361D2E7002421464FF40072064869
:401B40003471F4800EF071FCE369FFDEBDE8F081D83500207C670020E435002008B504F0E7FCFEF73FFD98B1202343703F4BC360242383703E4B03610723C3703D4B4361D8
:401B8000082303713C4B83610D2343713B4BC361FEF728FDF8B10E234370394BC3600F238370384B03611023C370374B436112230371364B836113234371354BC3611123D7
:401BC0008371344B03621423C371334B436215230372324B8362FEF757FC40B10E23437049F640438380052383700323C370FEF74BFC40B10F2343704AF6C8738380052362
:401C000083700323C370FEF73FFC40B12B2343704CF250338380052383700323C370FEF733FC50B1082343704CF250338380FA234381062383700323C370FEF725FC40B1DA
:401C400014230022437082804381062383700323C3700CF081FA124B58801248FEF7A4FABDE808401048FEF79FBA00BFA11600006117000021180000F10E00005D1200005C
:401C80005D110000B50F0000791000006D14000041160000950E000009190000690D0000C4D0FF1F65180000E5190000F8B50546046B03F06DF840F6C83306465A4803FB4D
:401CC00006030833DB780746002B7AD1574B1B78012B01D00026A5E0002CFBD02E2003F03BF82044037B0BB900261EE0042003F033F82044037B0E2B06D02B691B78042BEF
:401D0000F2D1EB780E2BEFD1FF236B71AB72042003F022F80026204406732E2003F01CF88C2320440673AB7001262E2003F014F82044037BF3B1832003F00EF82044037BC1
:401D4000B52B06D02B691B78832B13D1EB78B52B10D1FF236B71AB72832002F0FDFF0026204406732E2002F0F7FF8C2320440673AB7001262E2002F0EFFF2044037B002BE2
:401D800050D0832002F0E8FF2044037B462B06D02B691B78832B45D1EB78462B42D1FF236B71AB72832002F0D7FF0026204406738D2002F0D1FF8C2320440673AB700126C6
:401DC00030E0002C86D02E2002F0C6FF2044037B002B3FF47FAF042002F0BEFF2044037B452B00D043B92B691B78042B7FF472AFEB78452B3FF46EAF40F6C83000FB067041
:401E0000FF23C67A6B71AB72042002F0A5FF0027204407732E2002F09FFF2B2320440773F6B2AB703046F8BD48380020D86F002013B5D0F890411CB31323A37250F80C3F7B
:401E4000C4F81D304368C4F8213008232377FEF71BFB0346A0B16A460A490868496803C222780AB91F2200E023225A706A46032403CA08229C70D860A3F88C211961DC70A1
:401E800002B010BD500D010070B5042388B08DF818304FF6FF730578ADF81C300026C523ADF81E608DF81A30002D6ED103691B783E2B40F03881A320FEF7F0F80446002800
:401EC00061D0FEF7BBFDFEF7F5FDFEF73BFE04950595FEF7EBFD83785A0605D5FEF7E6FD8378C3F3001304E0FEF7E0FD8378C3F3011343F030038DF81030FEF7D7FD8378A4
:401F00003A2503F00F0343F030038DF811308DF81250FEF7CBFD4378C3F3021343F030038DF81330FEF7C2FD43788DF8155003F00F0343F030038DF81430FEF7B7FD037808
:401F4000C3F3021343F030038DF81630FEF7AEFD037803F00F0343F030038DF81730FEF739FD6B46082243F8042B08AA12E90300221D83E8030004ABC920BA2101F03EFFA5
:401F8000C22360802370A32070E0012D40F0CB8003691B783E2B40F0C680A420FEF77EF80446002861D0FEF749FDFEF783FDFEF7C9FD04960596FEF779FD83785B0605D51C
:401FC000FEF774FD8378C3F3001304E0FEF76EFD8378C3F3011343F030038DF81030FEF765FD83783A2503F00F0343F030038DF811308DF81250FEF759FD4378C3F30213E9
:4020000043F030038DF81330FEF750FD43788DF8155003F00F0343F030038DF81430FEF745FD0378C3F3021343F030038DF81630FEF73CFD037803F00F0343F030038DF810
:402040001730FEF7C7FC6B46082243F8042B08AA12E90300221D83E8030004ABC920BA2101F0CCFEC22360802370A420FEF716F80446002857D0FEF7E1FCFEF71BFDFEF705
:4020800061FD002304930593FEF710FD03792F25C3F3011343F030038DF81030FEF706FD03798DF8125003F00F0343F030038DF81130FEF7FBFC4379C3F3001343F0300346
:4020C0008DF81330FEF7F2FC43798DF8155003F00F0343F030038DF81430FEF7E7FC83791B0943F030038DF81630FEF7DFFC837903F00F0343F030038DF81730FEF76AFCD4
:402100006B46082243F8042B08AA12E90300221D83E8030004ABC9204FF4957101F06EFEC2236080237008B070BD000010B5032386B08DF810304FF6FF73ADF814300023D9
:40214000ADF81630C5238DF8123003780BB9A32000E0A420FDF7A2FF044688B16B46242243F8042B06AA12E90300221D83E80300044B2020EA2101F041FEC2236080237029
:4021800006B010BDA00D010038B5037804464BBB056B2E2002F0E0FD2844037B562B12D1FEF74CFCFEF77AFC4FF40070FEF71CFCFEF70CFC4579FEF70DFC0DB9A52300E0CC
:4021C000A623237138BD2E20256B02F0C5FD2844037B572B26D1FEF731FCFEF75FFC4FF42070E3E7012B1DD1056B2E2002F0B4FD2844037B562B06D1FEF720FCFEF74EFC7C
:402200004FF43070D2E72E20256B02F0A5FD2844037B572B06D1FEF711FCFEF73FFC4FF41070C3E738BD00002DE9F047804640F6C83502F0ADFD45432D4FEC19D4F8443B83
:4022400020469847D4F8583B204698470646D4F8483B20469847002E47D0E3237370EB5D2420B370D8F8305002F076FD284400F10C05242002F07EFD29460246F01C0EF023
:40228000C9F8242002F076FD0130C5B22520D8F8308002F061FD404400F10C08252002F069FD771902370246414638460EF0B2F838460EF037F9C1B23846FEF755F82520EF
:4022C00002F058FD2844C0B2A6F80201D4F8443B20469847D4F8503B204631469847D4F8483B2046BDE8F0471847BDE8F08700BF48380020F0B503238BB08DF810304FF6FA
:40230000FF730026ADF8143085238DF812300546ADF81660FEF792FBFEF7C0FB4FF4E070FEF762FBFEF752FB047AFEF753FB2F783FB9A320FDF7B2FE054650B306A83946AC
:4023400006E0A420FDF7AAFE054610B3314606A810220EF06AF8012C0CBF0F490F49224606A80EF0A5F806A80EF0DCF86B4680B243F8040B04AA92E803002A1D83E803006C
:4023800006ABF0204FF4957101F038FDC22368802B700BB0F0BD00BFC50D0100D00D010010B5032386B08DF810304FF6FF73ADF814300023ADF81630C5238DF812300378EF
:4023C0000BB9A32000E0A420FDF768FE044688B16B461D2243F8042B06AA12E90300221D83E80300044B6020EA2101F007FDC2236080237006B010BDDC0D010070B5032341
:4024000086B08DF810304FF6FF730678ADF814300025C523ADF816508DF8123036B9A320FDF73CFE0446F8B1468005E0A420FDF735FE0446C0B145806B466288262192B295
:4024400043F8041B224406A911E90300043283E80300064B1A20BA2101F0D0FC6388184480B2C2236080237006B070BD6F0E01002DE9F047032388B08DF818300023ADF8B7
:402480001C304FF6FF73ADF81E3085238DF81A30044602F07DFC03281FD8DFE800F002091017884B4FF44075DE784FF4007717E0844B4FF450751E794FF4107710E0814B29
:4024C0004FF460755E794FF4207709E07D4B4FF470759E794FF4307702E000252F462E462478002C71D1FEF7A9FAFEF7D7FA3846FEF77AFAFEF76AFAD0F801000590FEF74E
:4025000069FAFEF79BFAFEF7C9FA28466E4DFEF76BFA2F46E3B2B34280F0CB8005ABE35C013B032B4ED8DFE803F002101E2CA320FDF7B4FD8046002844D037F824A0B5F81A
:402540000290FEF743FA034628E0A320FDF7A6FD8046B8B337F824A0B5F80290FEF736FA00F110031AE0A320FDF798FD804648B337F824A0B5F80290FEF728FA00F12003FC
:402580000CE0A320FDF78AFD8046D8B137F824A0B5F80290FEF71AFA00F130036A46102142F8041B08A911E9030082E803005046494608F1040201F021FCC223A8F8020035
:4025C00088F8003001340435A4E7012C76D1FEF735FAFEF763FA3846FEF706FAFEF7F6F9D0F8010000240590FEF7F4F9FEF726FAFEF754FA2846344DFEF7F6F92F46E3B258
:40260000B34256D205ABE35C013B032B4ED8DFE803F002101E2CA420FDF740FD8046002844D037F824A0B5F80290FEF7CFF9034628E0A420FDF732FD8046B8B337F824A0A6
:40264000B5F80290FEF7C2F900F110031AE0A420FDF724FD804648B337F824A0B5F80290FEF7B4F900F120030CE0A420FDF716FD8046D8B137F824A0B5F80290FEF7A6F91F
:4026800000F130036A46102142F8041B08A911E9030082E803005046494608F1040201F0ADFBC223A8F8020088F8003001340435A5E708B0BDE8F047FEF78CB908B0BDE888
:4026C000F08700BF686700202C83FF1F70B5032386B08DF810304FF6FF730678ADF814300025C523ADF816508DF8123036B9A320FDF7D4FC0446F8B1468005E0A420FDF7D9
:40270000CDFC0446C0B145806B466288262192B243F8041B224406A911E90300043283E80300064B1A20BA2101F068FB6388184480B2C2236080237006B070BD960E010007
:4027400070B5054602F024FB40F6C833144A03FB002090F8A83B03B3002680F8A86B0B202C6B02F0F9FA204400F10C040B2002F001FB3146024620460DF057FE0B202C6BFB
:4027800002F0EAFA39232044037305202C6B02F0E3FA44232044037370BD0823037370BD48380020F0B5044685B018B303699A8DDB8D0283438303780BB9A32000E0A420CB
:4027C000FDF76CFC0546A8B16B462269278B92F83010668B43F8041B52F8320F51682A1D03C304F11D033846314601F007FBC22368802B7005B0F0BD2DE9F843064608B960
:40280000BDE8F88300231D46307FDCB2844203F101071DD2001B01380CF0D8FF02460B46002018490BF0A4FD33198046587F894600F00F000CF0CAFF0B46024649464046FD
:402840000DF02AF80DF0C2FA284485B23B46DBE7FEF7F4F8FEF722F94FF4A070FEF7C4F8FEF7B4F80570FEF7B1F82B0A43704FF4A070FEF7E9F8044B1D80BDE8F843FEF71F
:40288000A9B800BF000024401ED0FF1F70B5064638B3FEF7D3F8FEF701F94FF4A070FEF7A3F8FEF793F84478FEF790F8037806F11D0524021C43FEF78DF82846002110228D
:4028C0000DF0B3FD204600212A46FDF791FC28460DF028FEC1B231772846BDE87040FDF743BD70BD70B5054610B3FEF7A7F8FEF7D5F84FF4E070FEF777F8FEF767F805F159
:402900001D04467AFEF766F82046002110220DF08CFD304600212246FDF76AFC20460DF001FEC1B229772046BDE87040FDF71CBD70BDF0B5044685B018B303699A8DDB8DB7
:402940000283438303780BB9A32000E0A420FDF7A5FB0546A8B16B462269278B92F83010668B43F8041B52F8320F51682A1D03C304F11D033846314601F040FAC2236880D8
:402980002B7005B0F0BD00002DE9F843064608B9BDE8F88300231D46307FDCB2844203F101071DD2001B01380CF010FF02460B46002016490BF0DCFC33198046587F894626
:4029C00000F00F000CF002FF0B460246494640460CF062FF0DF0FAF92844C5B23B46DBE7FEF72CF8FEF75AF84FF4E070FDF7FCFFFDF7ECFF45724FF4E070FEF725F8044B4E
:402A00009D74BDE8F843FDF7E5BF00BF0000244068670020436B1BB101221A70002343637047000010B5037804463BB9FDF72CFDD0B160632723C0F8904108E0012B13D1AA
:402A4000FDF722FD80B160632823C0F890414370322343814FF47A738380044BC0F89431062383700323C37010BD00BF311E000070B5022388B08DF818304FF6FF730578DD
:402A8000ADF81C300026C523ADF81E608DF81A30002D61D103691B78012B40F01F81A320FDF7FCFA0446002854D0FDF7C7FFFEF701F8FEF747F804950595FDF7F7FF837894
:402AC0005A0605D5FDF7F2FF8378C3F3001304E0FDF7ECFF8378C3F3011343F030038DF81030FDF7E3FF837803F00F0343F030038DF811307A4B5B7D0BB13A2300E0202365
:402B00008DF81230FDF7D2FF4378C3F3021343F030038DF81330FDF7C9FF437803F00F0343F030038DF81430FDF754FF6B46052243F8042B08AA12E9030083E803001020D3
:402B40000DEB00034FF4DD71221D01F057F9C22360802370A32063E0012D40F0BF8003691B78012B40F0BA80A420FDF797FA0446002854D0FDF762FFFDF79CFFFDF7E2FF21
:402B800004960596FDF792FF83785B0605D5FDF78DFF8378C3F3001304E0FDF787FF8378C3F3011343F030038DF81030FDF77EFF837803F00F0343F030038DF81130484B63
:402BC0001B7F0BB13A2300E020238DF81230FDF76DFF4378C3F3021343F030038DF81330FDF764FF437803F00F0343F030038DF81430FDF7EFFE6B46052243F8042B08AA09
:402C000012E9030083E8030010200DEB00034FF4DD71221D01F0F2F8C22360802370A420FDF73CFA0446002858D0FDF707FFFDF741FFFDF787FF002304930593FDF736FF4F
:402C400003792F25C3F3011343F030038DF81030FDF72CFF03798DF8125003F00F0343F030038DF81130FDF721FF4379C3F3001343F030038DF81330FDF718FF43798DF8C9
:402C8000155003F00F0343F030038DF81430FDF70DFF83791B0943F030038DF81630FDF705FF837903F00F0343F030038DF81730FDF790FE6B46082243F8042B08AA12E98B
:402CC0000300221D83E8030004AB4FF404704FF4DD7101F093F8C2236080237008B070BD2C83FF1FF0B5042395B08DF820304FF6FF73D0F89041ADF8243025780026C523CD
:402D0000ADF826608DF82230002D40F0D48123691B78012B40F0B783A320FDF7BFF90646F0B1A34B197D4A1CD2B2032A1A75194488BF1D756B46C97D01228DF8141043F870
:402D4000042B08AA92E80300321D83E8030005AB4FF41470122101F051F8C223708033700023204606A9ADF8183001F05BFC204607A901F0DBFC9DF81930A3201BBBFDF726
:402D80008DF90246002833D09DF81D30061D63B1884D0AAB2868696803C329890AAD198003CD506071601B880BE0834B0AAD186859681B8903C52B800AAB03CB506071608E
:402DC0002B88338110E0FDF769F9024680B17B4D0AAB2868696803C329890AAD198003CD506091601B8893810A235380C2231370A320FDF753F9064620B30AAD2A46704B73
:402E000003F1080E2F4618685968083303C773453D46F7D118689B883860BB8013460CAF321D1D4603CDBD42106051602B4602F10802F6D128681060AB8893800E237380FF
:402E4000C22333709DF81830A3201BBBFDF726F90246002833D09DF81C30061D63B1554D0AAB2868696803C329890AAD198003CD506071601B880BE04F4B0AAD18685968C5
:402E80001B8903C52B800AAB03CB506071602B88338110E0FDF702F9024680B1474D0AAB2868696803C329890AAD198003CD506091601B8893810A235380C2231370A32073
:402EC000FDF7ECF8064620B30AAD2A463D4B03F1080E2F4618685968083303C773453D46F7D118689B883860BB8013460CAF321D1D4603CDBD42106051602B4602F10802CA
:402F0000F6D128681060AB8893800E237380C2233370274D6422AB7D5A43B2F5FA6F23DD2046FFF7A5FD0023AB756B7DA32083F001036B7501238DF82030FDF7AFF80446E8
:402F4000A0B16B460D2243F8042B08AA92E80300221D83E803001C4B0F200E2100F04EFFC2236080237001E00133AB7501238DF8203095F83130002B49D1144B1878FDF73C
:402F8000A9FA0646A3202EB3FDF788F8044600283DD06B46202243F8042B6A4492E80300221D83E80300B8204FF4E871084B29E02C83FF1F700D01007A0D0100580D01004D
:402FC000840D0100920D0100BD0E010041380020CB0E0100FDF762F80446C0B1202531462A460AA80DF021FA6B460DEB050243F8045B92E80300221D83E80300B8204FF4D2
:40300000E8710AAB00F0FAFEC22360802370B54D2B78FBB1A320FDF741F80446002800F032826B78021D53B11146AF4B03F1240053F8045B834241F8045BF9D1C0E11146B3
:40304000AA4B03F1200053F8045B834241F8045BF9D1CCE1A64B1A781C46002A40F01382A320FDF71BF8064610B3202128220AA80DF0DBF9AB780AA8042B0CBF9D499E4972
:403080000DF048FA0AA80DF04DFA6B4680B243F8040B08AA92E80300321D83E803000AABA0204FF4E87100F0A9FEC2237080337001232370E7E1012D40F0E58123691B7840
:4030C000012B40F0E081A420FCF7E8FF0546F0B18A4BD97E4A1CD2B2032ADA76194488BFDE766B46897F01228DF8141043F8042B08AA92E803002A1D83E8030005AB4FF438
:403100001470122100F07AFEC22368802B700023204606A9ADF8183001F084FA204607A901F004FB9DF81930A4201BBBFCF7B6FF0246002833D09DF81D30061D63B1704D05
:403140000AAB2868696803C329890AAD198003CD506071601B880BE06A4B0AAD186859681B8903C52B800AAB03CB506071602B88338110E0FCF792FF024680B1624D0AAB12
:403180002868696803C329890AAD198003CD506091601B8893810A235380C2231370A420FCF77CFF074620B30AAD2A46574B03F1080E2E4618685968083303C67345354645
:4031C000F7D118689B883060B38013460CAE3A1D1D4603CDB542106051602B4602F10802F6D128681060AB8893800E237B80C2233B709DF81830A4201BBBFCF74FFF0246B5
:40320000002833D09DF81C30061D63B13C4D0AAB2868696803C329890AAD198003CD506071601B880BE0374B0AAD186859681B8903C52B800AAB03CB506071602B88338109
:4032400010E0FCF72BFF024680B12F4D0AAB2868696803C329890AAD198003CD506091601B8893810A235380C2231370A420FCF715FF074620B30AAD2A46254B03F1080E52
:403280002E4618685968083303C673453546F7D118689B883060B38013460CAE3A1D1D4603CDB542106051602B4602F10802F6D128681060AB8893800E237B80C2233B7008
:4032C0000E4D64226B7F5A43B2F5FA6F22DD2046FFF7CEFB00236B772B7F83F001032B771AE000BF68670020EC0E0100110F0100C8D0FF1F350F01005D0F01002C83FF1F71
:40330000700D01007A0D0100580D0100840D0100920D010001336B7701238DF8203095F86D30B3BB594B5878FDF7D4F80646A42096B1FCF7B3FE044658B36B46202243F896
:40334000042B6A4492E80300221D83E80300B8204FF4E8714E4B17E0FCF7A0FE0446C0B1202531462A460AA80DF05FF86B460DEB050243F8045B92E80300221D83E8030050
:40338000B8204FF4E8710AAB00F038FDC22360802370404E3378002B3ED0A420FCF77EFE044600286FD07378021DB3B111463A4B03F1240053F8045B834241F8045BF9D1DE
:4033C0006B46242143F8041B08A903C983E80300B8204FF4E871304B19E011462F4B03F1200053F8045B834241F8045BF9D118889B7808808B706B46232143F8041B08A9BE
:4034000003C983E80300254BB8204FF4E87100F0F5FCC22360804CE6214B5A781C4692BBA420FCF73BFE054658B3202128220AA80CF0FBFF0AA80DF075F82F1D0AA90246CD
:4034400038460CF0E7FFB3780AA8042B0CBF154915490DF05FF80AA80DF064F86B4680B243F8040B08AA92E803003A4683E803000AABA0204FF4E87100F0C0FCC223688026
:403480002B700123637015B0F0BD00BF41380020CB0E010068670020EC0E0100110F0100C8D0FF1F350F01005D0F010010B5037804465BB92120FDF723F8E0B10E4B6063C8
:4034C000C0F89431C0F8904121230CE0012B12D12520FDF715F870B1074B6063C0F89431C0F8904125234370062383704FF47A7343810323C37010BD891E0000037823B9D6
:40350000436B3BB101221A707047012B02D1426B02B113707047000038B50578044655B92220FCF7EDFFD0B10D4B60639D75C0F8904122230CE0012D11D12620FCF7E0FF81
:4035400068B1074B00225A7760632623C0F89041437006238370642343810323C37038BD2C83FF1FD0F8943113B1D0F8900118477047037823B9436B3BB101221A7070470E
:40358000012B02D1426B02B11370704710B5C378392B1CD10E4C1623237018236370FDF74DFAFDF77BFA4FF4E070FDF71DFAFDF70DFA2378C372FDF709FA637803734FF455
:4035C000E070FDF741FABDE81040FDF703BA10BD4138002010B5C378104C8C2B03D08D2B04D1162300E0182323706370FDF726FAFDF754FA4FF4E070FDF7F6F9FDF7E6F974
:403600002378C372FDF7E2F9637803734FF4E070FDF71AFABDE81040FDF7DCB9413800200139F0B5CEB200243246234655B2002D0FDD475D2C2F00D034B16C1E075D475526
:4036400000250555012401E00133DBB2013AD2B2ECE7164A002C527A08BF00239B1ADBB25AB2002A0EDD324651B2002904DD0024013A4454D2B2F7E7013BDAB2D3B2002A78
:40368000F1D111E083B10024E2B252B28A4204F1010405DA551C465D865430224255F3E7013313F0FF03EED1F0BD00BF686700202DE9F74F824640F6C83501F069FB45438A
:4036C0005E4C80462F19D7F8443B38469847D7F8583B384698470646D7F8483B38469847A146002E00F0A680A22373702B5D0720B370DAF8304001F02FFB2044037B122097
:40370000F370DAF8304001F027FB204400F10C04122001F02FFB351D0246214628460CF079FE122001F026FB01462846FCF71CFE122001F01FFB0330C5B20E20DAF83040E0
:4037400001F00AFB204400F10C040E2001F012FB06EB050B0BF1020B0246214658460CF059FE0E2001F006FB01465846FCF7FCFD0E2001F0FFFA2844C4B20520DAF83050B6
:4037800001F0EAFA2844057B3319102D06D0432D07D00F2D09D10134022204E00134012201E0013403229A70E4B2DAF830303219062002F1020B0192009301F0CDFA009B00
:4037C0000830184450F8043F019A102DC2F802304368CBF8043003D158460821FFF720FF58460821FCF7C0FD0620DAF8305001F0B3FA0834284408220021E4B20C300CF046
:4038000014FEA6F8024140F6C83404FB0894002384F8A83B3846D4F8443B9847D4F8503B3846314698473846D4F8483B03B0BDE8F04F184703B0BDE8F08F00BF483800207A
:403840004B4B73B51B7803F0FF02002B7DD1B0F88C11484CC9B20C3084F8312000F097FB84F8270004F1240000F00AFB94F826302646FF2B07D194F82930FF2B03D194F83B
:403880002E30FF2B58D0F36D0BB13B48984796F827203A4B13F8015FFF2D02D09542F9D107E0344C04F1240000F025FB0346002852D1314801F0C8F92F4800F055FB034627
:4038C00008B12D4898472C4800F099FB2A4800F025FB034608B128489847AA238DF8003070238DF8013000238DF80230736BA3201B788DF80330CC238DF8043033238DF8DC
:403900000530C3238DF806303C238DF80730FCF7C5FB044648B10823438042886946043092B20CF077FDC2232370134800F009FB034650B1104807E004F1240000F0C8FA36
:40394000034610B104F12400984709F065FE02B0BDE8704009F052BD04F1240098470028A7D184F8265084F8295084F82E50ECE7686700202C83FF1F5083FF1FC783FF1F79
:403980002DE9F04101F004FA40F6C8364643DFF8548006EB0804D4F8443B20469847D4F8583B204698470546D4F8483B20469847B5B1E6236B7016F808302046AB70012324
:4039C000A5F80231D4F8443B9847D4F8503B204629469847D4F8483B2046BDE8F0411847BDE8F081483800204C4B73B51B7803F0FF02002B7ED1B0F88C11494CC9B20C30D1
:403A000084F86D2000F0C3FA84F8630004F1600000F036FA94F862302646FF2B07D194F86530FF2B03D194F86A30FF2B59D0D6F898300BB13B48984796F863203A4B13F803
:403A4000015FFF2D02D09542F9D107E0344C04F1600000F050FA0346002852D1314801F0F3F8304800F080FA034608B12D4898472C4800F0C4FA2B4800F050FA034608B15F
:403A800028489847AA238DF8003070238DF8013000238DF80230336FA4201B788DF80330CC238DF8043033238DF80530C3238DF806303C238DF80730FCF7F0FA044648B1CD
:403AC0000823438042886946043092B20CF0A2FCC2232370134800F034FA034650B1114807E004F1600000F0F3F9034610B104F16000984709F08CFF02B0BDE8704009F0DF
:403B00007BBE04F1600098470028A7D184F8625084F8655084F86A50ECE700BF686700202C83FF1F8C83FF1FC783FF1F2DE97343514C524B25691A78FF2A45D02978914228
:403B400040D19B88002B00F0898023890A2001339BB2238158430BF039FE8046A88889460BF024FE02460B4640464946424E0CF019F9002872D00023F370AB79B3720BE0D3
:403B80000133062B20D012F8010F8842F8D12B445B7E0022E2706371FCF776FC034698B16A46374903240868496803C21F225A706A469C7003CA0822A3F88C21D860196187
:403BC000DC7001E04433B6E72E4C2C4B25691A78FF2A4DD0297891423ED19B88002B42D023890A2001339BB2238158430BF0EEFD8046A88889460BF0D9FD02460B46404619
:403C00004946204E0CF0D8F868B30023F370AB79B3720BE00133062B2AD012F8010F8842F8D12B445B7E0022E2706371FCF72CFC0346E8B16A46124903240868496803C235
:403C400023225A706A469C7003CA0822A3F88C21D8601961DC700BE04433B8E7217905F1120200238FE7217905F112020023D4E702B0BDE8708300BF5083FF1FD883FF1F09
:403C80008B0F01008C83FF1F7FB5AA232A4D8DF8003070238DF801302B6900261B78A3208DF80330CC238DF8043033238DF80530C3238DF806303C238DF802608DF80730A3
:403CC000FCF7ECF9044650B108232E63438042886946043092B20CF09DFBC2232370AA23164D8DF8083070238DF809302B6900261B78A4208DF80B30CC238DF80C30332310
:403D00008DF80D30C3238DF80E303C238DF80A608DF80F30FCF7C2F9044658B108232E63438042880DEB0301043092B20CF072FBC223237004B070BD5083FF1F8C83FF1F68
:403D400008B5FCF74FFC90B11F234370244B2522C36023238370234B427103612923C370214B436121230371204B8361C361FCF739FC30B1222343701D4B2622C3608270FB
:403D80000361FFF781FFFCF77FFB38B129234370062383700A2343810323C3702220FCF7AFFB58B1134B5863C0F890312223437006238370642343810323C3702620FCF703
:403DC0009FFB58B10C4B5863C0F890312623437006238370642343810323C37008BD00BF41380000E93900002D3B000065350000E52C00005083FF1F8C83FF1FF7B5864611
:403E0000BDF82050BDF82860BDF82A70144692B31A4A6171106892880090ADF80420BDF8002084F803E022804FEA1E22A2700A0A22719DF824209DF8261002F00F0242F030
:403E40002002A271022222723A0A6272320AE171E27219462A46A772267304F10D000CF0D9FA05F10D03DDF802209BB205F11100E25080B200E0104603B0F0BD930F01001B
:403E800070B542691378FF2B21D0136823F07F4103691B6823F07F43994216D1C478911D002311F8015FA54203D113445B7B837070BD0E7B0579AE4203D113445B7E43718B
:403EC00070BD0133062BECD170BD4432DAE770BD43691A78FF2A0CD01A6822F07F410269126822F07F42914201D1586A70474433EFE70020704743691A78FF2A0CD01A688C
:403F000022F07F410269126822F07F42914201D1986A70474433EFE70020704743691A78FF2A0CD01A6822F07F410269126822F07F42914201D1D86B70474433EFE700201A
:403F4000704743691A78FF2A0CD01A6822F07F410269126822F07F42914201D1186A70474433EFE70020704743691A78FF2A0CD01A6822F07F410269126822F07F42914217
:403F800001D1186C70474433EFE700207047014411F8013C3C2B0ED111F8023CC32B0AD111F8033C332B06D111F8043CCC2B02D111F8050C70470020704730B5827843692C
:403FC000FF2A03D14279FF2A08BF827A0169C4780D781978FF290FD08A420BD159788D4201D0FF2906D19878844206D0FF2804D0FF2902D04433ECE70023184630BDF8B53C
:404000000446FFF7DAFF0025FF2304F11D071026294632462061A3706371A3722571E570258138460CF001FA0AF040F92577E080294638463246BDE8F8400CF0F6B9007FCC
:40404000003018BF0120704710B50446007FE0B1FCF724FD4FF4E070FCF7C6FCFCF7B6FC042200F10D0104F11D000CF063FA58B994F821302C2B0BBF1E231D23E370E3707B
:404080000CBF2F232623A370012010BD10B5037F04468BB1FCF702FD4FF4E070FCF7A4FCFCF794FCD4F81D30C0F80D30BDE810404FF4E070FCF7C8BC10BDF0B5044685B033
:4040C000002848D0C0780B2802D1002525770CE000F034FEA0F13103DBB2082B054604D9237F002B37D02C2835D0267F56B9236904F11D009A8DDB8D2283638320211022BA
:404100000CF093F9236993F83030B34223D91DB1731C26442377757723780BB9A32000E0A420FBF7BBFF0546A8B16B462269278B92F83010668B43F8041B52F8320F5168E5
:404140002A1D03C304F11D0338463146FFF756FEC22368802B7005B0F0BD0000F0B5044689B0002870D0C0780B2808D10025257704F11D00294610220CF057F92AE000F086
:40418000DDFDA0F13103DBB2082B054602D9237F002B59D004F11D0630462C210CF0ACF908B12C2D50D0294BDB790BB92C2D4BD00021102204A80CF038F9314604A8227FE6
:4041C0000CF028F904A82C210CF096F910B10378002B39D1267F56B9236904F11D009A8DDB8D22836383202110220CF01EF9236993F83030B34227D9144B1B7CB34223D968
:404200001DB1731C26442377757723780BB9A32000E0A420FBF742FF0546A8B16B462269278B92F83010668B43F8041B52F8320F51682A1D03C304F11D0338463146FFF740
:40424000DDFDC22368802B7009B0F0BD686700202DE9F041044688B0002800F08180C0780B2808D10025257704F11D00294610220CF0DBF839E000F061FDA0F13003DBB286
:40428000092B054602D9237F002B69D004F11D0840462C210CF030F908B12C2D60D0637F302B04D12C2D02D1A37F2C2B58D02E4B5E7A1F460EB92C2D52D00021102204A874
:4042C0000CF0B3F8414604A8227F0CF0A3F804A82C210CF011F940B10CF024F93B7C062B08BF06F1FF36B0423AD8267F56B9236904F11D009A8DDB8D2283638320211022E5
:404300000CF093F8236993F83030B34228D9164B1B7C013B9E4223DA1DB1731C26442377757723780BB9A32000E0A420FBF7B6FE0546A8B16B462269278B92F83010668B72
:4043400043F8041B52F8320F51682A1D03C304F11D0338463146FFF751FDC22368802B7008B0BDE8F08100BF68670020F0B5037F85B00BB9184653E06F466D46C3F110047F
:40438000E4B200F11D0600F12D02BE46306871680836AEE8030096427746F6D1DAB251B20F2907DC04A801440132002001F8100CD2B2F4E7013BDBB25AB2002A0EDB04A994
:4043C00004A821441144024412F8100C00F00F0001F8100C002102F8101CEBE72846102103F0D4FC28461021FBF7BEFF10212846FBF7D1FF0446FCF721FBFCF74FFB4FF4D4
:40440000A070FCF7F1FAFCF7E1FA10210230FBF7C2FF0546FCF7DEFAAC4234BF0020012005B0F0BDF0B5037F85B00BB9184641E06F466D46C3F11004E4B200F11D0600F1A6
:404440002D02BE46306871680836AEE8030096427746F6D1DAB251B20F2907DC04A801440132002001F8100CD2B2F4E7013BDBB25AB2002A0EDB04A904A8214411440244C2
:4044800012F8100C00F00F0001F8100C002102F8101CEBE728461021FBF766FF28461021FBF779FF0F23B0FBF3F3C3EB0313C31A5842584105B0F0BD10B5304B9B78042B2F
:4044C00059D103782BBBC278562A02D0572A0AD01BE02B4A91780629114602D09278072A10D14B7A0CE041F29271254A505C0628104602D0525C072A04D141F29973C35CF3
:4045000083F0010303F0010400E001241D4B18782BE0012B2FD1C278562A02D0572A0ED020E042F25A32164B995C0629194602D09B5C072B12D142F26133CB5C0BE0104B36
:4045400093F8CA2B062A1A4603D093F8CA3B072B04D192F8D13B83F0010300E0002303F0010400E01C46074B5878FBF7B3FF80F00100204010BD012010BD00BF6867002077
:40458000483800204138002010B5234B9B78022B24D1007868B9214B9A78062A1A4602D09B78072B03D1507A80F0010425E0044623E001282BD1194B93F8CA2B062A1A469E
:4045C00003D093F8CA3B072B04D192F8D14B84F0010400E00024124B587810E0012B16D10478B4B90D4B9A78062A1A4602D09B78072B02D1547A84F00104094B1878FBF714
:4046000069FF80F00100204000F0010010BD012010BD184610BD00BF6867002048380020413800203F4B9B78042B28D10378BBB93D4A9078062802D09078072802D1537A69
:4046400083F001030B7041F29273D05C062803D03548C35C072B62D141F29973D35C5BE0012B5ED142F25A322F4B985C062802D09A5C072A2BD142F261329A5C24E0022B9F
:4046800033D103789BB9284A9078062802D09078072802D1537A83F001030B709378062B03D0214B9B78072B39D1537A34E0012B37D11D4B93F8CA2B062A03D093F8CA2B9A
:4046C000072A04D193F8D12B82F0010200E000220A7093F8CA2B062A04D0134A92F8CA2B072A1CD193F8D13B16E0012B19D10278BAB90D4B9878062802D09878072802D1B4
:404700005A7A82F001020A709A78062A03D0064A9278072A03D15B7A83F0010300E000234B7070476867002048380020154B9B78042B0FD1037833B9134B5A7B0A7041F229
:404740009D729B5C1BE0012B1AD142F265320E4B9A5C08E0022B0AD1037863B1012B0FD1094B93F8D52B0A7093F8D53B07E0012B06D1037823B9044B5A7B0A705B7B4B7018
:40478000704700BF6867002048380020F0B5044685B000283ED0C0780B2802D10026267702E000F0CBFA0646257F55B9236904F11D009A8DDB8D22836383202110220BF0DE
:4047C00034FE236993F83030AB4223D91EB16B1C254423776E7723780BB9A32000E0A420FBF75CFC0546A8B16B462269278B92F83010668B43F8041B52F8320F51682A1DA7
:4048000003C304F11D0338463146FFF7F7FAC22368802B7005B0F0BDF0B5044685B0002846D0C0780B2802D1002525770AE000F085FAA0F13003DBB2092B054602D9237FF0
:40484000002B35D0267F56B9236904F11D009A8DDB8D22836383202110220BF0E6FD236993F83030B34223D91DB1731C26442377757723780BB9A32000E0A420FBF70EFCD4
:404880000546A8B16B462269278B92F83010668B43F8041B52F8320F51682A1D03C304F11D0338463146FFF7A9FAC22368802B7005B0F0BD70B5044688B000284DD0C0786F
:4048C0000B2802D10026267702E000F037FA0646257F55B9236904F11D009A8DDB8D22836383202110220BF0A0FD236993F83030AB4232D91EB16B1C254423776E772678E0
:404900003EB9A320FBF7CAFB054630B304A8314606E0A420FBF7C2FB0546F0B104A8002110220BF082FD227F2A2104A80BF07DFD6B462269268B92F83010648B43F8041BEA
:4049400052F8320F51682A1D03C304AB30462146FFF754FAC22368802B7008B070BD0000144B9B78022B02D0042B07D01CE0124B1A7882421CD093F8C82B0FE00E4B1A785F
:40498000824215D093F8C82B82420FD041F290729A5C82420CD042F258329A5C074B82420CBF18460020704700207047034870470348704768670020483800208C83FF1F01
:4049C0005083FF1F70B5054648B300F0E1F903280FD8DFE800F00205080B114BDB7809E00F4B1B7906E00E4B5B7903E00C4B9B7900E000230B4C22788AB1E97891420CD187
:404A000062789A4209DA07202E6B00F0A5F9637830440373A3232B7170BD0234EBE770BD68670020CC83FF1F10B5044678B1006B28B10C3000214FF4C0720BF0F6FC04F17A
:404A40001D0000211022BDE810400BF0EEBC10BD38B50446002851D0006B30B100214FF4C0720C300BF0E1FC0BE0FBF70DFD237820630BB9202300E024234370236B032250
:404A80009A7004F11D00002110220BF0CEFC1C4B9B78032B00D938BD1A4D2B7863B3226912789A4226D12E2A26D1217859B96B88206B2A7918440C300BF0B7FC226B6B8863
:404AC000134456220DE0012916D16B88206B2A7918440C3000210BF0A8FC226B6B88134457221A73FA20256B00F036F923782844037301E00635D0E7A423237138BD00BF6B
:404B000068670020B491FF1F38B50546002800F09980046B002C00F09580FBF78FFFFBF7BDFF2B782E20002B3CD100F015F92044037B562B0AD0572B6ED1FBF7AFFFFBF735
:404B400045FF2B6B03F10C024C3319E0FBF7A6FFFBF73CFF2B6B03F10C024C3352F8041B9A4240F8041BF9D1042000F0F5F82044037B0D2B0CBF4FF4C0604FF4D06049E0BB
:404B800052F8041B9A4240F8041BF9D1042000F0E3F82044037B0D2B0CBF4FF400604FF4086037E000F0D8F82044037B562B08D0572B31D1FBF70AFF2B6B03F10C024C33C5
:404BC00017E0FBF703FF2B6B03F10C024C3352F8041B9A4240F8041BF9D1042000F0BCF82044037B0D2B0CBF4FF410604FF4186010E052F8041B9A4240F8041BF9D10420B8
:404C000000F0AAF82044037B0D2B0CBF4FF4E0604FF4F060FBF718FFFBF7DCFEFBF734FC054663780C30DBB200F80B3CA37804F10C01DBB200F80A3C4FF4C0720BF0EAFB85
:404C40000323EB7038BD000038B50546002870D0036B03B938BD374C2178002969D02A6912788A4263D10D2A32D00CD8062A2FD004D8042A3CD0052A3AD038BD0A2A44D08C
:404C80000B2A35D038BD242A3FD004D80E2A3CD0122A3AD038BD252A37D02E2A00D038BD254A9278042A44D160882279184400210C300BF0BAFB6388296BEA780B441A7335
:404CC000FA202C6B00F048F82B782044037338BD60880021184422790C300BF0A6FB2A7F60882B6B801A1844143005F11D011AE060880021184422790C300BF096FB296BBE
:404D00006388EA780B441A7338BD60880021184422790C300BF089FB6388286B2A7F18440C3005F11D01BDE838400BF073BB063492E738BDB491FF1F68670020054A1378AD
:404D40002BB1834201D1507870470232F7E71846704700BF6491FF1F054A13782BB1834201D1508870470632F7E71846704700BFB491FF1F054A13782BB1834201D1107949
:404D800070470632F7E71846704700BFB491FF1F10B50378044653B92E20FFF7DDFF236B1844037B572B0CBF0220002010BD012B0ED12E20FFF7D0FF236B1844007B562874
:404DC00004D0A0F157035842584110BD032010BD002010BD38B503780446AA2B0D4601D0072921D8631913F8012C3C2A1ED113F8022CC32A1AD113F8032C332A16D113F8A0
:404E0000043CCC2B12D1FBF73FFB68B103221F23437082702368C3606368A0F88C510361034BC27004221A60012038BD002038BD80E100E038B503780446AA2B0D4601D07E
:404E4000072921D8631913F8012C3C2A1ED113F8022CC32A1AD113F8032C332A16D113F8043CCC2B12D1FBF70FFB68B103222323437082702368C3606368A0F88C510361D5
:404E8000034BC27008221A60012038BD002038BD80E100E038B5044600B938BD002362885D1C92B2DBB2934207D2D4F8082123441879926B90472B46F1E738BD10B504466A
:404EC000064B22461868064B1988FBF7CDFE2246BDE8104003480621FBF7C6BE18D0FF1F1CD0FF1F1A92FF1F024610B500F12001131A12F8014BDBB214B18A42F8D11F23E0
:404F0000184610BD0120FFF7D9BF0220FFF7D6BF70B506460D461446FBF7C0FD4FF40070FBF762FDFBF752FD0378B34253D1032D13D8DFE805F002060A0EFBF747FD45785A
:404F40000CE0FBF743FD857808E0FBF73FFDC57804E0FBF73BFD057900E00025FBF79EFD013D4FF44070FBF73FFD032D00F24E81DFE805F0020D1925FBF728FD00F1100331
:404F800050F8042B984244F8042BF9D170BDFBF71DFD103000F1100350F8042B984244F8042BF9D170BDFBF711FD00F12003303053F8042B834244F8042BF9D170BDFBF734
:404FC00005FD00F13003403053F8042B834244F8042BF9D170BDFBF761FD4FF41070FBF703FDFBF7F3FC0378B34253D1032D13D8DFE805F002060A0EFBF7E8FC45780CE08A
:40500000FBF7E4FC857808E0FBF7E0FCC57804E0FBF7DCFC057900E00025FBF73FFD013D4FF45070FBF7E0FC032D00F2EF80DFE805F0020D1925FBF7C9FC00F1100350F8A3
:40504000042B984244F8042BF9D170BDFBF7BEFC103000F1100350F8042B984244F8042BF9D170BDFBF7B2FC00F12003303053F8042B834244F8042BF9D170BDFBF7A6FCD9
:4050800000F13003403053F8042B834244F8042BF9D170BDFBF702FD4FF42070FBF7A4FCFBF794FC0378B34253D1032D13D8DFE805F002060A0EFBF789FC45780CE0FBF746
:4050C00085FC857808E0FBF781FCC57804E0FBF77DFC057900E00025FBF7E0FC013D4FF46070FBF781FC032D00F29080DFE805F0020D1925FBF76AFC00F1100350F8042B30
:40510000984244F8042BF9D170BDFBF75FFC103000F1100350F8042B984244F8042BF9D170BDFBF753FC00F12003303053F8042B834244F8042BF9D170BDFBF747FC00F173
:405140003003403053F8042B834244F8042BF9D170BDFBF7A3FC4FF43070FBF745FCFBF735FC0378B34251D1032D13D8DFE805F002060A0EFBF72AFC45780CE0FBF726FCC3
:40518000857808E0FBF722FCC57804E0FBF71EFC057900E00025FBF781FC013D4FF47070FBF722FC032D31D8DFE805F0020D1925FBF70CFC00F1100350F8042B984244F89D
:4051C000042BF9D170BDFBF701FC103000F1100350F8042B984244F8042BF9D170BDFBF7F5FB00F12003303053F8042B834244F8042BF9D170BDFBF7E9FB00F13003403042
:4052000053F8042B834244F8042BF9D170BD00002DE9F04180460D461E461446104641462A460BF0F7F8002E32D0771C08EB0601AA1BE0190BF0EEF81B4BD97C1A4611F000
:40524000010F214614BF2E232C23A355E35D43F03003E355D07C0B7810F0010F14BF2E202C20834204D043F0300301F8013BF1E70135EDB20CE0CE1AA05D013240B9DB4326
:405280000B44E15CA155E054D3B2691E8B42F2DB631913F8012C002AF6D020462946FBF763F82846BDE8F081686700202DE9F8430C460546FBF7C2FB01212246B448FBF744
:4052C000D3FCFBF7EBFB0020FBF78EFBFBF77EFBFFF70AFE0227C0F11F0191FBF7F10646C9B22246AB48FBF7BFFCFBF76FFBB1B22246FBF7B9FC01212246A548FBF7B4FCDF
:40530000FBF764FB2030FFF7EFFDC0F11F0191FBF7F10646C9B222469E48FBF7A5FCFBF755FBB1B222462030FBF79EFC012122469748FBF799FCFBF7B1FB4020FBF754FBE5
:40534000FBF744FBFFF7D0FDC0F11F0191FBF7F10646C9B222468F48FBF786FCFBF736FBB1B22246FBF780FC012122468848FBF77BFCFBF72BFB2030FFF7B6FDC0F11F0179
:4053800091FBF7F10646C9B222468248FBF76CFCFBF71CFBB1B222462030FBF765FC012122467B48FBF760FCFBF778FB8020FBF71BFBFBF70BFBFFF797FDC0F11F0191FB28
:4053C000F7F10646C9B222467248FBF74DFCFBF7FDFAB1B22246FBF747FC012122466C48FBF742FC1F2122466B48FBF73DFC012122466748FBF738FC012122466548FBF73C
:4054000033FC012000F0F6FD06460BF08BF881B23046624E2246FBF727FCFBF793FB00211F2230460BF001F8FBF740FB03794FF02F08C3F3011343F030033370FBF736FB38
:40544000037986F8028003F00F0343F030037370FBF72CFB4379C3F3001343F03003F370FBF724FB437986F8058003F00F0343F0300333713223B3713023F371FBF716FBE9
:4054800083791B0943F030033372FBF70FFB83790A2103F00F0343F03003224630467372FBF7E2FB012122463948FBF7DDFB012122463848FBF7D8FB384600F09BFD0746AA
:4054C0000BF030F8224681B23846FBF7CDFBFBF7EDFA837803F0400303F0FF079BB1FBF7E5FA83780127C3F3001343F030033370FBF7DCFA837803F00F0343F03003737090
:40550000FBF7D4FA0FE0FBF7D1FA8378C3F3011343F030033370FBF7C9FA837803F00F0343F0300373704FF03A0986F80290FBF7BDFA4378DFF86480C3F3021343F0300351
:40554000F370FBF7B3FA437886F8059003F00F0343F030033371FBF7A9FA0378C3F3021343F03003B371FBF7A1FA037803F00F0343F03003F3719FB1202388F80830412361
:4055800088F809304D2388F80A300B2109E000BF2092FF1FE4370020223800200338002008212246B048FBF75FFB01212246AF48FBF75AFB1F212246AD48FBF755FB0121B6
:4055C0002246AA48FBF750FB01212246A948FBF74BFB062000F00EFD06460AF0A3FFDFF8988281B222463046FBF73EFB00211F229D480AF01AFF98F81230287B9A4A18441C
:40560000C117FAF7F5FD98480AF08CFFC1B29648FAF7AAFE94480AF085FF224681B29248FBF722FB012122469048FBF71DFB012122469048FBF718FB072000F0DBFC064675
:405640000AF070FF224681B23046FBF70DFB0A21224605F12C00FBF707FB012122468348FBF702FB012122468248FBF7FDFA152000F0C0FC06460AF055FF224681B2304600
:40568000FBF7F2FA00211F2277480AF0CEFE287B697B754AFFF73CFC0A2122467248FBF7E3FA012122467148FBF7DEFA012122467048FBF7D9FA162000F09CFC06460AF07D
:4056C00031FF224681B23046FBF7CEFA00211F2265480AF0AAFE0023A97B634A05F10F00FFF796FDA97B22465F48FBF7BDFA98F80A0000F09BFC06460AF014FF224681B28B
:405700003046FBF7B1FA012122465848FBF7ACFA012122465748FBF7A7FA172000F06AFC06460AF0FFFE224681B23046FBF79CFAAE7B0021F71C1F22FFB24B480AF075FE20
:40574000E819074698F80930397B474A0D30FFF75FFD397B22464448FBF786FA98F80A0000F056FC80460AF0DDFE224681B24046FBF77AFA012122463C48FBF775FA012195
:4057800022463C48FBF770FA182000F033FC80460AF0C8FE224681B24046FBF765FA331D3E7B00211E441F22F6B22F480AF03DFEA81907460023397B2B4A0D30FFF728FD7F
:4057C000397B22462848FBF74FFA012122462748FBF74AFA224601212648FBF745FAFBF75DF94FF40070FBF7FFF8FBF7EFF82B7B02789A420AD1FBF751F995F827300D2B9E
:405800000CBF4FF4C0604FF4D0604DE0FBF746F94FF41070FBF7E8F8FBF7D8F82B7B02789A420AD1FBF73AF995F827300D2B0CBF4FF4E0604FF4F06036E0FBF72FF94FF4A6
:405840002070FBF7D1F8FBF7C1F82B7B02789A4214D1FBF723F995F827300D2B0CBF4FF400604FF408601FE0033800202092FF1F22380020E437002068670020FBF70EF947
:405880004FF43070FBF7B0F8FBF7A0F82B7B02789A420BD1FBF702F995F827300D2B0CBF4FF410604FF41860FBF79EF895F82780B8F10D0F58D10A20FFF75CFA07460A2030
:4058C000FFF74AFA002105461F2224480AF0ADFDFBF77CF8E9B201443A4620480AF09AFD032000F087FB05460AF01CFEB6B281B222462846FBF7B8F9314622461748FBF7BA
:40590000B3F9012122461648FBF7AEF9012122461448FBF7A9F90E20FFF72CFA07460E20FFF71AFA002105461F220C480AF07DFDFBF74CF8E9B201443A4608480AF06AFD35
:40594000042000F057FB05460AF0ECFD224681B22846FBF789F901483146E6E1033800202092FF1FE4370020B8F10E0F40F0E0814046FFF7FFF981464046FFF7EDF9002114
:4059800007461F22DA480AF050FDFBF71FF8F9B201444A46D6480AF03DFD042000F02AFB07460AF0BFFD224681B23846FBF75CF931462246CE48FBF757F901212246CD48A3
:4059C000FBF752F91F212246CB48FBF74DF901212246C848FBF748F901212246C748FBF743F9032000F006FB06460AF09BFD224681B23046FBF738F905F136000821224600
:405A0000FBF732F901212246BA48FBF72DF901212246BA48FBF728F9082000F0EBFA06460AF080FD224681B23046FBF71DF905F13E000A212246FBF717F901212246AD48E5
:405A4000FBF712F901212246AC48FBF70DF9092000F0D0FA06460AF065FD224681B23046FBF702F905F1480014212246FBF7FCF8012122469F48FBF7F7F8012122469F48A6
:405A8000FBF7F2F80A2000F0B5FA06460AF04AFD224681B23046FBF7E7F805F15C0014212246FBF7E1F8012122469248FBF7DCF8012122469148FBF7D7F80B2000F09AFA1B
:405AC00006460AF02FFD224681B23046FBF7CCF800211F2286480AF0A8FC854A95F870000021FAF785FB82480AF01CFDC6B231467F48FAF739FC314622467D48FBF7B4F846
:405B0000012122467B48FBF7AFF8012122467B48FBF7AAF80C2000F06DFA06460AF002FD224681B23046FBF79FF800211F2270480AF07BFC6E4A95F871000021FAF758FB96
:405B40006B480AF0EFFCC6B231466948FAF70CFC314622466648FBF787F8012122466548FBF782F8012122466448FBF77DF80D2000F040FA06460AF0D5FC224681B2304637
:405B8000FBF772F800211F2259480AF04EFC584A95F872000021FAF72BFB55480AF0C2FCC6B231465248FAF7DFFB314622465048FBF75AF8012122464E48FBF755F8012184
:405BC00022464E48FBF750F895F89730012B0CBF4046112000F00EFA06460AF0A3FC224681B23046FBF740F805F1730007212246FBF73AF8012122463E48FBF735F80121E5
:405C000022463E48FBF730F895F89730012B0CBF0F20122000F0EEF906460AF083FC224681B23046FBF720F805F17A0007212246FBF71AF8012122462E48FBF715F80121D4
:405C400022462E48FBF710F895F89730012B0CBF1020132000F0CEF906460AF063FC224681B23046FBF700F805F1810007212246FAF7FAFF012122461E48FAF7F5FF01215F
:405C800022461E48FAF7F0FF142000F0B3F906460AF048FC224681B23046FAF7E5FF05F188000F212246FAF7DFFF012122461148FAF7DAFF012122461048FAF7D5FF01219B
:405CC00022460C48FAF7D0FF1A2000F093F905460AF028FC224681B22846FAF7C5FF012122460448FAF7C0FF0121224608E000BF033800202092FF1F22380020E4370020B4
:405D00004948FAF7B1FF192000F074F905460AF009FC224681B22846FAF7A6FF012142482246FAF7A1FF404801212246FAF79CFF224601213C48FAF797FF22461F213B48AF
:405D4000FAF792FF224601213748FAF78DFFFAF7A5FE8020FAF748FEFAF738FE2030FFF7C3F80225C0F11F0191FBF5F122460646C9B22F48FAF778FFFAF728FEB1B222462E
:405D80002030FAF771FF224601212748FAF76CFFFAF784FEC020FAF727FEFAF717FEFFF7A3F8C0F11F0191FBF5F106462246C9B21F48FAF759FFFAF709FEB1B22246FAF707
:405DC00053FF224601211848FAF74EFFFAF7FEFD2030FFF789F8C0F11F0191FBF5F122460646C9B21248FAF73FFFFAF7EFFDB1B222462030FAF738FF224601210A48FAF78E
:405E000033FF224601210848FAF72EFF224601210548FAF729FF224603480121FAF724FFBDE8F843FAF7D6BD2092FF1F22380020E437002070B50646FAF700FEFAF72EFEF9
:405E40004FF4E070FAF7D0FDFAF7C0FD057AFAF7C1FD0024E3B2AB4208D20120FFF72EF830460121FFF722FA0134F3E770BD70B50646FAF7E3FDFAF711FE4FF4E070FAF78C
:405E8000B3FDFAF7A3FD057AFAF7A4FD0024E3B2AB4208D20320FFF711F830460321FFF705FA0134F3E770BD70B50646FAF7C6FDFAF7F4FD4FF4E070FAF796FDFAF786FD91
:405EC000057AFAF787FD0024E3B2AB4208D20220FEF7F4FF30460221FFF7E8F90134F3E770BD70B50646FAF7A9FDFAF7D7FD4FF4E070FAF779FDFAF769FD057AFAF76AFD83
:405F00000024E3B2AB4208D20420FEF7D7FF30460421FFF7CBF90134F3E770BD38B50C460546224601210848FAF79EFEFAF786FDB5F88C1105F10D00224689B2FAF794FE89
:405F4000BDE83840FAF746BD2092FF1F0121FFF7E5BF0221FFF7E2BF08B5FAF743FBF8B116234370174BC36017238370164B03611823C370154B436119230371144B83616D
:405F80001A234371134BC3611B238371124B03621C23C371114B43621D230372104B8362104B16221A7018225A7020211F220E480AF03BFABDE808400C482A211F220AF022
:405FC00034BA00BF355E00006F5E0000A95E0000E35E00004D5F0000535F0000054F00000B4F000041380020E43700202238002070470000054A13782BB1834201D1506836
:4060000070470832F7E71846704700BF2892FF1F054A13782BB1834201D1506870470832F7E71846704700BF0093FF1F034B03280CBFD3F81401D3F80C0170472892FF1F01
:4060400008B5FAF7CFFA38B127234370034BC36028238370024B036108BD00BF65600000CF6000002DE9F0410446002006F044FE6378272B29D1012000F05BF828B301207B
:40608000332104F10B0500F0C0F82E4604F11307012000F07DF806F8010FBE42F8D104F11206002015F8011FFAF7A7F9B542F9D1E37C834209D140B1D4F894312BB10122D4
:4060C00022702046BDE8F0411847BDE8F0812DE9F0410446002006F00FFE022000F029F828B30220332104F10B0500F08EF82E4604F11307022000F04BF806F8010FBE42C4
:40610000F8D104F11206002015F8011FFAF775F9B542F9D1E37C834209D140B1D4F894312BB1012222702046BDE8F0411847BDE8F081012810B5044611D0022822D1002004
:4061400007F0DEFF4FF4FA7006F0CEFD012007F0D7FF462006F0C8FD07F0DEFF0EE0002007F0BAFF4FF4FA7006F0BEFD204607F0B3FF462006F0B8FD07F0BAFFB0FA80F4F0
:40618000640900E00024642006F0AEFD204610BD012838B504D0022834D100252C4619E000252C46002007F097FF062006F09CFD012007F091FF092006F096FD07F098FF8C
:4061C000A84004430135372006F08EFD082DE4B2E8D118E0002007F093FF062006F084FD012007F08DFF092006F07EFD07F094FFA84004430135372006F076FD082DE4B2E8
:40620000E8D100E00024204638BD012838B50D4602D002281DD038BD0024002007F05CFF45FA04F3DA0707D5062006F05DFD012007F052FF402006E03C2006F055FD01208C
:4062400007F04AFF0A20013406F04EFD082CE4D138BD0024002007F053FF45FA04F3DB0707D5062006F040FD012007F049FF402006E03C2006F038FD012007F041FF0A20D7
:40628000013406F031FD082CE4D138BD8378DBB20C2B09D841F6C170012202FA03F31840003018BF0120704700207047024630B5002100F5F065282404FB0104013100233F
:4062C0003029A37102F1280242F8083C42F8103C42F80C3C45F8043FEDD1038030BD10B50021282303FB01039C7904F0FF0274B9012199711A815A819A81DA811A825A82E6
:406300009A82DA821A715A629A62181D10BD01313029E6D1002010BD03889BB213B1D0F8840770471846704700214FF4827202FB01F3C21892F82223022A03D1184400F276
:406340002230704701310829EFD10020704702230B70704700F5026390F823238A4205D000F582709842F7D10020704701207047002380F8423B7047002380F8683B002293
:4063800080F8693B00F67831A0F86A3BA0F86C3BC0F8703BC0F8743B0023C1E9002300F53861C1E9002300F68831C1E9002300F53961C1E9002300F698310022002300F5C0
:4063C0003A60C1E90023C0E90023704738B500224FF482735343C51895F8221361B903F54873C418201D4FF480720AF01EF8012385F82233A01C38BD0132082AE8D1002027
:4064000038BD002370B50B7000F63E2400F222331E7803F582753EB9184629464FF4827209F0F8FF80F80461A5422B46F0D170BD10B504460AF002F809F0C8F90AA3D3E94C
:40644000002309F053FB09F0C1FC00EB8000013080B206F049FC94F8423B002BEAD1012384F8423B10BD00BF0000C0FFFFFFDF4103889BB22F2B11D8038802229BB200EB7C
:406480008303C3F8841703889BB200EB8303D3F884379A70038801339BB20380704703889BB24BB3D0F8842700239370D0F88427D361536193610123028892B2934208D282
:4064C00000EB8302D2F884170133C2F88017DBB2F2E70388013B03F0FF032F2B08D803F5F07200EB8202002101335160DBB2F4E70388013B9BB203807047038810B59BB2C4
:40650000ABB1D0F884170123028892B2934208D200EB8302D2F884470133C2F88047DBB2F2E703889BB200EB8300C0F8801710BDF8B5374C374B2646012200251A705D70BC
:4065400040F6C83303FB056300210622217065709A70FF22DA70012703F1080202204FF0080E1F76587682F804E05170D971517159710DB9977000E09070234604F50262F8
:40658000002183F82213A3F8241483F8231303F582739342F4D1204B04F6A8301822C4F8C03B09F042FF1D4B0135C4F8443B1C4B042DC4F8483B1B4B04F6C83444F87C3C97
:4065C000194B44F8783C194B44F86C3C184B44F8703C184B44F8743C174B44F8683CAFD11648174BC0F85838164BC0F84838164BC0F84C38154BC0F85038154BC0F8543821
:40660000144BC0F84438BDE8F840FFF74FBE00BF4838002068670020796300003164000071630000556300004F63000029630000CD630000036400008D6200007C670020D5
:40664000AD620000DF62000071640000196300009F640000FB640000054B1A78FF2A04D0824203D003F56B73F7E70023184670474893FF1F2DE9F041164D012380466B714C
:406680004F20FFF7E9FF041DE8612F461CD1BDE8F081114ED6F8483830469847054690B1002344618361C7610370D7F8C03B09489847D8F8943130462B62C5F82480D6F815
:4066C0004C382946984734342368002BE1D1BDE8F08100BF483800207C67002038B5044638B3C36993F8A0219D7812099A70C069EDB2D0F8603B9847E36910B101221A76E2
:4067000003E002221A76E3699D70E3699A78072A04BF00225A729A78062A02D09A78072A04D1083D012D9CBF08221A73E36900225A7138BD40B1C26992F8A03111785940B1
:40674000090704BF1B09937070472DE9F041044600285AD0C06900232370D0F8443B9847E069E821D0F84C3B98470746E069D0F8583B98470546E069D0F8583B9847064616
:40678000E069D0F8483B9847002E33D0DDB1D7B9E8236B70E369A81CB3F8202303F5D07109F038FEE0693146B0F82033A5F80231D0F8543B9847E069D0F8443B9847E06952
:4067C000D0F8503B06E0E069D0F8443B9847E069D0F8543B29469847E069D0F8483B9847E069002100F5D0704FF4C072BDE8F04109F01BBEE0692946D0F8543B9847E0699D
:40680000BDE8F041D0F8483B1847BDE8F08150B1C3899BB2132B81BFC369FF229A70C36984BF02221A76704750B1C3899BB2132B81BFC369FF229A70C36984BF02221A76E7
:40684000704710B50446B8B1037AABB100F5D07000214FF4C07209F0E8FDA220F9F71EFC50B12378C22203F00F0343F010030371012343800270A37110BD10B50446C8B19A
:4068800000F5D07000214FF4C07209F0CEFDA220F9F704FC48B1237803F00F0343F01003037101234380C22303706420BDE8104006F006BA10BD10B5044690B100F5D07084
:4068C00000214FF4C07209F0B0FDA220F9F7E6FB38B1237803F00F03037101234380C223037010BD10B50446A0B100F5D07000214FF4C07209F099FDA220F9F7CFFB48B191
:40690000237803F00F0343F04003037101234380C223037010BD10B50446A0B100F5D07000214FF4C07209F080FDA220F9F7B6FB48B1237803F00F0343F050030371012306
:406940004380C223037010BD10B50446A0B100F5D07000214FF4C07209F067FDA220F9F79DFB48B1237803F00F0343F02003037101234380C223037010BD2DE9F04104465D
:40698000002870D0C069D0F8443B9847E069D0F8583B98470546E069D0F8483B9847002D61D0AA236B70E36908211B78AB70E36993F824300F2B0CBFF223F123EB70E069B9
:4069C0002830F9F7D1FCE2690A2052F8283F6B605368AB60E669FEF7BFF9203006440A20FEF7C8F93146024605F10C0009F012FD0A20FEF7BFF90A30C6B205EB060808F805
:406A0000026F0E20E769FEF7A7F9203007440E20FEF7B0F939460246404609F0FBFC0E20FEF7A8F93044C0B2A5F80201E069D0F8583B98470146E069D0F8543B79B1984771
:406A4000E069D0F8443B9847E0692946D0F8503B9847E069BDE8F041D0F8483B18472946BDE8F0411847BDE8F08170B50446002832D0C069D0F8443B9847E069D0F8583BAE
:406A800098470546E069D0F8483B984725B3AE236B70E3691B78AB70E0690123A5F80231D0F8583B98470146E069D0F8543B79B19847E069D0F8443B9847E0692946D0F865
:406AC000503B9847E069BDE87040D0F8483B18472946BDE87040184770BD10B50446A0B100F5D07000214FF4C07209F09EFCA220F9F7D4FA48B1237803F00F0343F0300357
:406B0000037101234380C223037010BD10B5044690B100F5D07000214FF4C07209F085FCA220F9F7BBFA38B1237863F00F03037101234380C223037010BD0000394B0022CA
:406B40005A719A710278103A172A18D8DFE802F012140C0E1010171717171717171717171214121412141214032206E0042204E0052202E0012200E00222DA701A714278DF
:406B80009A728278013A032A0BD8DFE802F002040608002204E0012202E0022200E00322DA71C278013A102A18D8DFE802F00D090B0D0F111317171717171717171715009B
:406BC00001220AE0022208E0032206E0042204E0052202E0062200E000225A720279013A032A0BD8DFE802F002040608002204E0012202E0022200E003221A724279032A2D
:406C00000BD8DFE802F002040608052204E0062202E0072200E008221A74DA7C42F00102DA7470476867002010B5044690B100F5D07000214FF4C07209F0F7FBA220F9F797
:406C40002DFA38B1237803F00F03037101234380C223037010BD000010B50446FFF73EFDE36993F8682B0E2A70D893F8693B032B55D8DFE803F002101E41F9F70FFF4FF4C4
:406C80000070F9F7B1FEF9F7A1FEE3691B7803704FF400701AE0F9F701FF4FF41070F9F7A3FEF9F793FEE3691B7803704FF410700CE0F9F7F3FE4FF42070F9F795FEF9F74A
:406CC00085FEE3691B7803704FF42070F9F7BCFEE369234A93F8680B93F8691B40F6C833C9B201FB03331344E36183F8691BE369C0B283F8680B0EE0F9F7D0FE4FF43070C9
:406D0000F9F772FEF9F762FEE3691B7803704FF43070F9F799FE134A937801339370E26992F8693B0133DBB282F8693BE26992F8693B032B0AD892F8683B0133DBB282F8FF
:406D4000683BE36993F8682B1A7010BD00232370054B1B681BB9054A034B1A6010BD10BD4838002068670020C0D0FF1F75660000C26992F8683B0F2B4FF000030BD8C3818E
:406D800092F8683B0133DBB282F8683BC36993F8682B1A7070470370024B1A680AB9024A1A607047C0D0FF1F75660000154B197C062941780ED1032921D8DFE801F0020493
:406DC0000608D87804E0187902E0587900E098791E230DE0032912D8DFE801F002040608D87804E0187902E0587900E098792A23584303309042ACBF002001207047002033
:406E0000704700BF68670020054B1B7C062B01D1202A00E0262A94BF00200120704700BF686700200138002310F8012FFB2A04D002F00F021344DBB2F6E7C3F1050000F096
:406E40000F0040F0E00070472DE9F0410546002800F0BD8000214FF4C07200F5D07009F0E4FAA220F9F71AF90446002800F0AF80FF23584F03713B7C062B0CBFE523E3235F
:406E80004371F4238371F623C371EB7803F00F0363F01F030372F9F7D1FDF9F7FFFD2878FAF790FAF9F7A0FDEB78032B43D8DFE803F0021121316520FDF74EFF20302E18FB
:406EC000F9F784FD80466520FDF754FF4146024630462EE06520FDF73FFF20302E18F9F775FD80466520FDF745FF08F11001024630461EE06520FDF72FFF20302E18F9F717
:406F000065FD80466520FDF735FF08F12001024630460EE06520FDF71FFF20302E18F9F755FD80466520FDF725FF0246304608F1300109F06FFA2646F9F74CFDF72306F8DD
:406F4000093F6520FDF716FF6520FDF705FF3B7C2844062B00F11F000DD104F10D0210F8013F03F00F0363F01F0306F8013F9642F5D10A260CE004F10F0210F8013F03F07D
:406F80000F0363F01F0306F8013F9642F5D10C266520FDF7E1FE20302F186520FDF7EAFE00210246384609F040FAA319FB221A71201DFFF737FFA319F02258719A7103362A
:406FC000C22366802370EB780133DBB2EB70BDE8F08100BF68670020F8B5064600285BD000214FF4C07200F5D07009F01EFAA220F9F754F8044600284ED00546FF23037159
:40700000264B00211F461A7C062A0CBFE523E3234371F4238371F623C37196F8AA3B06F1280263F01F030372F72305F8093FB6F8AC0B80B2F9F7DCF83B7C062B06F127036D
:407040000DD104F10D0113F8012F02F00F0262F01F0205F8012F8D42F5D10A250CE004F10F0113F8012F02F00F0262F01F0205F8012F8D42F5D10C256319FB221A71201D97
:40708000FFF7D0FE6319F02258719A710335C223658023700123F371F8BD00BF6867002070B5054600287AD000214FF4C07200F5D07009F0BAF9A220F8F7F0FF04460028BF
:4070C0006BD0FF23364E0371337C062B0CBFE523E3234371F4238371F623C37195F8AA3B63F01F030372F7234372F9F7A7FCF9F7D5FC2878FAF766F9F9F776FC95F8AA3B33
:40710000032B18D8DFE803F002060B10F9F75EFC03680DE0F9F75AFC50F8103F08E0F9F755FC50F8203F03E0F9F750FC50F8303FAB628388AB85F9F74DFC337C05F12702E0
:40714000062B04F109030DD104F10D0012F8011F01F00F0161F01F0103F8011F8342F5D10A260CE004F10F0012F8011F01F00F0161F01F0103F8011F8342F5D10C26A3196B
:40718000FB221A71201DFFF74DFEA319F02258719A710336C223668023700023EB7170BD6867002010B510B300214FF4C07200F5D07009F03AF9A220F8F770FF0446B0B18B
:4071C000FF230371E9234371FE238371EE23C371E02303724372FB2383720430FFF722FEF023237309236380C223E072237010BD03461A780130FB2AFAD158787047000083
:407200002DE9F0470446002800F01D84C66906F5D0752846FFF7ECFF07462846FFF702FE87420AD06378132B07D863780133DBB2637001232370BDE8F0870023B64D2370F9
