:400000000080002011000000154701001547010080B500AF024A034B1B68136014F0A6FBBC760040FA46004010B5054C237833B9044B13B10448AFF300800123237010BDA8
:4000400020CFFF1F0000000020A40100084B10B51BB108480849AFF300800848036803B910BD074B002BFBD0BDE81040184700BF0000000020A4010024CFFF1F0881FF1FEB
:400080000000000080B582B000AF0023FB7118E0FB794FF4867202FB03F30D4A13443B603B681B78DBB2C22B08D13B68D3F808315B6838689847386800F0C6F8FB79013350
:4000C000FB71FB79132BE3D90837BD4680BD00BF7CCFFF1F80B485B000AF0346FB710B4BFB6008E0FB681B78FA799A4200D106E0FB684C33FB60FB681B78A52BF2D1FB68F4
:4001000018461437BD465DF8047B70470C81FF1F90B585B000AF0346FB710023FB600023FB7245E0FB7A264A4FF4867101FB03F313441B78DBB2C02B37D1FB7A204A4FF42F
:40014000867101FB03F31344C1221A70FB7A1C4A4FF4867101FB03F3134400225A80FC7AFB791846FFF7B6FF0146154A4FF4867303FB04F3134403F584731960FB7A4FF437
:40018000867202FB03F30E4A13440433184600214FF4807219F0D9FCFB7A4FF4867202FB03F3074A1344FB6005E0FB7A0133FB72FB7A132BB6D9FB6818461437BD4690BD9D
:4001C0007CCFFF1F80B582B000AF0023FB712DE0FB791B4A4FF4867101FB03F31344C0221A70FB79164A4FF4867101FB03F3134400225A80FB794FF4867202FB03F3104ACD
:4002000013440433184600214FF4807219F09DFCFB790B4A4FF4867101FB03F3134403F5847300221A60FB790133FB71FB79132BCED9044800F052F80837BD4680BD00BFD2
:400240007CCFFF1F8500000080B582B000AF78607B68C0221A707B6800225A807B680433184600214FF4807219F06FFC7B680022C3F808210837BD4680BD00BF80B584B0A2
:4002800000AF03463960FB711346BB800023FB730E4BBB6010E0BB681B78FA799A4208D1BB685B68BA883868114698470346FB7306E0BB680833BB60BB681B78A52BEAD185
:4002C000FB7B18461037BD4680BD00BFD482FF1F80B400AFBD465DF8047B704780B483B000AF78600B4B93F840300F2B0CD8094B93F840305A1CD1B2064A82F840101946E1
:40030000044A7B6842F821300C37BD465DF8047B704700BF6CE4FF1F80B582B000AF0023FB7111E0FB790D4A52F823300C4A13600B4B1B68002B03D0094B1B68984700E0CF
:4003400008E0FB790133FB71044B93F84030FA799A42E7D30837BD4680BD00BF6CE4FF1FB0E4FF1FF0B587B000AFC7E902017A600123FB755FE0FB7D013B7A68D618FB7DE9
:40038000184618F0A3FD02460B464FF000006B4917F07CFB02460B461046194619F0A6F803461A464FF00003D7E9020119F0BEF814461D46FB7D013B184618F097FD024618
:4003C0000B464FF000005D4917F060FB02460B461046194619F08AF803461A464FF00003D7E9020119F0A2F8A41A65EB0305FB7D013B184618F07AFD02460B464FF00000BC
:400400004E4917F043FB02460B461046194619F06DF803461A464FF000032046294619F085F802460B46D3B243F03003DBB23370FB7D0133FB75FB7D184618F047FD0246A4
:400440000B464FF000003D4917F020FB02460B461046194619F04AF803461A464FF00003D7E9020119F062F810461946D7E90223994208BF90427FF47EAFFB7D013B7A6856
:40048000D618FB7D184618F021FD02460B464FF000002A4917F0FAFA02460B461046194619F024F803461A464FF00003D7E9020119F03CF814461D46FB7D013B184618F0D7
:4004C00015FD02460B464FF000001C4917F0DEFA02460B461046194619F008F803461A464FF00003D7E9020119F020F8A41A65EB0305FB7D013B184618F0F8FC02460B46EB
:400500004FF000000D4917F0C1FA02460B461046194618F0EBFF03461A464FF000032046294619F003F802460B46D3B243F03003DBB233701C37BD46F0BD00BF0000244086
:4005400080B485B000AF78600B46FB7000237B730023FB7327E0FB78013B7A6813441B787B73FB78023BDBB2BB730FE097F90E3001337A68134497F90E2079680A441278B1
:400580001A70BB7BDBB2013BDBB2BB7397F90E20FB7B9A42EADAFB7B7A6813447A7B1A70FB7B0133FB73FA7BFB78013B9A42D2DB1437BD465DF8047B704700BFB0B584B0FF
:4005C00000AF78600B467B800023FB600023FB7234E0FB7A184618F079FC02460B461046194617F04BFA04460D46FB7A7A6813441B7803F00F03184618F078FC02460B46C6
:400600002046294618F0D8FC02460B4614461D46F86818F05BFC02460B461046194622462B4618F017FB02460B461046194618F05DFF0346FB60FB7A0133FB72FB7A9BB285
:400640007A889A42C5D8FB6818461037BD46B0BD80B485B000AF03460A46FB711346BB71FA79BB795340FB710023FB7312E0FB7903F00103002B07D0FB795B08DBB283F078
:400680007303DB43FB7102E0FB795B08FB71FB7B0133FB73FB7B072BE9D9FB7918461437BD465DF8047B704780B584B000AF78600B467B800023FB730023BB810DE0BB898B
:4006C0007A6813441B78FA7B10461946FFF7C0FF0346FB73BB890133BB81BA897B889A42EDD3FB7B18461037BD4680BD80B584B000AF0023FB732CE0FB7B484A4FF4CC716A
:4007000001FB03F3134400225A70FB7B434A4FF4CC7101FB03F313440122DA70FB7B3F4A4FF4CC7101FB03F3134401229A70FB7B4FF4CC7202FB03F30833384A1344043321
:40074000184600214FF4C07219F0FFF9FB7B0133FB73FB7B2D2BCFD90023FB7323E0FB7B2F4A2C2101FB03F3134401221A70FB7B2C2202FB03F32A4A1344013318460021FB
:40078000082219F0E2F9FB7B2C2202FB03F30833234A1344043318460021082219F0D5F9FB7B0133FB73FB7B0F2BD8D900F070FAB860BB68002B2BD00023FB71FB79BA6865
:4007C000134404225A70FB795A1CFA71BA6802339B001344134A5A60FB79BA68134405225A70FB795A1CFA71BA6802339B0013440D4A5A60FB79BA68134406225A70FB791D
:400800005A1CFA71BA6802339B001344074A5A600748FFF763FD1037BD4680BDC4E4FF1F142E002059150000C9150000E5150000F90C00000000000090B585B000AF002398
:40084000FB6019F08BF90346184618F04FFB02460B461046194646A3D3E9002318F0D6FC02460B46104619464FF00002424B18F0A3FB02460B46104619464FF000023F4BCC
:4008800018F0E8F902460B461046194618F02EFE0346FB8000237B8100BF7B895A1C7A81FA889A42F9D800237B7257E07B7A344A4FF4CC7101FB03F31344DB78DBB2012BF8
:4008C00049D17B7A2E4A4FF4CC7101FB03F3134400221A707B7A2A4A4FF4CC7101FB03F3134400229A807B7A254A4FF4CC7101FB03F313440222DA707C7A17F0AFF8034606
:4009000019461F4A4FF4CC7303FB04F313440A46DA807B7A1A4A4FF4CC7101FB03F31344083300221A807B7A4FF4CC7202FB03F30833134A13440433184600214FF4C072DB
:4009400019F003F97B7A4FF4CC7202FB03F30C4A1344FB6005E07B7A01337B727B7A2D2BA4D9FB6818461437BD4690BDAFF300800000C0FFFFFFDF410000904000002440AD
:40098000C4E4FF1FAFF3008090B587B000AF0346FB7100237B6119F0E1F80346184618F0A5FA02460B461046194655A3D3E9002318F02CFC02460B46104619464FF000025C
:4009C000514B18F0F9FA02460B46104619464FF000024E4B18F03EF902460B461046194618F084FD0346FB8100237B8200BF7B8A5A1C7A82FA899A42F9D800237B7418E0CD
:400A00007B7C434A4FF4CC7101FB03F313445B78DBB2FA799A4209D17B7C4FF4CC7202FB03F33B4A13447B617B6964E07B7C01337B747B7C2D2BE3D900237B7457E07B7C30
:400A4000334A4FF4CC7101FB03F31344DB78DBB2012B49D17B7C2E4A4FF4CC7101FB03F3134400221A707B7C294A4FF4CC7101FB03F313440222DA707C7C16F0EFFF034650
:400A80001946234A4FF4CC7303FB04F313440A46DA807B7C1E4A4FF4CC7101FB03F31344083300221A807B7C194A4FF4CC7101FB03F3134400229A807B7C4FF4CC7202FBFF
:400AC00003F30833124A13440433184600214FF4C07219F03AF87B7C4FF4CC7202FB03F30B4A13447B6105E07B7C01337B747B7C2D2BA4D97B6918461C37BD4690BD00BF4A
:400B00000000C0FFFFFFDF410000904000002440C4E4FF1FAFF3008080B584B000AF0346FB710023FB7307E0FB7B374A002142F82310FB7B0133FB73FB7B032BF4D919F060
:400B40000DF80346184618F0D1F902460B46104619462BA3D3E9002318F058FB02460B46104619464FF00002284B18F025FA02460B46104619464FF00002254B18F06AF80F
:400B800002460B461046194618F0B0FC03463B810023BB8100BFBB895A1CBA813A899A42F9D80023FB730023FB721CE0FB7A194A4FF4CC7101FB03F313445B78DBB2FA791A
:400BC0009A420DD1FB7B5A1CFA731946FB7A4FF4CC7202FB03F30F4A13440B4A42F82130FB7A0133FB72FB7A2D2B02D8FB7B032BDCD9054B18461037BD4680BDAFF300809D
:400C00000000C0FFFFFFDF41B4E4FF1F0000904000002440C4E4FF1F80B483B000AF78607B6800225A707B680122DA707B6801229A707B680022DA800C37BD465DF8047B91
:400C4000704700BF80B584B000AF0346FB710023FB7314E0FB7B4FF4CC7202FB03F30B4A1344BB60BB685B78DBB2FA799A4203D1B868FFF7D1FF05E0FB7B0133FB73FB7BFC
:400C80002D2BE7D91037BD4680BD00BFC4E4FF1F80B483B000AF00237B600023FB700023FB701CE0FB78134A2C2101FB03F313441B78DBB2012B0FD1FB780E4A2C2101FB3E
:400CC00003F3134403221A70FB782C2202FB03F3084A13447B6005E0FB780133FB70FB780F2BDFD97B6818460C37BD465DF8047B704700BF142E0020B0B586B000AF0023C4
:400D0000FB75CEE2FB7D4FF4CC7202FB03F3B44A13443B613B69DB78DBB2032B40F0BE823B699B78DBB2013B072B00F2B78201A252F823F09D120000550D00007F0D00001A
:400D4000A90D0000D30D0000870E0000E90F000043110000FB7D4FF4CC7202FB03F3A04A1344184600F0A8FAFB7D4FF4CC7202FB03F39B4A13441846FFF74EFF8EE2FB7D2E
:400D80004FF4CC7202FB03F3954A1344184600F0DFFAFB7D4FF4CC7202FB03F3904A13441846FFF739FF79E2FB7D4FF4CC7202FB03F38B4A1344184600F02AFBFB7D4FF418
:400DC000CC7202FB03F3864A13441846FFF724FF64E216F043FE03461846FB7D804A4FF4CC7101FB03F3134408331B889BB21A464FF47A7303FB02F30344FA7D78494FF475
:400E0000CC7000FB02F20A44D28892B29B1AFB60F86818F06BF802460B46104619464FF00002704B18F0F2F902460B4614461D46FB7D6B4A4FF4CC7101FB03F313449B8814
:400E40009BB2184618F052F802460B462046294618F042FB0346002B00D11FE2FB7D4FF4CC7202FB03F35E4A1344184600F0D0FAFB7D4FF4CC7202FB03F3594A1344184635
:400E8000FFF7CAFE0AE216F0E9FD03461846FB7D534A4FF4CC7101FB03F3134408331B889BB21A464FF47A7303FB02F30344FA7D4B494FF4CC7000FB02F20A44D28892B2BD
:400EC0009B1ABB60B86818F011F802460B46104619464FF00002434B18F098F902460B4614461D46FB7D3E4A4FF4CC7101FB03F3134408335B889BB2184617F0F7FF02460E
:400F00000B462046294618F0E7FA0346002B00D1C4E1B86817F0EAFF02460B46104619464FF000022F4B18F071F902460B4614461D46FB7D2A4A4FF4CC7101FB03F3134422
:400F40009B889BB2184617F0D1FF02460B462046294618F0C1FA0346002B00D19EE1FB7D4FF4CC7202FB03F31D4A1344184600F0EFF9FC7D16F072FD03461946184A4FF4BC
:400F8000CC7303FB04F313440A46DA80FB7D144A4FF4CC7101FB03F31344083300221A80FB7D0F4A4FF4CC7101FB03F3134400229A80FB7D0A4A4FF4CC7101FB03F31344FB
:400FC0001B78DBB2002B0AD0FB7D4FF4CC7202FB03F3034A13441846FFF71EFE5EE15DE1C4E4FF1F00408F4016F038FD03461846FB7DAF4A4FF4CC7101FB03F31344083323
:401000001B889BB21A464FF47A7303FB02F30344FA7DA7494FF4CC7000FB02F20A44D28892B29B1A7B60786817F060FF02460B46104619464FF000029E4B18F0E7F80246B8
:401040000B4614461D46FB7D994A4FF4CC7101FB03F3134408335B889BB2184617F046FF02460B462046294618F036FA0346002B00D113E1786817F039FF02460B4610463C
:4010800019464FF000028B4B18F0C0F802460B4614461D46FB7D864A4FF4CC7101FB03F313449B889BB2184617F020FF02460B462046294618F010FA0346002B00D1EDE00D
:4010C000FB7D4FF4CC7202FB03F3794A1344184600F0F8F9FC7D16F0C1FC03461946744A4FF4CC7303FB04F313440A46DA80FB7D6F4A4FF4CC7101FB03F31344083300223A
:401100001A80FB7D6A4A4FF4CC7101FB03F3134400229A80FB7D664A4FF4CC7101FB03F313441B78DBB2002B0AD0FB7D4FF4CC7202FB03F35E4A13441846FFF76DFDADE098
:40114000ACE016F08BFC03461846FB7D584A4FF4CC7101FB03F3134408331B889BB21A464FF47A7303FB02F30344FA7D50494FF4CC7000FB02F20A44D28892B29B1A3B601D
:40118000386817F0B3FE02460B46104619464FF00002484B18F03AF802460B4614461D46FB7D434A4FF4CC7101FB03F3134408335B889BB2184617F099FE02460B462046F1
:4011C000294618F089F90346002B00D165E0386817F08CFE02460B46104619464FF00002344B18F013F802460B4614461D46FB7D2F4A4FF4CC7101FB03F313449B889BB29A
:40120000184617F073FE02460B462046294618F063F90346002B00D13FE0FB7D4FF4CC7202FB03F3224A1344184600F0F1F8FC7D16F014FC034619461D4A4FF4CC7303FB9E
:4012400004F313440A46DA80FB7D194A4FF4CC7101FB03F31344083300221A80FB7D144A4FF4CC7101FB03F3134400229A80FB7D0F4A4FF4CC7101FB03F313441B78DBB246
:40128000002B0AD0FB7D4FF4CC7202FB03F3084A13441846FFF7C0FCFFE700BFFB7D0133FB75FB7D2D2B7FF62DAD1837BD46B0BDC4E4FF1F00408F4080B584B000AF786020
:4012C0000023FB730023BB730023FB7337E00023BB732EE0FA7BBB7B1C492C2000FB02F213440B445B78002B00D125E0FA7BB97B164813469B0013445B0013440B440233B8
:401300009B0003445B68002B0FD0FA7BB97B0F4813469B0013445B0013440B4402339B0003445B687868984700E005E0BB7B0133BB73BB7B072BCDD9FB7B0133FB73FB7B20
:401340000F2BC4D91037BD4680BD00BF142E002080B584B000AF78600023FB730023BB7300237B730023BB734AE000237B733DE0BA7B7B7B25492C2000FB02F213440B44E8
:401380005B78002B00D134E0BA7B7B7B1F492C2000FB02F213440B445A787B685B78DBB29A4220D1BA7B797B184813469B0013445B0013440B4402339B0003445B68002B1A
:4013C0000ED0BA7B797B114813469B0013445B0013440B4402339B0003445B68786898470123FB7305E07B7B01337B737B7B072BBED9FB7B002B00D005E0BB7B0133BB736C
:40140000BB7B0F2BB1D91037BD4680BD142E002080B584B000AF78600023FB730023BB730023FB7345E00023BB733CE0FA7BBB7B23492C2000FB02F213440B445B78002BDE
:4014400000D133E0FA7BBB7B1D492C2000FB02F213440B445A787B685B78DBB29A421FD1FA7BB97B164813469B0013445B0013440B4402339B0003445B68002B0FD0FA7B09
:40148000B97B0F4813469B0013445B0013440B4402339B0003445B687868984706E005E0BB7B0133BB73BB7B072BBFD9FB7B0133FB73FB7B0F2BB6D91037BD4680BD00BFBC
:4014C000142E002080B584B000AF78600023FB730023BB730023FB7335E00023BB732CE0FA7BBB7B1B492C2000FB02F213440B445B78002B00D123E0FA7BB97B1548134694
:401500009B0013445B0013440B4402339B0003445B68002B0ED0FA7BB97B0E4813469B0013445B0013440B4402339B0003445B6878689847BB7B0133BB73BB7B072BCFD949
:40154000FB7B0133FB73FB7B0F2BC6D91037BD4680BD00BF142E002080B485B000AF78600023FB7325E0FB7B4FF4CC7202FB03F3144A1344BB60BB689B78DBB2072B0ED049
:40158000BB689B78DBB2062B09D0BB689B78DBB2082B04D0BB689B78DBB2052B06D1BB681B899BB201339AB2BB681A81FB7B0133FB73FB7B2D2BD6D91437BD465DF8047BC1
:4015C000704700BFC4E4FF1F80B584B000AF78607B68FB60FB681B7B1846FFF733FB1037BD4680BD80B584B000AF78607B68FB60FB68D3F890311846FFF70EFB1037BD46BB
:4016000080BD00BF80B400AF024B1846BD465DF8047B7047D630002080B500AF02480021422218F092FA80BDD430002080B400AF034B01221A70BD465DF8047B704700BF99
:401640003CCFFF1F80B400AF034B00221A70BD465DF8047B704700BF3CCFFF1F90B585B000AF0346FB8015F0ADFFFB881B0A9BB2DAB21E4B1A70FB88DAB21C4B5A70542028
:40168000002115F045FE0346BB81BB89002B2AD10023FB7308E0FB7B144AD35C184615F013FFFB7B0133FB73FB7B012BF3D95420012115F08BFE0346BB81BB89002B10D162
:4016C0000223FB730AE0FC7B012015F03DFF03461A46064B1A55FB7B0133FB73FB7B412BF1D915F0C5FE1437BD4690BDD430002080B584B000AF0346FB800023FB73002053
:4017000015F0D4FF0023BB8115F05CFFFB881B0A9BB2DAB2184B1A70FB88DAB2164B5A705420002115F0F4FD0346BB81BB89002B13D10023BB7308E0BB7B0F4AD35C1846B2
:4017400015F0C2FEBB7B0133BB73BB7B412BF3D915F08EFE052013F053FEBB89002B04D0FB7B5A1CFA73092BCED9012015F09EFF1037BD4680BD00BFD430002080B400AF0D
:40178000024B1846BD465DF8047B70471831002080B500AF02480021102218F0D6F980BD1831002080B582B000AF0023FB710023BB7115F007FF6820002115F0A9FD0346ED
:4017C0007B717B79002B53D1002015F07DFEFB795A1CFA711A46314B9B5C03F07F03DBB2184615F071FEFB795A1CFA711A462B4B9B5C03F07F03DBB2184615F065FEFB79C0
:401800005A1CFA711A46254B9B5C03F03F03DBB2184615F059FEFB795A1CFA711A461F4B9B5C03F00703DBB2184615F04DFEFB795A1CFA711A46194B9B5C03F03F03DBB264
:40184000184615F041FEFB795A1CFA711A46134B9B5C03F01F03DBB2184615F035FEFB795A1CFA711A460D4B9B5C184615F02CFE15F0FEFD6820002115F04AFD03467B71C9
:401880007B79002B07D10E2015F01EFE042015F01BFE15F0EDFD0837BD4680BD1831002090B583B000AF15F08DFE6820002115F02FFD0346BB80BB88002B02D1002015F04E
:4018C00003FE15F0D5FD15F07DFE6820012115F01FFD0346BB80BB88002B1CD10023FB7116E0FB79052B08D8FC79012015F02CFE03461A460A4B1A5507E0FC79002015F02A
:4019000023FE03461A46064B1A55FB790133FB71FB79062BE5D915F0ABFD0C37BD4690BD1831002080B582B000AF0023FB710023BB716820002115F0EBFC03467B717B794B
:40194000002B07D10E2015F0BFFD042015F0BCFD15F08EFD0837BD4680BD00BF80B500AF13F0AAF913F008FE14F02EFB14F07CFE13F0DEFF15F0E0FA00F012F8FEF7B6FE25
:40198000FEF720FCFEF7A4FC0DF06EFA04F0DEFE08F054FC01F00CF808F042FD80BD00BF80B500AF16F00CF8044815F0ADF915F0D1FE034815F044FF80BD00BFC5190000B6
:4019C000051A000080B582B000AF16F019F80420FEF7DAFF78607B68002B08D07B6804225A707B6803229A707B680322DA70044B5B680133024A53600837BD4680BD00BF31
:401A0000F462002080B582B000AF15F0C3FE0720FEF7BAFF78607B68002B08D07B6807225A707B6803229A707B680322DA700837BD4680BD80B584B000AF78600B467B80CC
:401A400013467B700023FB730023BB811AE015F0B9FD0720002115F05BFC0346FB73FB7B002B0CD17B78184615F02EFDBB897A6813441B78184615F027FD15F0F9FCBB894E
:401A80000133BB81BA897B889A42E0D3FB7B18461037BD4680BD00BF80B582B000AF78600B467B80164BDB889BB2002B07D0144BDB889BB27A889A4211D200231CE0104B30
:401AC0009B680F4A11687A88084679689847034683F00103DBB2002B01D000230CE07B88084879681A4618F025F8054A7B88D380034B01221A71012318460837BD4680BD4E
:401B0000283100203431002080B584B000AF78607B68BB60BB68002B1CD00023FB730FE0BB68D3F808319B6BFA7BB9680A44127910469847012013F063FCFB7B0133FB7393
:401B4000FB7B9AB2BB685B889BB29A42E8D3052013F056FC1037BD4680BD00BF80B588B000AF78607B683B610023FB61444BBB612E2006F09BFE03461A463B6913441B7B45
:401B8000FB730FE0BB691B78012B08D1BB695B78FA7B9A4203D1BB695B68FB6106E0BB690833BB61BB691B78FF2BEBD1FB69002B62D0FB6903F11C023B690C3310461946E0
:401BC0004FF4C07217F0B6FF042006F06FFE03461A463B6913441B7BBB73BB7B0D2B10D1052006F063FE03461A463B6913441B7B7B737B7B184609F011FB0246FB699A61D2
:401C000008E0BB7B0E2B05D1442009F007FB0246FB699A61FB690022DA71FB699B6904337B617B69002B27D022E0164BD3F8483814489847B860BB68002B16D0BB687A69E4
:401C40005A61BB6800229A61BB68FA69DA61BB68DB69D3F8B039BA68D26910469847094BD3F84C380748B96898477B6934337B617B691B68002BD8D12037BD4680BD00BF51
:401C80000483FF1F8C5A002080B588B000AF78607B683B610023FB61444BBB612E2006F005FE03461A463B6913441B7BFB730FE0BB691B78022B08D1BB695B78FA7B9A42F9
:401CC00003D1BB695B68FB6106E0BB690833BB61BB691B78FF2BEBD1FB69002B62D0FB6903F11C023B690C33104619464FF4C07217F020FF042006F0D9FD03461A463B6928
:401D000013441B7BBB73BB7B0D2B10D1052006F0CDFD03461A463B6913441B7B7B737B7B184609F07BFA0246FB699A6108E0BB7B0E2B05D1442009F071FA0246FB699A6127
:401D4000FB690022DA71FB699B6904337B617B69002B27D022E0164BD3F8483814489847B860BB68002B16D0BB687A695A61BB6800229A61BB68FA69DA61BB68DB69D3F8E8
:401D8000B039BA68D26910469847094BD3F84C380748B96898477B6934337B617B691B68002BD8D12037BD4680BD00BF0483FF1F8C5A002080B588B000AF78600023FB61E0
:401DC0007B683B610023FB7636E0FB7E444A40F6B81101FB03F3134408335B78DBB2012B27D1FB7E40F6B81202FB03F33C4A1344FB61FB7E3A4A40F6B81101FB03F31344C2
:401E0000083302225A70FB7E0133364A9278934203DB334B01225A7213E0FB7E0133304A40F6B81101FB03F31344083301225A7007E0FB7E0133FB762A4B9B78FA7E9A42B7
:401E4000C3D3FB69002B48D0FB6901225A71482009F0E4F90246FB699A61FB699B6904337B617B69002B32D02DE01F4BD3F848381D489847F860FB68002B21D0FB68002200
:401E80001A70FB687A695A61FB6800229A61FB68FA69DA61FB68DB69D3F8B039FA68D269104698473B69D3F89421FB681A62FB683A695A620C4BD3F84C380B48F9689847EB
:401EC0007B6934337B617B691B68002BCDD1F86900F00CF8F86900F051F82037BD4680BD98330020785A00208C5A002080B586B000AF78607B683B613B699B78DBB20B2B37
:401F000037D1492009F08AF902463B699A613B699B6904337B617B69002B2AD025E0164BD3F8483814489847F860FB68002B19D0FB6800221A70FB687A695A61FB680022B9
:401F40009A61FB683A69DA61FB68DB69D3F8B039FA68D26910469847074BD3F84C380648F96898477B6934337B617B691B68002BD5D11837BD4680BD8C5A002080B586B06A
:401F800000AF78607B683B613B699B78DBB2062B04D03B699B78DBB2072B3CD13B699B79DBB2002B37D0462009F038F902463B699A613B699B6904337B617B69002B2AD09D
:401FC00025E0164BD3F8483814489847F860FB68002B19D0FB6800221A70FB687A695A61FB6800229A61FB683A69DA61FB68DB69D3F8B039FA68D26910469847074BD3F80B
:402000004C380648F96898477B6934337B617B691B68002BD5D11837BD4680BD8C5A002090B58DB000AF78607B68FB619B4B9B78002B02D1994B01225A70002387F82F3089
:402040005BE097F82F40482009F0E8F80146944A40F6B81303FB04F313441833196097F82F308F4A40F6B81101FB03F3134418331B680433BB62BB6A002B39D034E0894B3E
:40208000D3F8483887489847B861BB69002B28D0BB6900221A70BB69BA6A5A61BB6900229A6197F82F3040F6B81202FB03F37C4A1A44BB69DA61BB69DB69D3F8B039BA6910
:4020C000D26910469847FB69D3F89421BB691A62BB69FA695A62734BD3F84C387148B9699847BB6A3433BB62BB6A1B68002BC6D197F82F30013387F82F30684B9B7897F87A
:402100002F209A429DD3002387F82F305BE097F82F40492009F082F80146614A40F6B81303FB04F313441833196097F82F305C4A40F6B81101FB03F3134418331B6804330A
:402140007B627B6A002B39D034E0564BD3F848385448984778617B69002B28D07B6900221A707B697A6A5A617B6900229A6197F82F3040F6B81202FB03F3494A1A447B6944
:40218000DA617B69DB69D3F8B0397A69D26910469847FB69D3F894217B691A627B69FA695A62404BD3F84C383E48796998477B6A34337B627B6A1B68002BC6D197F82F300C
:4021C000013387F82F30354B9B7897F82F209A429DD3002387F82F3053E097F82F3040F6B81202FB03F32E4A13443B613B69002B42D03B6903F11C02FB690C3310461946A1
:402200004FF4C07217F096FC4D2009F007F802463B699A613B699B6904333B623B6A002B2AD025E01F4BD3F848381E489847F860FB68002B19D0FB6800221A70FB683A6A1A
:402240005A61FB6800229A61FB683A69DA61FB68DB69D3F8B039FA68D26910469847114BD3F84C380F48F96898473B6A34333B623B6A1B68002BD5D197F82F30013387F830
:402280002F30064B9B7897F82F209A42A5D3FB6901221A703437BD4690BD00BF785A0020983300208C5A002080B588B000AF78607B687B610023FB777AE0FB7F40F6B8129F
:4022C00002FB03F3404A13443B613B69002B6CD00023BB77FB7F032B1AD801A252F823F0F1220000F92200000123000009230000364BDB78BB770BE0344B1B79BB7707E0D9
:40230000324B5B79BB7703E0304B9B79BB7700BF3B690022DA7000237B7742E03B691C33184600214FF4C07217F00FFC452008F075FF02463B699A613B699B690433BB61C4
:40234000BB69002B2AD025E0214BD3F8483820489847F860FB68002B19D0FB6800221A70FB68BA695A61FB6800229A61FB683A69DA61FB68DB69D3F8B039FA68D2691046E3
:402380009847134BD3F84C381148F9689847BB693433BB61BB691B68002BD5D17B7F01337B777A7FBB7F9A42B8D3FB7F0133FB77064B9B78FA7F9A42FFF47FAF7B6901221E
:4023C0001A702037BD4680BD98330020785A00208C5A002080B588B000AF78607B68BB61BB691B7B184600F0B1FA78617B69002B00F0A080BB695A7B7B69DA70FFF716F90F
:40240000FFF70AF97B691B78184600F045FA03467B827B8A1846FFF721F97B69DB78DBB2032B49D801A252F823F000BF3D240000592400007924000099240000FFF7E2F80C
:402440000146BB6903F10E02BB691B7D084611461A4617F06FFB2FE0FFF7D4F8034603F11001BB6903F10E02BB691B7D084611461A4617F05FFB1FE0FFF7C4F8034603F164
:402480002001BB6903F10E02BB691B7D084611461A4617F04FFB0FE0FFF7B4F8034603F13001BB6903F10E02BB691B7D084611461A4617F03FFB00BF7B8A1846FFF718F96F
:4024C000FFF7C0F8452008F0A9FE02467B699A617B699B690433FB61FB69002B2AD025E0174BD3F8483816489847F860FB68002B19D0FB6800221A70FB68FA695A61FB684E
:4025000000229A61FB687A69DA61FB68DB69D3F8B039FA68D26910469847094BD3F84C380748F9689847FB693433FB61FB691B68002BD5D1BB6901221A702037BD4680BD57
:402540008C5A002080B586B000AF78607B683B613B691B7B184600F0F9F9F860FB68002B37D0472008F05AFE0246FB689A61FB689B6904337B617B69002B2AD025E0184B35
:40258000D3F8483816489847B860BB68002B19D0BB6800221A70BB687A695A61BB6800229A61BB68FA68DA61BB68DB69D3F8B039BA68D26910469847094BD3F84C38084814
:4025C000B96898477B6934337B617B691B68002BD5D13B6901221A701837BD4680BD00BF8C5A002080B586B000AF7860FFF714F84FF40070FFF732F8FFF704F803460022B3
:402600001A704FF40070FFF773F8FFF705F84FF41070FFF723F8FEF7F5FF034600221A704FF41070FFF764F8FEF7F6FF4FF42070FFF714F8FEF7E6FF034600221A704FF471
:402640002070FFF755F8FEF7E7FF4FF43070FFF705F8FEF7D7FF034600221A704FF43070FFF746F82E4B00229A702E4B3B613B69002B51D03B691C33184600214FF4C0726E
:4026800017F063FA4A2008F0C9FD02463B699A613B699B6904337B617B69002B3CD037E0214BD3F8483820489847F860FB68002B2BD0FB6801221A70FB687A695A61FB6867
:4026C00000229A61FB683A69DA61FB68DB69D3F8B039FA68D26910469847FB68DB69012283F85829FB68DB69002283F85929FB68DB69FA68D26992F85829D2B21A700A4B11
:40270000D3F84C380848F96898477B6934337B617B691B68002BC3D11837BD4680BD00BF785A0020983300208C5A002090B583B000AF7860FEF770FF4FF4E070FEF78EFFC4
:40274000FEF760FF03465A7A4F4B9A74FEF75AFF03469A7A4D4B1A71FEF75EFF4FF4A070FEF77CFFFEF74EFF034601331B781B029CB2FEF747FF03461B789BB2224613437E
:402780009BB29AB2424B1A80FEF746FF4FF4A070FEF764FFFEF736FF0346023318460021102217F0D2F9FEF72DFF0346023300221A70FEF727FF0346033300221A70FEF7C3
:4027C00021FF0346043305221A70FEF71BFF0346053300221A704FF4A070FEF789FFFEF711FF0346023318460821FDF7E7FE03469AB2254B9A81FEF70FFF4FF4C070FEF70E
:402800002DFFFEF7FFFE034618460821FDF7D6FE03469AB21C4BDA81FEF7FEFE4FF40070FEF71CFFFEF7EEFE00221A4B9A72FEF7F3FE4FF41070FEF711FFFEF7E3FE0022BD
:40284000144B83F8C229FEF7E7FE4FF42070FEF705FFFEF7D7FE00220E4B03F59B531A331A70FEF7D9FE4FF43070FEF7F7FEFEF7C9FE0022074B03F5E95312331A70FFF729
:4028800051F80C37BD4690BD785A0020E86200209CCEFF1F9833002080B485B000AF0346FB710023FB81274B9B78022B02D0042B14D03FE0244B1B78FA799A4203D14FF4E3
:4028C0008063FB8109E0204B93F8B839FA799A4203D14FF48863FB812CE02BE01A4B1B78FA799A4203D14FF48063FB8121E0164B93F8B839FA799A4203D14FF48863FB815D
:4029000017E0114B03F59B5310331B78FA799A4203D14FF49063FB810BE00B4B03F5E95308331B78FA799A4203D14FF49863FB81FFE700BFFB8918461437BD465DF8047BEA
:40294000704700BF785A00209833002080B485B000AF0346FB710023FB600023FB7216E0FB7A114A40F6B81101FB03F313441B78FA799A4208D1FB7A40F6B81202FB03F3F8
:40298000094A1344FB6007E0FB7A0133FB72074B9B78FA7A9A42E3D3FB6818461437BD465DF8047B704700BF98330020785A002080B584B000AF07F009FFFEF769F9F860AE
:4029C000FB68002B47D00023FB72FB7AFA6813441C225A70FB7A5A1CFA72FA6802339B001344824A5A60FB7AFA68134420225A70FB7A5A1CFA72FA6802339B0013447C4A26
:402A00005A60FB7AFA68134407225A70FB7A5A1CFA72FA6802339B001344764A5A60FB7AFA6813440A225A70FB7A5A1CFA72FA6802339B001344704A5A60FB7AFA681344BB
:402A40000C225A70FB7A5A1CFA72FA6802339B0013446A4A5A60FEF71BF9F860FB68002B63D00023BB72BB7AFA6813440D225A70BB7A5A1CBA72FA6802339B001344604AAD
:402A80005A60BB7AFA6813440E225A70BB7A5A1CBA72FA6802339B0013445A4A5A60BB7AFA6813440F225A70BB7A5A1CBA72FA6802339B001344544A5A60BB7AFA68134427
:402AC00011225A70BB7A5A1CBA72FA6802339B0013444E4A5A60BB7AFA68134412225A70BB7A5A1CBA72FA6802339B001344484A5A60BB7AFA68134410225A70BB7A5A1CFA
:402B0000BA72FA6802339B001344424A5A60BB7AFA68134413225A70BB7A5A1CBA72FA6802339B0013443C4A5A60FDF785FE78607B68002B0CD07B680D225A707B6842F2E1
:402B400010729A807B6805229A707B680322DA70FDF772FE78607B68002B0CD07B680E225A707B6843F698229A807B6805229A707B680322DA70FDF75FFE78607B68002BC3
:402B800010D07B680A225A707B6844F620629A807B684FF4FA725A817B6806229A707B680322DA70FDF748FE78607B68002B0ED07B6813225A707B6800229A807B681422B7
:402BC0005A817B6806229A707B680322DA7014F019FE03461A46114B1A801148FDF77EFB1048FDF77BFB1037BD4680BD5D1B0000891C000009320000B51D00002D2700004C
:402C0000E525000021200000A9220000D5230000452500007D1F0000292C00003ECFFF1F792E0000692F000080B582B000AF8F4BD3F850388D48984778607B68002B00F0F4
:402C400011817B685B69002B00F00C810023FB700023BB7000237B70854B00221A71844B0022DA80834800214FF4007216F06DFF7B68DB6903F5CE73184600214FF4C0725A
:402C800016F063FF00233B7079E07B685A693B7813449B7FFF2B6ED00123BB70FB7883F00103DBB2002B05D07B685A693B7813449B7EFB707B68DB699B78DAB27B685969EE
:402CC0003B780B449B7F9A4256D17B685B69DB6A002B06D07B685B69DB6A7A68D269104698477B685B695B68002B29D07B68DB695F4A13607B685B691B7E002B06D07B6895
:402D00005B691B7E9AB25A4BDA8004E07B685B69DB68574A93607B685B691B687A68D269104698477B685A697B689A617B6800225A6114F067FD03461A467B681A8217E042
:402D40007B685B691B687A68D269104698477B681B6A002B05D07B681B6A7A68526A10469847424BD3F854384048984700237B6001237B7006E005E03B7801333B703B78CC
:402D8000032B82D9BB7883F00103DBB2002B53D07B685B69DB6A002B06D07B685B69DB6A7A68D269104698477B685B695B68002B29D07B68DB692E4A13607B685B691B7EFA
:402DC000002B06D07B685B691B7E9AB2284BDA8004E07B685B69DB68254A93607B685B691B687A68D269104698477B685A697B689A617B6800225A6114F004FD03461A46DB
:402E00007B681A822EE07B685B691B687A68D269104698477B681B6A002B05D07B681B6A7A68526A10469847104BD3F854380F48984700237B6015E07B7883F00103DBB214
:402E4000002B0FD0FB78002B07D0084BD3F854380648984700237B6004E0044BD3F84438024898470837BD4680BD00BF8C5A00202831002034310020B0B582B000AF384B50
:402E8000D3F850383648984778607B68002B64D07B689B69002B60D07B689B691B8A002B5BD014F0AFFC03461A467B685B8A9BB219464FF47A7303FB01F313447A68128A61
:402EC00092B29B1A3B60386816F010F802460B46104619464FF00002224B16F097F902460B4614461D467B689B691B8A184615F0FDFF02460B462046294616F0EDFA034619
:402F0000002B2AD07B6800225A827B6800221A827B68DB899BB201339AB27B68DA817B689B699B68002B04D07B689B699B68786898477B68DB899BB2142B07D9084BD3F835
:402F400054380748984700237B6006E07B689A697B685A617B6800229A610837BD46B0BD8C5A002000408F4080B582B000AF884B1B79DBB283F00103DBB2002B00D03AE147
:402F8000844BD3F850388348984778607B68002B00F01B817B689B69002B00F016817B6800225A827B6800221A827B68DB6903F5CE72774BDB889BB2104677491A4616F06B
:402FC000B9FD7B68DB69724AD28892B2A3F81C230023FB700023BB7000237B7000233B7061E07B689A693B78134493F82630FF2B55D00123BB70FB7883F00103DBB2002BB6
:4030000006D07B689A693B78134493F82230FB707B689B695B68786898477B68DB699B78DAB27B6899693B780B4493F826309A4236D17B681B78DBB283F00103DBB2002B76
:4030400013D07B689B691B6B002B04D07B689B691B6B786898477B681B6A002B05D07B681B6A7A68526A104698477B681B78DBB283F00103DBB2002B07D0464BD3F8543841
:403080004448984700237B6006E07B689A697B685A617B6800229A6101237B7006E005E03B7801333B703B78032B9AD9BB7883F00103DBB2002B38D07B689B695B68786889
:4030C00098477B681B78DBB283F00103DBB2002B13D07B689B691B6B002B04D07B689B691B6B786898477B681B6A002B05D07B681B6A7A68526A104698477B681B78DBB29E
:4031000083F00103DBB2002B07D0224BD3F854382048984700237B6057E07B689A697B685A617B6800229A614FE07B7883F00103DBB2002B49D0FB78002B07D0154BD3F8BB
:4031400054381448984700237B603EE07B689B695B7E002B22D07B681B899BB2132B07D90C4BD3F854380B48984700237B602CE07B681B899BB201339AB27B681A817B68FE
:403180009A697B685A617B6800229A611DE000BF283100208C5A0020343100207B685B899BB2002B05D114F02DFB03461A467B685A817B689A697B685A617B6800229A6182
:4031C0000E4BD3F844380D4898470D4B00221A710B4B0022DA800B4800214FF4007216F0B4FC7B68DB6903F5CE73184600214FF4C07216F0AAFC0837BD4680BD8C5A0020C0
:40320000283100203431002080B584B000AF78601B4B1B8801339AB2194B1A80194BD3F8503818489847F860FB68002B1BD0FB689B69002B17D0FB689B691B8A002B06D0CC
:40324000FB685B8A9BB201339AB2FB685A82FB689B695B69002B06D0FB689B899BB201339AB2FB689A8114F0CDFA03461A46064B1A80034B00221A801037BD4680BD00BF4D
:4032800040CFFF1F8C5A00203ECFFF1F80B586B000AF78600B467B80334A07F108031068186012791A710523FB827B681A783B7A9A4237D17B88013B7A6813441A78FB8AAA
:4032C000013B07F118010B4413F8103C9A4229D17B88023B7A6813441A78FB8A023B07F118010B4413F8103C9A421BD17B88033B7A6813441A78FB8A033B07F118010B448A
:4033000013F8103C9A420DD17B88043B7A6813441A78FB8A043B07F118010B4413F8103C9A4201D000231AE0FDF786FA38613B69002B13D03B691B225A703B6903229A70ED
:403340003B690C3318467968082216F0F3FB3B697A88A3F88C213B690322DA70002318461837BD4680BD00BF30A4010080B586B000AF78600B467B80334A07F10803106832
:40338000186012791A710523FB827B681A783B7A9A4237D17B88013B7A6813441A78FB8A013B07F118010B4413F8103C9A4229D17B88023B7A6813441A78FB8A023B07F1AF
:4033C00018010B4413F8103C9A421BD17B88033B7A6813441A78FB8A033B07F118010B4413F8103C9A420DD17B88043B7A6813441A78FB8A043B07F118010B4413F8103C7E
:403400009A4201D000231AE0FDF716FA38613B69002B13D03B691F225A703B6903229A703B690C3318467968082216F083FB3B697A88A3F88C213B690322DA70002318469F
:403440001837BD4680BD00BF30A4010080B584B000AF78607B68BB60BB68002B16D00023FB730CE0BB68D3F808319B6BFA7BB9680A44127910469847FB7B0133FB73FB7B2B
:403480009AB2BB685B889BB29A42EBD31037BD4680BD00BF90B58DB000AF78607B68FB62554B1B78DBB2002B00D0A1E0FB6A03F10C02FB6AB3F88C319BB2DBB21046194645
:4034C00003F0F0FD03461A464C4BDA704B4803F091FC4A4B9B78FF2B07D1484B5B79FF2B03D1464B9B7AFF2B78D0444B9B6B002B03D0424B9B6B41489847404803F0CEFC55
:4035000078627B6A002B14D07B6A3C489847034683F00103DBB2002B0BD0384BFF229A70364B9A78354B5A71344B5A79334B9A725EE0324804F05CFF304B1B6B3B622F489E
:4035400003F07CFDF861FB69002B02D0FB692B4898472A4803F04CFE284803F03BFDB861BB69002B02D0BB6924489847AA233B7270237B720023BB72204B1B691B78FB7243
:40358000CC233B7333237B73C323BB733C23FB73A320FCF7BDFD78617B69002B12D07B6908225A807B691A1D7B695B889BB21C4607F1080310461946224616F0BBFA7B69D7
:4035C000C2221A700D4803F0D1FC38613B69002B03D03B69094898470AE009E0074803F091FCB862BB6A002B02D0BB6A034898473437BD4690BD00BF785A00202C83FF1FD3
:4036000090B58DB000AF78607B68FB62534B1B78DBB2002B00D09EE0FB6A03F10C02FB6AB3F88C319BB2DBB21046194603F03AFD03461A464A4BDA70494803F0DBFB484BA8
:403640009B78FF2B07D1464B5B79FF2B03D1444B9B7AFF2B75D0424B9B6B002B03D0404B9B6B3F4898473E4803F018FC78627B6A002B14D07B6A3A489847034683F00103D6
:40368000DBB2002B0BD0364BFF229A70344B9A78334B5A71324B5A79314B9A725BE0304804F0A6FE2E4803F0C9FC38623B6A002B02D03B6A2A489847294803F099FD284804
:4036C00003F088FCF861FB69002B02D0FB6924489847AA233B7370237B730023BB73204B1B691B78FB73CC233B7433237B74C323BB743C23FB74A420FCF70AFDB861BB69EC
:40370000002B12D0BB6908225A80BB691A1DBB695B889BB21C4607F10C0310461946224616F008FABB69C2221A700D4803F01EFC78617B69002B03D07B69094898470AE06A
:4037400009E0074803F0DEFBB862BB6A002B02D0BB6A034898473437BD4690BD785A00206883FF1FB0B590B004AF786003233B724FF6FF73BB810023FB818523BB727B68B7
:40378000FB62FDF753FFFDF747FF4FF4E070FDF765FFFDF737FF03461B7A87F82B30FDF751FFFB6A1B78002B47D1A320FCF7B0FC78627B6A002B3FD007F1100318460021FB
:4037C000102216F0C2F997F82B30012B09D197F82B3007F1100210463C491A4616F0F8F908E097F82B3007F11002104638491A4616F0EEF97B6A1D1D07F11003184616F032
:4038000019FA03469BB207F11004009301AA07F1080393E8030082E80300F0204FF495712A46234603F04AFA03461A467B6A5A807B6AC2221A7046E045E0A420FCF768FC1D
:4038400038623B6A002B3ED007F1100318460021102216F07AF997F82B30012B09D197F82B3007F11002104618491A4616F0B0F908E097F82B3007F11002104614491A4602
:4038800016F0A6F93B6A1D1D07F11003184616F0D1F903469BB207F11004009301AA07F1080393E8030082E80300F0204FF495712A46234603F002FA03461A463B6A5A8034
:4038C0003B6AC2221A703037BD46B0BD38A4010044A4010090B58DB004AF786003233B724FF6FF73BB810023FB81C523BB72294BFB617B68BB61BB691B78002B24D1A32028
:40390000FCF706FC78617B69002B1CD07B691C1DF86916F08FF903469BB2009301AA07F1080393E8030082E803006020EA212246FB6903F0C3F903461A467B695A807B699F
:40394000C2221A7023E022E0A420FCF7E1FB38613B69002B1BD03B691C1DF86916F06AF903469BB2009301AA07F1080393E8030082E803006020EA212246FB6903F09EF9A4
:4039800003461A463B695A803B69C2221A702437BD4690BD50A4010090B58DB004AF786003233B724FF6FF73BB810023FB81C523BB72294BFB617B68BB61BB691B78002BF6
:4039C00024D1A320FCF7A4FB78617B69002B1CD07B691C1DF86916F02DF903469BB2009301AA07F1080393E8030082E803002020EA212246FB6903F061F903461A467B694C
:403A00005A807B69C2221A7023E022E0A420FCF77FFB38613B69002B1BD03B691C1DF86916F008F903469BB2009301AA07F1080393E8030082E803002020EA212246FB69B3
:403A400003F03CF903461A463B695A803B69C2221A702437BD4690BD70A4010090B587B000AF78607B687B617B691B78002B4AD10023FB747B691C6B2E2004F017FF034608
:403A800023441B7B562B19D1FDF7D0FDFDF7C4FD4FF40070FDF7E2FDFDF7B4FD03465B79BB74FDF7CFFDBB7C002B03D17B69A4221A7127E07B69A5221A7123E07B691C6BDB
:403AC0002E2004F0F3FE034623441B7B572B19D1FDF7ACFDFDF7A0FD4FF42070FDF7BEFDFDF790FD03465B797B74FDF7ABFD7B7C002B03D17B69A4221A7103E07B69A5224F
:403B00001A714DE04CE07B691B78012B48D100233B747B691C6B2E2004F0C8FE034623441B7B562B19D1FDF781FDFDF775FD4FF43070FDF793FDFDF765FD03465B79FB73CF
:403B4000FDF780FDFB7B002B03D17B69A4221A7126E07B69A5221A7122E07B691C6B2E2004F0A4FE034623441B7B572B18D1FDF75DFDFDF751FD4FF41070FDF76FFDFDF745
:403B800041FD03465B79BB73FDF75CFDBB7B002B03D17B69A4221A7102E07B69A5221A711C37BD4690BD00BFB0B586B000AF78607B687B61786904F0C1FE03461A4640F6F7
:403BC000B81303FB02F3464A13443B613B69002B00F083803B69D3F83839386998473B69D3F84C3938699847F8603B69D3F83C3938699847FB68002B6FD00023FB72FB6872
:403C0000E3225A70FB7A5A1CFA7219463B691A78FB680B449A70FB7AFA6813449D1C7B691C6B242004F042FE0346083323441C1D242004F05FFE0346284621461A4615F007
:403C400079FF242004F056FE03461A46FB7A1344FB72FB7AFA6813449D1C7B691C6B252004F024FE0346083323441C1D252004F041FE0346284621461A4615F05BFFFB7AC3
:403C8000FA6813449C1CFB7AFA6813440233184615F0D0FF0346DBB220461946FCF750FC252004F027FE03461A46FB7A1344FB72FB7A9AB2FB68A3F802213B69D3F8383922
:403CC000386998473B69D3F844393869F96898473B69D3F83C39386998471837BD46B0BD9833002080B584B000AF78607B68FB60FB68DB7A1846FEF729FEB8601037BD46A7
:403D000080BD00BFF0B58FB004AF786003233B734FF6FF733B8200237B82C523BB734F4BBB607B687B627B6A1B78002B4AD1A320FCF7EEF938623B6A002B42D00023FB77B9
:403D4000BA23BB833B6A00225A803B6A5B889BB21A463B6A13441D1DFB7F9B0007F12802134453F8204CFB7F9B0007F12802134453F8203C184615F05DFF03469BB2BE8B04
:403D8000009301AA07F10C0393E8030082E803001A2031462A46234602F090FF03461A463B6A5B889BB213449AB23B6A5A80BB8B2033BB83FB7F0133FB773B6AC2221A701E
:403DC00049E048E0A420FCF7A3F9B861BB69002B41D00023FB75BA23BB82BB6900225A80BB695B889BB21A46BB6913441D1DFB7D9B0007F12802134453F8204CFB7D9B001A
:403E000007F12802134453F8203C184615F012FF03469BB2BE8A009301AA07F10C0393E8030082E803001A2031462A46234602F045FF03461A46BB695B889BB213449AB280
:403E4000BB695A80BB8A2033BB82FB7D0133FB75BB69C2221A702C37BD46F0BD1CA501002DE9F04196B004AF786003233B7500233B834FF6FF737B838523BB75002387F8EE
:403E800047300023A7F844300023A7F842307B68FB63F86B04F052FD0346032B3ED801A252F823F0B53E0000CF3E0000E93E0000033F0000D34BDB7887F847304FF4007327
:403EC000A7F844304FF44073A7F8423026E0CD4B1B7987F847304FF41073A7F844304FF45073A7F8423019E0C64B5B7987F847304FF42073A7F844304FF46073A7F842302C
:403F00000CE0C04B9B7987F847304FF43073A7F844304FF47073A7F8423000BFFB6B1B78002B40F00881FDF781FBFDF775FBB7F844301846FDF792FBFDF764FB03465A1CCC
:403F400007F1100310681860FDF77CFBFDF76EFBFDF762FBB7F842301846FDF77FFB002387F84130DDE097F8413007F14802134413F8383C013B032B00F2CE8001A252F8C1
:403F800023F000BF953F0000F33F000055400000B7400000A320FCF7BBF8B863BB6B002B26D097F84130984A32F8236097F84130954A9B0013445D88BB6B1C1DFDF722FB1D
:403FC00086461023009301AA07F1140393E8030082E80300304629462246734602F06EFE03461A46BB6B5A80BB6BC2221A7093E092E0A320FCF78CF878637B6B002B28D0E6
:4040000097F84130804A32F8238097F841307E4A9B0013445E887B6B1D1DFDF7F3FA034603F110041023009301AA07F1140393E8030082E80300404631462A46234602F0C4
:404040003DFE03461A467B6B5A807B6BC2221A7062E061E0A320FCF75BF838633B6B002B28D097F84130684A32F8238097F84130654A9B0013445E883B6B1D1DFDF7C2FAC2
:40408000034603F120041023009301AA07F1140393E8030082E80300404631462A46234602F00CFE03461A463B6B5A803B6BC2221A7031E030E0A320FCF72AF8F862FB6A6D
:4040C000002B28D097F841304F4A32F8238097F841304D4A9B0013445E88FB6A1D1DFDF791FA034603F130041023009301AA07F1140393E8030082E80300404631462A4661
:40410000234602F0DBFD03461A46FB6A5A80FB6AC2221A70FFE700BF97F84130013387F8413097F8412097F847309A42FFF41BAFFDF788FA0BE1FDF779FAFDF76DFAB7F866
:4041400044301846FDF78AFAFDF75CFA03465A1C07F10C0310681860FDF774FAFDF766FAFDF75AFAB7F842301846FDF777FA002387F84030E2E097F8403007F148021344A7
:4041800013F83C3C013B032B00F2D38001A252F823F000BFA54100000D4200006F420000D1420000A420FBF7B3FFB862BB6A002B26D097F84030144A32F8236097F8403044
:4041C000114A9B0013445D88BB6A1C1DFDF71AFA86461023009301AA07F1140393E8030082E80300304629462246734602F066FD03461A46BB6A5A80BB6AC2221A7098E0E2
:4042000097E000BF785A0020A483FF1FA420FBF77FFF78627B6A002B28D097F840304E4A32F8238097F840304B4A9B0013445E887B6A1D1DFDF7E6F9034603F110041023B5
:40424000009301AA07F1140393E8030082E80300404631462A46234602F030FD03461A467B6A5A807B6AC2221A7062E061E0A420FBF74EFF38623B6A002B28D097F840306F
:40428000354A32F8238097F84030334A9B0013445E883B6A1D1DFDF7B5F9034603F120041023009301AA07F1140393E8030082E80300404631462A46234602F0FFFC034605
:4042C0001A463B6A5A803B6AC2221A7031E030E0A420FBF71DFFF861FB69002B28D097F840301D4A32F8238097F840301A4A9B0013445E88FB691D1DFDF784F9034603F13F
:4043000030041023009301AA07F1140393E8030082E80300404631462A46234602F0CEFC03461A46FB695A80FB69C2221A70FFE700BF97F84030013387F8403097F84020DD
:4043400097F847309A42FFF416AFFDF77BF94837BD46BDE8F08100BFA483FF1FF0B58FB004AF786003233B734FF6FF733B8200237B82C523BB734F4BBB607B687B627B6A58
:404380001B78002B4AD1A320FBF7C2FE38623B6A002B42D00023FB77BA23BB833B6A00225A803B6A5B889BB21A463B6A13441D1DFB7F9B0007F12802134453F8204CFB7FB8
:4043C0009B0007F12802134453F8203C184615F031FC03469BB2BE8B009301AA07F10C0393E8030082E803001A2031462A46234602F064FC03461A463B6A5B889BB21344B2
:404400009AB23B6A5A80BB8B2033BB83FB7F0133FB773B6AC2221A7049E048E0A420FBF777FEB861BB69002B41D00023FB75BA23BB82BB6900225A80BB695B889BB21A4631
:40444000BB6913441D1DFB7D9B0007F12802134453F8204CFB7D9B0007F12802134453F8203C184615F0E6FB03469BB2BE8A009301AA07F10C0393E8030082E803001A2085
:4044800031462A46234602F019FC03461A46BB695B889BB213449AB2BB695A80BB8A2033BB82FB7D0133FB75BB69C2221A702C37BD46F0BD44A50100B0B586B000AF786065
:4044C0007B687B61786904F039FA03461A4640F6B81303FB02F3524A13443B613B69D3F83839386998473B69D3F84C3938699847F8603B69D3F83C3938699847FB68002BAB
:4045000000F08A800023FB72FB68A2225A70FB7A5A1CFA7219463B691A78FB680B449A70FB7A5A1CFA721D467B691C6B072004F0BDF9034623441A7BFB682B449A70FB7ACC
:40454000FA6813449D1C7B691C6B122004F0AEF90346083323441C1D122004F0CBF90346284621461A4615F0E5FAFB7AFA6813449C1C122004F0BEF9034620461946FBF75E
:40458000DFFF122004F0B6F903461A46FB7A1344FB72FB7AFA6813449D1C7B691C6B0E2004F084F90346083323441C1D0E2004F0A1F90346284621461A4615F0BBFAFB7AE8
:4045C000FA6813449C1C0E2004F094F9034620461946FBF7B5FF0E2004F08CF903461A46FB7A1344FB72FB7A9AB2FB68A3F802213B69002283F898293B69D3F838393869F9
:4046000098473B69D3F844393869F96898473B69D3F83C39386998471837BD46B0BD00BF9833002090B585B000AF78607B68FB60F86804F083F903461A4640F6B81303FB4A
:4046400002F31C4A1344BB60BB6893F89839DBB2002B28D0BB68002283F89829FB681C6B0B2004F023F90346083323441C1D0B2004F040F90346204600211A4615F065FA88
:40468000FB681C6B0B2004F011F90346234439221A73FB681C6B052004F008F90346234444221A7302E0BB680822DA721437BD4690BD00BF9833002090B585B000AF7860E7
:4046C0007B68FB60FB68002B3DD0FCF7AFFFFCF7A3FF4FF4A070FCF7C1FFFCF793FF034601331B781B029CB2FCF78CFF03461B789BB2224613439BB27B81FCF7A3FFFB68FF
:404700001D3318460021102215F01FFA7A894FF00003F96801F11D04104619462246FBF721FEFB681D33184615F084FA0346DAB2FB681A77FB6803F11D02FB681B7F10464D
:404740001946FBF7FDFE1437BD4690BDF0B58BB004AF78607B687B617B69002B65D07B691B699A8D7B691A837B691B69DA8D7B695A837B691B78002B2CD1A320FBF7C8FC2C
:4047800038613B69002B24D07B69B3F818E07B695E8B3B691D1D7B6903F11D047B691B6993F830309BB27A691269009301AB32321068516803C3704631462A46234602F0E2
:4047C0007DFA03461A463B695A803B69C2221A702BE02AE0A420FBF79BFCF860FB68002B23D07B69B3F818E07B695E8BFB681D1D7B6903F11D047B691B6993F830309BB244
:404800007A691269009301AB32321068516803C3704631462A46234602F050FA03461A46FB685A80FB68C2221A701C37BD46F0BDB0B584B000AF78607B68BB60BB68002B18
:4048400058D00023FB8100237B732EE0BB681B7F1A467B7BD31A013B184614F047FB02460B464FF00000254913F010F904460D467B7BBA6813445B7F03F00F03184614F0D3
:4048800035FB02460B462046294614F095FB02460B461046194614F029FE03469AB2FB891344FB817B7B01337B73BB681B7F7A7B9A42CBD3FCF7BAFEFCF7AEFE4FF4A07080
:4048C000FCF7CCFEFCF79EFE0346FA89D2B21A70FCF798FE03460133FA89120A92B2D2B21A704FF4A070FCF703FF054AFB891380FCF7A8FE1037BD46B0BD00BF000024407A
:404900009CCEFF1F90B585B000AF78607B68FB60FB68002B32D0FCF789FEFCF77DFE4FF4E070FCF79BFEFCF76DFE03465B7AFB72FCF788FEFB681D3318460021102215F04E
:4049400004F9FA7A4FF00003F96801F11D04104619462246FBF706FDFB681D33184615F069F90346DAB2FB681A77FB6803F11D02FB681B7F10461946FBF7E2FD1437BD4676
:4049800090BD00BFF0B58BB004AF78607B687B617B69002B65D07B691B699A8D7B691A837B691B69DA8D7B695A837B691B78002B2CD1A320FBF7ACFB38613B69002B24D086
:4049C0007B69B3F818E07B695E8B3B691D1D7B6903F11D047B691B6993F830309BB27A691269009301AB32321068516803C3704631462A46234602F061F903461A463B6955
:404A00005A803B69C2221A702BE02AE0A420FBF77FFBF860FB68002B23D07B69B3F818E07B695E8BFB681D1D7B6903F11D047B691B6993F830309BB27A691269009301AB45
:404A400032321068516803C3704631462A46234602F034F903461A46FB685A80FB68C2221A701C37BD46F0BDB0B584B000AF78607B68BB60BB68002B50D00023FB730023BC
:404A8000BB732FE0BB681B7F1A46BB7BD31A013B184614F02BFA02460B464FF00000214912F0F4FF04460D46BB7BBA6813445B7F03F00F03184614F019FA02460B462046E0
:404AC000294614F079FA02460B461046194614F00DFD03469BB2DAB2FB7B1344FB73BB7B0133BB73BB681B7FBA7B9A42CAD3FCF79DFDFCF791FD4FF4E070FCF7AFFDFCF7E1
:404B000081FD03460933FA7B1A704FF4E070FCF7EFFD054AFB7B9374FCF794FD1037BD46B0BD00BF00002440785A002080B586B000AF78607B687B617B691B78002B22D19F
:404B4000FBF77AFE38613B69002B1BD07B693A695A633B697A69C3F890213B6923225A703B6964225A813B6941F288329A803B69194AC3F894213B6906229A703B690322C8
:404B8000DA7025E024E07B691B78012B20D1FBF753FEF860FB68002B1AD07B69FA685A63FB687A69C3F89021FB6824225A70FB6864225A81FB6841F288329A80FB68064AF2
:404BC000C3F89421FB6806229A70FB680322DA701837BD4680BD00BF114C000080B485B000AF78607B68FB60FB685B6B002B0AD0FB685B6B002B03D0FB685B6B01221A70DA
:404C0000FB6800225A631437BD465DF8047B704780B588B000AF78607B68FB61FB69D3F89031BB61BB69002B38D0BB6913229A72BB6903F11D02FB690C33104619460822A5
:404C400014F078FFBB6908221A77FBF7F5FD78617B69002B22D0134A07F10C031068516803C3BB691B78002B03D17B691B225A7002E07B691F225A707B6903229A707B6958
:404C80000C331A4607F10C0303CB106051607B690822A3F88C217B690322DA702037BD4680BD00BF6CA50100B0B590B004AF786004233B724FF6FF73BB810023FB81C523D0
:404CC000BB727B68BB62BB6A1B78002B40F00482BB6A1B691B783E2B40F0FE81A320FBF717FA78627B6A002B00F01481002387F82F30FCF79BFCFCF74BFDFCF7D1FD07F1E6
:404D0000100318460021082214F01FFFFCF736FD034602331B7803F04003002B32D097F82F305A1C87F82F201C46FCF727FD034602331B781B09DBB2DBB203F00103DBB27D
:404D400043F03003DBB2DAB207F13003234403F8202C97F82F305A1C87F82F201C46FCF70DFD034602331B78DBB203F00F03DBB243F03003DBB2DAB207F13003234403F80E
:404D8000202C31E097F82F305A1C87F82F201C46FCF7F4FC034602331B781B09DBB2DBB203F00303DBB243F03003DBB2DAB207F13003234403F8202C97F82F305A1C87F80F
:404DC0002F201C46FCF7DAFC034602331B78DBB203F00F03DBB243F03003DBB2DAB207F13003234403F8202C97F82F305A1C87F82F2007F1300213443A2203F8202C97F8CC
:404E00002F305A1C87F82F201C46FCF7B7FC034601331B781B09DBB2DBB203F00703DBB243F03003DBB2DAB207F13003234403F8202C97F82F305A1C87F82F201C46FCF710
:404E40009DFC034601331B78DBB203F00F03DBB243F03003DBB2DAB207F13003234403F8202C97F82F305A1C87F82F2007F1300213443A2203F8202C97F82F305A1C87F8D9
:404E80002F201C46FCF77AFC03461B781B09DBB2DBB203F00703DBB243F03003DBB2DAB207F13003234403F8202C97F82F305A1C87F82F201C46FCF761FC03461B78DBB28F
:404EC00003F00F03DBB243F03003DBB2DAB207F13003234403F8202CFCF7B4FB7B6A1D1D97F82F309BB207F11004009301AA07F1080393E8030082E80300C920BA212A4660
:404F0000234601F0DBFE03461A467B6A5A807B6AC2221A70A320FBF7FBF878627B6A002B00F0D980002387F82330FCF77FFBFCF72FFCFCF7B5FC07F11003184600210822D0
:404F400014F003FE97F823305A1C87F823201C46FCF714FC034604331B781B09DBB2DBB203F00303DBB243F03003DBB2DAB207F13003234403F8202C97F823305A1C87F8A7
:404F800023201C46FCF7FAFB034604331B78DBB203F00F03DBB243F03003DBB2DAB207F13003234403F8202C97F823305A1C87F8232007F1300213442F2203F8202C97F818
:404FC00023305A1C87F823201C46FCF7D7FB034605331B781B09DBB2DBB203F00103DBB243F03003DBB2DAB207F13003234403F8202C97F823305A1C87F823201C46FCF762
:40500000BDFB034605331B78DBB203F00F03DBB243F03003DBB2DAB207F13003234403F8202C97F823305A1C87F8232007F1300213442F2203F8202C97F823305A1C87F823
:4050400023201C46FCF79AFB034606331B781B09DBB2DBB243F03003DBB2DAB207F13003234403F8202C97F823305A1C87F823201C46FCF783FB034606331B78DBB203F0D6
:405080000F03DBB243F03003DBB2DAB207F13003234403F8202CFCF7D5FA7B6A1D1D97F823309BB207F11004009301AA07F1080393E8030082E80300C9204FF495712A460F
:4050C000234601F0FBFD03461A467B6A5A807B6AC2221A70F5E1F4E1BB6A1B78012B40F0F081BB6A1B691B783E2B40F0EA81A420FBF70EF8F861FB69002B00F014810023E7
:4051000087F82E30FCF792FAFCF742FBFCF7C8FB07F1100318460021082214F016FDFCF72DFB034602331B7803F04003002B32D097F82E305A1C87F82E201C46FCF71EFB35
:40514000034602331B781B09DBB2DBB203F00103DBB243F03003DBB2DAB207F13003234403F8202C97F82E305A1C87F82E201C46FCF704FB034602331B78DBB203F00F03DD
:40518000DBB243F03003DBB2DAB207F13003234403F8202C31E097F82E305A1C87F82E201C46FCF7EBFA034602331B781B09DBB2DBB203F00303DBB243F03003DBB2DAB23B
:4051C00007F13003234403F8202C97F82E305A1C87F82E201C46FCF7D1FA034602331B78DBB203F00F03DBB243F03003DBB2DAB207F13003234403F8202C97F82E305A1C9B
:4052000087F82E2007F1300213443A2203F8202C97F82E305A1C87F82E201C46FCF7AEFA034601331B781B09DBB2DBB203F00703DBB243F03003DBB2DAB207F13003234467
:4052400003F8202C97F82E305A1C87F82E201C46FCF794FA034601331B78DBB203F00F03DBB243F03003DBB2DAB207F13003234403F8202C97F82E305A1C87F82E2007F125
:40528000300213443A2203F8202C97F82E305A1C87F82E201C46FCF771FA03461B781B09DBB2DBB203F00703DBB243F03003DBB2DAB207F13003234403F8202C97F82E30E9
:4052C0005A1C87F82E201C46FCF758FA03461B78DBB203F00F03DBB243F03003DBB2DAB207F13003234403F8202CFCF7ABF9FB691D1D97F82E309BB207F11004009301AAB8
:4053000007F1080393E8030082E80300C920BA212A46234601F0D2FC03461A46FB695A80FB69C2221A70A420FAF7F2FEF861FB69002B00F0C6800023FB76FCF777F9FCF7BD
:4053400027FAFCF7ADFA07F1100318460021082214F0FBFBFB7E5A1CFA761C46FCF70EFA034604331B781B09DBB2DBB203F00303DBB243F03003DBB2DAB207F13003234420
:4053800003F8202CFB7E5A1CFA761C46FCF7F6F9034604331B78DBB203F00F03DBB243F03003DBB2DAB207F13003234403F8202CFB7E5A1CFA7607F1300213442F2203F84D
:4053C000202CFB7E5A1CFA761C46FCF7D7F9034605331B781B09DBB2DBB203F00103DBB243F03003DBB2DAB207F13003234403F8202CFB7E5A1CFA761C46FCF7BFF90346FA
:4054000005331B78DBB203F00F03DBB243F03003DBB2DAB207F13003234403F8202CFB7E5A1CFA7607F1300213442F2203F8202CFB7E5A1CFA761C46FCF7A0F903460633E3
:405440001B781B09DBB2DBB243F03003DBB2DAB207F13003234403F8202CFB7E5A1CFA761C46FCF78BF9034606331B78DBB203F00F03DBB243F03003DBB2DAB207F13003ED
:40548000234403F8202CFCF7DDF8FB691D1DFB7E9BB207F11004009301AA07F1080393E8030082E80300C9204FF495712A46234601F004FC03461A46FB695A80FB69C222AF
:4054C0001A703037BD46B0BD80B586B000AF78607B687B617B691B78002B20D11D20FBF753FA38613B69002B18D07B693A695A633B697A69C3F890213B691C4AC3F894218A
:405500003B691D225A703B6906229A703B694FF47A725A813B690322DA7023E022E07B691B78012B1ED12120FBF72EFAF860FB68002B17D07B69FA685A63FB687A69C3F864
:405540009021FB68094AC3F89421FB6821225A70FB6806229A70FB684FF47A725A81FB680322DA701837BD4680BD00BFA94C000080B487B000AF78607B687B617B691B78A5
:40558000002B0AD17B695B6B3B613B69002B03D03B6901221A700DE00CE07B691B78012B08D17B695B6BFB60FB68002B02D0FB6801221A701C37BD465DF8047B704700BF42
:4055C00080B584B000AF78607B68FB60FB68D3F89431002B07D0FB68D3F89431FA68D2F89021104698471037BD4680BD80B586B000AF78607B687B617B691B78002B1ED1BA
:405600001E20FBF7C1F938613B69002B16D01E4B00229A707B693A695A633B697A69C3F890213B691E225A703B6906229A703B6964225A813B690322DA7021E020E07B69E5
:405640001B78012B1CD12220FBF79EF9F860FB68002B15D00C4B00225A727B69FA685A63FB687A69C3F89021FB6822225A70FB6806229A70FB6864225A81FB680322DA7052
:405680001837BD4680BD00BFB883FF1F80B487B000AF78607B687B617B691B78002B0AD17B695B6B3B613B69002B03D03B6901221A700DE00CE07B691B78012B08D17B69A3
:4056C0005B6BFB60FB68002B02D0FB6801221A701C37BD465DF8047B704700BFB0B590B004AF786002233B724FF6FF73BB810023FB81C523BB727B68BB62BB6A1B78002BED
:4057000040F0DE81BB6A1B691B78012B40F0D881A320FAF7FDFC78627B6A002B00F0EA80002387F82F30FBF781FFFCF731F8FCF7B7F807F1100318460021082214F005FA10
:40574000FCF71CF8034602331B7803F04003002B32D097F82F305A1C87F82F201C46FCF70DF8034602331B781B09DBB2DBB203F00103DBB243F03003DBB2DAB207F13003A5
:40578000234403F8202C97F82F305A1C87F82F201C46FBF7F3FF034602331B78DBB203F00F03DBB243F03003DBB2DAB207F13003234403F8202C31E097F82F305A1C87F847
:4057C0002F201C46FBF7DAFF034602331B781B09DBB2DBB203F00303DBB243F03003DBB2DAB207F13003234403F8202C97F82F305A1C87F82F201C46FBF7C0FF034602333D
:405800001B78DBB203F00F03DBB243F03003DBB2DAB207F13003234403F8202CA74B5B78002B0BD097F82F305A1C87F82F2007F1300213443A2203F8202C0AE097F82F3065
:405840005A1C87F82F2007F130021344202203F8202C97F82F305A1C87F82F201C46FBF78DFF034601331B781B09DBB2DBB203F00703DBB243F03003DBB2DAB207F1300346
:40588000234403F8202C97F82F305A1C87F82F201C46FBF773FF034601331B78DBB203F00F03DBB243F03003DBB2DAB207F13003234403F8202CFBF7C5FE7B6A1D1D97F858
:4058C0002F309BB207F11004009301AA07F1080393E8030082E8030010204FF4DD712A46234601F0EBF903461A467B6A5A807B6AC2221A70A320FAF70BFC78627B6A002BF5
:4059000000F0DA80002387F82330FBF78FFEFBF73FFFFBF7C5FF07F1100318460021082214F013F997F823305A1C87F823201C46FBF724FF034604331B781B09DBB2DBB21D
:4059400003F00303DBB243F03003DBB2DAB207F13003234403F8202C97F823305A1C87F823201C46FBF70AFF034604331B78DBB203F00F03DBB243F03003DBB2DAB207F129
:405980003003234403F8202C97F823305A1C87F8232007F1300213442F2203F8202C97F823305A1C87F823201C46FBF7E7FE034605331B781B09DBB2DBB203F00103DBB2AA
:4059C00043F03003DBB2DAB207F13003234403F8202C97F823305A1C87F823201C46FBF7CDFE034605331B78DBB203F00F03DBB243F03003DBB2DAB207F13003234403F8D7
:405A0000202C97F823305A1C87F8232007F1300213442F2203F8202C97F823305A1C87F823201C46FBF7AAFE034606331B781B09DBB2DBB243F03003DBB2DAB207F13003D4
:405A4000234403F8202C97F823305A1C87F823201C46FBF793FE034606331B78DBB203F00F03DBB243F03003DBB2DAB207F13003234403F8202CFBF7E5FD7B6A1D1D97F86B
:405A800023309BB207F11004009301AA07F1080393E8030082E803004FF404704FF4DD712A46234601F00AF903461A467B6A5A807B6AC2221A70CFE1CEE100BFB883FF1FC7
:405AC000BB6A1B78012B40F0C781BB6A1B691B78012B40F0C181A420FAF71AFBF861FB69002B00F0EA80002387F82E30FBF79EFDFBF74EFEFBF7D4FE07F11003184600214B
:405B0000082214F022F8FBF739FE034602331B7803F04003002B32D097F82E305A1C87F82E201C46FBF72AFE034602331B781B09DBB2DBB203F00103DBB243F03003DBB20E
:405B4000DAB207F13003234403F8202C97F82E305A1C87F82E201C46FBF710FE034602331B78DBB203F00F03DBB243F03003DBB2DAB207F13003234403F8202C31E097F806
:405B80002E305A1C87F82E201C46FBF7F7FD034602331B781B09DBB2DBB203F00303DBB243F03003DBB2DAB207F13003234403F8202C97F82E305A1C87F82E201C46FBF74B
:405BC000DDFD034602331B78DBB203F00F03DBB243F03003DBB2DAB207F13003234403F8202C9F4B1B7A002B0BD097F82E305A1C87F82E2007F1300213443A2203F8202C6A
:405C00000AE097F82E305A1C87F82E2007F130021344202203F8202C97F82E305A1C87F82E201C46FBF7AAFD034601331B781B09DBB2DBB203F00703DBB243F03003DBB24A
:405C4000DAB207F13003234403F8202C97F82E305A1C87F82E201C46FBF790FD034601331B78DBB203F00F03DBB243F03003DBB2DAB207F13003234403F8202CFBF7E2FC57
:405C8000FB691D1D97F82E309BB207F11004009301AA07F1080393E8030082E8030010204FF4DD712A46234601F008F803461A46FB695A80FB69C2221A70A420FAF728FAB9
:405CC000F861FB69002B00F0C7800023FB76FBF7ADFCFBF75DFDFBF7E3FD07F1100318460021082213F031FFFB7E5A1CFA761C46FBF744FD034604331B781B09DBB2DBB20C
:405D000003F00303DBB243F03003DBB2DAB207F13003234403F8202CFB7E5A1CFA761C46FBF72CFD034604331B78DBB203F00F03DBB243F03003DBB2DAB207F13003234466
:405D400003F8202CFB7E5A1CFA7607F1300213442F2203F8202CFB7E5A1CFA761C46FBF70DFD034605331B781B09DBB2DBB203F00103DBB243F03003DBB2DAB207F1300327
:405D8000234403F8202CFB7E5A1CFA761C46FBF7F5FC034605331B78DBB203F00F03DBB243F03003DBB2DAB207F13003234403F8202CFB7E5A1CFA7607F1300213442F22D5
:405DC00003F8202CFB7E5A1CFA761C46FBF7D6FC034606331B781B09DBB2DBB243F03003DBB2DAB207F13003234403F8202CFB7E5A1CFA761C46FBF7C1FC034606331B78A7
:405E0000DBB203F00F03DBB243F03003DBB2DAB207F13003234403F8202CFBF713FCFB691D1DFB7E9BB207F11004009301AA07F1080393E8030082E803004FF404704FF454
:405E4000DD712A46234600F039FF03461A46FB695A80FB69C2221A703037BD46B0BD00BFB883FF1FB0B59EB004AF7860042387F83C304FF6FF73A7F840300023A7F84230E1
:405E8000C52387F83E307B687B667B6ED3F890313B663B6E1B78002B40F0A4813B6E1B691B78012B40F09E81A320FAF731F9F865FB6D002B2DD0AC4B1B785A1CD1B2AA4AFA
:405EC00011701A46A84B1344DB7887F84430A64B1B78032B02D9A44B00221A70FB6D1D1D07F144040123009301AA07F13C0393E8030082E803004FF4147012212A462346D0
:405F000000F0DCFE03461A46FB6D5A80FB6DC2221A7007F1380318460021022213F015FE07F13803386E194601F08AFB4FF6FF73A7F840304FF47143A7F8423097F8393076
:405F4000002B03D13E2387F8443002E0202387F84430A320FAF7DCF8F865FB6D002B1BD0FB6D1D1D07F144040123009301AA07F13C0393E8030082E803004FF414704FF4E3
:405F8000B8712A46234600F099FE03461A46FB6D5A80FB6DC2221A7097F83830002B03D13C2387F8443002E0202387F84430A320FAF7AEF8F865FB6D002B1AD0FB6D1D1D61
:405FC00007F144040123009301AA07F13C0393E8030082E8030010204FF4B8712A46234600F06CFE03461A46FB6D5A80FB6DC2221A704FF6FF73A7F840300023A7F8423053
:40600000594B9B781A46642303FB02F3B3F5FA6F15DD386EFFF762FB534B00229A70524B5B78002B14BF01230023DBB283F00103DBB203F00103DAB24B4B5A7005E04A4B66
:406040009B780133DAB2484B9A70012387F83C30464B1B78DBB2002B5FD0A320FAF758F8F865FB6D002B00F0BC80404B5B78DBB2002B27D03E4BBB65FB6D1C1DB86D13F0F7
:40608000D9FD03462046B96D1A4613F053FDFB6D1C1DB86D13F0CEFD03469BB2009301AA07F13C0393E8030082E80300B8204FF4E8712246BB6D00F001FE03461A46FB6DF4
:4060C0005A8026E02B4B7B65FB6D1C1D786D13F0B1FD03462046796D1A4613F02BFDFB6D1C1D786D13F0A6FD03469BB2009301AA07F13C0393E8030082E80300B8204FF4D6
:40610000E87122467B6D00F0D9FD03461A46FB6D5A80FB6DC2221A7018E2174B1B7883F00103DBB2002B5CD0A320F9F7F1FFF865FB6D002B51D007F10C0318462021282241
:4061400013F003FD094B9B78042B19D10B4B07F10C041D460FCD0FC40FCD0FC495E8030084E8030018E000BFB883FF1F785A002074A501009CA5010044CFFF1FC0A5010099
:40618000BA4B07F10C041D460FCD0FC40FCD0FC495E8030084E80300FB6D1D1D07F10C03184613F047FD03469BB207F10C04009301AA07F13C0393E8030082E80300B820FE
:4061C0004FF4E8712A46234600F078FD03461A46FB6D5A80FB6DC2221A70A54B01221A70B4E1B3E13B6E1B78012B40F0AF813B6E1B691B78012B40F0A981A420F9F788FFF5
:4062000038653B6D002B2DD09A4BDB795A1CD1B2984AD1711A46974B13449B7A87F84430944BDB79032B02D9924B0022DA713B6D1D1D07F144040123009301AA07F13C03B9
:4062400093E8030082E803004FF4147012212A46234600F033FD03461A463B6D5A803B6DC2221A7007F1340318460021022213F06CFC07F13403386E194601F0E1F94FF67E
:40628000FF73A7F840304FF47143A7F8423097F83530002B03D13E2387F8443002E0202387F84430A420F9F733FF38653B6D002B1BD03B6D1D1D07F144040123009301AA31
:4062C00007F13C0393E8030082E803004FF414704FF4B8712A46234600F0F0FC03461A463B6D5A803B6DC2221A7097F83430002B03D13C2387F8443002E0202387F84430F7
:40630000A420F9F705FF38653B6D002B1AD03B6D1D1D07F144040123009301AA07F13C0393E8030082E8030010204FF4B8712A46234600F0C3FC03461A463B6D5A803B6DAE
:40634000C2221A704FF6FF73A7F840300023A7F84230484B5B7A1A46642303FB02F3B3F5FA6F15DD386EFFF7B9F9424B00225A72404B1B7A002B14BF01230023DBB283F042
:406380000103DBB203F00103DAB23A4B1A7205E0384B5B7A0133DAB2364B5A72012387F83C30354B1B78DBB2002B6BD0A420F9F7AFFE38653B6D002B00F0C8802E4B5B7804
:4063C000DBB2002B27D02D4BFB643B6D1C1DF86C13F030FC03462046F96C1A4613F0AAFB3B6D1C1DF86C13F025FC03469BB2009301AA07F13C0393E8030082E80300B82050
:406400004FF4E8712246FB6C00F058FC03461A463B6D5A8026E01A4BBB643B6D1C1DB86C13F008FC03462046B96C1A4613F082FB3B6D1C1DB86C13F0FDFB03469BB200930F
:4064400001AA07F13C0393E8030082E80300B8204FF4E8712246BB6C00F030FC03461A463B6D5A803B6DC2221A706FE0E8A5010044CFFF1FB883FF1F785A002074A501007C
:406480009CA50100334B5B7883F00103DBB2002B5CD0A420F9F73CFE38653B6D002B52D007F10C0318462021282213F04EFB3B6D1C1D07F10C03184613F0BCFB024607F1F2
:4064C0000C032046194613F035FB234B9B78042B0CD1224B07F10C041D460FCD0FC40FCD0FC495E8030084E803000BE01C4B07F10C041D460FCD0FC40FCD0FC495E8030048
:4065000084E803003B6D1D1D07F10C03184613F091FB03469BB207F10C04009301AA07F13C0393E8030082E80300B8204FF4E8712A46234600F0C2FB03461A463B6D5A80F3
:406540003B6DC2221A70034B01225A706837BD46B0BD00BF44CFFF1F785A0020C0A50100E8A5010080B485B000AF78607B68FB60FB68DB78392B05D1054B14221A70044B68
:4065800016225A701437BD465DF8047B704700BF9433002080B485B000AF78607B68FB60FB68DB788C2B02D08D2B07D00DE0094B16221A70074B16225A7006E0054B14229B
:4065C0001A70044B14225A7000BF1437BD465DF8047B70479433002080B586B000AF78600023FB757B683B613B691B6BFB60786802F0A4F90346FB72FB7A524A40F6B81185
:4066000001FB03F3134408339B78DBB283F00103DBB2002B46D04C4B1B78DBB2012B40D1FB68002B3DD02E2002F040F903461A46FB6813441B7B002B33D0042002F036F97D
:4066400003461A46FB6813441B7BBB72BB7A0E2B08D03B691B691B78042B22D13B69DB780E2B1ED10123FB753B69FF225A713B695A793B699A72042002F018F903461A4697
:40668000FB68134400221A732E2002F00FF903461A46FB68134400221A733B698C229A704BE04AE0FB68002B47D02E2002F0FEF803461A46FB6813441B7B002B3DD0042036
:4066C00002F0F4F803461A46FB6813441B7B7B727B7A452B02D07B7A002B08D13B691B691B78042B29D13B69DB78452B25D0FB7A144A40F6B81101FB03F3134408339B78FD
:40670000FB753B69FF225A713B695A793B699A72042002F0CBF803461A46FB68134400221A732E2002F0C2F803461A46FB68134400221A733B692B229A70FB7D184618371B
:40674000BD4680BD98330020E862002080B584B000AFFAF79DFAF860FB68002B47D00023FB72FB7AFA6813441B225A70FB7A5A1CFA72FA6802339B001344544A5A60FB7A75
:40678000FA6813441F225A70FB7A5A1CFA72FA6802339B0013444E4A5A60FB7AFA68134425225A70FB7A5A1CFA72FA6802339B001344484A5A60FB7AFA6813441D225A7041
:4067C000FB7A5A1CFA72FA6802339B001344424A5A60FB7AFA68134421225A70FB7A5A1CFA72FA6802339B0013443B4A5A60FAF74FFAF860FB68002B1DD00023BB72BB7A87
:40680000FA6813441E225A70BB7A5A1CBA72FA6802339B001344314A5A60BB7AFA68134422225A70BB7A5A1CBA72FA6802339B0013442A4A5A6000F057F8F9F7FDFF786073
:406840007B68002B0BD07B6825225A707B6806229A707B680A225A817B680322DA701E20FAF792F878607B68002B12D01C4A7B6853637B681A4AC3F890217B681E225A70CA
:406880007B6806229A707B6864225A817B680322DA702220FAF778F878607B68002B12D0104A7B6853637B680E4AC3F890217B6822225A707B6806229A707B6864225A81DE
:4068C0007B680322DA701037BD4680BD9534000001360000B9690000C1550000655E00002C83FF1F6883FF1F90B587B000AFAA233B7370237B730023BB732D4B1B691B78E7
:40690000FB73CC233B7433237B74C323BB743C23FB74A320F9F7FCFB78617B69002B15D0234B00221A637B6908225A807B691A1D7B695B889BB21C4607F10C03104619466A
:40694000224613F0F7F87B69C2221A70AA233B7170237B710023BB71164B1B691B78FB71CC233B7233237B72C323BB723C23FB72A420F9F7CDFB78617B69002B14D00D4BE2
:4069800000221A637B6908225A807B691A1D7B695B889BB21C463B1D10461946224613F0C9F87B69C2221A701C37BD4690BD00BF2C83FF1F6883FF1F80B594B000AF7860FC
:4069C000B34BFB64AFE0B34B1B691A78FB6C1B789A4240F0A580002387F84B30FB6C9B88002B50D0AB4B1B8901339AB2A94B1A81A84B1B891A4613469B0013445B001846D6
:406A000012F074FA02460B46C7E91023A14B1B699B88184612F05AFA02460B4610461946D7E9102312F044FD0346002B2BD0994B0022DA70974B1B699A79964B9A72F9F78A
:406A4000FBFEF863FB6B002B1AD0934A07F120031068516803C3FB6B1B225A70FB6B03229A70FB6B0C331A4607F1200303CB10605160FB6B0822A3F88C21FB6B0322DA709A
:406A8000012387F84B3097F84B3083F00103DBB2002B44D0002387F84A303CE07D4B1A797C4B196997F84A300B44DB7C9A422DD1784B0022DA70774B1A6997F84A30134432
:406AC0005A7E744B5A71F9F7B7FEB863BB6B002B1BD0714A07F118031068516803C3BB6B1B225A70BB6B03229A70BB6B0C331A4607F1180303CB10605160BB6B0822A3F83F
:406B00008C21BB6B0322DA7009E008E097F84A30013387F84A3097F84A30052BBED907E0FB6C4433FB64FB6C1B78FF2B7FF44BAF5A4BFB64B9E05A4B1B691A78FB6C1B7835
:406B40009A4240F0AF80002387F84930FB6C9B88002B50D0524B1B8901339AB2504B1A814F4B1B891A4613469B0013445B00184612F0BCF902460B46C7E90C23484B1B690B
:406B80009B88184612F0A2F902460B4610461946D7E90C2312F082FC0346002B2BD0404B0022DA703E4B1B699A793D4B9A72F9F743FEF862FB6A002B1AD0374A07F110034F
:406BC0001068516803C3FB6A1F225A70FB6A03229A70FB6A0C331A4607F1100303CB10605160FB6A0822A3F88C21FB6A0322DA70012387F8493097F8493083F00103DBB2C9
:406C0000002B44D0002387F848303CE0244B1A79234B196997F848300B44DB7C9A422DD11F4B0022DA701E4B1A6997F8483013445A7E1B4B5A71F9F7FFFDB862BB6A002BE7
:406C40001BD0154A07F108031068516803C3BB6A1F225A70BB6A03229A70BB6A0C331A4607F1080303CB10605160BB6A0822A3F88C21BB6A0322DA7009E008E097F8483093
:406C8000013387F8483097F84830052BBED911E0D883FF1F2C83FF1F10A60100AC8DFF1F6883FF1FFB6C4433FB64FB6C1B78FF2B7FF441AF5037BD4680BD00BF80B588B0D6
:406CC00000AFBA607B600346FB810B46BB810023FB83BB68002B00F08680454A07F118031068186092889A80FB8BBA681A4407F1180310461946022212F01CFFFB8B023329
:406D0000FB83FB8B5A1CFA831A46BB681344FA89120A92B2D2B21A70FB8B5A1CFA831A46BB681344FA89D2B21A70FB8B5A1CFA831A46BB681344BA89120A92B2D2B21A70A9
:406D4000FB8B5A1CFA831A46BB681344BA89D2B21A7097F82C30DBB203F00F03DBB243F02003DBB2DBB23B7497F82E307B740223BB747B8E1B0A9BB2DBB2FB747B8EDBB209
:406D80003B753B8E1B0A9BB2DBB27B753B8EDBB2BB75FB8BBA6813441A4607F110031868106099889B7991809371FB8B0733FB83FB8BBA681A443B8D104679681A4612F09C
:406DC000B9FEFA8B3B8D1344FB83FB8BBA681A4407F11803023310461946042212F0AAFEFB8B0433FB83FB8B18462037BD4680BD18A6010080B487B000AF78607B68FB6042
:406E0000FB685B697B613FE07B691A78FB681B691B789A4235D17B695A78FB681B695B789A422ED17B699A78FB681B699B789A4227D10023FB7420E0FB7C7A691344DA79B9
:406E4000FB68DB789A4206D1FB7C7A6913445A7BFB689A7014E0FB7C7A691344DA7CFB681B799A4206D1FB7C7A6913445A7EFB685A7105E0FB7C0133FB74FB7C052BDBD900
:406E800006E07B6944337B617B691B78FF2BBBD11C37BD465DF8047B704700BF80B487B000AF786000237B617B68FB60FB685B693B611BE03B691A78FB681B691B789A426F
:406EC00011D13B695A78FB681B695B789A420AD13B699A78FB681B699B789A4203D13B699B6A7B6106E03B6944333B613B691B78FF2BDFD17B6918461C37BD465DF8047BCA
:406F0000704700BF80B487B000AF786000237B617B68FB60FB685B693B611BE03B691A78FB681B691B789A4211D13B695A78FB681B695B789A420AD13B699A78FB681B69FC
:406F40009B789A4203D13B695B6A7B6106E03B6944333B613B691B78FF2BDFD17B6918461C37BD465DF8047B704700BF80B487B000AF786000237B617B68FB60FB685B6923
:406F80003B611BE03B691A78FB681B691B789A4211D13B695A78FB681B695B789A420AD13B699A78FB681B699B789A4203D13B691B6A7B6106E03B6944333B613B691B78AC
:406FC000FF2BDFD17B6918461C37BD465DF8047B704700BF80B487B000AF786000237B617B68FB60FB685B693B611BE03B691A78FB681B691B789A4211D13B695A78FB68A1
:407000001B695B789A420AD13B699A78FB681B699B789A4203D13B69DB6B7B6106E03B6944333B613B691B78FF2BDFD17B6918461C37BD465DF8047B704700BF80B487B021
:4070400000AF786000237B617B68FB60FB685B693B611BE03B691A78FB681B691B789A4211D13B695A78FB681B695B789A420AD13B699A78FB681B699B789A4203D13B6935
:407080001B6C7B6106E03B6944333B613B691B78FF2BDFD17B6918461C37BD465DF8047B704700BF80B485B000AF78600B46FB700023FB73254A07F1080310681860042317
:4070C000BB81FB78013B7A6813441A78BB89013B07F110010B4413F8083C9A422FD1FB78023B7A6813441A78BB89023B07F110010B4413F8083C9A4221D1FB78033B7A68D3
:4071000013441A78BB89033B07F110010B4413F8083C9A4213D1FB78043B7A6813441A78BB89043B07F110010B4413F8083C9A4205D1FB78053B7A6813441B78FB73FB7BC1
:4071400018461437BD465DF8047B704720A6010080B487B000AF786000237B617B68FB60FB685B693B61FB689B78FF2B09D1FB685B79FF2B02D1FB689B7A04E0FB685B79DE
:4071800001E0FB689B78FB72FB68DB78BB72FB681B691B787B7220E03B691B78FA7A9A4218D13B695B787A7A9A4203D03B695B78FF2B0FD13B699B78BA7A9A4207D03B6974
:4071C0009B78FF2B03D03B695B78FF2B02D13B697B6106E03B6944333B613B691B78FF2BDAD17B6918461C37BD465DF8047B704780B584B000AF78607B68FB60F868FFF73B
:40720000A7FF0246FB681A61FB68FF229A70FB68FF225A71FB6800221A71FB68FF229A72FB680022DA70FB6800221A81FB681D3318460021102212F088FC10F00FFC0346D8
