:400000000080002011000000757701007577010080B500AF024A034B1B68136017F0D6FBBC760040FA46004010B5054C237833B9044B13B10448AFF300800123237010BD55
:4000400040D4FF1F00000000D4D50100084B10B51BB108480849AFF300800848036803B910BD074B002BFBD0BDE81040184700BF00000000D4D5010044D4FF1F0881FF1FD7
:400080000000000080B582B000AF0023FB7118E0FB794FF4867202FB03F30D4A13443B603B681B78DBB2C22B08D13B68D3F808315B6838689847386800F0C6F8FB79013350
:4000C000FB71FB79132BE3D90837BD4680BD00BFA0D4FF1F80B485B000AF0346FB710B4BFB6008E0FB681B78FA799A4200D106E0FB684C33FB60FB681B78A52BF2D1FB68CB
:4001000018461437BD465DF8047B70470C81FF1F90B585B000AF0346FB710023FB600023FB7245E0FB7A264A4FF4867101FB03F313441B78DBB2C02B37D1FB7A204A4FF42F
:40014000867101FB03F31344C1221A70FB7A1C4A4FF4867101FB03F3134400225A80FC7AFB791846FFF7B6FF0146154A4FF4867303FB04F3134403F584731960FB7A4FF437
:40018000867202FB03F30E4A13440433184600214FF480721CF099FDFB7A4FF4867202FB03F3074A1344FB6005E0FB7A0133FB72FB7A132BB6D9FB6818461437BD4690BDD9
:4001C000A0D4FF1F80B582B000AF0023FB712DE0FB791B4A4FF4867101FB03F31344C0221A70FB79164A4FF4867101FB03F3134400225A80FB794FF4867202FB03F3104AA4
:4002000013440433184600214FF480721CF05DFDFB790B4A4FF4867101FB03F3134403F5847300221A60FB790133FB71FB79132BCED9044800F052F80837BD4680BD00BF0E
:40024000A0D4FF1F8500000080B582B000AF78607B68C0221A707B6800225A807B680433184600214FF480721CF02FFD7B680022C3F808210837BD4680BD00BF80B584B0B5
:4002800000AF03463960FB711346BB800023FB730E4BBB6010E0BB681B78FA799A4208D1BB685B68BA883868114698470346FB7306E0BB680833BB60BB681B78A52BEAD185
:4002C000FB7B18461037BD4680BD00BFD482FF1F80B400AFBD465DF8047B704780B483B000AF78600B4B93F840300F2B0CD8094B93F840305A1CD1B2064A82F840101946E1
:40030000044A7B6842F821300C37BD465DF8047B704700BF90E9FF1F80B582B000AF0023FB7111E0FB790D4A52F823300C4A13600B4B1B68002B03D0094B1B68984700E0A6
:4003400008E0FB790133FB71044B93F84030FA799A42E7D30837BD4680BD00BF90E9FF1FD4E9FF1FF0B587B000AFC7E902017A600123FB755FE0FB7D013B7A68D618FB7D97
:4003800018461BF063FE02460B464FF000006B491AF03EFC02460B46104619461CF066F903461A464FF00003D7E902011CF07EF914461D46FB7D013B18461BF057FE024642
:4003C0000B464FF000005D491AF022FC02460B46104619461CF04AF903461A464FF00003D7E902011CF062F9A41A65EB0305FB7D013B18461BF03AFE02460B464FF00000AA
:400400004E491AF005FC02460B46104619461CF02DF903461A464FF00003204629461CF045F902460B46D3B243F03003DBB23370FB7D0133FB75FB7D18461BF007FE024692
:400440000B464FF000003D491AF0E2FB02460B46104619461CF00AF903461A464FF00003D7E902011CF022F910461946D7E90223994208BF90427FF47EAFFB7D013B7A6809
:40048000D618FB7D18461BF0E1FD02460B464FF000002A491AF0BCFB02460B46104619461CF0E4F803461A464FF00003D7E902011CF0FCF814461D46FB7D013B18461BF0C5
:4004C000D5FD02460B464FF000001C491AF0A0FB02460B46104619461CF0C8F803461A464FF00003D7E902011CF0E0F8A41A65EB0305FB7D013B18461BF0B8FD02460B461B
:400500004FF000000D491AF083FB02460B46104619461CF0ABF803461A464FF00003204629461CF0C3F802460B46D3B243F03003DBB233701C37BD46F0BD00BF0000244040
:4005400080B485B000AF78600B46FB7000237B730023FB7327E0FB78013B7A6813441B787B73FB78023BDBB2BB730FE097F90E3001337A68134497F90E2079680A441278B1
:400580001A70BB7BDBB2013BDBB2BB7397F90E20FB7B9A42EADAFB7B7A6813447A7B1A70FB7B0133FB73FA7BFB78013B9A42D2DB1437BD465DF8047B704700BFB0B584B0FF
:4005C00000AF78600B467B800023FB600023FB7234E0FB7A18461BF039FD02460B46104619461AF0BDFA04460D46FB7A7A6813441B7803F00F0318461BF038FD02460B46C9
:40060000204629461BF098FD02460B4614461D46F8681BF01BFD02460B461046194622462B461BF0D7FB02460B46104619461CF01DF80346FB60FB7A0133FB72FB7A9BB27D
:400640007A889A42C5D8FB6818461037BD46B0BD80B485B000AF03460A46FB711346BB71FA79BB795340FB710023FB7312E0FB7903F00103002B07D0FB795B08DBB283F078
:400680007303DB43FB7102E0FB795B08FB71FB7B0133FB73FB7B072BE9D9FB7918461437BD465DF8047B704780B584B000AF78600B467B800023FB730023BB810DE0BB898B
:4006C0007A6813441B78FA7B10461946FFF7C0FF0346FB73BB890133BB81BA897B889A42EDD3FB7B18461037BD4680BD80B584B000AF0023FB732CE0FB7B484A4FF4CC716A
:4007000001FB03F3134400225A70FB7B434A4FF4CC7101FB03F313440122DA70FB7B3F4A4FF4CC7101FB03F3134401229A70FB7B4FF4CC7202FB03F30833384A1344043321
:40074000184600214FF4C0721CF0BFFAFB7B0133FB73FB7B2F2BCFD90023FB7323E0FB7B2F4A2C2101FB03F3134401221A70FB7B2C2202FB03F32A4A134401331846002135
:4007800008221CF0A2FAFB7B2C2202FB03F30833234A134404331846002108221CF095FAFB7B0133FB73FB7B0F2BD8D900F0D4FAB860BB68002B2BD00023FB71FB79BA6879
:4007C000134404225A70FB795A1CFA71BA6802339B001344134A5A60FB79BA68134405225A70FB795A1CFA71BA6802339B0013440D4A5A60FB79BA68134406225A70FB791D
:400800005A1CFA71BA6802339B001344074A5A600748FFF763FD1037BD4680BDE8E9FF1F683600202116000091160000AD160000C10D00000000000090B585B000AF0023EF
:40084000FB601CF04BFA034618461BF00FFC02460B461046194646A3D3E900231BF096FD02460B46104619464FF00002424B1BF063FC02460B46104619464FF000023F4BBC
:400880001BF0A8FA02460B46104619461BF0EEFE0346FB8000237B8100BF7B895A1C7A81FA889A42F9D800237B7257E07B7A344A4FF4CC7101FB03F31344DB78DBB2012B71
:4008C00049D17B7A2E4A4FF4CC7101FB03F3134400221A707B7A2A4A4FF4CC7101FB03F3134400229A807B7A254A4FF4CC7101FB03F313440222DA707C7A1AF021F9034690
:4009000019461F4A4FF4CC7303FB04F313440A46DA807B7A1A4A4FF4CC7101FB03F31344083300221A807B7A4FF4CC7202FB03F30833134A13440433184600214FF4C072DB
:400940001CF0C3F97B7A4FF4CC7202FB03F30C4A1344FB6005E07B7A01337B727B7A2F2BA4D9FB6818461437BD4690BDAFF300800000C0FFFFFFDF410000904000002440E8
:40098000E8E9FF1FAFF3008080B584B000AF0346FB710023FB731CF0A1F9034618461BF065FB02460B461046194623A3D3E900231BF0ECFC02460B46104619464FF000029B
:4009C0001F4B1BF0B9FB02460B46104619464FF000021C4B1BF0FEF902460B46104619461BF044FE03463B810023BB8100BFBB895A1CBA813A899A42F9D80023FB7211E032
:400A0000FB7A114A4FF4CC7101FB03F313445B78DBB2FA799A4202D10123FB7305E0FB7A0133FB72FB7A2F2BEAD9FB7B18461037BD4680BDAFF300800000C0FFFFFFDF4122
:400A40000000904000002440E8E9FF1FAFF3008090B587B000AF0346FB7100237B611CF03DF9034618461BF001FB02460B461046194655A3D3E900231BF088FC02460B4615
:400A8000104619464FF00002514B1BF055FB02460B46104619464FF000024E4B1BF09AF902460B46104619461BF0E0FD0346FB8100237B8200BF7B8A5A1C7A82FA899A42D3
:400AC000F9D800237B7418E07B7C434A4FF4CC7101FB03F313445B78DBB2FA799A4209D17B7C4FF4CC7202FB03F33B4A13447B617B6964E07B7C01337B747B7C2F2BE3D9D3
:400B000000237B7457E07B7C334A4FF4CC7101FB03F31344DB78DBB2012B49D17B7C2E4A4FF4CC7101FB03F3134400221A707B7C294A4FF4CC7101FB03F313440222DA7084
:400B40007C7C19F0FDFF03461946234A4FF4CC7303FB04F313440A46DA807B7C1E4A4FF4CC7101FB03F31344083300221A807B7C194A4FF4CC7101FB03F3134400229A806D
:400B80007B7C4FF4CC7202FB03F30833124A13440433184600214FF4C0721CF096F87B7C4FF4CC7202FB03F30B4A13447B6105E07B7C01337B747B7C2F2BA4D97B69184615
:400BC0001C37BD4690BD00BF0000C0FFFFFFDF410000904000002440E8E9FF1FAFF3008080B584B000AF0346FB710023FB7307E0FB7B374A002142F82310FB7B0133FB738F
:400C0000FB7B032BF4D91CF069F8034618461BF02DFA02460B46104619462BA3D3E900231BF0B4FB02460B46104619464FF00002284B1BF081FA02460B46104619464FF033
:400C40000002254B1BF0C6F802460B46104619461BF00CFD03463B810023BB8100BFBB895A1CBA813A899A42F9D80023FB730023FB721CE0FB7A194A4FF4CC7101FB03F3E8
:400C800013445B78DBB2FA799A420DD1FB7B5A1CFA731946FB7A4FF4CC7202FB03F30F4A13440B4A42F82130FB7A0133FB72FB7A2F2B02D8FB7B032BDCD9054B1846103712
:400CC000BD4680BDAFF300800000C0FFFFFFDF41D8E9FF1F0000904000002440E8E9FF1F80B483B000AF78607B6800225A707B680122DA707B6801229A707B680022DA8037
:400D00000C37BD465DF8047B704700BF80B584B000AF0346FB710023FB7314E0FB7B4FF4CC7202FB03F30B4A1344BB60BB685B78DBB2FA799A4203D1B868FFF7D1FF05E0AF
:400D4000FB7B0133FB73FB7B2F2BE7D91037BD4680BD00BFE8E9FF1F80B483B000AF00237B600023FB700023FB701CE0FB78134A2C2101FB03F313441B78DBB2012B0FD1D8
:400D8000FB780E4A2C2101FB03F3134403221A70FB782C2202FB03F3084A13447B6005E0FB780133FB70FB780F2BDFD97B6818460C37BD465DF8047B704700BF6836002000
:400DC000B0B586B000AF0023FB75CEE2FB7D4FF4CC7202FB03F3B44A13443B613B69DB78DBB2032B40F0BE823B699B78DBB2013B072B00F2B78201A252F823F06513000012
:400E00001D0E0000470E0000710E00009B0E00004F0F0000B11000000B120000FB7D4FF4CC7202FB03F3A04A1344184600F0A8FAFB7D4FF4CC7202FB03F39B4A134418462B
:400E4000FFF74EFF8EE2FB7D4FF4CC7202FB03F3954A1344184600F0DFFAFB7D4FF4CC7202FB03F3904A13441846FFF739FF79E2FB7D4FF4CC7202FB03F38B4A13441846FC
:400E800000F02AFBFB7D4FF4CC7202FB03F3864A13441846FFF724FF64E219F051FE03461846FB7D804A4FF4CC7101FB03F3134408331B889BB21A464FF47A7303FB02F395
:400EC0000344FA7D78494FF4CC7000FB02F20A44D28892B29B1AFB60F8681BF0C7F802460B46104619464FF00002704B1BF04EFA02460B4614461D46FB7D6B4A4FF4CC713F
:400F000001FB03F313449B889BB218461BF0AEF802460B46204629461BF09EFB0346002B00D11FE2FB7D4FF4CC7202FB03F35E4A1344184600F0D0FAFB7D4FF4CC7202FB98
:400F400003F3594A13441846FFF7CAFE0AE219F0F7FD03461846FB7D534A4FF4CC7101FB03F3134408331B889BB21A464FF47A7303FB02F30344FA7D4B494FF4CC7000FB7D
:400F800002F20A44D28892B29B1ABB60B8681BF06DF802460B46104619464FF00002434B1BF0F4F902460B4614461D46FB7D3E4A4FF4CC7101FB03F3134408335B889BB252
:400FC00018461BF053F802460B46204629461BF043FB0346002B00D1C4E1B8681BF046F802460B46104619464FF000022F4B1BF0CDF902460B4614461D46FB7D2A4A4FF4D4
:40100000CC7101FB03F313449B889BB218461BF02DF802460B46204629461BF01DFB0346002B00D19EE1FB7D4FF4CC7202FB03F31D4A1344184600F0EFF9FC7D19F080FDF8
:4010400003461946184A4FF4CC7303FB04F313440A46DA80FB7D144A4FF4CC7101FB03F31344083300221A80FB7D0F4A4FF4CC7101FB03F3134400229A80FB7D0A4A4FF473
:40108000CC7101FB03F313441B78DBB2002B0AD0FB7D4FF4CC7202FB03F3034A13441846FFF71EFE5EE15DE1E8E9FF1F00408F4019F046FD03461846FB7DAF4A4FF4CC7126
:4010C00001FB03F3134408331B889BB21A464FF47A7303FB02F30344FA7DA7494FF4CC7000FB02F20A44D28892B29B1A7B6078681AF0BCFF02460B46104619464FF000022D
:401100009E4B1BF043F902460B4614461D46FB7D994A4FF4CC7101FB03F3134408335B889BB218461AF0A2FF02460B46204629461BF092FA0346002B00D113E178681AF069
:4011400095FF02460B46104619464FF000028B4B1BF01CF902460B4614461D46FB7D864A4FF4CC7101FB03F313449B889BB218461AF07CFF02460B46204629461BF06CFABD
:401180000346002B00D1EDE0FB7D4FF4CC7202FB03F3794A1344184600F0F8F9FC7D19F0CFFC03461946744A4FF4CC7303FB04F313440A46DA80FB7D6F4A4FF4CC7101FB00
:4011C00003F31344083300221A80FB7D6A4A4FF4CC7101FB03F3134400229A80FB7D664A4FF4CC7101FB03F313441B78DBB2002B0AD0FB7D4FF4CC7202FB03F35E4A134479
:401200001846FFF76DFDADE0ACE019F099FC03461846FB7D584A4FF4CC7101FB03F3134408331B889BB21A464FF47A7303FB02F30344FA7D50494FF4CC7000FB02F20A44EE
:40124000D28892B29B1A3B6038681AF00FFF02460B46104619464FF00002484B1BF096F802460B4614461D46FB7D434A4FF4CC7101FB03F3134408335B889BB218461AF016
:40128000F5FE02460B46204629461BF0E5F90346002B00D165E038681AF0E8FE02460B46104619464FF00002344B1BF06FF802460B4614461D46FB7D2F4A4FF4CC7101FB87
:4012C00003F313449B889BB218461AF0CFFE02460B46204629461BF0BFF90346002B00D13FE0FB7D4FF4CC7202FB03F3224A1344184600F0F1F8FC7D19F022FC0346194639
:401300001D4A4FF4CC7303FB04F313440A46DA80FB7D194A4FF4CC7101FB03F31344083300221A80FB7D144A4FF4CC7101FB03F3134400229A80FB7D0F4A4FF4CC7101FB0B
:4013400003F313441B78DBB2002B0AD0FB7D4FF4CC7202FB03F3084A13441846FFF7C0FCFFE700BFFB7D0133FB75FB7D2F2B7FF62DAD1837BD46B0BDE8E9FF1F00408F40B7
:4013800080B584B000AF78600023FB730023BB730023FB7337E00023BB732EE0FA7BBB7B1C492C2000FB02F213440B445B78002B00D125E0FA7BB97B164813469B0013443D
:4013C0005B0013440B4402339B0003445B68002B0FD0FA7BB97B0F4813469B0013445B0013440B4402339B0003445B687868984700E005E0BB7B0133BB73BB7B072BCDD9B8
:40140000FB7B0133FB73FB7B0F2BC4D91037BD4680BD00BF6836002080B584B000AF78600023FB730023BB7300237B730023BB734AE000237B733DE0BA7B7B7B25492C20D2
:4014400000FB02F213440B445B78002B00D134E0BA7B7B7B1F492C2000FB02F213440B445A787B685B78DBB29A4220D1BA7B797B184813469B0013445B0013440B44023394
:401480009B0003445B68002B0ED0BA7B797B114813469B0013445B0013440B4402339B0003445B68786898470123FB7305E07B7B01337B737B7B072BBED9FB7B002B00D058
:4014C00005E0BB7B0133BB73BB7B0F2BB1D91037BD4680BD6836002080B584B000AF78600023FB730023BB730023FB7345E00023BB733CE0FA7BBB7B23492C2000FB02F2E9
:4015000013440B445B78002B00D133E0FA7BBB7B1D492C2000FB02F213440B445A787B685B78DBB29A421FD1FA7BB97B164813469B0013445B0013440B4402339B000344E6
:401540005B68002B0FD0FA7BB97B0F4813469B0013445B0013440B4402339B0003445B687868984706E005E0BB7B0133BB73BB7B072BBFD9FB7B0133FB73FB7B0F2BB6D9FF
:401580001037BD4680BD00BF6836002080B584B000AF78600023FB730023BB730023FB7335E00023BB732CE0FA7BBB7B1B492C2000FB02F213440B445B78002B00D123E090
:4015C000FA7BB97B154813469B0013445B0013440B4402339B0003445B68002B0ED0FA7BB97B0E4813469B0013445B0013440B4402339B0003445B6878689847BB7B013368
:40160000BB73BB7B072BCFD9FB7B0133FB73FB7B0F2BC6D91037BD4680BD00BF6836002080B485B000AF78600023FB7325E0FB7B4FF4CC7202FB03F3144A1344BB60BB689E
:401640009B78DBB2072B0ED0BB689B78DBB2062B09D0BB689B78DBB2082B04D0BB689B78DBB2052B06D1BB681B899BB201339AB2BB681A81FB7B0133FB73FB7B2F2BD6D970
:401680001437BD465DF8047B704700BFE8E9FF1F80B584B000AF78607B68FB60FB681B7B1846FFF733FB1037BD4680BD80B584B000AF78607B68FB60FB68D3F890311846F8
:4016C000FFF70EFB1037BD4680BD00BF80B400AF024B1846BD465DF8047B70472A39002080B500AF18F0E0FF014B00221A7080BD5CD4FF1F90B585B000AF0346FB8018F0C3
:40170000D3FFFB881B0A9BB2DAB21E4B1A70FB88DAB21C4B5A705420002118F06BFE0346BB81BB89002B2AD10023FB7308E0FB7B144AD35C184618F039FFFB7B0133FB73FC
:40174000FB7B012BF3D95420012118F0B1FE0346BB81BB89002B10D10223FB730AE0FC7B012018F063FF03461A46064B1A55FB7B0133FB73FB7B412BF1D918F0EBFE1437F1
:40178000BD4690BD2839002080B582B000AF2C4B1B78DBB2002B04D018F086FF284B00221A701BF09BFA034618461AF05FFC02460B46104619464FF00002224B1AF0BCFC96
:4017C00002460B46104619461BA3D3E900231AF0DDFD02460B46104619461AF047FF03469BB264339BB2BB800023FB8002E0FB880133FB80BB88FA889A42F8D3124B1B78B9
:40180000DBB203F01003002B0AD1104B1B78DBB283F00103DBB2002B02D00C4B01221A700A4B1B78DBB283F00103DBB2002BB8D10837BD4680BD00BF0000C0FFFFFFDF4147
:401840000483FF1F00408F40D94900405CD4FF1F80B584B000AF0346FB800023FB73002018F096FF0023BB8118F01EFFFB881B0A9BB2DAB2184B1A70FB88DAB2164B5A70AE
:401880005420002118F0B6FD0346BB81BB89002B13D10023BB7308E0BB7B0F4AD35C184618F084FEBB7B0133BB73BB7B412BF3D918F050FE052016F0C3FDBB89002B04D097
:4018C000FB7B5A1CFA73092BCED9012018F060FF1037BD4680BD00BF2839002080B500AF0248002142221BF0F0F980BD2839002080B400AF024B1846BD465DF8047B7047E4
:401900006C39002080B500AF0248002110221BF0DCF980BD6C39002080B582B000AF0023FB7118F0C1FE6820002118F063FD0346BB71BB79002B53D1002018F037FEFB7939
:401940005A1CFA711A46314B9B5C03F07F03DBB2184618F02BFEFB795A1CFA711A462B4B9B5C03F07F03DBB2184618F01FFEFB795A1CFA711A46254B9B5C03F03F03DBB29D
:40198000184618F013FEFB795A1CFA711A461F4B9B5C03F00703DBB2184618F007FEFB795A1CFA711A46194B9B5C03F03F03DBB2184618F0FBFDFB795A1CFA711A46134B62
:4019C0009B5C03F01F03DBB2184618F0EFFDFB795A1CFA711A460D4B9B5C184618F0E6FD18F0B8FD6820002118F004FD0346BB71BB79002B07D10E2018F0D8FD042018F05D
:401A0000D5FD18F0A7FD0837BD4680BD6C39002090B583B000AF18F047FE6820002118F0E9FC0346BB80BB88002B02D1002018F0BDFD18F08FFD18F037FE6820012118F0B0
:401A4000D9FC0346BB80BB88002B1CD10023FB7116E0FB79052B08D8FC79012018F0E6FD03461A460A4B1A5507E0FC79002018F0DDFD03461A46064B1A55FB790133FB71E0
:401A8000FB79062BE5D918F065FD0C37BD4690BD6C39002080B582B000AF6820002118F0A9FC0346FB71FB79002B07D10E2018F07DFD042018F07AFD18F04CFD0837BD4683
:401AC00080BD00BF80B500AF16F016F916F0C6FD17F0ECFA17F03AFE16F09CFF18F09EFA00F014F8FEF702FE00F08CF8FEF76AFBFEF7EEFB0EF056FE05F09EFD09F0BEFE87
:401B000001F000FE09F0CAFF80BD00BF80B500AF18F0C8FF044818F069F918F08DFE034818F000FF80BD00BF311B0000711B000080B582B000AF18F0D5FF0420FEF788FF44
:401B400078607B68002B08D07B6804225A707B6803229A707B680322DA70044B5B680133024A53600837BD4680BD00BFC471002080B582B000AF18F07FFE0720FEF768FF7A
:401B800078607B68002B08D07B6807225A707B6803229A707B680322DA700837BD4680BD80B584B000AF78600B467B8013467B700023FB730023BB811AE018F075FD0720A3
:401BC000002118F017FC0346FB73FB7B002B0CD17B78184618F0EAFCBB897A6813441B78184618F0E3FC18F0B5FCBB890133BB81BA897B889A42E0D3FB7B18461037BD4680
:401C000080BD00BF80B582B000AFFFF7A5F878607B68002B0FD00023FB70FB787A6813442B225A70FB785A1CFA707A6802339B001344044A5A600448FEF750FB0837BD46B7
:401C400080BD00BF651C00004D1C000080B500AF034B1B78DBB2002B01D016F0A9FC80BD5DD4FF1F80B500AF034B01221A700320002116F057FC80BD5DD4FF1F80B582B08A
:401C800000AF78600B467B80184BDB889BB2002B07D0164BDB889BB27A889A4211D200231FE0124B9B68114A11687A88084679689847034683F00103DBB2002B01D0002398
:401CC0000FE07B880A4879681A461AF0F3FF074A7B88D380054B01221A71064B02221A60012318460837BD4680BD00BF7C3900208839002080E100E080B584B000AF786028
:401D00007B68BB60BB68002B1CD0052016F098FB0023FB730FE0BB68D3F808319B6BFA7BB9680A44127910469847022016F088FBFB7B0133FB73FB7B9AB2BB685B889BB284
:401D40009A42E8D31037BD4680BD00BF80B586B000AF78607B683B613B69D3F89031FB604A200AF08FFD0246FB68DA61FB68DB6904337B617B69002B2AD025E0164BD3F8C0
:401D8000403715489847B860BB68002B19D0BB6800221A70BB687A695A61BB6800229A61BB68FA68DA61BB68DB69D3F8903BBA68D26910469847084BD3F844370648B968FA
:401DC00098477B6934337B617B691B68002BD5D11837BD4680BD00BF646A002080B586B000AF78607B683B613B69D3F89031FB6044200AF047FD0246FB68DA61FB68DB693E
:401E000004337B617B69002B2AD025E0164BD3F8403715489847B860BB68002B19D0BB6800221A70BB687A695A61BB6800229A61BB68FA68DA61BB68DB69D3F8903BBA68A4
:401E4000D26910469847084BD3F844370648B96898477B6934337B617B691B68002BD5D11837BD4680BD00BF646A002080B586B000AF78607B683B613B69D3F89031FB6074
:401E80003B691B7B18460AF0FDFC0246FB68DA61FB68DB6904337B617B69002B2AD025E0164BD3F8403715489847B860BB68002B19D0BB6800221A70BB687A695A61BB6808
:401EC00000229A61BB68FA68DA61BB68DB69D3F8903BBA68D26910469847084BD3F844370648B96898477B6934337B617B691B68002BD5D11837BD4680BD00BF646A0020F4
:401F000080B586B000AF78607B683B613B69D3F89031FB604E200AF0B5FC0246FB68DA61FB68DB6904337B617B69002B2AD025E0164BD3F8403715489847B860BB68002B99
:401F400019D0BB6800221A70BB687A695A61BB6800229A61BB68FA68DA61BB68DB69D3F8903BBA68D26910469847084BD3F844370648B96898477B6934337B617B691B68E4
:401F8000002BD5D11837BD4680BD00BF646A002080B588B000AF78600023FB617B683B610023FB7636E0FB7E444A40F6983101FB03F3134408331B79DBB2012B27D1FB7E30
:401FC00040F6983202FB03F33C4A1344FB61FB7E3A4A40F6983101FB03F31344083302221A71FB7E0133364A9278934203DB334B01221A7313E0FB7E0133304A40F6983155
:4020000001FB03F31344083301221A7107E0FB7E0133FB762A4B9B78FA7E9A42C3D3FB69002B48D0FB6901225A7149200AF02AFC0246FB69DA61FB69DB6904337B617B69EF
:40204000002B32D02DE01F4BD3F840371D489847F860FB68002B21D0FB6800221A70FB687A695A61FB6800229A61FB68FA69DA61FB68DB69D3F8903BFA68D26910469847BF
:402080003B69D3F89421FB681A62FB683A695A620C4BD3F844370B48F96898477B6934337B617B691B68002BCDD1F86900F00CF8F86900F0C9F82037BD4680BDF03B00208B
:4020C000506A0020646A002080B586B000AF78607B683B613B699B78DBB20B2B04D03B699B78DBB20A2B54D13B691B7ADBB2002B4FD04B200AF0C6FB02463B69DA613B69BA
:40210000DB6904337B617B69002B2AD025E0224BD3F8403720489847F860FB68002B19D0FB6800221A70FB687A695A61FB6800229A61FB683A69DA61FB68DB69D3F8903B67
:40214000FA68D26910469847134BD3F844371248F96898477B6934337B617B691B68002BD5D11320FEF768FBB860BB6813225A70BB6803229A703B691A78BB681A73BB68D0
:402180000122A3F88C21BB680322DA703B6900221A721837BD4680BD646A002080B586B000AF78607B683B613B699B78DBB20B2B04D03B699B78DBB20A2B38D14C200AF0AC
:4021C00061FB02463B69DA613B69DB6904337B617B69002B2AD025E01A4BD3F8403719489847F860FB68002B19D0FB6800221A70FB687A695A61FB6800229A61FB683A6907
:40220000DA61FB68DB69D3F8903BFA68D269104698470C4BD3F844370A48F96898477B6934337B617B691B68002BD5D107E03B699B78DBB2092B02D13B6901221A721837F2
:40224000BD4680BD646A002080B586B000AF78607B683B613B699B78DBB2062B04D03B699B78DBB2072B3CD13B695B7ADBB2002B37D047200AF006FB02463B69DA613B698E
:40228000DB6904337B617B69002B2AD025E0164BD3F8403714489847F860FB68002B19D0FB6800221A70FB687A695A61FB6800229A61FB683A69DA61FB68DB69D3F8903BFE
:4022C000FA68D26910469847074BD3F844370648F96898477B6934337B617B691B68002BD5D11837BD4680BD646A002080B588B000AF78607B687B613D4B9B78002B02D1BE
:402300003B4B01225A700023FB770023BB775BE0BB7F40F6983202FB03F3364A13443B613B69002B4DD03869FFF738FFFB7F83F00103DBB2002B44D03B6903F120027B6950
:402340000C33104619464FF4C0721AF0B3FC51200AF098FA02463B69DA613B69DB690433BB61BB69002B2AD025E0234BD3F8403721489847F860FB68002B19D0FB68002242
:402380001A70FB68BA695A61FB6800229A61FB683A69DA61FB68DB69D3F8903BFA68D26910469847144BD3F844371348F9689847BB693433BB61BB691B68002BD5D10123FF
:4023C000FB77BB7F0133BB77094B9B78BA7F9A429ED30A4B1B68002B03D0084B1B68786998477B6901221A702037BD4680BD00BF506A0020F03B0020646A002060D4FF1F26
:4024000080B588B000AF78607B687B610023FB777AE0FB7F40F6983202FB03F3404A13443B613B69002B6CD00023BB77FB7F032B1AD801A252F823F0492400005124000034
:402440005924000061240000364BDB78BB770BE0344B1B79BB7707E0324B5B79BB7703E0304B9B79BB7700BF3B690022DA7000237B7742E03B692033184600214FF4C07225
:402480001AF023FC46200AF0FDF902463B69DA613B69DB690433BB61BB69002B2AD025E0214BD3F8403720489847F860FB68002B19D0FB6800221A70FB68BA695A61FB6876
:4024C00000229A61FB683A69DA61FB68DB69D3F8903BFA68D26910469847134BD3F844371148F9689847BB693433BB61BB691B68002BD5D17B7F01337B777A7FBB7F9A42E4
:40250000B8D3FB7F0133FB77064B9B78FA7F9A42FFF47FAF7B6901221A702037BD4680BDF03B0020506A0020646A002090B58DB000AF78607B68BB62BB6A1B7B184600F0C9
:40254000F5FB78627B6A002B00F0A081BB6A5A7B7B6ADA70FFF718F9FFF7C0F97B6A1B78184600F089FB03467B847B8C1846FFF7C1F87B6ADB78DBB2032B00F2458101A29D
:4025800052F823F0952500002F260000CD2600006B270000A64BDB79032B3AD1A44B1B7A022B36D1BB6A03F10E02BB6A1B7D9BB210461946FEF702F8F861FB699D4AA2FBDC
:4025C0000323DB08184619F041FD02460B461046194618F0CDFA02460B46104619461AF045F80346FB61BB6A03F10E02BB6A1B7D104600211A461AF068FBFB691A464FF0A9
:402600000003B96A01F10E04104619462246FDF7A9FEFFF75BF80146BB6A03F10E02BB6A1B7D084611461A461AF044FBECE0804BDB79032B3AD17E4B1B7A022B36D1BB6A19
:4026400003F10E02BB6A1B7D9BB210461946FDF7B5FFB861BB69774AA2FB0323DB08184619F0F4FC02460B461046194618F080FA02460B461046194619F0F8FF0346BB6171
:40268000BB6A03F10E02BB6A1B7D104600211A461AF01BFBBB691A464FF00003B96A01F10E04104619462246FDF75CFEFFF70EF8034603F11001BB6A03F10E02BB6A1B7DB5
:4026C000084611461A461AF0F5FA9DE0584BDB79032B3AD1564B1B7A022B36D1BB6A03F10E02BB6A1B7D9BB210461946FDF766FF78617B694F4AA2FB0323DB08184619F021
:40270000A5FC02460B461046194618F031FA02460B461046194619F0A9FF03467B61BB6A03F10E02BB6A1B7D104600211A461AF0CCFA7B691A464FF00003B96A01F10E0419
:40274000104619462246FDF70DFEFEF7BFFF034603F12001BB6A03F10E02BB6A1B7D084611461A461AF0A6FA4EE0314BDB79032B3AD12F4B1B7A022B36D1BB6A03F10E02F4
:40278000BB6A1B7D9BB210461946FDF717FF38613B69284AA2FB0323DB08184619F056FC02460B461046194618F0E2F902460B461046194619F05AFF03463B61BB6A03F163
:4027C0000E02BB6A1B7D104600211A461AF07DFA3B691A464FF00003B96A01F10E04104619462246FDF7BEFDFEF770FF034603F13001BB6A03F10E02BB6A1B7D084611461E
:402800001A461AF057FA00BF7B8C1846FFF720F8FEF766FF46200AF035F802467B6ADA617B6ADB690433FB62FB6A002B2ED029E0506A0020CDCCCCCC174BD3F840371648FB
:402840009847F860FB68002B19D0FB6800221A70FB68FA6A5A61FB6800229A61FB687A6ADA61FB68DB69D3F8903BFA68D26910469847094BD3F844370748F9689847FB6A7A
:402880003433FB62FB6A1B68002BD5D1BB6A01221A703437BD4690BD646A002080B586B000AF78607B683B613B691B7B184600F03DFAF860FB68002B37D0482009F0E2FFC1
:4028C0000246FB68DA61FB68DB6904337B617B69002B2AD025E0184BD3F8403716489847B860BB68002B19D0BB6800221A70BB687A695A61BB6800229A61BB68FA68DA6169
:40290000BB68DB69D3F8903BBA68D26910469847094BD3F844370848B96898477B6934337B617B691B68002BD5D13B6901221A701837BD4680BD00BF646A002080B586B0C7
:4029400000AF7860FEF720FFFEF7C8FF4FF40070FEF7D0FEFEF7BAFE034600221A704FF40070FEF775FFFEF7B9FF4FF41070FEF7C1FEFEF7ABFE034600221A704FF4107052
:40298000FEF766FFFEF7AAFF4FF42070FEF7B2FEFEF79CFE034600221A704FF42070FEF757FFFEF79BFF4FF43070FEF7A3FEFEF78DFE034600221A704FF43070FEF748FF69
:4029C000FEF78EFE2E4B00229A702E4B3B613B69002B51D03B692033184600214FF4B4721AF073F94D2009F04DFF02463B69DA613B69DB6904337B617B69002B3CD037E051
:402A0000214BD3F8403720489847F860FB68002B2BD0FB6801221A70FB687A695A61FB6800229A61FB683A69DA61FB68DB69D3F8903BFA68D26910469847FB68DB69012215
:402A400083F8382BFB68DB69002283F8392BFB68DB69FA68D26992F8382BD2B21A700A4BD3F844370848F96898477B6934337B617B691B68002BC3D11837BD4680BD00BFCB
:402A8000506A0020F03B0020646A002090B583B000AF7860FEF778FEFEF720FF4FF4E070FEF728FEFEF712FE03465A7A6D4B9A74FEF70CFE03469A7A6B4B1A71FEF706FE59
:402AC00003460B331B78002B04D0FEF7FFFD0346DB7A00E01623654A1370FEF7F7FD03460C331B78002B04D0FEF7F0FD03461B7B00E018235D4A5370FEF7F0FE4FF4A07064
:402B0000FEF7F8FDFEF7E2FD034601331B781B029CB2FEF7DBFD03461B789BB2224613439BB29AB2524B1A80FEF7D8FE4FF4A070FEF7E0FDFEF7CAFD03460233184600212F
:402B400010221AF0C2F8FEF7C1FD0346023300221A70FEF7BBFD0346033300221A70FEF7B5FD0346043305221A70FEF7AFFD0346053300221A704FF4A070FEF769FEFEF760
:402B8000A5FD0346023318460821FDF717FD03469AB2344B9A81FEF7A1FE4FF4C070FEF7A9FDFEF793FD034618460821FDF706FD03469AB22B4BDA81FEF790FE4FF40070AD
:402BC000FEF798FDFEF782FD034605331B78002B0CBF01230023DAB2264B5A73FEF77EFE4FF41070FEF786FDFEF770FD034605331B78002B0CBF01230023DAB21D4B83F8EE
:402C0000A52BFEF76BFE4FF42070FEF773FDFEF75DFD034605331B78002B0CBF01230023DAB2144B03F5B9531D331A70FEF756FE4FF43070FEF75EFDFEF748FD034605338E
:402C40001B78002B0CBF01230023DAB2094B03F50B5315331A70FEF71DFFFEF741FD0C37BD4690BD506A0020B8710020E83B0020BCD3FF1FF03B002080B485B000AF0346E6
:402C8000FB710023FB81274B9B78022B02D0042B14D03FE0244B1B78FA799A4203D14FF48063FB8109E0204B93F8983BFA799A4203D14FF48863FB812CE02BE01A4B1B78FE
:402CC000FA799A4203D14FF48063FB8121E0164B93F8983BFA799A4203D14FF48863FB8117E0114B03F5B95310331B78FA799A4203D14FF49063FB810BE00B4B03F50B53E9
:402D000008331B78FA799A4203D14FF49863FB81FFE700BFFB8918461437BD465DF8047B704700BF506A0020F03B002080B485B000AF0346FB710023FB600023FB7216E0D3
:402D4000FB7A114A40F6983101FB03F313441B78FA799A4208D1FB7A40F6983202FB03F3094A1344FB6007E0FB7A0133FB72074B9B78FA7A9A42E3D3FB6818461437BD469C
:402D80005DF8047B704700BFF03B0020506A002080B588B000AF78607B683B610023FB61584BBB612E2006F0F7FF03461A463B6913441B7BFB730FE0BB691B78012B08D166
:402DC000BB695B78FA7B9A4203D1BB695B68FB6106E0BB690833BB61BB691B78FF2BEBD1FB69002B00F08A80FB6903F120023B690C33104619464FF4C07219F05BFF0B20D8
:402E000006F0CAFF03461A46FB69134493F82030392B0CBF01230023DAB2FB69DA73042006F0BAFF03461A463B6913441B7BBB73BB7B0D2B24D1052006F0AEFF03461A46D2
:402E40003B6913441B7B7B734A2009F01BFD0246FB69DA61FB690A229A71FB697A7BDA71072006F099FF03461A46FB69134493F8203003F00F03DAB2FB6983F87A2B0BE03E
:402E8000BB7B0E2B08D14A2009F0FCFC0246FB69DA61FB690B229A71FB6900229A72FB69DB6904337B617B69002B27D022E0164BD3F8403714489847B860BB68002B16D06D
:402EC000BB687A695A61BB6800229A61BB68FA69DA61BB68DB69D3F8903BBA68D26910469847094BD3F844370748B96898477B6934337B617B691B68002BD8D12037BD46DC
:402F000080BD00BF0883FF1F646A002080B588B000AF78607B683B610023FB61584BBB612E2006F039FF03461A463B6913441B7BFB730FE0BB691B78022B08D1BB695B7886
:402F4000FA7B9A4203D1BB695B68FB6106E0BB690833BB61BB691B78FF2BEBD1FB69002B00F08A80FB6903F120023B690C33104619464FF4C07219F09DFE0B2006F00CFF0B
:402F800003461A46FB69134493F82030392B0CBF01230023DAB2FB69DA73042006F0FCFE03461A463B6913441B7BBB73BB7B0D2B24D1052006F0F0FE03461A463B69134493
:402FC0001B7B7B734A2009F05DFC0246FB69DA61FB690A229A71FB697A7BDA71072006F0DBFE03461A46FB69134493F8203003F00F03DAB2FB6983F87A2B0BE0BB7B0E2BC7
:4030000008D14A2009F03EFC0246FB69DA61FB690B229A71FB6900229A72FB69DB6904337B617B69002B27D022E0164BD3F8403714489847B860BB68002B16D0BB687A6912
:403040005A61BB6800229A61BB68FA69DA61BB68DB69D3F8903BBA68D26910469847094BD3F844370748B96898477B6934337B617B691B68002BD8D12037BD4680BD00BF64
:403080000883FF1F646A0020B0B582B000AF3A4BD3F848373848984778607B68002B68D07B689B69002B64D07B689B691B8A002B5FD017F019FC03461A467B685B8A9BB2E1
:4030C00019464FF47A7303FB01F313447A68128A92B29B1A3B60386818F0C8FF02460B46104619464FF00002244B19F04FF902460B4614461D467B689B691B8A184618F0E0
:40310000B5FF02460B462046294619F0A5FA0346002B2ED07B6800225A827B6800221A827B68DB899BB201339AB27B68DA817B689B699B68002B04D07B689B699B687868CC
:4031400098477B68DB899BB2142B07D90A4BD3F84C370948984700237B6006E07B689A697B685A617B6800229A6115F037FE15F08DFC0837BD46B0BD646A002000408F400E
:4031800080B582B000AF8A4B1B79DBB283F00103DBB2002B00D042E1864BD3F848378548984778607B68002B00F01F817B689B69002B00F01A817B6800225A827B68002221
:4031C0001A827B68DB6903F5C472794BDB889BB2104679491A4619F06DFD7B68DB69744AD28892B2A3F8F0220023FB700023BB7000237B7000233B7066E07B689A693B78B8
:40320000134493F82630FF2B5AD00123BB70FB7883F00103DBB2002B06D07B689A693B78134493F82230FB707B689B695B68786898477B68DB699B78DAB27B6899693B783C
:403240000B4493F826309A423BD17B681B78DBB283F00103DBB2002B13D07B689B691B6B002B04D07B689B691B6B786898477B681B6A002B05D07B681B6A7A68526A1046C5
:4032800098477B681B78DBB283F00103DBB2002B07D0484BD3F84C374648984700237B600BE07B689A697B685A617B6800229A61404BD3F83C373F48984701237B7006E047
:4032C00005E03B7801333B703B78032B95D9BB7883F00103DBB2002B38D07B689B695B68786898477B681B78DBB283F00103DBB2002B13D07B689B691B6B002B04D07B68D1
:403300009B691B6B786898477B681B6A002B05D07B681B6A7A68526A104698477B681B78DBB283F00103DBB2002B07D0214BD3F84C372048984700237B6056E07B689A697D
:403340007B685A617B6800229A614EE07B7883F00103DBB2002B48D0FB78002B07D0154BD3F84C371348984700237B603DE07B689B695B7E002B21D07B681B899BB2132BE1
:4033800007D90C4BD3F84C370A48984700237B602BE07B681B899BB201339AB27B681A817B689A697B685A617B6800229A611CE07C390020646A0020883900207B685B8991
:4033C0009BB2002B05D117F08FFA03461A467B685A817B689A697B685A617B6800229A61104BD3F83C370F4898470F4B00221A710D4B0022DA800D4800214FF4007219F026
:4034000064FC7B68DB6903F5C473184600214FF4B47219F05AFC15F0E1FC15F037FB0837BD4680BD646A00207C3900208839002080B584B000AF78601B4B1B8801339AB2DA
:40344000194B1A80194BD3F8483718489847F860FB68002B1BD0FB689B69002B17D0FB689B691B8A002B06D0FB685B8A9BB201339AB2FB685A82FB689B695B69002B06D08A
:40348000FB689B899BB201339AB2FB689A8117F02BFA03461A46064B1A80034B00221A801037BD4680BD00BF66D4FF1F646A002064D4FF1F80B582B000AF8F4BD3F8483754
:4034C0008D48984778607B68002B00F011817B685B69002B00F00C810023FB700023BB7000237B70854B00221A71844B0022DA80834800214FF4007219F0E7FB7B68DB69FC
:4035000003F5C473184600214FF4B47219F0DDFB00233B7079E07B685A693B7813449B7FFF2B6ED00123BB70FB7883F00103DBB2002B05D07B685A693B7813449B7EFB7040
:403540007B68DB699B78DAB27B6859693B780B449B7F9A4256D17B685B69DB6A002B06D07B685B69DB6A7A68D269104698477B685B695B68002B29D07B68DB695F4A1360C5
:403580007B685B691B7E002B06D07B685B691B7E9AB25A4BDA8004E07B685B69DB68574A93607B685B691B687A68D269104698477B685A697B689A617B6800225A6117F016
:4035C00093F903461A467B681A8217E07B685B691B687A68D269104698477B681B6A002B05D07B681B6A7A68526A10469847424BD3F84C374048984700237B6001237B70B2
:4036000006E005E03B7801333B703B78032B82D9BB7883F00103DBB2002B53D07B685B69DB6A002B06D07B685B69DB6A7A68D269104698477B685B695B68002B29D07B68D0
:40364000DB692E4A13607B685B691B7E002B06D07B685B691B7E9AB2284BDA8004E07B685B69DB68254A93607B685B691B687A68D269104698477B685A697B689A617B686E
:4036800000225A6117F030F903461A467B681A822EE07B685B691B687A68D269104698477B681B6A002B05D07B681B6A7A68526A10469847104BD3F84C370F4898470023A6
:4036C0007B6015E07B7883F00103DBB2002B0FD0FB78002B07D0084BD3F84C370648984700237B6004E0044BD3F83C37024898470837BD4680BD00BF646A00207C3900201D
:403700008839002080B584B000AF08F0A5FBFDF723FBF860FB68002B71D00023FB72FB7AFA68134420225A70FB7A5A1CFA72FA6802339B001344A74A5A60FB7AFA6813443C
:4037400024225A70FB7A5A1CFA72FA6802339B001344A14A5A60FB7AFA68134407225A70FB7A5A1CFA72FA6802339B0013449B4A5A60FB7AFA68134408225A70FB7A5A1C07
:40378000FA72FA6802339B001344954A5A60FB7AFA6813440D225A70FB7A5A1CFA72FA6802339B0013448F4A5A60FB7AFA68134409225A70FB7A5A1CFA72FA6802339B0035
:4037C0001344894A5A60FB7AFA6813440A225A70FB7A5A1CFA72FA6802339B001344834A5A60FB7AFA6813440B225A70FB7A5A1CFA72FA6802339B0013447D4A5A60FDF7E0
:40380000ABFAF860FB68002B71D00023BB72BB7AFA6813440E225A70BB7A5A1CBA72FA6802339B001344734A5A60BB7AFA6813440F225A70BB7A5A1CBA72FA6802339B00BB
:4038400013446D4A5A60BB7AFA68134410225A70BB7A5A1CBA72FA6802339B001344674A5A60BB7AFA68134412225A70BB7A5A1CBA72FA6802339B001344614A5A60BB7AE5
:40388000FA68134413225A70BB7A5A1CBA72FA6802339B0013445B4A5A60BB7AFA68134411225A70BB7A5A1CBA72FA6802339B001344554A5A60BB7AFA68134414225A70FF
:4038C000BB7A5A1CBA72FA6802339B0013444F4A5A60BB7AFA68134415225A70BB7A5A1CBA72FA6802339B001344494A5A60FCF7A3FF78607B68002B0CD07B680E225A7045
:403900007B6842F210729A807B6805229A707B680322DA70FCF790FF78607B68002B0CD07B680F225A707B6843F698229A807B6805229A707B680322DA70FCF77DFF7860AF
:403940007B68002B0CD07B682B225A707B6844F620629A807B6805229A707B680322DA70FCF76AFF78607B68002B0FD07B6808225A707B6844F620629A807B68FA225A81B9
:403980007B6806229A707B680322DA70FCF754FF78607B68002B0ED07B6814225A707B6800229A807B6814225A817B6806229A707B680322DA7016F097FF03461A46154B94
:4039C0001A801548FCF78AFC1448FCF787FC1037BD4680BD912D00000D2F000031340000911F00008D2A00004D1D00006D1E0000DD1D00003D290000ED22000001240000AF
:403A00002D2500009D28000049220000B5340000011F000064D4FF1F893000008131000090B58DB004AF786003233B724FF6FF73BB810023FB81C523BB72294BFB617B6800
:403A4000BB61BB691B78002B24D1A320FCF760FB78617B69002B1CD07B691C1DF86919F0A9F903469BB2009301AA07F1080393E8030082E803002020EA212246FB6904F078
:403A800091F803461A467B695A807B69C2221A7023E022E0A420FCF73BFB38613B69002B1BD03B691C1DF86919F084F903469BB2009301AA07F1080393E8030082E80300F9
:403AC0002020EA212246FB6904F06CF803461A463B695A803B69C2221A702437BD4690BDE0D5010090B585B000AF78607B68FB60FB681B78002B48D1FB681C6B2E2006F016
:403B00004BF9034623441B7B562B19D1FDF73CFEFDF7E4FE4FF40070FDF7ECFDFDF7D6FD03465B79FB72FDF7DBFDFB7A002B03D1FB68A5221A7173E0FB68A6221A716FE05E
:403B4000FB681C6B2E2006F027F9034623441B7B572B19D1FDF718FEFDF7C0FE4FF42070FDF7C8FDFDF7B2FD03465B79BB72FDF7B7FDBB7A002B03D1FB68A5221A7103E09C
:403B8000FB68A6221A714BE04AE0FB681B78012B46D1FB681C6B2E2006F0FEF8034623441B7B562B19D1FDF7EFFDFDF797FE4FF43070FDF79FFDFDF789FD03465B797B728C
:403BC000FDF78EFD7B7A002B03D1FB68A5221A7126E0FB68A6221A7122E0FB681C6B2E2006F0DAF8034623441B7B572B18D1FDF7CBFDFDF773FE4FF41070FDF77BFDFDF7EA
:403C000065FD03465B793B72FDF76AFD3B7A002B03D1FB68A5221A7102E0FB68A6221A711437BD4690BD00BFB0B586B000AF78607B687B61786906F0F7F803461A4640F61C
:403C4000983303FB02F3464A13443B613B69002B00F083803B69D3F8143B386998473B69D3F8283B38699847F8603B69D3F8183B38699847FB68002B6FD00023FB72FB6857
:403C8000E3225A70FB7A5A1CFA7219463B691A78FB680B449A70FB7AFA6813449D1C7B691C6B242006F078F80346083323441C1D242006F095F80346284621461A4618F020
:403CC000F9FF242006F08CF803461A46FB7A1344FB72FB7AFA6813449D1C7B691C6B252006F05AF80346083323441C1D252006F077F80346284621461A4618F0DBFFFB7AAA
:403D0000FA6813449C1CFB7AFA6813440233184619F050F80346DBB220461946FCF710FC252006F05DF803461A46FB7A1344FB72FB7A9AB2FB68A3F802213B69D3F8143B54
:403D4000386998473B69D3F8203B3869F96898473B69D3F8183B386998471837BD46B0BDF03B0020B0B590B004AF786003233B724FF6FF73BB810023FB818523BB727B687F
:403D8000FB62FDF701FDFDF7A9FD4FF4E070FDF7B1FCFDF79BFC03461B7A87F82B30FDF79FFCFB6A1B78002B47D1A320FCF7B0F978627B6A002B3FD007F1100318460021F7
:403DC000102218F082FF97F82B30012B09D197F82B3007F1100210463C491A4618F0B8FF08E097F82B3007F11002104638491A4618F0AEFF7B6A1D1D07F11003184618F0D2
:403E0000D9FF03469BB207F11004009301AA07F1080393E8030082E80300F0204FF495712A46234603F0BEFE03461A467B6A5A807B6AC2221A7046E045E0A420FCF768F9DD
:403E400038623B6A002B3ED007F1100318460021102218F03AFF97F82B30012B09D197F82B3007F11002104618491A4618F070FF08E097F82B3007F11002104614491A466C
:403E800018F066FF3B6A1D1D07F11003184618F091FF03469BB207F11004009301AA07F1080393E8030082E80300F0204FF495712A46234603F076FE03461A463B6A5A8026
:403EC0003B6AC2221A703037BD46B0BD08D6010014D6010090B58DB004AF786003233B724FF6FF73BB810023FB81C523BB72294BFB617B68BB61BB691B78002B24D1A3201E
:403F0000FCF706F978617B69002B1CD07B691C1DF86918F04FFF03469BB2009301AA07F1080393E8030082E803006020EA212246FB6903F037FE03461A467B695A807B695B
:403F4000C2221A7023E022E0A420FCF7E1F838613B69002B1BD03B691C1DF86918F02AFF03469BB2009301AA07F1080393E8030082E803006020EA212246FB6903F012FE60
:403F800003461A463B695A803B69C2221A702437BD4690BD20D60100F0B58FB004AF786003233B734FF6FF733B8200237B82C523BB734F4BBB607B687B627B6A1B78002B21
:403FC0004AD1A320FCF7A4F838623B6A002B42D00023FB77BA23BB833B6A00225A803B6A5B889BB21A463B6A13441D1DFB7F9B0007F12802134453F8204CFB7F9B0007F1CA
:404000002802134453F8203C184618F0D3FE03469BB2BE8B009301AA07F10C0393E8030082E803001A2031462A46234603F0BAFD03461A463B6A5B889BB213449AB23B6A18
:404040005A80BB8B2033BB83FB7F0133FB773B6AC2221A7049E048E0A420FCF759F8B861BB69002B41D00023FB75BA23BB82BB6900225A80BB695B889BB21A46BB6913448E
:404080001D1DFB7D9B0007F12802134453F8204CFB7D9B0007F12802134453F8203C184618F088FE03469BB2BE8A009301AA07F10C0393E8030082E803001A2031462A4635
:4040C000234603F06FFD03461A46BB695B889BB213449AB2BB695A80BB8A2033BB82FB7D0133FB75BB69C2221A702C37BD46F0BDE0D601002DE9F04196B004AF78600323CF
:404100003B7500233B834FF6FF737B838523BB75002387F847300023A7F844300023A7F842307B68FB63F86B05F07EFE0346032B3ED801A252F823F049410000634100000E
:404140007D41000097410000BD4BDB7887F847304FF40073A7F844304FF44073A7F8423026E0B74B1B7987F847304FF41073A7F844304FF45073A7F8423019E0B04B5B793E
:4041800087F847304FF42073A7F844304FF46073A7F842300CE0AA4B9B7987F847304FF43073A7F844304FF47073A7F8423000BFFB6B1B78002B40F00881FDF7E5FAFDF77B
:4041C0008DFBB7F844301846FDF794FAFDF77EFA03465A1C07F1100310681860FDF780FAFDF7D2FAFDF77AFBB7F842301846FDF781FA002387F84130DDE097F8413007F1C1
:404200004802134413F8383C013B032B00F2CE8001A252F823F000BF2942000087420000E94200004B430000A320FBF771FFB863BB6B002B26D097F84130824A32F8236008
:4042400097F841307F4A9B0013445D88BB6B1C1DFDF73CFA86461023009301AA07F1140393E8030082E80300304629462246734603F098FC03461A46BB6B5A80BB6BC2229E
:404280001A7093E092E0A320FBF742FF78637B6B002B28D097F841306A4A32F8238097F84130684A9B0013445E887B6B1D1DFDF70DFA034603F110041023009301AA07F1D5
:4042C000140393E8030082E80300404631462A46234603F067FC03461A467B6B5A807B6BC2221A7062E061E0A320FBF711FF38633B6B002B28D097F84130524A32F82380BE
:4043000097F841304F4A9B0013445E883B6B1D1DFDF7DCF9034603F120041023009301AA07F1140393E8030082E80300404631462A46234603F036FC03461A463B6B5A8073
:404340003B6BC2221A7031E030E0A320FBF7E0FEF862FB6A002B28D097F84130394A32F8238097F84130374A9B0013445E88FB6A1D1DFDF7ABF9034603F13004102300937C
:4043800001AA07F1140393E8030082E80300404631462A46234603F005FC03461A46FB6A5A80FB6AC2221A70FFE700BF97F84130013387F8413097F8412097F847309A4238
:4043C000FFF41BAFFDF78CF90EE1FB6B1B78012B40F00A81FDF7D8F9FDF780FAB7F844301846FDF787F9FDF771F903465A1C07F10C0310681860FDF773F9FDF7C5F9FDF776
:404400006DFAB7F842301846FDF774F9002387F84030E0E097F8403007F14802134413F83C3C013B032B00F2D18001A252F823F049440000A7440000094500006B45000025
:40444000506A0020BC83FF1FA420FBF761FEB862BB6A002B26D097F84030654A32F8236097F84030624A9B0013445D88BB6A1C1DFDF72CF986461023009301AA07F11403F0
:4044800093E8030082E80300304629462246734603F088FB03461A46BB6A5A80BB6AC2221A7093E092E0A420FBF732FE78627B6A002B28D097F840304D4A32F8238097F8BB
:4044C00040304B4A9B0013445E887B6A1D1DFDF7FDF8034603F110041023009301AA07F1140393E8030082E80300404631462A46234603F057FB03461A467B6A5A807B6AB3
:40450000C2221A7062E061E0A420FBF701FE38623B6A002B28D097F84030354A32F8238097F84030324A9B0013445E883B6A1D1DFDF7CCF8034603F120041023009301AA6C
:4045400007F1140393E8030082E80300404631462A46234603F026FB03461A463B6A5A803B6AC2221A7031E030E0A420FBF7D0FDF861FB69002B28D097F840301C4A32F809
:40458000238097F840301A4A9B0013445E88FB691D1DFDF79BF8034603F130041023009301AA07F1140393E8030082E80300404631462A46234603F0F5FA03461A46FB6957
:4045C0005A80FB69C2221A70FFE700BF97F84030013387F8403097F8402097F847309A42FFF418AFFDF77CF84837BD46BDE8F081BC83FF1FF0B58FB004AF786003233B731D
:404600004FF6FF733B8200237B82C523BB734F4BBB607B687B627B6A1B78002B4AD1A320FBF776FD38623B6A002B42D00023FB77BA23BB833B6A00225A803B6A5B889BB2D3
:404640001A463B6A13441D1DFB7F9B0007F12802134453F8204CFB7F9B0007F12802134453F8203C184618F0A5FB03469BB2BE8B009301AA07F10C0393E8030082E8030015
:404680001A2031462A46234603F08CFA03461A463B6A5B889BB213449AB23B6A5A80BB8B2033BB83FB7F0133FB773B6AC2221A7049E048E0A420FBF72BFDB861BB69002BB6
:4046C00041D00023FB75BA23BB82BB6900225A80BB695B889BB21A46BB6913441D1DFB7D9B0007F12802134453F8204CFB7D9B0007F12802134453F8203C184618F05AFB42
:4047000003469BB2BE8A009301AA07F10C0393E8030082E803001A2031462A46234603F041FA03461A46BB695B889BB213449AB2BB695A80BB8A2033BB82FB7D0133FB7524
:40474000BB69C2221A702C37BD46F0BD08D7010090B585B000AF78607B68FB60F86805F063FB03461A4640F6983303FB02F31C4A1344BB60BB6893F8783BDBB2002B28D03C
:40478000BB68002283F8782BFB681C6B0B2005F003FB0346083323441C1D0B2005F020FB0346204600211A4618F08FFAFB681C6B0B2005F0F1FA0346234439221A73FB687E
:4047C0001C6B052005F0E8FA0346234444221A7302E0BB6808229A731437BD4690BD00BFF03B0020B0B588B000AF78607B68BB61B86905F019FB03461A4640F6983303FBBD
:4048000002F3844A13447B617B69D3F8143B786998477B69D3F8283B7869984738617B69D3F8183B786998473B69002B00F0EE800023FB773B69A2225A70FB7F5A1CFA7742
:4048400019467B691A783B690B449A70FB7F5A1CFA771D46BB691C6B072005F09DFA034623441A7B3B692B449A70FB7F3A6913449D1CBB691C6B122005F08EFA03460833D7
:4048800023441C1D122005F0ABFA0346284621461A4618F00FFAFB7F3A6913449C1C122005F09EFA034620461946FBF749FE122005F096FA03461A46FB7F1344FB77FB7FAE
:4048C0000133FB77FB7F3A6913449D1CBB691C6B0E2005F061FA0346083323441C1D0E2005F07EFA0346284621461A4618F0E2F9FB7F3A6913449C1C0E2005F071FA034699
:4049000020461946FBF71CFE0E2005F069FA03461A46FB7F1344FB77BB691C6B052005F03BFA034623441B7BFB73FB7B102B0CD0432B13D00F2B1AD1FB7F5A1CFA771A46C2
:404940003B69134402229A7011E0FB7F5A1CFA771A463B69134401229A7008E0FB7F5A1CFA771A463B69134403229A7000BFFB7F3A6913449D1CBB691C6B062005F00CFAA9
:40498000034608332344043328461946082218F091F9FB7B102B07D1FB7F3A69134402331846082102F092FBFB7F3A691344023318460821FBF7C4FDFB7F0833FB77BB69E6
:4049C0001C6B062005F0E8F9034608332344043318460021082218F078F9FB7F9AB23B69A3F802217B69002283F8782B7B69D3F8143B786998477B69D3F8203B7869396959
:404A000098477B69D3F8183B786998472037BD46B0BD00BFF03B0020F0B58BB004AF78607B687B617B69002B65D07B691B699A8D7B691A837B691B69DA8D7B695A837B6912
:404A40001B78002B2CD1A320FBF762FB38613B69002B24D07B69B3F818E07B695E8B3B691D1D7B6903F11D047B691B6993F830309BB27A691269009301AB32321068516810
:404A800003C3704631462A46234603F08BF803461A463B695A803B69C2221A702BE02AE0A420FBF735FBF860FB68002B23D07B69B3F818E07B695E8BFB681D1D7B6903F1DE
:404AC0001D047B691B6993F830309BB27A691269009301AB32321068516803C3704631462A46234603F05EF803461A46FB685A80FB68C2221A701C37BD46F0BDB0B584B05B
:404B000000AF78607B68BB60BB68002B58D00023FB8100237B732EE0BB681B7F1A467B7BD31A013B184617F0A1FA02460B464FF00000254916F06CF804460D467B7BBA681B
:404B400013445B7F03F00F03184617F08FFA02460B462046294617F0EFFA02460B461046194617F083FD03469AB2FB891344FB817B7B01337B73BB681B7F7A7B9A42CBD3AE
:404B8000FCF702FEFCF7AAFE4FF4A070FCF7B2FDFCF79CFD0346FA89D2B21A70FCF796FD03460133FA89120A92B2D2B21A704FF4A070FCF74DFE054AFB891380FCF790FDA1
:404BC0001037BD46B0BD00BF00002440BCD3FF1F90B585B000AF78607B68FB60FB68002B3DD0FCF7D1FDFCF779FE4FF4A070FCF781FDFCF76BFD034601331B781B029CB28F
:404C0000FCF764FD03461B789BB2224613439BB27B81FCF765FDFB681D3318460021102218F053F87A894FF00003F96801F11D04104619462246FBF795FBFB681D3318467B
:404C400018F0B8F80346DAB2FB681A77FB6803F11D02FB681B7F10461946FBF771FC1437BD4690BD90B585B000AF78607B68FB60FB68002B32D0FCF787FDFCF72FFE4FF4E8
:404C8000E070FCF737FDFCF721FD03465B7AFB72FCF726FDFB681D3318460021102218F014F8FA7A4FF00003F96801F11D04104619462246FBF756FBFB681D33184618F0B0
:404CC00079F80346DAB2FB681A77FB6803F11D02FB681B7F10461946FBF732FC1437BD4690BD00BFF0B58BB004AF78607B687B617B69002B65D07B691B699A8D7B691A835A
:404D00007B691B69DA8D7B695A837B691B78002B2CD1A320FBF7FCF938613B69002B24D07B69B3F818E07B695E8B3B691D1D7B6903F11D047B691B6993F830309BB27A6990
:404D40001269009301AB32321068516803C3704631462A46234602F025FF03461A463B695A803B69C2221A702BE02AE0A420FBF7CFF9F860FB68002B23D07B69B3F818E0D6
:404D80007B695E8BFB681D1D7B6903F11D047B691B6993F830309BB27A691269009301AB32321068516803C3704631462A46234602F0F8FE03461A46FB685A80FB68C222DD
:404DC0001A701C37BD46F0BDB0B584B000AF78607B68BB60BB68002B50D00023FB730023BB732FE0BB681B7F1A46BB7BD31A013B184617F03BF902460B464FF00000214952
:404E000015F006FF04460D46BB7BBA6813445B7F03F00F03184617F029F902460B462046294617F089F902460B461046194617F01DFC03469BB2DAB2FB7B1344FB73BB7BBE
:404E40000133BB73BB681B7FBA7B9A42CAD3FCF79BFCFCF743FD4FF4E070FCF74BFCFCF735FC03460933FA7B1A704FF4E070FCF7EFFC054AFB7B9374FCF732FC1037BD468B
:404E8000B0BD00BF00002440506A002080B588B000AF78607B68FB61FB69D3F89031BB61BB69002B38D0BB6913229A72BB6903F11D02FB690C3310461946082217F0FAFED5
:404EC000BB6908221A77FBF7B7FC78617B69002B22D0134A07F10C031068516803C3BB691B78002B03D17B691F225A7002E07B6923225A707B6903229A707B690C331A46E9
:404F000007F10C0303CB106051607B690822A3F88C217B690322DA702037BD4680BD00BF30D7010080B485B000AF78607B68FB60FB685B6B002B0AD0FB685B6B002B03D0F1
:404F4000FB685B6B01221A70FB6800225A631437BD465DF8047B704780B586B000AF78607B687B617B691B78002B22D1FBF764FC38613B69002B1BD07B693A695A633B696D
:404F80007A69C3F890213B6927225A703B6932225A813B694FF47A729A803B69194AC3F894213B6906229A703B690322DA7025E024E07B691B78012B20D1FBF73DFCF860AB
:404FC000FB68002B1AD07B69FA685A63FB687A69C3F89021FB6828225A70FB6832225A81FB684FF47A729A80FB68064AC3F89421FB6806229A70FB680322DA701837BD46F3
:4050000080BD00BF8D4E0000B0B590B004AF786004233B724FF6FF73BB810023FB81C523BB727B68BB62BB6A1B78002B40F00482BB6A1B691B783E2B40F0FE81A320FBF74C
:4050400067F878627B6A002B00F01481002387F82F30FCF799FBFCF755FCFCF7D9FC07F1100318460021082217F02FFEFCF740FC034602331B7803F04003002B32D097F8B4
:405080002F305A1C87F82F201C46FCF731FC034602331B781B09DBB2DBB203F00103DBB243F03003DBB2DAB207F13003234403F8202C97F82F305A1C87F82F201C46FCF719
:4050C00017FC034602331B78DBB203F00F03DBB243F03003DBB2DAB207F13003234403F8202C31E097F82F305A1C87F82F201C46FCF7FEFB034602331B781B09DBB2DBB235
:4051000003F00303DBB243F03003DBB2DAB207F13003234403F8202C97F82F305A1C87F82F201C46FCF7E4FB034602331B78DBB203F00F03DBB243F03003DBB2DAB207F184
:405140003003234403F8202C97F82F305A1C87F82F2007F1300213443A2203F8202C97F82F305A1C87F82F201C46FCF7C1FB034601331B781B09DBB2DBB203F00703DBB2DD
:4051800043F03003DBB2DAB207F13003234403F8202C97F82F305A1C87F82F201C46FCF7A7FB034601331B78DBB203F00F03DBB243F03003DBB2DAB207F13003234403F833
:4051C000202C97F82F305A1C87F82F2007F1300213443A2203F8202C97F82F305A1C87F82F201C46FCF784FB03461B781B09DBB2DBB203F00703DBB243F03003DBB2DAB2E4
:4052000007F13003234403F8202C97F82F305A1C87F82F201C46FCF76BFB03461B78DBB203F00F03DBB243F03003DBB2DAB207F13003234403F8202CFCF752FA7B6A1D1DF7
:4052400097F82F309BB207F11004009301AA07F1080393E8030082E80300C920BA212A46234602F09FFC03461A467B6A5A807B6AC2221A70A320FAF74BFF78627B6A002BEE
:4052800000F0D980002387F82330FCF77DFAFCF739FBFCF7BDFB07F1100318460021082217F013FD97F823305A1C87F823201C46FCF71EFB034604331B781B09DBB2DBB2D0
:4052C00003F00303DBB243F03003DBB2DAB207F13003234403F8202C97F823305A1C87F823201C46FCF704FB034604331B78DBB203F00F03DBB243F03003DBB2DAB207F1B9
:405300003003234403F8202C97F823305A1C87F8232007F1300213442F2203F8202C97F823305A1C87F823201C46FCF7E1FA034605331B781B09DBB2DBB203F00103DBB239
:4053400043F03003DBB2DAB207F13003234403F8202C97F823305A1C87F823201C46FCF7C7FA034605331B78DBB203F00F03DBB243F03003DBB2DAB207F13003234403F866
:40538000202C97F823305A1C87F8232007F1300213442F2203F8202C97F823305A1C87F823201C46FCF7A4FA034606331B781B09DBB2DBB243F03003DBB2DAB207F1300364
:4053C000234403F8202C97F823305A1C87F823201C46FCF78DFA034606331B78DBB203F00F03DBB243F03003DBB2DAB207F13003234403F8202CFCF773F97B6A1D1D97F870
:4054000023309BB207F11004009301AA07F1080393E8030082E80300C9204FF495712A46234602F0BFFB03461A467B6A5A807B6AC2221A70F5E1F4E1BB6A1B78012B40F063
:40544000F081BB6A1B691B783E2B40F0EA81A420FAF75EFEF861FB69002B00F01481002387F82E30FCF790F9FCF74CFAFCF7D0FA07F1100318460021082217F026FCFCF7BB
:4054800037FA034602331B7803F04003002B32D097F82E305A1C87F82E201C46FCF728FA034602331B781B09DBB2DBB203F00103DBB243F03003DBB2DAB207F130032344BC
:4054C00003F8202C97F82E305A1C87F82E201C46FCF70EFA034602331B78DBB203F00F03DBB243F03003DBB2DAB207F13003234403F8202C31E097F82E305A1C87F82E200F
:405500001C46FCF7F5F9034602331B781B09DBB2DBB203F00303DBB243F03003DBB2DAB207F13003234403F8202C97F82E305A1C87F82E201C46FCF7DBF9034602331B7891
:40554000DBB203F00F03DBB243F03003DBB2DAB207F13003234403F8202C97F82E305A1C87F82E2007F1300213443A2203F8202C97F82E305A1C87F82E201C46FCF7B8F92A
:40558000034601331B781B09DBB2DBB203F00703DBB243F03003DBB2DAB207F13003234403F8202C97F82E305A1C87F82E201C46FCF79EF9034601331B78DBB203F00F03FD
:4055C000DBB243F03003DBB2DAB207F13003234403F8202C97F82E305A1C87F82E2007F1300213443A2203F8202C97F82E305A1C87F82E201C46FCF77BF903461B781B0979
:40560000DBB2DBB203F00703DBB243F03003DBB2DAB207F13003234403F8202C97F82E305A1C87F82E201C46FCF762F903461B78DBB203F00F03DBB243F03003DBB2DAB214
:4056400007F13003234403F8202CFCF749F8FB691D1D97F82E309BB207F11004009301AA07F1080393E8030082E80300C920BA212A46234602F096FA03461A46FB695A8007
:40568000FB69C2221A70A420FAF742FDF861FB69002B00F0C6800023FB76FCF775F8FCF731F9FCF7B5F907F1100318460021082217F00BFBFB7E5A1CFA761C46FCF718F9CE
:4056C000034604331B781B09DBB2DBB203F00303DBB243F03003DBB2DAB207F13003234403F8202CFB7E5A1CFA761C46FCF700F9034604331B78DBB203F00F03DBB243F069
:405700003003DBB2DAB207F13003234403F8202CFB7E5A1CFA7607F1300213442F2203F8202CFB7E5A1CFA761C46FCF7E1F8034605331B781B09DBB2DBB203F00103DBB269
:4057400043F03003DBB2DAB207F13003234403F8202CFB7E5A1CFA761C46FCF7C9F8034605331B78DBB203F00F03DBB243F03003DBB2DAB207F13003234403F8202CFB7E58
:405780005A1CFA7607F1300213442F2203F8202CFB7E5A1CFA761C46FCF7AAF8034606331B781B09DBB2DBB243F03003DBB2DAB207F13003234403F8202CFB7E5A1CFA768A
:4057C0001C46FCF795F8034606331B78DBB203F00F03DBB243F03003DBB2DAB207F13003234403F8202CFBF77BFFFB691D1DFB7E9BB207F11004009301AA07F1080393E8A3
:40580000030082E80300C9204FF495712A46234602F0C8F903461A46FB695A80FB69C2221A703037BD46B0BDB0B590B004AF786002233B724FF6FF73BB810023FB81C5232E
:40584000BB727B68BB62BB6A1B78002B40F0DE81BB6A1B691B78012B40F0D881A320FAF757FC78627B6A002B00F0EA80002387F82F30FBF789FFFCF745F8FCF7C9F807F1F6
:40588000100318460021082217F01FFAFCF730F8034602331B7803F04003002B32D097F82F305A1C87F82F201C46FCF721F8034602331B781B09DBB2DBB203F00103DBB20A
:4058C00043F03003DBB2DAB207F13003234403F8202C97F82F305A1C87F82F201C46FCF707F8034602331B78DBB203F00F03DBB243F03003DBB2DAB207F13003234403F88E
:40590000202C31E097F82F305A1C87F82F201C46FBF7EEFF034602331B781B09DBB2DBB203F00303DBB243F03003DBB2DAB207F13003234403F8202C97F82F305A1C87F887
:405940002F201C46FBF7D4FF034602331B78DBB203F00F03DBB243F03003DBB2DAB207F13003234403F8202CA74B5B78002B0BD097F82F305A1C87F82F2007F130021344AB
:405980003A2203F8202C0AE097F82F305A1C87F82F2007F130021344202203F8202C97F82F305A1C87F82F201C46FBF7A1FF034601331B781B09DBB2DBB203F00703DBB220
:4059C00043F03003DBB2DAB207F13003234403F8202C97F82F305A1C87F82F201C46FBF787FF034601331B78DBB203F00F03DBB243F03003DBB2DAB207F13003234403F808
:405A0000202CFBF76DFE7B6A1D1D97F82F309BB207F11004009301AA07F1080393E8030082E8030010204FF4DD712A46234602F0B9F803461A467B6A5A807B6AC2221A7033
:405A4000A320FAF765FB78627B6A002B00F0DA80002387F82330FBF797FEFBF753FFFBF7D7FF07F1100318460021082217F02DF997F823305A1C87F823201C46FBF738FFD0
:405A8000034604331B781B09DBB2DBB203F00303DBB243F03003DBB2DAB207F13003234403F8202C97F823305A1C87F823201C46FBF71EFF034604331B78DBB203F00F0387
:405AC000DBB243F03003DBB2DAB207F13003234403F8202C97F823305A1C87F8232007F1300213442F2203F8202C97F823305A1C87F823201C46FBF7FBFE034605331B7813
:405B00001B09DBB2DBB203F00103DBB243F03003DBB2DAB207F13003234403F8202C97F823305A1C87F823201C46FBF7E1FE034605331B78DBB203F00F03DBB243F0300365
:405B4000DBB2DAB207F13003234403F8202C97F823305A1C87F8232007F1300213442F2203F8202C97F823305A1C87F823201C46FBF7BEFE034606331B781B09DBB2DBB283
:405B800043F03003DBB2DAB207F13003234403F8202C97F823305A1C87F823201C46FBF7A7FE034606331B78DBB203F00F03DBB243F03003DBB2DAB207F13003234403F83A
:405BC000202CFBF78DFD7B6A1D1D97F823309BB207F11004009301AA07F1080393E8030082E803004FF404704FF4DD712A46234601F0D8FF03461A467B6A5A807B6AC2223D
:405C00001A70CFE1CEE100BFAC83FF1FBB6A1B78012B40F0C781BB6A1B691B78012B40F0C181A420FAF774FAF861FB69002B00F0EA80002387F82E30FBF7A6FDFBF762FEED
:405C4000FBF7E6FE07F1100318460021082217F03CF8FBF74DFE034602331B7803F04003002B32D097F82E305A1C87F82E201C46FBF73EFE034602331B781B09DBB2DBB29F
:405C800003F00103DBB243F03003DBB2DAB207F13003234403F8202C97F82E305A1C87F82E201C46FBF724FE034602331B78DBB203F00F03DBB243F03003DBB2DAB207F1BB
:405CC0003003234403F8202C31E097F82E305A1C87F82E201C46FBF70BFE034602331B781B09DBB2DBB203F00303DBB243F03003DBB2DAB207F13003234403F8202C97F869
:405D00002E305A1C87F82E201C46FBF7F1FD034602331B78DBB203F00F03DBB243F03003DBB2DAB207F13003234403F8202C9F4B1B7A002B0BD097F82E305A1C87F82E2043
:405D400007F1300213443A2203F8202C0AE097F82E305A1C87F82E2007F130021344202203F8202C97F82E305A1C87F82E201C46FBF7BEFD034601331B781B09DBB2DBB24E
:405D800003F00703DBB243F03003DBB2DAB207F13003234403F8202C97F82E305A1C87F82E201C46FBF7A4FD034601331B78DBB203F00F03DBB243F03003DBB2DAB207F136
:405DC0003003234403F8202CFBF78AFCFB691D1D97F82E309BB207F11004009301AA07F1080393E8030082E8030010204FF4DD712A46234601F0D6FE03461A46FB695A80F4
:405E0000FB69C2221A70A420FAF782F9F861FB69002B00F0C7800023FB76FBF7B5FCFBF771FDFBF7F5FD07F1100318460021082216F04BFFFB7E5A1CFA761C46FBF758FDBA
:405E4000034604331B781B09DBB2DBB203F00303DBB243F03003DBB2DAB207F13003234403F8202CFB7E5A1CFA761C46FBF740FD034604331B78DBB203F00F03DBB243F09E
:405E80003003DBB2DAB207F13003234403F8202CFB7E5A1CFA7607F1300213442F2203F8202CFB7E5A1CFA761C46FBF721FD034605331B781B09DBB2DBB203F00103DBB29E
:405EC00043F03003DBB2DAB207F13003234403F8202CFB7E5A1CFA761C46FBF709FD034605331B78DBB203F00F03DBB243F03003DBB2DAB207F13003234403F8202CFB7E8D
:405F00005A1CFA7607F1300213442F2203F8202CFB7E5A1CFA761C46FBF7EAFC034606331B781B09DBB2DBB243F03003DBB2DAB207F13003234403F8202CFB7E5A1CFA76BF
:405F40001C46FBF7D5FC034606331B78DBB203F00F03DBB243F03003DBB2DAB207F13003234403F8202CFBF7BBFBFB691D1DFB7E9BB207F11004009301AA07F1080393E89C
:405F8000030082E803004FF404704FF4DD712A46234601F007FE03461A46FB695A80FB69C2221A703037BD46B0BD00BFAC83FF1FB0B5D6B004AF3B1D1860042387F8143165
:405FC0004FF6FF73A7F818310023A7F81A31C52387F816313B1D1B68C7F84431D7F84431D3F89031C7F84031D7F840311B78002B40F01283D7F840311B691B78012B40F0C2
:406000000B83A320FAF784F8C7F83C01D7F83C31002B30D0CA4B1B785A1CD1B2C84A11701A46C74B1344DB7887F81C31C44B1B78032B02D9C24B00221A70D7F83C311D1D49
:4060400007F58E740123009301AA07F58A7393E8030082E803004FF4147012212A46234601F0A0FD03461A46D7F83C315A80D7F83C31C2221A7007F5887318460021022278
:4060800016F023FE07F58873D7F84001194602F053FE07F58673D7F84001194602F092FF97F81131002B44D1A320FAF731F8C7F83C01D7F83C31002B5FD097F80D31002BB1
:4060C0001BD0A04A07F580731068516803C312891A80D7F83C3104331A4607F5807303CB106051601B881381D7F83C310A225A80D7F83C31C2221A703FE0934A07F1F403F1
:406100001068516803C312891A80D7F83C3104331A4607F1F40303CB106051601B881381D7F83C310A225A80D7F83C31C2221A7023E0A320F9F7ECFFC7F83C01D7F83C3186
:40614000002B1AD0814A07F1E8031068516803C312891A80D7F83C3104331A4607F1E80303CB106051601B881381D7F83C310A225A80D7F83C31C2221A70A320F9F7C8FFEE
:40618000C7F83C01D7F83C31002B1DD0704A07F1D803144620686168A26807C3A2891A80D7F83C3104331C4607F1D80307CB20606160A2601B88A381D7F83C310E225A80F4
:4061C000D7F83C31C2221A7097F81031002B44D1A320F9F79DFFC7F83C01D7F83C31002B5FD097F80C31002B1BD0564A07F1CC031068516803C312891A80D7F83C3104331C
:406200001A4607F1CC0303CB106051601B881381D7F83C310A225A80D7F83C31C2221A703FE0494A07F1C0031068516803C312891A80D7F83C3104331A4607F1C00303CB30
:40624000106051601B881381D7F83C310A225A80D7F83C31C2221A7023E0A320F9F758FFC7F83C01D7F83C31002B1AD0374A07F1B4031068516803C312891A80D7F83C31E8
:4062800004331A4607F1B40303CB106051601B881381D7F83C310A225A80D7F83C31C2221A70A320F9F734FFC7F83C01D7F83C31002B1DD0274A07F1A40314462068616895
:4062C000A26807C3A2891A80D7F83C3104331C4607F1A40307CB20606160A2601B88A381D7F83C310E225A80D7F83C31C2221A704FF6FF73A7F818310023A7F81A31104BBE
:406300009B781A46642303FB02F3B3F5FA6F23DDD7F84001FFF788FA094B00229A70084B5B78002B14BF01230023DBB283F00103DBB203F00103DAB2014B5A7012E000BF11
:40634000AC83FF1FD8D70100E4D7010040D60100F0D7010000D80100A54B9B780133DAB2A34B9A70012387F81431A24B5B7B83F00103DBB2002B64D09F4B1B781846FAF717
:4063800003FB0346002B2ED0A320F9F7C1FEC7F83C01D7F83C31002B53D0984BC7F83831D7F83C311C1DD7F8380116F003FD03469BB2009301AA07F58A7393E8030082E832
:4063C0000300B8204FF4E8712246D7F8383101F0E9FB03461A46D7F83C315A80D7F83C31C2221A702DE0A320F9F792FEC7F83C01D7F83C31002B24D007F10C03184600211B
:40640000202216F062FCD7F83C311D1D07F10C042023009301AA07F58A7393E8030082E80300B8204FF4E8712A46234601F0BAFB03461A46D7F83C315A80D7F83C31C22201
:406440001A706F4B1B78DBB2002B72D0A320F9F75FFEC7F83C01D7F83C31002B00F0C780674B5B78DBB2002B2FD0664BC7F83431D7F83C311C1DD7F8340116F09BFC034631
:406480002046D7F834111A4616F014FCD7F83C311C1DD7F8340116F08DFC03469BB2009301AA07F58A7393E8030082E80300B8204FF4E8712246D7F8343101F073FB034674
:4064C0001A46D7F83C315A802EE04F4BC7F83031D7F83C311C1DD7F8300116F06BFC03462046D7F830111A4616F0E4FBD7F83C311C1DD7F8300116F05DFC03469BB200937B
:4065000001AA07F58A7393E8030082E80300B8204FF4E8712246D7F8303101F043FB03461A46D7F83C315A80D7F83C31C2221A7081E3364B1B7883F00103DBB2002B56D05B
:40654000A320F9F7E5FDC7F83C01D7F83C31002B49D007F10C0318462021282216F0B5FB274B9B78042B0DD107F10C03284A1C4615460FCD0FC40FCD0FC495E8030084E852
:4065800003000CE007F10C03224A1C4615460FCD0FC40FCD0FC495E80F0007C42380D7F83C311D1D07F10C03184616F003FC03469BB207F10C04009301AA07F58A7393E834
:4065C000030082E80300A0204FF4E8712A46234601F0E8FA03461A46D7F83C315A80D7F83C31C2221A70094B01221A7023E322E3AC83FF1F3483FF1FE83B002038D7010039
:40660000506A00205CD7010084D7010068D4FF1F10D80100A8D70100D7F840311B78012B40F00983D7F840311B691B78012B40F00283A420F9F76CFDC7F82C01D7F82C3105
:40664000002B30D0C94BDB795A1CD1B2C74AD1711A46C64B13449B7A87F81C31C34BDB79032B02D9C14B0022DA71D7F82C311D1D07F58E740123009301AA07F58A7393E874
:40668000030082E803004FF4147012212A46234601F088FA03461A46D7F82C315A80D7F82C31C2221A7007F1A00318460021022216F00BFB07F1A003D7F84001194602F095
:4066C0003BFB07F19C03D7F84001194602F07AFC97F8A130002B44D1A420F9F719FDC7F82C01D7F82C31002B5FD097F89D30002B1BD09F4A07F190031068516803C31289A2
:406700001A80D7F82C3104331A4607F1900303CB106051601B881381D7F82C310A225A80D7F82C31C2221A703FE0924A07F184031068516803C312891A80D7F82C31043376
:406740001A4607F1840303CB106051601B881381D7F82C310A225A80D7F82C31C2221A7023E0A420F9F7D4FCC7F82C01D7F82C31002B1AD0804A07F178031068516803C360
:4067800012891A80D7F82C3104331A4607F1780303CB106051601B881381D7F82C310A225A80D7F82C31C2221A70A420F9F7B0FCC7F82C01D7F82C31002B1DD06F4A07F13B
:4067C0006803144620686168A26807C3A2891A80D7F82C3104331C4607F1680307CB20606160A2601B88A381D7F82C310E225A80D7F82C31C2221A7097F8A030002B44D177
:40680000A420F9F785FCC7F82C01D7F82C31002B5ED097F89C30002B1BD0554A07F15C031068516803C312891A80D7F82C3104331A4607F15C0303CB106051601B881381DF
:40684000D7F82C310A225A80D7F82C31C2221A703EE0484A07F150031068516803C312891A80D7F82C3104331A4607F1500303CB106051601B881381D7F82C310A225A80BF
:40688000D7F82C31C2221A7022E0A420F9F740FCC7F82C01D7F82C31002B19D007F14403354A1068516803C312891A80D7F82C311A1D07F1440303CB106051601B8813816E
:4068C000D7F82C310A225A80D7F82C31C2221A70A420F9F71DFCC7F82C01D7F82C31002B1DD007F13403264A144620686168A26807C3A2891A80D7F82C311A1D07F134035A
:40690000144607CB20606160A2601B88A381D7F82C310E225A80D7F82C31C2221A704FF6FF73A7F818310023A7F81A310F4B5B7A1A46642303FB02F3B3F5FA6F22DDD7F8BD
:406940004001FEF771FF094B00225A72074B1B7A002B14BF01230023DBB283F00103DBB203F00103DAB2014B1A7211E0AC83FF1FD8D70100E4D7010040D60100F0D701008E
:4069800000D80100AE4B5B7A0133DAB2AC4B5A72012387F81431AB4B5B7B83F00103DBB2002B64D0A84B5B781846F9F7EDFF0346002B2ED0A420F9F7ABFBC7F82C01D7F80F
:4069C0002C31002B53D0A14BC7F82831D7F82C311C1DD7F8280116F0EDF903469BB2009301AA07F58A7393E8030082E80300B8204FF4E8712246D7F8283101F0D3F80346DE
:406A00001A46D7F82C315A80D7F82C31C2221A702DE0A420F9F77CFBC7F82C01D7F82C31002B24D007F10C0318460021202216F04CF9D7F82C311D1D07F10C042023009390
:406A400001AA07F58A7393E8030082E80300B8204FF4E8712A46234601F0A4F803461A46D7F82C315A80D7F82C31C2221A70784B1B78DBB2002B72D0A420F9F749FBC7F85D
:406A80002C01D7F82C31002B00F0D580704B5B78DBB2002B2FD06F4BC7F82431D7F82C311C1DD7F8240116F085F903462046D7F824111A4616F0FEF8D7F82C311C1DD7F8DA
:406AC000240116F077F903469BB2009301AA07F58A7393E8030082E80300B8204FF4E8712246D7F8243101F05DF803461A46D7F82C315A802EE0584BC7F82031D7F82C3161
:406B00001C1DD7F8200116F055F903462046D7F820111A4616F0CEF8D7F82C311C1DD7F8200116F047F903469BB2009301AA07F58A7393E8030082E80300B8204FF4E87136
:406B40002246D7F8203101F02DF803461A46D7F82C315A80D7F82C31C2221A706BE03F4B5B7883F00103DBB2002B64D0A420F9F7CFFAC7F82C01D7F82C31002B58D007F143
:406B80000C0318462021282216F09FF8D7F82C311C1D07F10C03184616F00CF9024607F10C032046194616F085F8294B9B78042B0DD107F10C032A4A1C4615460FCD0FC459
:406BC0000FCD0FC495E8030084E803000CE007F10C03244A1C4615460FCD0FC40FCD0FC495E80F0007C42380D7F82C311D1D07F10C03184616F0DEF803469BB207F10C043C
:406C0000009301AA07F58A7393E8030082E80300A0204FF4E8712A46234600F0C3FF03461A46D7F82C315A80D7F82C31C2221A700A4B01225A7007F5A477BD46B0BD00BF7A
:406C4000AC83FF1F7083FF1FE83B002038D70100506A00205CD7010084D7010068D4FF1F10D80100A8D7010080B586B000AF78607B687B617B691B78002B20D12120F9F7C1
:406C8000E7FE38613B69002B18D07B693A695A633B697A69C3F890213B691C4AC3F894213B6921225A703B6906229A703B694FF47A725A813B690322DA7023E022E07B69BD
:406CC0001B78012B1ED12520F9F7C2FEF860FB68002B17D07B69FA685A63FB687A69C3F89021FB68094AC3F89421FB6825225A70FB6806229A70FB684FF47A725A81FB6870
:406D00000322DA701837BD4680BD00BF0950000080B487B000AF78607B687B617B691B78002B0AD17B695B6B3B613B69002B03D03B6901221A700DE00CE07B691B78012B5A
:406D400008D17B695B6BFB60FB68002B02D0FB6801221A701C37BD465DF8047B704700BF80B586B000AF78607B687B617B691B78002B1ED12220F9F76BFE38613B69002BE0
:406D800016D01E4B00229A707B693A695A633B697A69C3F890213B6922225A703B6906229A703B6964225A813B690322DA7021E020E07B691B78012B1CD12620F9F748FE74
:406DC000F860FB68002B15D00C4B00225A727B69FA685A63FB687A69C3F89021FB6826225A70FB6806229A70FB6864225A81FB680322DA701837BD4680BD00BFAC83FF1F93
:406E000080B584B000AF78607B68FB60FB68D3F89431002B07D0FB68D3F89431FA68D2F89021104698471037BD4680BD80B487B000AF78607B687B617B691B78002B0AD175
:406E40007B695B6B3B613B69002B03D03B6901221A700DE00CE07B691B78012B08D17B695B6BFB60FB68002B02D0FB6801221A701C37BD465DF8047B704700BF80B586B004
:406E800000AF78600023FB757B683B613B691B6BFB60786802F0C8FF0346FB72FB7A524A40F6983101FB03F3134408335B79DBB283F00103DBB2002B46D04C4B1B78DBB274
:406EC000012B40D1FB68002B3DD02E2002F064FF03461A46FB6813441B7B002B33D0042002F05AFF03461A46FB6813441B7BBB72BB7A0E2B08D03B691B691B78042B22D138
:406F00003B69DB780E2B1ED10123FB753B69FF225A713B695A793B699A72042002F03CFF03461A46FB68134400221A732E2002F033FF03461A46FB68134400221A733B695C
:406F40008C229A704BE04AE0FB68002B47D02E2002F022FF03461A46FB6813441B7B002B3DD0042002F018FF03461A46FB6813441B7B7B727B7A452B02D07B7A002B08D18A
:406F80003B691B691B78042B29D13B69DB78452B25D0FB7A144A40F6983101FB03F3134408335B79FB753B69FF225A713B695A793B699A72042002F0EFFE03461A46FB6831
:406FC000134400221A732E2002F0E6FE03461A46FB68134400221A733B692B229A70FB7D18461837BD4680BDF03B0020B871002080B584B000AF78607B68FB60FB68DB787D
:40700000392B21D1124B16221A70114B18225A70FAF7BAFBFAF762FC4FF4E070FAF76AFBFAF754FB03460B33094A12781A70FAF74DFB03460C33064A52781A704FF4E07077
:40704000FAF706FCFAF74CFB1037BD4680BD00BFE83B002080B584B000AF78607B68FB60FB68DB788C2B02D08D2B07D00DE0164B18221A70144B18225A7006E0124B162270
:407080001A70114B16225A7000BFFAF77DFBFAF725FC4FF4E070FAF72DFBFAF717FB03460B33094A12781A70FAF710FB03460C33054A52781A704FF4E070FAF7C9FBFAF7B1
:4070C0000FFB1037BD4680BDE83B002080B485B000AF78600B46FB700023FB730023BB73FB78013BDBB27B732CE097F90D307A6813441B782C2B07D1BB7B83F00103DBB2F6
:40710000002B01D00123BB73BB7B002B12D097F90D307A68134497F90D20013A79680A4412781A7097F90D30013B7A68134400221A7002E0FB7B0133FB737B7BDBB2013BD6
:40714000DBB27B7397F90D30002BCEDCBB7B83F00103DBB2002B01D00023FB73334B5B7AFA7BD31ADBB23B7397F90C30002B29DD23E0FB78013BDBB27B7315E097F90D304F
:407180007A68134497F90D20013A79680A4412781A7097F90D307A68134400221A707B7BDBB2013BDBB27B7397F90D30002BE5DC3B7BDBB2013BDBB23B7397F90C30002B05
:4071C000D7DC2DE097F90C30002B29DA24E000237B7316E097F90D307A68134497F90D20013279680A4412781A7097F90D3001337A68134430221A707B7BDBB20133DBB237
:407200007B7397F90D20FB78013B9A42E2DB3B7BDBB20133DBB23B7397F90C30002BD6DB1437BD465DF8047B704700BF506A002090B58FB000AF78607B68FB62664B1B7800
