:400000000080002011000000414301004143010080B500AF024A034B1B68136014F0BCF9BC760040FA46004010B5054C237833B9044B13B10448AFF300800123237010BD44
:4000400008CDFF1F00000000A0A00100084B10B51BB108480849AFF300800848036803B910BD074B002BFBD0BDE81040184700BF00000000A0A001000CCDFF1F0881FF1F27
:400080000000000080B582B000AF0023FB7118E0FB794FF4867202FB03F30D4A13443B603B681B78DBB2C22B08D13B68D3F808315B6838689847386800F0C6F8FB79013350
:4000C000FB71FB79132BE3D90837BD4680BD00BF64CDFF1F80B485B000AF0346FB710B4BFB6008E0FB681B78FA799A4200D106E0FB684C33FB60FB681B78A52BF2D1FB680E
:4001000018461437BD465DF8047B70470C81FF1F90B585B000AF0346FB710023FB600023FB7245E0FB7A264A4FF4867101FB03F313441B78DBB2C02B37D1FB7A204A4FF42F
:40014000867101FB03F31344C1221A70FB7A1C4A4FF4867101FB03F3134400225A80FC7AFB791846FFF7B6FF0146154A4FF4867303FB04F3134403F584731960FB7A4FF437
:40018000867202FB03F30E4A13440433184600214FF4807219F019FBFB7A4FF4867202FB03F3074A1344FB6005E0FB7A0133FB72FB7A132BB6D9FB6818461437BD4690BD5E
:4001C00064CDFF1F80B582B000AF0023FB712DE0FB791B4A4FF4867101FB03F31344C0221A70FB79164A4FF4867101FB03F3134400225A80FB794FF4867202FB03F3104AE7
:4002000013440433184600214FF4807219F0DDFAFB790B4A4FF4867101FB03F3134403F5847300221A60FB790133FB71FB79132BCED9044800F052F80837BD4680BD00BF94
:4002400064CDFF1F8500000080B582B000AF78607B68C0221A707B6800225A807B680433184600214FF4807219F0AFFA7B680022C3F808210837BD4680BD00BF80B584B07E
:4002800000AF03463960FB711346BB800023FB730E4BBB6010E0BB681B78FA799A4208D1BB685B68BA883868114698470346FB7306E0BB680833BB60BB681B78A52BEAD185
:4002C000FB7B18461037BD4680BD00BFD482FF1F80B400AFBD465DF8047B704780B483B000AF78600B4B93F840300F2B0CD8094B93F840305A1CD1B2064A82F840101946E1
:40030000044A7B6842F821300C37BD465DF8047B704700BF54E2FF1F80B582B000AF0023FB7111E0FB790D4A52F823300C4A13600B4B1B68002B03D0094B1B68984700E0E9
:4003400008E0FB790133FB71044B93F84030FA799A42E7D30837BD4680BD00BF54E2FF1F98E2FF1FF0B587B000AFC7E902017A600123FB755FE0FB7D013B7A68D618FB7D1D
:40038000184618F0E3FB02460B464FF000006B4917F0BCF902460B461046194618F0E6FE03461A464FF00003D7E9020118F0FEFE14461D46FB7D013B184618F0D7FB0246D4
:4003C0000B464FF000005D4917F0A0F902460B461046194618F0CAFE03461A464FF00003D7E9020118F0E2FEA41A65EB0305FB7D013B184618F0BAFB02460B464FF00000B6
:400400004E4917F083F902460B461046194618F0ADFE03461A464FF000032046294618F0C5FE02460B46D3B243F03003DBB23370FB7D0133FB75FB7D184618F087FB02469E
:400440000B464FF000003D4917F060F902460B461046194618F08AFE03461A464FF00003D7E9020118F0A2FE10461946D7E90223994208BF90427FF47EAFFB7D013B7A688E
:40048000D618FB7D184618F061FB02460B464FF000002A4917F03AF902460B461046194618F064FE03461A464FF00003D7E9020118F07CFE14461D46FB7D013B184618F0D0
:4004C00055FB02460B464FF000001C4917F01EF902460B461046194618F048FE03461A464FF00003D7E9020118F060FEA41A65EB0305FB7D013B184618F038FB02460B46A5
:400500004FF000000D4917F001F902460B461046194618F02BFE03461A464FF000032046294618F043FE02460B46D3B243F03003DBB233701C37BD46F0BD00BF00002440C3
:4005400080B485B000AF78600B46FB7000237B730023FB7327E0FB78013B7A6813441B787B73FB78023BDBB2BB730FE097F90E3001337A68134497F90E2079680A441278B1
:400580001A70BB7BDBB2013BDBB2BB7397F90E20FB7B9A42EADAFB7B7A6813447A7B1A70FB7B0133FB73FA7BFB78013B9A42D2DB1437BD465DF8047B704700BFB0B584B0FF
:4005C00000AF78600B467B800023FB600023FB7234E0FB7A184618F0B9FA02460B461046194617F08BF804460D46FB7A7A6813441B7803F00F03184618F0B8FA02460B460C
:400600002046294618F018FB02460B4614461D46F86818F09BFA02460B461046194622462B4618F057F902460B461046194618F09DFD0346FB60FB7A0133FB72FB7A9BB28C
:400640007A889A42C5D8FB6818461037BD46B0BD80B485B000AF03460A46FB711346BB71FA79BB795340FB710023FB7312E0FB7903F00103002B07D0FB795B08DBB283F078
:400680007303DB43FB7102E0FB795B08FB71FB7B0133FB73FB7B072BE9D9FB7918461437BD465DF8047B704780B584B000AF78600B467B800023FB730023BB810DE0BB898B
:4006C0007A6813441B78FA7B10461946FFF7C0FF0346FB73BB890133BB81BA897B889A42EDD3FB7B18461037BD4680BD80B584B000AF0023FB732CE0FB7B484A4FF4CC716A
:4007000001FB03F3134400225A70FB7B434A4FF4CC7101FB03F313440122DA70FB7B3F4A4FF4CC7101FB03F3134401229A70FB7B4FF4CC7202FB03F30833384A1344043321
:40074000184600214FF4C07219F03FF8FB7B0133FB73FB7B2D2BCFD90023FB7323E0FB7B2F4A2C2101FB03F3134401221A70FB7B2C2202FB03F32A4A1344013318460021BC
:40078000082219F022F8FB7B2C2202FB03F30833234A1344043318460021082219F015F8FB7B0133FB73FB7B0F2BD8D900F0F0F9B860BB68002B2BD00023FB71FB79BA6868
:4007C000134404225A70FB795A1CFA71BA6802339B001344134A5A60FB79BA68134405225A70FB795A1CFA71BA6802339B0013440D4A5A60FB79BA68134406225A70FB791D
:400800005A1CFA71BA6802339B001344074A5A600748FFF763FD1037BD4680BD9CE2FF1FEC2B002059140000C9140000E5140000F90B00000000000090B585B000AF0023F1
:40084000FB6018F0CBFF0346184618F08FF902460B461046194646A3D3E9002318F016FB02460B46104619464FF00002424B18F0E3F902460B46104619464FF000023F4BCC
:4008800018F028F802460B461046194618F06EFC0346FB8000237B8100BF7B895A1C7A81FA889A42F9D800237B7257E07B7A344A4FF4CC7101FB03F31344DB78DBB2012B7B
:4008C00049D17B7A2E4A4FF4CC7101FB03F3134400221A707B7A2A4A4FF4CC7101FB03F3134400229A807B7A254A4FF4CC7101FB03F313440222DA707C7A16F0EFFE0346C1
:4009000019461F4A4FF4CC7303FB04F313440A46DA807B7A1A4A4FF4CC7101FB03F31344083300221A807B7A4FF4CC7202FB03F30833134A13440433184600214FF4C072DB
:4009400018F043FF7B7A4FF4CC7202FB03F30C4A1344FB6005E07B7A01337B727B7A2D2BA4D9FB6818461437BD4690BDAFF300800000C0FFFFFFDF41000090400000244068
:400980009CE2FF1FAFF3008090B587B000AF0346FB7100237B6118F021FF0346184618F0E5F802460B461046194655A3D3E9002318F06CFA02460B46104619464FF00002C4
:4009C000514B18F039F902460B46104619464FF000024E4B17F07EFF02460B461046194618F0C4FB0346FB8100237B8200BF7B8A5A1C7A82FA899A42F9D800237B7418E00B
:400A00007B7C434A4FF4CC7101FB03F313445B78DBB2FA799A4209D17B7C4FF4CC7202FB03F33B4A13447B617B6964E07B7C01337B747B7C2D2BE3D900237B7457E07B7C30
:400A4000334A4FF4CC7101FB03F31344DB78DBB2012B49D17B7C2E4A4FF4CC7101FB03F3134400221A707B7C294A4FF4CC7101FB03F313440222DA707C7C16F02FFE034611
:400A80001946234A4FF4CC7303FB04F313440A46DA807B7C1E4A4FF4CC7101FB03F31344083300221A807B7C194A4FF4CC7101FB03F3134400229A807B7C4FF4CC7202FBFF
:400AC00003F30833124A13440433184600214FF4C07218F07AFE7B7C4FF4CC7202FB03F30B4A13447B6105E07B7C01337B747B7C2D2BA4D97B6918461C37BD4690BD00BF05
:400B00000000C0FFFFFFDF4100009040000024409CE2FF1FAFF3008080B483B000AF78607B6800225A707B680122DA707B6801229A707B680022DA800C37BD465DF8047B50
:400B4000704700BF80B584B000AF0346FB710023FB7314E0FB7B4FF4CC7202FB03F30B4A1344BB60BB685B78DBB2FA799A4203D1B868FFF7D1FF05E0FB7B0133FB73FB7BFD
:400B80002D2BE7D91037BD4680BD00BF9CE2FF1F80B483B000AF00237B600023FB700023FB701CE0FB78134A2C2101FB03F313441B78DBB2012B0FD1FB780E4A2C2101FB69
:400BC00003F3134403221A70FB782C2202FB03F3084A13447B6005E0FB780133FB70FB780F2BDFD97B6818460C37BD465DF8047B704700BFEC2B0020B0B586B000AF0023F0
:400C0000FB75CEE2FB7D4FF4CC7202FB03F3B44A13443B613B69DB78DBB2032B40F0BE823B699B78DBB2013B072B00F2B78201A252F823F09D110000550C00007F0C00001E
:400C4000A90C0000D30C0000870D0000E90E000043100000FB7D4FF4CC7202FB03F3A04A1344184600F0A8FAFB7D4FF4CC7202FB03F39B4A13441846FFF74EFF8EE2FB7D34
:400C80004FF4CC7202FB03F3954A1344184600F0DFFAFB7D4FF4CC7202FB03F3904A13441846FFF739FF79E2FB7D4FF4CC7202FB03F38B4A1344184600F02AFBFB7D4FF419
:400CC000CC7202FB03F3864A13441846FFF724FF64E216F003FD03461846FB7D804A4FF4CC7101FB03F3134408331B889BB21A464FF47A7303FB02F30344FA7D78494FF4B7
:400D0000CC7000FB02F20A44D28892B29B1AFB60F86817F02BFF02460B46104619464FF00002704B18F0B2F802460B4614461D46FB7D6B4A4FF4CC7101FB03F313449B8890
:400D40009BB2184617F012FF02460B462046294618F002FA0346002B00D11FE2FB7D4FF4CC7202FB03F35E4A1344184600F0D0FAFB7D4FF4CC7202FB03F3594A13441846B1
:400D8000FFF7CAFE0AE216F0A9FC03461846FB7D534A4FF4CC7101FB03F3134408331B889BB21A464FF47A7303FB02F30344FA7D4B494FF4CC7000FB02F20A44D28892B2FF
:400DC0009B1ABB60B86817F0D1FE02460B46104619464FF00002434B18F058F802460B4614461D46FB7D3E4A4FF4CC7101FB03F3134408335B889BB2184617F0B7FE0246CC
:400E00000B462046294618F0A7F90346002B00D1C4E1B86817F0AAFE02460B46104619464FF000022F4B18F031F802460B4614461D46FB7D2A4A4FF4CC7101FB03F31344E6
:400E40009B889BB2184617F091FE02460B462046294618F081F90346002B00D19EE1FB7D4FF4CC7202FB03F31D4A1344184600F0EFF9FC7D16F032FC03461946184A4FF480
:400E8000CC7303FB04F313440A46DA80FB7D144A4FF4CC7101FB03F31344083300221A80FB7D0F4A4FF4CC7101FB03F3134400229A80FB7D0A4A4FF4CC7101FB03F31344FC
:400EC0001B78DBB2002B0AD0FB7D4FF4CC7202FB03F3034A13441846FFF71EFE5EE15DE19CE2FF1F00408F4016F0F8FB03461846FB7DAF4A4FF4CC7101FB03F31344083390
:400F00001B889BB21A464FF47A7303FB02F30344FA7DA7494FF4CC7000FB02F20A44D28892B29B1A7B60786817F020FE02460B46104619464FF000029E4B17F0A7FF024634
:400F40000B4614461D46FB7D994A4FF4CC7101FB03F3134408335B889BB2184617F006FE02460B462046294618F0F6F80346002B00D113E1786817F0F9FD02460B46104602
:400F800019464FF000028B4B17F080FF02460B4614461D46FB7D864A4FF4CC7101FB03F313449B889BB2184617F0E0FD02460B462046294618F0D0F80346002B00D1EDE0CC
:400FC000FB7D4FF4CC7202FB03F3794A1344184600F0F8F9FC7D16F081FB03461946744A4FF4CC7303FB04F313440A46DA80FB7D6F4A4FF4CC7101FB03F31344083300227C
:401000001A80FB7D6A4A4FF4CC7101FB03F3134400229A80FB7D664A4FF4CC7101FB03F313441B78DBB2002B0AD0FB7D4FF4CC7202FB03F35E4A13441846FFF76DFDADE099
:40104000ACE016F04BFB03461846FB7D584A4FF4CC7101FB03F3134408331B889BB21A464FF47A7303FB02F30344FA7D50494FF4CC7000FB02F20A44D28892B29B1A3B605F
:40108000386817F073FD02460B46104619464FF00002484B17F0FAFE02460B4614461D46FB7D434A4FF4CC7101FB03F3134408335B889BB2184617F059FD02460B462046AF
:4010C000294618F049F80346002B00D165E0386817F04CFD02460B46104619464FF00002344B17F0D3FE02460B4614461D46FB7D2F4A4FF4CC7101FB03F313449B889BB258
:40110000184617F033FD02460B462046294618F023F80346002B00D13FE0FB7D4FF4CC7202FB03F3224A1344184600F0F1F8FC7D16F0D4FA034619461D4A4FF4CC7303FB63
:4011400004F313440A46DA80FB7D194A4FF4CC7101FB03F31344083300221A80FB7D144A4FF4CC7101FB03F3134400229A80FB7D0F4A4FF4CC7101FB03F313441B78DBB247
:40118000002B0AD0FB7D4FF4CC7202FB03F3084A13441846FFF7C0FCFFE700BFFB7D0133FB75FB7D2D2B7FF62DAD1837BD46B0BD9CE2FF1F00408F4080B584B000AF78604B
:4011C0000023FB730023BB730023FB7337E00023BB732EE0FA7BBB7B1C492C2000FB02F213440B445B78002B00D125E0FA7BB97B164813469B0013445B0013440B440233B9
:401200009B0003445B68002B0FD0FA7BB97B0F4813469B0013445B0013440B4402339B0003445B687868984700E005E0BB7B0133BB73BB7B072BCDD9FB7B0133FB73FB7B21
:401240000F2BC4D91037BD4680BD00BFEC2B002080B584B000AF78600023FB730023BB7300237B730023BB734AE000237B733DE0BA7B7B7B25492C2000FB02F213440B4414
:401280005B78002B00D134E0BA7B7B7B1F492C2000FB02F213440B445A787B685B78DBB29A4220D1BA7B797B184813469B0013445B0013440B4402339B0003445B68002B1B
:4012C0000ED0BA7B797B114813469B0013445B0013440B4402339B0003445B68786898470123FB7305E07B7B01337B737B7B072BBED9FB7B002B00D005E0BB7B0133BB736D
:40130000BB7B0F2BB1D91037BD4680BDEC2B002080B584B000AF78600023FB730023BB730023FB7345E00023BB733CE0FA7BBB7B23492C2000FB02F213440B445B78002B0A
:4013400000D133E0FA7BBB7B1D492C2000FB02F213440B445A787B685B78DBB29A421FD1FA7BB97B164813469B0013445B0013440B4402339B0003445B68002B0FD0FA7B0A
:40138000B97B0F4813469B0013445B0013440B4402339B0003445B687868984706E005E0BB7B0133BB73BB7B072BBFD9FB7B0133FB73FB7B0F2BB6D91037BD4680BD00BFBD
:4013C000EC2B002080B584B000AF78600023FB730023BB730023FB7335E00023BB732CE0FA7BBB7B1B492C2000FB02F213440B445B78002B00D123E0FA7BB97B15481346C0
:401400009B0013445B0013440B4402339B0003445B68002B0ED0FA7BB97B0E4813469B0013445B0013440B4402339B0003445B6878689847BB7B0133BB73BB7B072BCFD94A
:40144000FB7B0133FB73FB7B0F2BC6D91037BD4680BD00BFEC2B002080B485B000AF78600023FB7325E0FB7B4FF4CC7202FB03F3144A1344BB60BB689B78DBB2072B0ED075
:40148000BB689B78DBB2062B09D0BB689B78DBB2082B04D0BB689B78DBB2052B06D1BB681B899BB201339AB2BB681A81FB7B0133FB73FB7B2D2BD6D91437BD465DF8047BC2
:4014C000704700BF9CE2FF1F80B584B000AF78607B68FB60FB681B7B1846FFF733FB1037BD4680BD80B584B000AF78607B68FB60FB68D3F890311846FFF70EFB1037BD46E6
:4015000080BD00BF80B400AF024B1846BD465DF8047B7047AE2E002080B500AF02480021422218F052F980BDAC2E00200000000080B582B000AF18F051F90346184617F044
:4015400015FB02460B461046194619A3D3E9002317F09CFC02460B46104619464FF00002154B17F069FB02460B46104619464FF00002124B17F0AEF902460B461046194691
:4015800017F0F4FD0346BB800023FB8000BFFB885A1CFA80BA889A42F9D8094B1B78DBB2002BC8D1064B01221A700837BD4680BD0000C0FFFFFFDF4100009040000024402A
:4015C00024CDFF1FAFF3008080B400AF034B00221A70BD465DF8047B704700BF24CDFF1F90B585B000AF0346FB8015F02BFEFB881B0A9BB2DAB21E4B1A70FB88DAB21C4B7C
:401600005A705420002115F0C3FC0346BB81BB89002B2AD10023FB7308E0FB7B144AD35C184615F091FDFB7B0133FB73FB7B012BF3D95420012115F009FD0346BB81BB893B
:40164000002B10D10223FB730AE0FC7B012015F0BBFD03461A46064B1A55FB7B0133FB73FB7B412BF1D915F043FD1437BD4690BDAC2E002080B584B000AF0346FB80002386
:40168000FB73002015F052FE0023BB8115F0DAFDFB881B0A9BB2DAB2184B1A70FB88DAB2164B5A705420002115F072FC0346BB81BB89002B13D10023BB7308E0BB7B0F4ABC
:4016C000D35C184615F040FDBB7B0133BB73BB7B412BF3D915F00CFD052013F099FCBB89002B04D0FB7B5A1CFA73092BCED9012015F01CFE1037BD4680BD00BFAC2E002053
:4017000080B400AF024B1846BD465DF8047B7047F02E002080B500AF02480021102218F054F880BDF02E002080B582B000AF0023FB710023BB7115F085FD6820002115F0D6
:4017400027FC03467B717B79002B53D1002015F0FBFCFB795A1CFA711A46314B9B5C03F07F03DBB2184615F0EFFCFB795A1CFA711A462B4B9B5C03F07F03DBB2184615F0B3
:40178000E3FCFB795A1CFA711A46254B9B5C03F03F03DBB2184615F0D7FCFB795A1CFA711A461F4B9B5C03F00703DBB2184615F0CBFCFB795A1CFA711A46194B9B5C03F069
:4017C0003F03DBB2184615F0BFFCFB795A1CFA711A46134B9B5C03F01F03DBB2184615F0B3FCFB795A1CFA711A460D4B9B5C184615F0AAFC15F07CFC6820002115F0C8FB43
:4018000003467B717B79002B07D10E2015F09CFC042015F099FC15F06BFC0837BD4680BDF02E002090B583B000AF15F00BFD6820002115F0ADFB0346BB80BB88002B02D17B
:40184000002015F081FC15F053FC15F0FBFC6820012115F09DFB0346BB80BB88002B1CD10023FB7116E0FB79052B08D8FC79012015F0AAFC03461A460A4B1A5507E0FC793D
:40188000002015F0A1FC03461A46064B1A55FB790133FB71FB79062BE5D915F029FC0C37BD4690BDF02E002080B582B000AF0023FB710023BB716820002115F069FB03463C
:4018C0007B717B79002B07D10E2015F03DFC042015F03AFC15F00CFC0837BD4680BD00BF80B500AF12F0EEFF13F04EFC14F078F914F0C6FC13F028FE15F05EF900F012F815
:40190000FEF7F4FEFEF75EFCFEF7E2FC0DF0E8F804F0D4FD08F0D6FA00F0EAFF08F0C4FB80BD00BF80B500AF15F08AFE044814F0F7FF15F04FFD034815F0C2FD80BD00BF95
:40194000491900008919000080B582B000AF15F097FE0420FFF718F878607B68002B08D07B6804225A707B6803229A707B680322DA70044B5B680133024A53600837BD460D
:4019800080BD00BF4C5B002080B582B000AF15F041FD0720FEF7F8FF78607B68002B08D07B6807225A707B6803229A707B680322DA700837BD4680BD80B584B000AF786091
:4019C0000B467B8013467B700023FB730023BB811AE015F037FC0720002115F0D9FA0346FB73FB7B002B0CD17B78184615F0ACFBBB897A6813441B78184615F0A5FB15F0CB
:401A000077FBBB890133BB81BA897B889A42E0D3FB7B18461037BD4680BD00BF80B582B000AF78600B467B80164BDB889BB2002B07D0144BDB889BB27A889A4211D2002351
:401A40001CE0104B9B680F4A11687A88084679689847034683F00103DBB2002B01D000230CE07B88084879681A4617F0A3FE054A7B88D380034B01221A7101231846083734
:401A8000BD4680BD002F00200C2F002080B584B000AF78607B68BB60BB68002B16D00023FB730CE0BB68D3F808319B6BFA7BB9680A44127910469847FB7B0133FB73FB7B3E
:401AC0009AB2BB685B889BB29A42EBD31037BD4680BD00BF80B588B000AF78607B683B610023FB61454BBB612E2006F01FFD03461A463B6913441B7BFB730FE0BB691B781B
:401B0000012B08D1BB695B78FA7B9A4203D1BB695B68FB6106E0BB690833BB61BB691B78FF2BEBD1FB69002B65D0FB699B7ADBB2012B00D15FE0FB6903F110023B690C33F0
:401B4000104619464FF4C07217F034FE042006F0EDFC03461A463B6913441B7BBB73BB7B0D2B10D1052006F0E1FC03461A463B6913441B7B7B737B7B184609F07BF902461F
:401B8000FB69DA6008E0BB7B0E2B05D1442009F071F90246FB69DA60FB69DB6804337B617B69002B27D022E0154BD3F8083B14489847B860BB68002B16D0BB687A695A6135
:401BC000BB6800229A61BB68FA69DA61BB68DB69D3F8A037BA68D26910469847084BD3F80C3B0748B96898477B6934337B617B691B68002BD8D12037BD4680BD0483FF1FF7
:401C00002450002080B588B000AF78607B683B610023FB613A4BBB612E2006F087FC03461A463B6913441B7BFB730FE0BB691B78022B08D1BB695B78FA7B9A4203D1BB6922
:401C40005B68FB6106E0BB690833BB61BB691B78FF2BEBD1FB69002B4FD0FB699B7ADBB2012B00D149E0FB6903F110023B690C33104619464FF4C07217F09CFD052006F03B
:401C800055FC03461A463B6913441B7BBB73BB7B184609F0EFF80246FB69DA60FB69DB6804337B617B69002B27D022E0154BD3F8083B14489847B860BB68002B16D0BB6837
:401CC0007A695A61BB6800229A61BB68FA69DA61BB68DB69D3F8A037BA68D26910469847084BD3F80C3B0748B96898477B6934337B617B691B68002BD8D12037BD4680BDFD
:401D00000483FF1F2450002080B588B000AF78600023FB617B683B610023FB7633E0FB7E3D4A4FF4F56101FB03F313449B79DBB2012B25D1FB7E4FF4F56202FB03F3364AA6
:401D40001344FB61FB7E344A4FF4F56101FB03F3134402229A71FB7E0133304A9278934203DB2D4B01229A7112E0FB7E01332A4A4FF4F56101FB03F3134401229A7107E014
:401D8000FB7E0133FB76254B9B78FA7E9A42C6D3FB69002B3CD0472009F06CF80246FB69DA60FB69DB6804337B617B69002B2FD02AE01B4BD3F8083B19489847F860FB680F
:401DC000002B1ED0FB687A695A61FB6800229A61FB68FA69DA61FB68DB69D3F8A037FA68D269104698473B69D3F89421FB681A62FB683A695A620A4BD3F80C3B0848F96850
:401E000098477B6934337B617B691B68002BD0D12037BD4680BD00BF70310020105000202450002080B588B000AF78600023FB617B683B610023FB7616E0FB7E334A4FF489
:401E4000F56101FB03F313449B79DBB2012B08D1FB7E4FF4F56202FB03F32C4A1344FB6107E0FB7E0133FB76294B9B78FA7E9A42E3D3FB69002B46D0FB699B78DBB20B2B79
:401E800041D1FB699B7ADBB2022B3CD1482008F0F1FF0246FB69DA60FB69DB6804337B617B69002B2FD02AE01A4BD3F8083B19489847F860FB68002B1ED0FB687A695A6140
:401EC000FB6800229A61FB68FA69DA61FB68DB69D3F8A037FA68D269104698473B69D3F89421FB681A62FB683A695A62094BD3F80C3B0848F96898477B6934337B617B6980
:401F00001B68002BD0D12037BD4680BD70310020105000202450002090B58DB000AF78607B68FB61994B9B78002B02D1974B01225A70002387F82F3058E097F82F4047203C
:401F400008F098FF0146924A4FF4F56303FB04F313440833596097F82F308D4A4FF4F56101FB03F3134408335B680433BB62BB6A002B36D031E0874BD3F8083B85489847E8
:401F8000B861BB69002B25D0BB69BA6A5A61BB6900229A6197F82F304FF4F56202FB03F37B4A1A44BB69DA61BB69DB69D3F8A037BA69D26910469847FB69D3F89421BB69DE
:401FC0001A62BB69FA695A62724BD3F80C3B7148B9699847BB6A3433BB62BB6A1B68002BC9D197F82F30013387F82F30674B9B7897F82F209A42A0D3002387F82F3058E058
:4020000097F82F40482008F035FF0146604A4FF4F56303FB04F313440833596097F82F305B4A4FF4F56101FB03F3134408335B6804337B627B6A002B36D031E0554BD3F829
:40204000083B5448984778617B69002B25D07B697A6A5A617B6900229A6197F82F304FF4F56202FB03F34A4A1A447B69DA617B69DB69D3F8A0377A69D26910469847FB6934
:40208000D3F894217B691A627B69FA695A62414BD3F80C3B3F48796998477B6A34337B627B6A1B68002BC9D197F82F30013387F82F30364B9B7897F82F209A42A0D300231D
:4020C00087F82F3056E097F82F304FF4F56202FB03F32F4A13443B613B69002B45D03B699B7ADBB2012B00D14DE03B6903F11002FB690C33104619464FF4C07217F05AFBBE
:402100004C2008F0B7FE02463B69DA603B69DB6804333B623B6A002B27D022E01D4BD3F8083B1C489847F860FB68002B16D0FB683A6A5A61FB6800229A61FB683A69DA61D4
:40214000FB68DB69D3F8A037FA68D26910469847104BD3F80C3B0F48F96898473B6A34333B623B6A1B68002BD8D197F82F30013387F82F30054B9B7897F82F209A42A2D309
:40218000FB6901221A703437BD4690BD10500020703100202450002080B588B000AF78607B687B61786800F049FA0023FB777EE0FB7F4FF4F56202FB03F3434A13443B613E
:4021C0003B69002B70D03B699B7ADBB2012B00D176E00023BB77FB7F032B1BD801A252F823F000BFF5210000FD210000052200000D220000354BDB78BB770BE0334B1B79FC
:40220000BB7707E0314B5B79BB7703E02F4B9B79BB7700BF3B690022DA7000237B773FE03B691033184600214FF4C07217F0CDFA452008F01FFE02463B69DA603B69DB682D
:402240000433BB61BB69002B27D022E0204BD3F8083B1F489847F860FB68002B16D0FB68BA695A61FB6800229A61FB683A69DA61FB68DB69D3F8A037FA68D269104698471B
:40228000134BD3F80C3B1248F9689847BB693433BB61BB691B68002BD8D17B7F01337B777A7FBB7F9A42BBD3FB7F0133FB77074B9B78FA7F9A42FFF47BAF7B6901221A70AD
:4022C0002037BD4680BD00BF70310020105000202450002080B588B000AF78607B68BB61BB691B7B184600F0D1FA78617B69002B00F0A580BB695B7BFB747B699B7ADBB201
:40230000012B00D19EE07B69FA7CDA70FFF710F9FFF702F97B691B78184600F05FFA03463B823B8A1846FFF75BF97B69DB78DBB2032B49D801A252F823F000BF4D230000BB
:402340006923000089230000A9230000FFF7DAF80146BB6903F10E02BB691B7D084611461A4617F027FA2FE0FFF7CCF8034603F11001BB6903F10E02BB691B7D0846114699
:402380001A4617F017FA1FE0FFF7BCF8034603F12001BB6903F10E02BB691B7D084611461A4617F007FA0FE0FFF7ACF8034603F13001BB6903F10E02BB691B7D084611462D
:4023C0001A4617F0F7F900BF3B8A1846FFF752F9FFF7FAF8452008F04DFD02467B69DA607B69DB680433FB61FB69002B27D022E0164BD3F8083B15489847F860FB68002B9B
:4024000016D0FB68FA695A61FB6800229A61FB687A69DA61FB68DB69D3F8A037FA68D26910469847094BD3F80C3B0848F9689847FB693433FB61FB691B68002BD8D1BB691D
:4024400001221A702037BD4680BD00BF2450002080B586B000AF78607B683B613B691B7B184600F013FAF860FB68002B3AD0FB689B7ADBB2012B00D137E0462008F0FAFC62
:402480000246FB68DA60FB68DB6804337B617B69002B27D022E0164BD3F8083B14489847B860BB68002B16D0BB687A695A61BB6800229A61BB68FA68DA61BB68DB69D3F88D
:4024C000A037BA68D26910469847094BD3F80C3B0748B96898477B6934337B617B691B68002BD8D13B6901221A701837BD4680BD2450002080B586B000AF7860FFF70CF8FC
:402500004FF40070FFF76CF8FEF7FCFF034600221A704FF40070FFF7ADF8FEF7FDFF4FF41070FFF75DF8FEF7EDFF034600221A704FF41070FFF79EF8FEF7EEFF4FF4207082
:40254000FFF74EF8FEF7DEFF034600221A704FF42070FFF78FF8FEF7DFFF4FF43070FFF73FF8FEF7CFFF034600221A704FF43070FFF780F82E4B00229A702E4B3B613B69BE
:40258000002B51D03B691033184600214FF4C07217F01BF9492008F06DFC02463B69DA603B69DB6804337B617B69002B3CD037E0214BD3F8083B20489847F860FB68002B16
:4025C0002BD0FB6801221A70FB687A695A61FB6800229A61FB683A69DA61FB68DB69D3F8A037FA68D26910469847FB68DB69012283F84827FB68DB69002283F84927FB6828
:40260000DB69FA68D26992F84827D2B21A700A4BD3F80C3B0848F96898477B6934337B617B691B68002BC3D11837BD4680BD00BF10500020703100202450002090B583B0D3
:4026400000AF7860FEF768FF4FF4E070FEF7C8FFFEF758FF03465A7A5C4B9A74FEF752FF03469A7A5A4B1A71FEF756FF4FF4A070FEF7B6FFFEF746FF034601331B781B0289
:402680009CB2FEF73FFF03461B789BB2224613439BB29AB24F4B1A80FEF73EFF4FF4A070FEF79EFFFEF72EFF0346023318460021102217F08AF8FEF725FF0346023300223B
:4026C0001A70FEF71FFF0346033300221A70FEF719FF0346043305221A70FEF713FF0346053300221A704FF4A070FEF7C3FFFEF709FF0346023318460821FDF75FFF0346F9
:402700009AB2324B9A81FEF707FF4FF4C070FEF767FFFEF7F7FE034618460821FDF74EFF03469AB2294BDA81FEF7F6FE4FF40070FEF756FFFEF7E6FE034605331B78002B8F
:402740000CBF01230023DAB2234BDA71FEF7E4FE4FF41070FEF744FFFEF7D4FE034605331B78002B0CBF01230023DAB21A4B83F8AF27FEF7D1FE4FF42070FEF731FFFEF725
:40278000C1FE034605331B78002B0CBF01230023DAB2114B83F8572FFEF7BEFE4FF43070FEF71EFFFEF7AEFE034605331B78002B0CBF01230023DAB2074B03F5B7531F3356
:4027C0001A70FFF771F80C37BD4690BD10500020405B002088CCFF1F7031002080B485B000AF0346FB710023FB81264B9B78022B02D0042B14D03DE0234B1B78FA799A4280
:4028000003D14FF48063FB8109E01F4B93F8A837FA799A4203D14FF48863FB812AE029E0194B1B78FA799A4203D14FF48063FB811FE0154B93F8A837FA799A4203D14FF49A
:402840008863FB8115E0104B93F8503FFA799A4203D14FF49063FB810BE00B4B03F5B75318331B78FA799A4203D14FF49863FB81FFE700BFFB8918461437BD465DF8047B0B
:40288000704700BF105000207031002080B485B000AF0346FB710023FB600023FB7216E0FB7A114A4FF4F56101FB03F313441B78FA799A4208D1FB7A4FF4F56202FB03F321
:4028C000094A1344FB6007E0FB7A0133FB72074B9B78FA7A9A42E3D3FB6818461437BD465DF8047B704700BF703100201050002080B584B000AF07F0ADFDFEF749F9F86089
:40290000FB68002B55D00023FB72FB7AFA6813441B225A70FB7A5A1CFA72FA6802339B001344824A5A60FB7AFA6813441F225A70FB7A5A1CFA72FA6802339B0013447C4ADA
:402940005A60FB7AFA68134407225A70FB7A5A1CFA72FA6802339B001344764A5A60FB7AFA6813440A225A70FB7A5A1CFA72FA6802339B001344704A5A60FB7AFA6813447C
:402980000B225A70FB7A5A1CFA72FA6802339B0013446A4A5A60FB7AFA6813440C225A70FB7A5A1CFA72FA6802339B001344644A5A60FEF7EDF8F860FB68002B55D000235C
:4029C000BB72BB7AFA6813440D225A70BB7A5A1CBA72FA6802339B0013445A4A5A60BB7AFA6813440E225A70BB7A5A1CBA72FA6802339B001344544A5A60BB7AFA68134477
:402A00000F225A70BB7A5A1CBA72FA6802339B0013444E4A5A60BB7AFA68134410225A70BB7A5A1CBA72FA6802339B001344484A5A60BB7AFA68134411225A70BB7A5A1CBD
:402A4000BA72FA6802339B001344424A5A60BB7AFA68134412225A70BB7A5A1CBA72FA6802339B0013443C4A5A60FDF7E5FE78607B68002B0CD07B680D225A707B6842F243
:402A800010729A807B6805229A707B680322DA70FDF7D2FE78607B68002B0CD07B680E225A707B6843F698229A807B6805229A707B680322DA70FDF7BFFE78607B68002BC4
:402AC0000FD07B680A225A707B6844F620629A807B68C8225A817B6806229A707B680322DA70FDF7A9FE78607B68002B0ED07B6812225A707B6800229A807B680A225A810D
:402B00007B6806229A707B680322DA7014F0BAFC03461A46114B1A801148FDF7DFFB1148FDF7DCFB1037BD4680BD00BFD51A0000051C000049310000091D0000251E000051
:402B40003D260000F5240000191F000099210000D522000051240000692B000026CDFF1FB92D0000A92E000080B582B000AF8F4BD3F8103B8D48984778607B68002B00F089
:402B800011817B685B69002B00F00C810023FB700023BB7000237B70854B00221A71844B0022DA80834800214FF4007216F00DFE7B68DB6903F5C873184600214FF4C07282
:402BC00016F003FE00233B7079E07B685A693B7813449B7FFF2B6ED00123BB70FB7883F00103DBB2002B05D07B685A693B7813449B7EFB707B68DB699B78DAB27B68596910
:402C00003B780B449B7F9A4256D17B685B69DB6A002B06D07B685B69DB6A7A68D269104698477B685B695B68002B29D07B68DB695F4A13607B685B691B7E002B06D07B6855
:402C40005B691B7E9AB25A4BDA8004E07B685B69DB68574A93607B685B691B687A68D269104698477B685A697B689A617B6800225A6114F007FC03461A467B68DA8117E0A5
:402C80007B685B691B687A68D269104698477B681B6A002B05D07B681B6A7A68526A10469847424BD3F8143B4048984700237B6001237B7006E005E03B7801333B703B78CA
:402CC000032B82D9BB7883F00103DBB2002B53D07B685B69DB6A002B06D07B685B69DB6A7A68D269104698477B685B695B68002B29D07B68DB692E4A13607B685B691B7EBB
:402D0000002B06D07B685B691B7E9AB2284BDA8004E07B685B69DB68254A93607B685B691B687A68D269104698477B685A697B689A617B6800225A6114F0A4FB03461A46FD
:402D40007B68DA812EE07B685B691B687A68D269104698477B681B6A002B05D07B681B6A7A68526A10469847104BD3F8143B0F48984700237B6015E07B7883F00103DBB253
:402D8000002B0FD0FB78002B07D0084BD3F8143B0648984700237B6004E0044BD3F8043B024898470837BD4680BD00BF24500020002F00200C2F0020B0B582B000AF384B51
:402DC000D3F8103B3648984778607B68002B64D07B689B69002B60D07B689B691B8A002B5BD014F04FFB03461A467B681B8A9BB219464FF47A7303FB01F313447A68D28941
:402E000092B29B1A3B60386815F0B0FE02460B46104619464FF00002224B16F037F802460B4614461D467B689B691B8A184615F09DFE02460B462046294616F08DF9034657
:402E4000002B2AD07B6800221A827B680022DA817B689B899BB201339AB27B689A817B689B699B68002B04D07B689B699B68786898477B689B899BB2052B07D9084BD3F846
:402E8000143B0748984700237B6006E07B689A697B685A617B6800229A610837BD46B0BD2450002000408F4080B582B000AF884B1B79DBB283F00103DBB2002B00D03AE1B7
:402EC000844BD3F8103B8348984778607B68002B00F031817B689B69002B00F02C810023FB700023BB7000237B7000233B706BE07B689A693B78134493F82630FF2B5FD0DF
:402F00000123BB70FB7883F00103DBB2002B06D07B689A693B78134493F82230FB707B68DB6903F5C8726A4BDB889BB210466A491A4616F03FFC7B68DB69654AD28892B2B6
:402F4000A3F810237B689B695B68786898477B68DB699B78DAB27B6899693B780B4493F826309A422DD17B689B691B6B002B04D07B689B691B6B786898477B681B6A002B87
:402F800005D07B681B6A7A68526A104698477B681B7883F00103DBB2002B07D04D4BD3F8143B4C48984700237B6006E07B689A697B685A617B6800229A6101237B7006E003
:402FC00005E03B7801333B703B78032B90D9BB7883F00103DBB2002B48D07B6800221A827B680022DA817B68DB6903F5C872384BDB889BB2104638491A4616F0DBFB7B6813
:40300000DB69334AD28892B2A3F810237B689B695B68786898477B689B691B6B002B04D07B689B691B6B786898477B681B6A002B05D07B681B6A7A68526A104698477B68DC
:403040001B7883F00103DBB2002B07D0214BD3F8143B2048984700237B6056E07B689A697B685A617B6800229A614EE07B7883F00103DBB2002B48D0FB78002B07D0154BF5
:40308000D3F8143B1348984700237B603DE07B689B695B7E002B21D07B68DB889BB2042B07D90C4BD3F8143B0A48984700237B602BE07B68DB889BB201339AB27B68DA8028
:4030C0007B689A697B685A617B6800229A611CE0002F0020245000200C2F00207B681B899BB2002B05D114F0CDF903461A467B681A817B689A697B685A617B6800229A61C8
:403100000E4BD3F8043B0D4898470D4B00221A710B4B0022DA800B4800214FF4007216F054FB7B68DB6903F5C873184600214FF4C07216F04AFB0837BD4680BD24500020F7
:40314000002F00200C2F002080B584B000AF78601B4B1B8801339AB2194B1A80194BD3F8103B18489847F860FB68002B1BD0FB689B69002B17D0FB689B691B8A002B06D01E
:40318000FB681B8A9BB201339AB2FB681A82FB689B695B69002B06D0FB685B899BB201339AB2FB685A8114F06DF903461A46064B1A80034B00221A801037BD4680BD00BF6F
:4031C00028CDFF1F2450002026CDFF1F80B586B000AF78600B467B80364A07F108031068186012791A710523FB827A88FB8A9A4201D8002359E07B681A783B7A9A4237D105
:403200007B88013B7A6813441A78FB8A013B07F118010B4413F8103C9A4229D17B88023B7A6813441A78FB8A023B07F118010B4413F8103C9A421BD17B88033B7A68134470
:403240001A78FB8A033B07F118010B4413F8103C9A420DD17B88043B7A6813441A78FB8A043B07F118010B4413F8103C9A4201D000231AE0FDF7E0FA38613B69002B13D01D
:403280003B691A225A703B6903229A703B690C3318467968082216F08DFA3B697A88A3F88C213B690322DA70012318461837BD4680BD00BFB0A0010080B586B000AF7860A4
:4032C0000B467B800023FB75374A07F108031068186012791A710523BB827A88BB8A9A4201D8FB7D5BE07B681A783B7A9A4237D17B88013B7A6813441A78BB8A013B07F1C0
:4033000018010B4413F8103C9A4229D17B88023B7A6813441A78BB8A023B07F118010B4413F8103C9A421BD17B88033B7A6813441A78BB8A033B07F118010B4413F8103CA6
:403340009A420DD17B88043B7A6813441A78BB8A043B07F118010B4413F8103C9A4201D0FB7D1CE0FDF768FA38613B69002B13D03B691E225A703B6903229A703B690C3325
:4033800018467968082216F015FA3B697A88A3F88C213B690322DA700123FB75FB7D18461837BD4680BD00BFB0A0010080B584B000AF78607B68BB60BB68002B16D0002340
:4033C000FB730CE0BB68D3F808319B6BFA7BB9680A44127910469847FB7B0133FB73FB7B9AB2BB685B889BB29A42EBD31037BD4680BD00BF90B58DB000AF78607B68FB624C
:40340000554B1B78DBB2002B00D0A1E0FB6A03F10C02FB6AB3F88C319BB2DBB21046194603F0F8FC03461A464C4BDA704B4803F099FB4A4B9B78FF2B07D1484B5B79FF2BC7
:4034400003D1464B9B7AFF2B78D0444B9B6B002B03D0424B9B6B41489847404803F0D6FB78627B6A002B14D07B6A3C489847034683F00103DBB2002B0BD0384BFF229A706F
:40348000364B9A78354B5A71344B5A79334B9A725EE0324804F0D0FD304B1B6B3B622F4803F084FCF861FB69002B02D0FB692B4898472A4803F054FD284803F043FCB86170
:4034C000BB69002B02D0BB6924489847AA233B7270237B720023BB72204B1B691B78FB72CC233B7333237B73C323BB733C23FB73A320FCF70DFE78617B69002B12D07B69D2
:4035000008225A807B691A1D7B695B889BB21C4607F1080310461946224616F04BF97B69C2221A700D4803F0D9FB38613B69002B03D03B69094898470AE009E0074803F0FA
:4035400099FBB862BB6A002B02D0BB6A034898473437BD4690BD00BF105000202C83FF1F90B58DB000AF78607B68FB62534B1B78DBB2002B00D09EE0FB6A03F10C02FB6A19
:40358000B3F88C319BB2DBB21046194603F042FC03461A464A4BDA70494803F0E3FA484B9B78FF2B07D1464B5B79FF2B03D1444B9B7AFF2B75D0424B9B6B002B03D0404BC0
:4035C0009B6B3F4898473E4803F020FB78627B6A002B14D07B6A3A489847034683F00103DBB2002B0BD0364BFF229A70344B9A78334B5A71324B5A79314B9A725BE0304853
:4036000004F01AFD2E4803F0D1FB38623B6A002B02D03B6A2A489847294803F0A1FC284803F090FBF861FB69002B02D0FB6924489847AA233B7370237B730023BB73204B08
:403640001B691B78FB73CC233B7433237B74C323BB743C23FB74A420FCF75AFDB861BB69002B12D0BB6908225A80BB691A1DBB695B889BB21C4607F10C031046194622464A
:4036800016F098F8BB69C2221A700D4803F026FB78617B69002B03D07B69094898470AE009E0074803F0E6FAB862BB6A002B02D0BB6A034898473437BD4690BD10500020EF
:4036C0006883FF1FB0B590B004AF786003233B724FF6FF73BB810023FB818523BB727B68FB62FDF725FFFDF717FF4FF4E070FDF777FFFDF707FF03461B7A87F82B30FDF752
:4037000063FFFB6A1B78002B47D1A320FCF700FD78627B6A002B3FD007F1100318460021102216F052F897F82B30012B09D197F82B3007F1100210463C491A4616F088F88F
:4037400008E097F82B3007F11002104638491A4616F07EF87B6A1D1D07F11003184616F0A9F803469BB207F11004009301AA07F1080393E8030082E80300F0204FF4957164
:403780002A46234603F052F903461A467B6A5A807B6AC2221A7046E045E0A420FCF7B8FC38623B6A002B3ED007F1100318460021102216F00AF897F82B30012B09D197F8C6
:4037C0002B3007F11002104618491A4616F040F808E097F82B3007F11002104614491A4616F036F83B6A1D1D07F11003184616F061F803469BB207F11004009301AA07F16D
:40380000080393E8030082E80300F0204FF495712A46234603F00AF903461A463B6A5A803B6AC2221A703037BD46B0BDB8A00100C4A0010090B58DB004AF786003233B72BA
:403840004FF6FF73BB810023FB81C523BB72294BFB617B68BB61BB691B78002B24D1A320FCF756FC78617B69002B1CD07B691C1DF86916F01FF803469BB2009301AA07F1B8
:40388000080393E8030082E803006020EA212246FB6903F0CBF803461A467B695A807B69C2221A7023E022E0A420FCF731FC38613B69002B1BD03B691C1DF86915F0FAFFD4
:4038C00003469BB2009301AA07F1080393E8030082E803006020EA212246FB6903F0A6F803461A463B695A803B69C2221A702437BD4690BDD0A0010090B58DB004AF7860BC
:4039000003233B724FF6FF73BB810023FB81C523BB72294BFB617B68BB61BB691B78002B24D1A320FCF7F4FB78617B69002B1CD07B691C1DF86915F0BDFF03469BB2009386
:4039400001AA07F1080393E8030082E803002020EA212246FB6903F069F803461A467B695A807B69C2221A7023E022E0A420FCF7CFFB38613B69002B1BD03B691C1DF86973
:4039800015F098FF03469BB2009301AA07F1080393E8030082E803002020EA212246FB6903F044F803461A463B695A803B69C2221A702437BD4690BDF0A0010090B587B072
:4039C00000AF78607B687B617B691B78002B4AD10023FB747B691C6B2E2004F0A7FD034623441B7B562B19D1FDF7A2FDFDF794FD4FF40070FDF7F4FDFDF784FD03465B79EE
:403A0000BB74FDF7E1FDBB7C002B03D17B69A4221A7127E07B69A5221A7123E07B691C6B2E2004F083FD034623441B7B572B19D1FDF77EFDFDF770FD4FF42070FDF7D0FD97
:403A4000FDF760FD03465B797B74FDF7BDFD7B7C002B03D17B69A4221A7103E07B69A5221A714DE04CE07B691B78012B48D100233B747B691C6B2E2004F058FD034623445E
:403A80001B7B562B19D1FDF753FDFDF745FD4FF43070FDF7A5FDFDF735FD03465B79FB73FDF792FDFB7B002B03D17B69A4221A7126E07B69A5221A7122E07B691C6B2E203D
:403AC00004F034FD034623441B7B572B18D1FDF72FFDFDF721FD4FF41070FDF781FDFDF711FD03465B79BB73FDF76EFDBB7B002B03D17B69A4221A7102E07B69A5221A715B
:403B00001C37BD4690BD00BFB0B586B000AF78607B687B61786904F051FD03461A464FF4F56303FB02F3464A13443B613B69002B00F083803B69D3F82437386998473B69B5
:403B4000D3F8383738699847F8603B69D3F8283738699847FB68002B6FD00023FB72FB68E3225A70FB7A5A1CFA7219463B691A78FB680B449A70FB7AFA6813449D1C7B69E3
:403B80001C6B242004F0D2FC0346083323441C1D242004F0EFFC0346284621461A4615F009FE242004F0E6FC03461A46FB7A1344FB72FB7AFA6813449D1C7B691C6B252014
:403BC00004F0B4FC0346083323441C1D252004F0D1FC0346284621461A4615F0EBFDFB7AFA6813449C1CFB7AFA6813440233184615F060FE0346DBB220461946FCF7A0FC58
:403C0000252004F0B7FC03461A46FB7A1344FB72FB7A9AB2FB68A3F802213B69D3F82437386998473B69D3F830373869F96898473B69D3F82837386998471837BD46B0BDC6
:403C40007031002080B584B000AF78607B68FB60FB68DB7A1846FEF719FEB8601037BD4680BD00BFF0B58FB004AF786003233B734FF6FF733B8200237B82C523BB734F4B4E
:403C8000BB607B687B627B6A1B78002B4AD1A320FCF73EFA38623B6A002B42D00023FB77BA23BB833B6A00225A803B6A5B889BB21A463B6A13441D1DFB7F9B0007F128020E
:403CC000134453F8204CFB7F9B0007F12802134453F8203C184615F0EDFD03469BB2BE8B009301AA07F10C0393E8030082E803001A2031462A46234602F098FE03461A466A
:403D00003B6A5B889BB213449AB23B6A5A80BB8B2033BB83FB7F0133FB773B6AC2221A7049E048E0A420FCF7F3F9B861BB69002B41D00023FB75BA23BB82BB6900225A8048
:403D4000BB695B889BB21A46BB6913441D1DFB7D9B0007F12802134453F8204CFB7D9B0007F12802134453F8203C184615F0A2FD03469BB2BE8A009301AA07F10C0393E8C4
:403D8000030082E803001A2031462A46234602F04DFE03461A46BB695B889BB213449AB2BB695A80BB8A2033BB82FB7D0133FB75BB69C2221A702C37BD46F0BD9CA101005A
:403DC0002DE9F04196B004AF786003233B7500233B834FF6FF737B838523BB75002387F847300023A7F844300023A7F842307B68FB63F86B04F0E2FB0346032B3ED801A23F
:403E000052F823F0153E00002F3E0000493E0000633E0000D34BDB7887F847304FF40073A7F844304FF44073A7F8423026E0CD4B1B7987F847304FF41073A7F844304FF442
:403E40005073A7F8423019E0C64B5B7987F847304FF42073A7F844304FF46073A7F842300CE0C04B9B7987F847304FF43073A7F844304FF47073A7F8423000BFFB6B1B78A1
:403E8000002B40F00881FDF753FBFDF745FBB7F844301846FDF7A4FBFDF734FB03465A1C07F1100310681860FDF78EFBFDF740FBFDF732FBB7F842301846FDF791FB0023C8
:403EC00087F84130DDE097F8413007F14802134413F8383C013B032B00F2CE8001A252F823F000BFF53E0000533F0000B53F000017400000A320FCF70BF9B863BB6B002B5E
:403F000026D097F84130984A32F8236097F84130954A9B0013445D88BB6B1C1DFDF7F2FA86461023009301AA07F1140393E8030082E80300304629462246734602F076FD65
:403F400003461A46BB6B5A80BB6BC2221A7093E092E0A320FCF7DCF878637B6B002B28D097F84130804A32F8238097F841307E4A9B0013445E887B6B1D1DFDF7C3FA034660
:403F800003F110041023009301AA07F1140393E8030082E80300404631462A46234602F045FD03461A467B6B5A807B6BC2221A7062E061E0A320FCF7ABF838633B6B002B7F
:403FC00028D097F84130684A32F8238097F84130654A9B0013445E883B6B1D1DFDF792FA034603F120041023009301AA07F1140393E8030082E80300404631462A462346C1
:4040000002F014FD03461A463B6B5A803B6BC2221A7031E030E0A320FCF77AF8F862FB6A002B28D097F841304F4A32F8238097F841304D4A9B0013445E88FB6A1D1DFDF7AD
:4040400061FA034603F130041023009301AA07F1140393E8030082E80300404631462A46234602F0E3FC03461A46FB6A5A80FB6AC2221A70FFE700BF97F84130013387F84F
:40408000413097F8412097F847309A42FFF41BAFFDF79AFA0BE1FDF74BFAFDF73DFAB7F844301846FDF79CFAFDF72CFA03465A1C07F10C0310681860FDF786FAFDF738FAB3
:4040C000FDF72AFAB7F842301846FDF789FA002387F84030E2E097F8403007F14802134413F83C3C013B032B00F2D38001A252F823F000BF054100006D410000CF41000051
:4041000031420000A420FCF703F8B862BB6A002B26D097F84030144A32F8236097F84030114A9B0013445D88BB6A1C1DFDF7EAF986461023009301AA07F1140393E80300C0
:4041400082E80300304629462246734602F06EFC03461A46BB6A5A80BB6AC2221A7098E097E000BF10500020A483FF1FA420FBF7CFFF78627B6A002B28D097F840304E4AC5
:4041800032F8238097F840304B4A9B0013445E887B6A1D1DFDF7B6F9034603F110041023009301AA07F1140393E8030082E80300404631462A46234602F038FC03461A46A3
:4041C0007B6A5A807B6AC2221A7062E061E0A420FBF79EFF38623B6A002B28D097F84030354A32F8238097F84030334A9B0013445E883B6A1D1DFDF785F9034603F1200424
:404200001023009301AA07F1140393E8030082E80300404631462A46234602F007FC03461A463B6A5A803B6AC2221A7031E030E0A420FBF76DFFF861FB69002B28D097F85B
:4042400040301D4A32F8238097F840301A4A9B0013445E88FB691D1DFDF754F9034603F130041023009301AA07F1140393E8030082E80300404631462A46234602F0D6FB0B
:4042800003461A46FB695A80FB69C2221A70FFE700BF97F84030013387F8403097F8402097F847309A42FFF416AFFDF78DF94837BD46BDE8F08100BFA483FF1FF0B58FB0FB
:4042C00004AF786003233B734FF6FF733B8200237B82C523BB734F4BBB607B687B627B6A1B78002B4AD1A320FBF712FF38623B6A002B42D00023FB77BA23BB833B6A0022C9
:404300005A803B6A5B889BB21A463B6A13441D1DFB7F9B0007F12802134453F8204CFB7F9B0007F12802134453F8203C184615F0C1FA03469BB2BE8B009301AA07F10C037C
:4043400093E8030082E803001A2031462A46234602F06CFB03461A463B6A5B889BB213449AB23B6A5A80BB8B2033BB83FB7F0133FB773B6AC2221A7049E048E0A420FBF7BE
:40438000C7FEB861BB69002B41D00023FB75BA23BB82BB6900225A80BB695B889BB21A46BB6913441D1DFB7D9B0007F12802134453F8204CFB7D9B0007F12802134453F86F
:4043C000203C184615F076FA03469BB2BE8A009301AA07F10C0393E8030082E803001A2031462A46234602F021FB03461A46BB695B889BB213449AB2BB695A80BB8A2033B2
:40440000BB82FB7D0133FB75BB69C2221A702C37BD46F0BDC4A10100B0B586B000AF78607B687B61786904F0C9F803461A464FF4F56303FB02F3524A13443B613B69D3F86C
:404440002437386998473B69D3F8383738699847F8603B69D3F8283738699847FB68002B00F08A800023FB72FB68A2225A70FB7A5A1CFA7219463B691A78FB680B449A70AC
:40448000FB7A5A1CFA721D467B691C6B072004F04DF8034623441A7BFB682B449A70FB7AFA6813449D1C7B691C6B122004F03EF80346083323441C1D122004F05BF80346C2
:4044C000284621461A4615F075F9FB7AFA6813449C1C122004F04EF8034620461946FCF72FF8122004F046F803461A46FB7A1344FB72FB7AFA6813449D1C7B691C6B0E20D4
:4045000004F014F80346083323441C1D0E2004F031F80346284621461A4615F04BF9FB7AFA6813449C1C0E2004F024F8034620461946FCF705F80E2004F01CF803461A4644
:40454000FB7A1344FB72FB7A9AB2FB68A3F802213B69002283F888273B69D3F82437386998473B69D3F830373869F96898473B69D3F82837386998471837BD46B0BD00BF63
:404580007031002090B585B000AF78607B68FB60F86804F013F803461A464FF4F56303FB02F31C4A1344BB60BB6893F88837DBB2002B28D0BB68002283F88827FB681C6B17
:4045C0000B2003F0B3FF0346083323441C1D0B2003F0D0FF0346204600211A4615F0F5F8FB681C6B0B2003F0A1FF0346234439221A73FB681C6B052003F098FF034623442F
:4046000044221A7302E0BB6808221A721437BD4690BD00BF7031002090B585B000AF78607B68FB60FB68002B3DD0FCF781FFFCF773FF4FF4A070FCF7D3FFFCF763FF034649
:4046400001331B781B029CB2FCF75CFF03461B789BB2224613439BB27B81FCF7B5FFFB681D3318460021102215F0AFF87A894FF00003F96801F11D04104619462246FBF70B
:4046800071FEFB681D33184615F014F90346DAB2FB681A77FB6803F11D02FB681B7F10461946FBF74DFF1437BD4690BDF0B58BB004AF78607B687B617B69002B65D07B694C
:4046C0001B699A8D7B691A837B691B69DA8D7B695A837B691B78002B2CD1A320FBF718FD38613B69002B24D07B69B3F818E07B695E8B3B691D1D7B6903F11D047B691B69A6
:4047000093F830309BB27A691269009301AB32321068516803C3704631462A46234602F085F903461A463B695A803B69C2221A702BE02AE0A420FBF7EBFCF860FB68002B02
:4047400023D07B69B3F818E07B695E8BFB681D1D7B6903F11D047B691B6993F830309BB27A691269009301AB32321068516803C3704631462A46234602F058F903461A46D2
:40478000FB685A80FB68C2221A701C37BD46F0BDB0B584B000AF78607B68BB60BB68002B58D00023FB8100237B732EE0BB681B7F1A467B7BD31A013B184614F0D7F90246E0
:4047C0000B464FF00000254912F0A0FF04460D467B7BBA6813445B7F03F00F03184614F0C5F902460B462046294614F025FA02460B461046194614F0B9FC03469AB2FB895E
:404800001344FB817B7B01337B73BB681B7F7A7B9A42CBD3FCF78CFEFCF77EFE4FF4A070FCF7DEFEFCF76EFE0346FA89D2B21A70FCF768FE03460133FA89120A92B2D2B2DD
:404840001A704FF4A070FCF715FF054AFB891380FCF7BAFE1037BD46B0BD00BF0000244088CCFF1F90B585B000AF78607B68FB60FB68002B32D0FCF75BFEFCF74DFE4FF45B
:40488000E070FCF7ADFEFCF73DFE03465B7AFB72FCF79AFEFB681D3318460021102214F094FFFA7A4FF00003F96801F11D04104619462246FBF756FDFB681D33184614F02A
:4048C000F9FF0346DAB2FB681A77FB6803F11D02FB681B7F10461946FBF732FE1437BD4690BD00BFF0B58BB004AF78607B687B617B69002B65D07B691B699A8D7B691A83D5
:404900007B691B69DA8D7B695A837B691B78002B2CD1A320FBF7FCFB38613B69002B24D07B69B3F818E07B695E8B3B691D1D7B6903F11D047B691B6993F830309BB27A6992
:404940001269009301AB32321068516803C3704631462A46234602F069F803461A463B695A803B69C2221A702BE02AE0A420FBF7CFFBF860FB68002B23D07B69B3F818E09B
:404980007B695E8BFB681D1D7B6903F11D047B691B6993F830309BB27A691269009301AB32321068516803C3704631462A46234602F03CF803461A46FB685A80FB68C222A3
:4049C0001A701C37BD46F0BDB0B584B000AF78607B68BB60BB68002B50D00023FB730023BB732FE0BB681B7F1A46BB7BD31A013B184614F0BBF802460B464FF000002149DA
:404A000012F084FE04460D46BB7BBA6813445B7F03F00F03184614F0A9F802460B462046294614F009F902460B461046194614F09DFB03469BB2DAB2FB7B1344FB73BB7BD3
:404A40000133BB73BB681B7FBA7B9A42CAD3FCF76FFDFCF761FD4FF4E070FCF7C1FDFCF751FD03460933FA7B1A704FF4E070FCF701FE054AFB7B9374FCF7A6FD1037BD467F
:404A8000B0BD00BF000024401050002080B586B000AF78607B687B617B691B78002B22D1FBF7CAFE38613B69002B1BD07B693A695A633B697A69C3F890213B6922225A70AA
:404AC0003B6964225A813B6941F288329A803B69194AC3F894213B6906229A703B690322DA7025E024E07B691B78012B20D1FBF7A3FEF860FB68002B1AD07B69FA685A63A3
:404B0000FB687A69C3F89021FB6823225A70FB6864225A81FB6841F288329A80FB68064AC3F89421FB6806229A70FB680322DA701837BD4680BD00BF714B000080B485B026
:404B400000AF78607B68FB60FB685B6B002B0AD0FB685B6B002B03D0FB685B6B01221A70FB6800225A631437BD465DF8047B704780B588B000AF78607B68FB61FB69D3F8C8
:404B80009031BB61BB69002B38D0BB6913229A72BB6903F11D02FB690C3310461946082214F008FEBB6908221A77FBF745FE78617B69002B22D0134A07F10C031068516816
:404BC00003C3BB691B78002B03D17B691A225A7002E07B691E225A707B6903229A707B690C331A4607F10C0303CB106051607B690822A3F88C217B690322DA702037BD46F0
:404C000080BD00BFECA10100B0B590B004AF786004233B724FF6FF73BB810023FB81C523BB727B68BB62BB6A1B78002B40F00482BB6A1B691B783E2B40F0FE81A320FBF79D
:404C400067FA78627B6A002B00F01481002387F82F30FCF76DFCFCF75DFDFCF7E3FD07F1100318460021082214F0AFFDFCF748FD034602331B7803F04003002B32D097F848
:404C80002F305A1C87F82F201C46FCF739FD034602331B781B09DBB2DBB203F00103DBB243F03003DBB2DAB207F13003234403F8202C97F82F305A1C87F82F201C46FCF714
:404CC0001FFD034602331B78DBB203F00F03DBB243F03003DBB2DAB207F13003234403F8202C31E097F82F305A1C87F82F201C46FCF706FD034602331B781B09DBB2DBB226
:404D000003F00303DBB243F03003DBB2DAB207F13003234403F8202C97F82F305A1C87F82F201C46FCF7ECFC034602331B78DBB203F00F03DBB243F03003DBB2DAB207F17F
:404D40003003234403F8202C97F82F305A1C87F82F2007F1300213443A2203F8202C97F82F305A1C87F82F201C46FCF7C9FC034601331B781B09DBB2DBB203F00703DBB2D8
:404D800043F03003DBB2DAB207F13003234403F8202C97F82F305A1C87F82F201C46FCF7AFFC034601331B78DBB203F00F03DBB243F03003DBB2DAB207F13003234403F82E
:404DC000202C97F82F305A1C87F82F2007F1300213443A2203F8202C97F82F305A1C87F82F201C46FCF78CFC03461B781B09DBB2DBB203F00703DBB243F03003DBB2DAB2DF
:404E000007F13003234403F8202C97F82F305A1C87F82F201C46FCF773FC03461B78DBB203F00F03DBB243F03003DBB2DAB207F13003234403F8202CFCF7C6FB7B6A1D1D7D
:404E400097F82F309BB207F11004009301AA07F1080393E8030082E80300C920BA212A46234601F0E3FD03461A467B6A5A807B6AC2221A70A320FBF74BF978627B6A002BB3
:404E800000F0D980002387F82330FCF751FBFCF741FCFCF7C7FC07F1100318460021082214F093FC97F823305A1C87F823201C46FCF726FC034604331B781B09DBB2DBB266
:404EC00003F00303DBB243F03003DBB2DAB207F13003234403F8202C97F823305A1C87F823201C46FCF70CFC034604331B78DBB203F00F03DBB243F03003DBB2DAB207F1B4
:404F00003003234403F8202C97F823305A1C87F8232007F1300213442F2203F8202C97F823305A1C87F823201C46FCF7E9FB034605331B781B09DBB2DBB203F00103DBB234
:404F400043F03003DBB2DAB207F13003234403F8202C97F823305A1C87F823201C46FCF7CFFB034605331B78DBB203F00F03DBB243F03003DBB2DAB207F13003234403F861
:404F8000202C97F823305A1C87F8232007F1300213442F2203F8202C97F823305A1C87F823201C46FCF7ACFB034606331B781B09DBB2DBB243F03003DBB2DAB207F130035F
:404FC000234403F8202C97F823305A1C87F823201C46FCF795FB034606331B78DBB203F00F03DBB243F03003DBB2DAB207F13003234403F8202CFCF7E7FA7B6A1D1D97F8F6
:4050000023309BB207F11004009301AA07F1080393E8030082E80300C9204FF495712A46234601F003FD03461A467B6A5A807B6AC2221A70F5E1F4E1BB6A1B78012B40F022
:40504000F081BB6A1B691B783E2B40F0EA81A420FBF75EF8F861FB69002B00F01481002387F82E30FCF764FAFCF754FBFCF7DAFB07F1100318460021082214F0A6FBFCF75F
:405080003FFB034602331B7803F04003002B32D097F82E305A1C87F82E201C46FCF730FB034602331B781B09DBB2DBB203F00103DBB243F03003DBB2DAB207F130032344AE
:4050C00003F8202C97F82E305A1C87F82E201C46FCF716FB034602331B78DBB203F00F03DBB243F03003DBB2DAB207F13003234403F8202C31E097F82E305A1C87F82E200A
:405100001C46FCF7FDFA034602331B781B09DBB2DBB203F00303DBB243F03003DBB2DAB207F13003234403F8202C97F82E305A1C87F82E201C46FCF7E3FA034602331B7883
:40514000DBB203F00F03DBB243F03003DBB2DAB207F13003234403F8202C97F82E305A1C87F82E2007F1300213443A2203F8202C97F82E305A1C87F82E201C46FCF7C0FA25
:40518000034601331B781B09DBB2DBB203F00703DBB243F03003DBB2DAB207F13003234403F8202C97F82E305A1C87F82E201C46FCF7A6FA034601331B78DBB203F00F03F8
:4051C000DBB243F03003DBB2DAB207F13003234403F8202C97F82E305A1C87F82E2007F1300213443A2203F8202C97F82E305A1C87F82E201C46FCF783FA03461B781B0974
:40520000DBB2DBB203F00703DBB243F03003DBB2DAB207F13003234403F8202C97F82E305A1C87F82E201C46FCF76AFA03461B78DBB203F00F03DBB243F03003DBB2DAB20F
:4052400007F13003234403F8202CFCF7BDF9FB691D1D97F82E309BB207F11004009301AA07F1080393E8030082E80300C920BA212A46234601F0DAFB03461A46FB695A8052
:40528000FB69C2221A70A420FAF742FFF861FB69002B00F0C6800023FB76FCF749F9FCF739FAFCF7BFFA07F1100318460021082214F08BFAFB7E5A1CFA761C46FCF720FA62
:4052C000034604331B781B09DBB2DBB203F00303DBB243F03003DBB2DAB207F13003234403F8202CFB7E5A1CFA761C46FCF708FA034604331B78DBB203F00F03DBB243F064
:405300003003DBB2DAB207F13003234403F8202CFB7E5A1CFA7607F1300213442F2203F8202CFB7E5A1CFA761C46FCF7E9F9034605331B781B09DBB2DBB203F00103DBB264
:4053400043F03003DBB2DAB207F13003234403F8202CFB7E5A1CFA761C46FCF7D1F9034605331B78DBB203F00F03DBB243F03003DBB2DAB207F13003234403F8202CFB7E53
:405380005A1CFA7607F1300213442F2203F8202CFB7E5A1CFA761C46FCF7B2F9034606331B781B09DBB2DBB243F03003DBB2DAB207F13003234403F8202CFB7E5A1CFA7685
:4053C0001C46FCF79DF9034606331B78DBB203F00F03DBB243F03003DBB2DAB207F13003234403F8202CFCF7EFF8FB691D1DFB7E9BB207F11004009301AA07F1080393E830
:40540000030082E80300C9204FF495712A46234601F00CFB03461A46FB695A80FB69C2221A703037BD46B0BD80B586B000AF78607B687B617B691B78002B20D11C20FBF7F7
:40544000A3FA38613B69002B18D07B693A695A633B697A69C3F890213B691C4AC3F894213B691C225A703B6906229A703B694FF47A725A813B690322DA7023E022E07B6962
:405480001B78012B1ED12020FBF77EFAF860FB68002B17D07B69FA685A63FB687A69C3F89021FB68094AC3F89421FB6820225A70FB6806229A70FB684FF47A725A81FB6818
:4054C0000322DA701837BD4680BD00BF094C000080B487B000AF78607B687B617B691B78002B0AD17B695B6B3B613B69002B03D03B6901221A700DE00CE07B691B78012BB7
:4055000008D17B695B6BFB60FB68002B02D0FB6801221A701C37BD465DF8047B704700BF80B584B000AF78607B68FB60FB68D3F89431002B07D0FB68D3F89431FA68D2F83B
:405540009021104698471037BD4680BD80B586B000AF78607B687B617B691B78002B1ED11D20FBF711FA38613B69002B16D01E4B00229A707B693A695A633B697A69C3F8D9
:4055800090213B691D225A703B6906229A703B6964225A813B690322DA7021E020E07B691B78012B1CD12120FBF7EEF9F860FB68002B15D00C4B00225A727B69FA685A63E1
:4055C000FB687A69C3F89021FB6821225A70FB6806229A70FB6864225A81FB680322DA701837BD4680BD00BFB883FF1F80B487B000AF78607B687B617B691B78002B0AD189
:405600007B695B6B3B613B69002B03D03B6901221A700DE00CE07B691B78012B08D17B695B6BFB60FB68002B02D0FB6801221A701C37BD465DF8047B704700BFB0B590B022
:4056400004AF786002233B724FF6FF73BB810023FB81C523BB727B68BB62BB6A1B78002B40F0DE81BB6A1B691B78012B40F0D881A320FAF74DFD78627B6A002B00F0EA8081
:40568000002387F82F30FBF753FFFCF743F8FCF7C9F807F1100318460021082214F095F8FCF72EF8034602331B7803F04003002B32D097F82F305A1C87F82F201C46FCF76A
:4056C0001FF8034602331B781B09DBB2DBB203F00103DBB243F03003DBB2DAB207F13003234403F8202C97F82F305A1C87F82F201C46FCF705F8034602331B78DBB203F053
:405700000F03DBB243F03003DBB2DAB207F13003234403F8202C31E097F82F305A1C87F82F201C46FBF7ECFF034602331B781B09DBB2DBB203F00303DBB243F03003DBB228
:40574000DAB207F13003234403F8202C97F82F305A1C87F82F201C46FBF7D2FF034602331B78DBB203F00F03DBB243F03003DBB2DAB207F13003234403F8202CA74B5B7820
:40578000002B0BD097F82F305A1C87F82F2007F1300213443A2203F8202C0AE097F82F305A1C87F82F2007F130021344202203F8202C97F82F305A1C87F82F201C46FBF7E1
:4057C0009FFF034601331B781B09DBB2DBB203F00703DBB243F03003DBB2DAB207F13003234403F8202C97F82F305A1C87F82F201C46FBF785FF034601331B78DBB203F041
:405800000F03DBB243F03003DBB2DAB207F13003234403F8202CFBF7D7FE7B6A1D1D97F82F309BB207F11004009301AA07F1080393E8030082E8030010204FF4DD712A46E7
:40584000234601F0F3F803461A467B6A5A807B6AC2221A70A320FAF75BFC78627B6A002B00F0DA80002387F82330FBF761FEFBF751FFFBF7D7FF07F11003184600210822E5
:4058800013F0A3FF97F823305A1C87F823201C46FBF736FF034604331B781B09DBB2DBB203F00303DBB243F03003DBB2DAB207F13003234403F8202C97F823305A1C87F89A
:4058C00023201C46FBF71CFF034604331B78DBB203F00F03DBB243F03003DBB2DAB207F13003234403F8202C97F823305A1C87F8232007F1300213442F2203F8202C97F8AA
:4059000023305A1C87F823201C46FBF7F9FE034605331B781B09DBB2DBB203F00103DBB243F03003DBB2DAB207F13003234403F8202C97F823305A1C87F823201C46FBF7F5
:40594000DFFE034605331B78DBB203F00F03DBB243F03003DBB2DAB207F13003234403F8202C97F823305A1C87F8232007F1300213442F2203F8202C97F823305A1C87F8B5
:4059800023201C46FBF7BCFE034606331B781B09DBB2DBB243F03003DBB2DAB207F13003234403F8202C97F823305A1C87F823201C46FBF7A5FE034606331B78DBB203F045
:4059C0000F03DBB243F03003DBB2DAB207F13003234403F8202CFBF7F7FD7B6A1D1D97F823309BB207F11004009301AA07F1080393E8030082E803004FF404704FF4DD71FC
:405A00002A46234601F012F803461A467B6A5A807B6AC2221A70CFE1CEE100BFB883FF1FBB6A1B78012B40F0C781BB6A1B691B78012B40F0C181A420FAF76AFBF861FB6953
:405A4000002B00F0EA80002387F82E30FBF770FDFBF760FEFBF7E6FE07F1100318460021082213F0B2FEFBF74BFE034602331B7803F04003002B32D097F82E305A1C87F824
:405A80002E201C46FBF73CFE034602331B781B09DBB2DBB203F00103DBB243F03003DBB2DAB207F13003234403F8202C97F82E305A1C87F82E201C46FBF722FE03460233BD
:405AC0001B78DBB203F00F03DBB243F03003DBB2DAB207F13003234403F8202C31E097F82E305A1C87F82E201C46FBF709FE034602331B781B09DBB2DBB203F00303DBB22B
:405B000043F03003DBB2DAB207F13003234403F8202C97F82E305A1C87F82E201C46FBF7EFFD034602331B78DBB203F00F03DBB243F03003DBB2DAB207F13003234403F861
:405B4000202C9F4B1B7A002B0BD097F82E305A1C87F82E2007F1300213443A2203F8202C0AE097F82E305A1C87F82E2007F130021344202203F8202C97F82E305A1C87F8FA
:405B80002E201C46FBF7BCFD034601331B781B09DBB2DBB203F00703DBB243F03003DBB2DAB207F13003234403F8202C97F82E305A1C87F82E201C46FBF7A2FD03460133BA
:405BC0001B78DBB203F00F03DBB243F03003DBB2DAB207F13003234403F8202CFBF7F4FCFB691D1D97F82E309BB207F11004009301AA07F1080393E8030082E80300102079
:405C00004FF4DD712A46234600F010FF03461A46FB695A80FB69C2221A70A420FAF778FAF861FB69002B00F0C7800023FB76FBF77FFCFBF76FFDFBF7F5FD07F11003184650
:405C40000021082213F0C1FDFB7E5A1CFA761C46FBF756FD034604331B781B09DBB2DBB203F00303DBB243F03003DBB2DAB207F13003234403F8202CFB7E5A1CFA761C4622
:405C8000FBF73EFD034604331B78DBB203F00F03DBB243F03003DBB2DAB207F13003234403F8202CFB7E5A1CFA7607F1300213442F2203F8202CFB7E5A1CFA761C46FBF702
:405CC0001FFD034605331B781B09DBB2DBB203F00103DBB243F03003DBB2DAB207F13003234403F8202CFB7E5A1CFA761C46FBF707FD034605331B78DBB203F00F03DBB270
:405D000043F03003DBB2DAB207F13003234403F8202CFB7E5A1CFA7607F1300213442F2203F8202CFB7E5A1CFA761C46FBF7E8FC034606331B781B09DBB2DBB243F0300343
:405D4000DBB2DAB207F13003234403F8202CFB7E5A1CFA761C46FBF7D3FC034606331B78DBB203F00F03DBB243F03003DBB2DAB207F13003234403F8202CFBF725FCFB69AC
:405D80001D1DFB7E9BB207F11004009301AA07F1080393E8030082E803004FF404704FF4DD712A46234600F041FE03461A46FB695A80FB69C2221A703037BD46B0BD00BF0C
:405DC000B883FF1FB0B59CB004AF7860042387F834304FF6FF733B8700237B87C52387F836307B68FB65FB6DD3F89031BB65BB6D1B78002B40F02E81BB6D1B691B78012B12
:405E000040F02881A320FAF783F978657B6D002B2DD0894B1B785A1CD1B2874A11701A46854B1344DB7887F83C30834B1B78032B02D9814B00221A707B6D1D1D07F13C04B9
:405E40000123009301AA07F1340393E8030082E803004FF4147012212A46234600F0E6FD03461A467B6D5A807B6DC2221A70724B9B781A46642303FB02F3B3F5FA6F15DD92
:405E8000B86DFFF7DBFB6C4B00229A706A4B5B78002B14BF01230023DBB283F00103DBB203F00103DAB2644B5A7005E0624B9B780133DAB2604B9A70012387F834305F4BE9
:405EC0001B78DBB2002B5FD0A320FAF721F978657B6D002B00F0AF80584B5B78DBB2002B27D0574B3B657B6D1C1D386D13F0E2FC03462046396D1A4613F05CFC7B6D1C1D0C
:405F0000386D13F0D7FC03469BB2009301AA07F1340393E8030082E80300B8204FF4E87122463B6D00F082FD03461A467B6D5A8026E0444BFB647B6D1C1DF86C13F0BAFC68
:405F400003462046F96C1A4613F034FC7B6D1C1DF86C13F0AFFC03469BB2009301AA07F1340393E8030082E80300B8204FF4E8712246FB6C00F05AFD03461A467B6D5A8064
:405F80007B6DC2221A7096E12F4B1B7883F00103DBB2002B4FD0A320FAF7BAF878657B6D002B44D007F10C0318462021282213F00CFC224B9B78042B0CD1244B07F10C0451
:405FC0001D460FCD0FC40FCD0FC495E8030084E803000BE01E4B07F10C041D460FCD0FC40FCD0FC495E8030084E803007B6D1D1D07F10C03184613F05DFC03469BB207F174
:406000000C04009301AA07F1340393E8030082E80300B8204FF4E8712A46234600F006FD03461A467B6D5A807B6DC2221A70064B01221A703FE13EE1B883FF1F10500020E1
:40604000F4A101001CA201002CCDFF1F40A2010068A20100BB6D1B78012B40F02C81BB6D1B691B78012B40F02681A420FAF750F8B864BB6C002B2DD0904BDB795A1CD1B230
:406080008E4AD1711A468D4B13449B7A87F83C308A4BDB79032B02D9884B0022DA71BB6C1D1D07F13C040123009301AA07F1340393E8030082E803004FF4147012212A4646
:4060C000234600F0B3FC03461A46BB6C5A80BB6CC2221A70794B5B7A1A46642303FB02F3B3F5FA6F15DDB86DFFF7A8FA734B00225A72724B1B7A002B14BF01230023DBB256
:4061000083F00103DBB203F00103DAB26B4B1A7205E06A4B5B7A0133DAB2684B5A72012387F83430664B1B78DBB2002B5FD0A420F9F7EEFFB864BB6C002B00F0BC80604BD0
:406140005B78DBB2002B27D05E4B7B64BB6C1C1D786C13F0AFFB03462046796C1A4613F029FBBB6C1C1D786C13F0A4FB03469BB2009301AA07F1340393E8030082E8030035
:40618000B8204FF4E87122467B6C00F04FFC03461A46BB6C5A8026E04B4B3B64BB6C1C1D386C13F087FB03462046396C1A4613F001FBBB6C1C1D386C13F07CFB03469BB2AC
:4061C000009301AA07F1340393E8030082E80300B8204FF4E87122463B6C00F027FC03461A46BB6C5A80BB6CC2221A7063E0374B5B7883F00103DBB2002B5CD0A420F9F7CB
:4062000087FFB864BB6C002B52D007F10C0318462021282213F0D9FABB6C1C1D07F10C03184613F047FB024607F10C032046194613F0C0FA224B9B78042B0CD1244B07F1B4
:406240000C041D460FCD0FC40FCD0FC495E8030084E803000BE01F4B07F10C041D460FCD0FC40FCD0FC495E8030084E80300BB6C1D1D07F10C03184613F01CFB03469BB2DB
:4062800007F10C04009301AA07F1340393E8030082E80300B8204FF4E8712A46234600F0C5FB03461A46BB6C5A80BB6CC2221A70064B01225A706037BD46B0BDB883FF1FA4
:4062C00010500020F4A101001CA201002CCDFF1F40A2010068A2010080B485B000AF78607B68FB60FB68DB78392B05D1054B13221A70044B15225A701437BD465DF8047B25
:40630000704700BF6C31002080B485B000AF78607B68FB60FB68DB788C2B02D08D2B07D00DE0094B15221A70074B15225A7006E0054B13221A70044B13225A7000BF14378C
:40634000BD465DF8047B70476C31002080B586B000AF78600023FB757B683B613B691B6BFB60786802F02AF90346FB72FB7A514A4FF4F56101FB03F31344DB79DBB283F058
:406380000103DBB2002B46D04B4B1B78DBB2012B40D1FB68002B3DD02E2002F0C7F803461A46FB6813441B7B002B33D0042002F0BDF803461A46FB6813441B7BBB72BB7A31
:4063C0000E2B08D03B691B691B78042B22D13B69DB780E2B1ED10123FB753B69FF225A713B695A793B699A72042002F09FF803461A46FB68134400221A732E2002F096F8B8
:4064000003461A46FB68134400221A733B698C229A704AE049E0FB68002B46D02E2002F085F803461A46FB6813441B7B002B3CD0042002F07BF803461A46FB6813441B7B88
:406440007B727B7A452B02D07B7A002B08D13B691B691B78042B28D13B69DB78452B24D0FB7A144A4FF4F56101FB03F31344DB79FB753B69FF225A713B695A793B699A7291
:40648000042002F053F803461A46FB68134400221A732E2002F04AF803461A46FB68134400221A733B692B229A70FB7D18461837BD4680BD70310020405B002080B584B090
:4064C00000AFFAF765FBF860FB68002B47D00023FB72FB7AFA6813441A225A70FB7A5A1CFA72FA6802339B001344544A5A60FB7AFA6813441E225A70FB7A5A1CFA72FA68B2
:4065000002339B0013444E4A5A60FB7AFA68134424225A70FB7A5A1CFA72FA6802339B001344484A5A60FB7AFA6813441C225A70FB7A5A1CFA72FA6802339B001344424AD6
:406540005A60FB7AFA68134420225A70FB7A5A1CFA72FA6802339B0013443B4A5A60FAF717FBF860FB68002B1DD00023BB72BB7AFA6813441D225A70BB7A5A1CBA72FA68B2
:4065800002339B001344314A5A60BB7AFA68134421225A70BB7A5A1CBA72FA6802339B0013442A4A5A6000F057F8FAF745F978607B68002B0BD07B6824225A707B680622C9
:4065C0009A707B680A225A817B680322DA701D20FAF7DAF978607B68002B12D01C4A7B6853637B681A4AC3F890217B681D225A707B6806229A707B6864225A817B6803228D
:40660000DA702120FAF7C0F978607B68002B12D0104A7B6853637B680E4AC3F890217B6821225A707B6806229A707B6864225A817B680322DA701037BD4680BDF533000079
:40664000613500002967000021550000C55D00002C83FF1F6883FF1F90B587B000AFAA233B7370237B730023BB732D4B1B691B78FB73CC233B7433237B74C323BB743C23BA
:40668000FB74A320F9F744FD78617B69002B15D0234B00221A637B6908225A807B691A1D7B695B889BB21C4607F10C0310461946224613F07FF87B69C2221A70AA233B71BB
:4066C00070237B710023BB71164B1B691B78FB71CC233B7233237B72C323BB723C23FB72A420F9F715FD78617B69002B14D00D4B00221A637B6908225A807B691A1D7B69BA
:406700005B889BB21C463B1D10461946224613F051F87B69C2221A701C37BD4690BD00BF2C83FF1F6883FF1F80B594B000AF7860B34BFB64AFE0B34B1B691A78FB6C1B7882
:406740009A4240F0A580002387F84B30FB6C9B88002B50D0AB4B1B8901339AB2A94B1A81A84B1B891A4613469B0013445B00184612F0FCF902460B46C7E91023A14B1B696F
:406780009B88184612F0E2F902460B4610461946D7E9102312F0CCFC0346002B2BD0994B0022DA70974B1B699A79964B9A72FAF743F8F863FB6B002B1AD0934A07F1200351
:4067C0001068516803C3FB6B1A225A70FB6B03229A70FB6B0C331A4607F1200303CB10605160FB6B0822A3F88C21FB6B0322DA70012387F84B3097F84B3083F00103DBB2B9
:40680000002B44D0002387F84A303CE07D4B1A797C4B196997F84A300B44DB7C9A422DD1784B0022DA70774B1A6997F84A3013445A7E744B5A71F9F7FFFFB863BB6B002B24
:406840001BD0714A07F118031068516803C3BB6B1A225A70BB6B03229A70BB6B0C331A4607F1180303CB10605160BB6B0822A3F88C21BB6B0322DA7009E008E097F84A3019
:40688000013387F84A3097F84A30052BBED907E0FB6C4433FB64FB6C1B78FF2B7FF44BAF5A4BFB64B9E05A4B1B691A78FB6C1B789A4240F0AF80002387F84930FB6C9B88F4
:4068C000002B50D0524B1B8901339AB2504B1A814F4B1B891A4613469B0013445B00184612F044F902460B46C7E90C23484B1B699B88184612F02AF902460B4610461946F2
:40690000D7E90C2312F00AFC0346002B2BD0404B0022DA703E4B1B699A793D4B9A72F9F78BFFF862FB6A002B1AD0374A07F110031068516803C3FB6A1E225A70FB6A03227C
:406940009A70FB6A0C331A4607F1100303CB10605160FB6A0822A3F88C21FB6A0322DA70012387F8493097F8493083F00103DBB2002B44D0002387F848303CE0244B1A79C5
:40698000234B196997F848300B44DB7C9A422DD11F4B0022DA701E4B1A6997F8483013445A7E1B4B5A71F9F747FFB862BB6A002B1BD0154A07F108031068516803C3BB6A2E
:4069C0001E225A70BB6A03229A70BB6A0C331A4607F1080303CB10605160BB6A0822A3F88C21BB6A0322DA7009E008E097F84830013387F8483097F84830052BBED911E096
:406A0000D883FF1F2C83FF1F90A20100788EFF1F6883FF1FFB6C4433FB64FB6C1B78FF2B7FF441AF5037BD4680BD00BF80B588B000AFBA607B600346FB810B46BB810023E0
:406A4000FB83BB68002B00F08680454A07F118031068186092889A80FB8BBA681A4407F1180310461946022212F0A4FEFB8B0233FB83FB8B5A1CFA831A46BB681344FA89E9
:406A8000120A92B2D2B21A70FB8B5A1CFA831A46BB681344FA89D2B21A70FB8B5A1CFA831A46BB681344BA89120A92B2D2B21A70FB8B5A1CFA831A46BB681344BA89D2B266
:406AC0001A7097F82C30DBB203F00F03DBB243F02003DBB2DBB23B7497F82E307B740223BB747B8E1B0A9BB2DBB2FB747B8EDBB23B753B8E1B0A9BB2DBB27B753B8EDBB2E8
:406B0000BB75FB8BBA6813441A4607F110031868106099889B7991809371FB8B0733FB83FB8BBA681A443B8D104679681A4612F041FEFA8B3B8D1344FB83FB8BBA681A4475
:406B400007F11803023310461946042212F032FEFB8B0433FB83FB8B18462037BD4680BD98A2010080B487B000AF78607B68FB60FB685B697B613FE07B691A78FB681B6920
:406B80001B789A4235D17B695A78FB681B695B789A422ED17B699A78FB681B699B789A4227D10023FB7420E0FB7C7A691344DA79FB68DB789A4206D1FB7C7A6913445A7BCC
:406BC000FB689A7014E0FB7C7A691344DA7CFB681B799A4206D1FB7C7A6913445A7EFB685A7105E0FB7C0133FB74FB7C052BDBD906E07B6944337B617B691B78FF2BBBD128
:406C00001C37BD465DF8047B704700BF80B487B000AF786000237B617B68FB60FB685B693B611BE03B691A78FB681B691B789A4211D13B695A78FB681B695B789A420AD172
:406C40003B699A78FB681B699B789A4203D13B699B6A7B6106E03B6944333B613B691B78FF2BDFD17B6918461C37BD465DF8047B704700BF80B487B000AF786000237B61AE
:406C80007B68FB60FB685B693B611BE03B691A78FB681B691B789A4211D13B695A78FB681B695B789A420AD13B699A78FB681B699B789A4203D13B695B6A7B6106E03B6954
:406CC00044333B613B691B78FF2BDFD17B6918461C37BD465DF8047B704700BF80B487B000AF786000237B617B68FB60FB685B693B611BE03B691A78FB681B691B789A4215
:406D000011D13B695A78FB681B695B789A420AD13B699A78FB681B699B789A4203D13B691B6A7B6106E03B6944333B613B691B78FF2BDFD17B6918461C37BD465DF8047B0B
:406D4000704700BF80B487B000AF786000237B617B68FB60FB685B693B611BE03B691A78FB681B691B789A4211D13B695A78FB681B695B789A420AD13B699A78FB681B69BE
:406D80009B789A4203D13B69DB6B7B6106E03B6944333B613B691B78FF2BDFD17B6918461C37BD465DF8047B704700BF80B487B000AF786000237B617B68FB60FB685B6964
:406DC0003B611BE03B691A78FB681B691B789A4211D13B695A78FB681B695B789A420AD13B699A78FB681B699B789A4203D13B691B6C7B6106E03B6944333B613B691B786C
:406E0000FF2BDFD17B6918461C37BD465DF8047B704700BF80B485B000AF78600B46FB700023FB73254A07F10803106818600423BB81FB78013B7A6813441A78BB89013B9A
:406E400007F110010B4413F8083C9A422FD1FB78023B7A6813441A78BB89023B07F110010B4413F8083C9A4221D1FB78033B7A6813441A78BB89033B07F110010B4413F8BD
:406E8000083C9A4213D1FB78043B7A6813441A78BB89043B07F110010B4413F8083C9A4205D1FB78053B7A6813441B78FB73FB7B18461437BD465DF8047B7047A0A2010098
:406EC00080B487B000AF786000237B617B68FB60FB685B693B61FB689B78FF2B09D1FB685B79FF2B02D1FB689B7A04E0FB685B7901E0FB689B78FB72FB68DB78BB72FB6855
:406F00001B691B787B7220E03B691B78FA7A9A4218D13B695B787A7A9A4203D03B695B78FF2B0FD13B699B78BA7A9A4207D03B699B78FF2B03D03B695B78FF2B02D13B69D8
:406F40007B6106E03B6944333B613B691B78FF2BDAD17B6918461C37BD465DF8047B704780B584B000AF78607B68FB60F868FFF7A7FF0246FB681A61FB68FF229A70FB6828
:406F8000FF225A71FB6800221A71FB68FF229A72FB680022DA70FB6800221A81FB681D3318460021102212F010FC10F097FB03461A46FB68DA80FB6800221A77FB681D3323
:406FC00018460021102212F000FC1037BD4680BD80B485B000AF78600023FB737B68BB60BB681B7F002B01D00123FB73FB7B18461437BD465DF8047B704700BF90B58DB0A3
:4070000000AF7860002387F82F307B68BB62BB6A1B7F002B03D0012387F82F3002E0002387F82F3097F82F30002B00F08280BB6A1B7FC3F1100387F82730BB6A07F10C0492
:407040001D33186859689A68DB680FC4BB6A1B7F87F82E300EE097F92E3007F130021344002203F8242C97F82E30DBB20133DBB287F82E3097F92E300F2BECDDBB6A1B7F39
:40708000013BDBB287F82E3022E097F92E2097F82730134497F92E2007F130010A4412F8242C02F00F02D2B207F130010B4403F8242C97F92E3007F130021344002203F888
:4070C000242C97F82E30DBB2013BDBB287F82E3097F92E30002BD8DA07F10C031846102107F028FC07F10C0318461021F9F728FA07F10C0318461021F9F760FA3862FAF791
:4071000017FAFAF709FA4FF4A070FAF769FAFAF7F9F90346023318461021F9F74FFAF861FAF752FA3A6AFB699A4202D2002387F82F3097F82F3018463437BD4690BD00BF65
:4071400090B58BB000AF7860002387F827307B683B623B6A1B7F002B03D0012387F8273002E0002387F8273097F82730002B6DD03B6A1B7FC3F11003FB773B6A07F108040E
:407180001D33186859689A68DB680FC43B6A1B7F87F826300EE097F9263007F128021344002203F8202C97F82630DBB20133DBB287F8263097F926300F2BECDD3B6A1B7F2C
:4071C000013BDBB287F8263021E097F92620FB7F134497F9262007F128010A4412F8202C02F00F02D2B207F128010B4403F8202C97F9263007F128021344002203F8202CA8
:4072000097F82630DBB2013BDBB287F8263097F92630002BD9DA07F1080318461021F9F78FF907F1080318461021F9F7C7F9B861B969094BA3FB0123DA0813461B019B1AD1
