:400000000080002011000000DD690100DD69010080B500AF024A034B1B68136016F00AFDBC760040FA46004010B5054C237833B9044B13B10448AFF300800123237010BD6C
:4000400048D9FF1F000000009CC70100084B10B51BB108480849AFF300800848036803B910BD074B002BFBD0BDE81040184700BF000000009CC701004CD9FF1F0881FF1F49
:400080000000000080B582B000AF0023FB7118E0FB794FF4867202FB03F30D4A13443B603B681B78DBB2C22B08D13B68D3F808315B6838689847386800F0C6F8FB79013350
:4000C000FB71FB79132BE3D90837BD4680BD00BFA8D9FF1F80B485B000AF0346FB710B4BFB6008E0FB681B78FA799A4200D106E0FB684C33FB60FB681B78A52BF2D1FB68BE
:4001000018461437BD465DF8047B70470C81FF1F90B585B000AF0346FB710023FB600023FB7245E0FB7A264A4FF4867101FB03F313441B78DBB2C02B37D1FB7A204A4FF42F
:40014000867101FB03F31344C1221A70FB7A1C4A4FF4867101FB03F3134400225A80FC7AFB791846FFF7B6FF0146154A4FF4867303FB04F3134403F584731960FB7A4FF437
:40018000867202FB03F30E4A13440433184600214FF480721BF07DFEFB7A4FF4867202FB03F3074A1344FB6005E0FB7A0133FB72FB7A132BB6D9FB6818461437BD4690BDF5
:4001C000A8D9FF1F80B582B000AF0023FB712DE0FB791B4A4FF4867101FB03F31344C0221A70FB79164A4FF4867101FB03F3134400225A80FB794FF4867202FB03F3104A97
:4002000013440433184600214FF480721BF041FEFB790B4A4FF4867101FB03F3134403F5847300221A60FB790133FB71FB79132BCED9044800F052F80837BD4680BD00BF2A
:40024000A8D9FF1F8500000080B582B000AF78607B68C0221A707B6800225A807B680433184600214FF480721BF013FE7B680022C3F808210837BD4680BD00BF80B584B0C4
:4002800000AF03463960FB711346BB800023FB730E4BBB6010E0BB681B78FA799A4208D1BB685B68BA883868114698470346FB7306E0BB680833BB60BB681B78A52BEAD185
:4002C000FB7B18461037BD4680BD00BFD482FF1F80B400AFBD465DF8047B704780B483B000AF78600B4B93F840300F2B0CD8094B93F840305A1CD1B2064A82F840101946E1
:40030000044A7B6842F821300C37BD465DF8047B704700BF98EEFF1F80B582B000AF0023FB7111E0FB790D4A52F823300C4A13600B4B1B68002B03D0094B1B68984700E099
:4003400008E0FB790133FB71044B93F84030FA799A42E7D30837BD4680BD00BF98EEFF1FDCEEFF1FF0B587B000AFC7E902017A600123FB755FE0FB7D013B7A68D618FB7D7D
:4003800018461AF047FF02460B464FF000006B4919F020FD02460B46104619461BF04AFA03461A464FF00003D7E902011BF062FA14461D46FB7D013B18461AF03BFF0246D0
:4003C0000B464FF000005D4919F004FD02460B46104619461BF02EFA03461A464FF00003D7E902011BF046FAA41A65EB0305FB7D013B18461AF01EFF02460B464FF000001C
:400400004E4919F0E7FC02460B46104619461BF011FA03461A464FF00003204629461BF029FA02460B46D3B243F03003DBB23370FB7D0133FB75FB7D18461AF0EBFE024606
:400440000B464FF000003D4919F0C4FC02460B46104619461BF0EEF903461A464FF00003D7E902011BF006FA10461946D7E90223994208BF90427FF47EAFFB7D013B7A6860
:40048000D618FB7D18461AF0C5FE02460B464FF000002A4919F09EFC02460B46104619461BF0C8F903461A464FF00003D7E902011BF0E0F914461D46FB7D013B18461AF038
:4004C000B9FE02460B464FF000001C4919F082FC02460B46104619461BF0ACF903461A464FF00003D7E902011BF0C4F9A41A65EB0305FB7D013B18461AF09CFE02460B46A8
:400500004FF000000D4919F065FC02460B46104619461BF08FF903461A464FF00003204629461BF0A7F902460B46D3B243F03003DBB233701C37BD46F0BD00BF0000244096
:4005400080B485B000AF78600B46FB7000237B730023FB7327E0FB78013B7A6813441B787B73FB78023BDBB2BB730FE097F90E3001337A68134497F90E2079680A441278B1
:400580001A70BB7BDBB2013BDBB2BB7397F90E20FB7B9A42EADAFB7B7A6813447A7B1A70FB7B0133FB73FA7BFB78013B9A42D2DB1437BD465DF8047B704700BFB0B584B0FF
:4005C00000AF78600B467B800023FB600023FB7234E0FB7A18461AF01DFE02460B461046194619F09FFB04460D46FB7A7A6813441B7803F00F0318461AF01CFE02460B461F
:40060000204629461AF07CFE02460B4614461D46F8681AF0FFFD02460B461046194622462B461AF0BBFC02460B46104619461BF001F90346FB60FB7A0133FB72FB7A9BB2EE
:400640007A889A42C5D8FB6818461037BD46B0BD80B485B000AF03460A46FB711346BB71FA79BB795340FB710023FB7312E0FB7903F00103002B07D0FB795B08DBB283F078
:400680007303DB43FB7102E0FB795B08FB71FB7B0133FB73FB7B072BE9D9FB7918461437BD465DF8047B704780B584B000AF78600B467B800023FB730023BB810DE0BB898B
:4006C0007A6813441B78FA7B10461946FFF7C0FF0346FB73BB890133BB81BA897B889A42EDD3FB7B18461037BD4680BD80B584B000AF0023FB732CE0FB7B484A4FF4CC716A
:4007000001FB03F3134400225A70FB7B434A4FF4CC7101FB03F313440122DA70FB7B3F4A4FF4CC7101FB03F3134401229A70FB7B4FF4CC7202FB03F30833384A1344043321
:40074000184600214FF4C0721BF0A3FBFB7B0133FB73FB7B2D2BCFD90023FB7323E0FB7B2F4A2C2101FB03F3134401221A70FB7B2C2202FB03F32A4A134401331846002153
:4007800008221BF086FBFB7B2C2202FB03F30833234A134404331846002108221BF079FBFB7B0133FB73FB7B0F2BD8D900F0D4FAB860BB68002B2BD00023FB71FB79BA68B1
:4007C000134404225A70FB795A1CFA71BA6802339B001344134A5A60FB79BA68134405225A70FB795A1CFA71BA6802339B0013440D4A5A60FB79BA68134406225A70FB791D
:400800005A1CFA71BA6802339B001344074A5A600748FFF763FD1037BD4680BDF0EEFF1F403800202116000091160000AD160000C10D00000000000090B585B000AF002308
:40084000FB601BF02FFB034618461AF0F3FC02460B461046194646A3D3E900231AF07AFE02460B46104619464FF00002424B1AF047FD02460B46104619464FF000023F4B2D
:400880001AF08CFB02460B46104619461AF0D2FF0346FB8000237B8100BF7B895A1C7A81FA889A42F9D800237B7257E07B7A344A4FF4CC7101FB03F31344DB78DBB2012BA9
:4008C00049D17B7A2E4A4FF4CC7101FB03F3134400221A707B7A2A4A4FF4CC7101FB03F3134400229A807B7A254A4FF4CC7101FB03F313440222DA707C7A19F003FA0346AE
:4009000019461F4A4FF4CC7303FB04F313440A46DA807B7A1A4A4FF4CC7101FB03F31344083300221A807B7A4FF4CC7202FB03F30833134A13440433184600214FF4C072DB
:400940001BF0A7FA7B7A4FF4CC7202FB03F30C4A1344FB6005E07B7A01337B727B7A2D2BA4D9FB6818461437BD4690BDAFF300800000C0FFFFFFDF41000090400000244006
:40098000F0EEFF1FAFF3008080B584B000AF0346FB710023FB731BF085FA034618461AF049FC02460B461046194623A3D3E900231AF0D0FD02460B46104619464FF00002E2
:4009C0001F4B1AF09DFC02460B46104619464FF000021C4B1AF0E2FA02460B46104619461AF028FF03463B810023BB8100BFBB895A1CBA813A899A42F9D80023FB7211E086
:400A0000FB7A114A4FF4CC7101FB03F313445B78DBB2FA799A4202D10123FB7305E0FB7A0133FB72FB7A2D2BEAD9FB7B18461037BD4680BDAFF300800000C0FFFFFFDF4124
:400A40000000904000002440F0EEFF1FAFF3008090B587B000AF0346FB7100237B611BF021FA034618461AF0E5FB02460B461046194655A3D3E900231AF06CFD02460B465D
:400A8000104619464FF00002514B1AF039FC02460B46104619464FF000024E4B1AF07EFA02460B46104619461AF0C4FE0346FB8100237B8200BF7B8A5A1C7A82FA899A4227
:400AC000F9D800237B7418E07B7C434A4FF4CC7101FB03F313445B78DBB2FA799A4209D17B7C4FF4CC7202FB03F33B4A13447B617B6964E07B7C01337B747B7C2D2BE3D9D5
:400B000000237B7457E07B7C334A4FF4CC7101FB03F31344DB78DBB2012B49D17B7C2E4A4FF4CC7101FB03F3134400221A707B7C294A4FF4CC7101FB03F313440222DA7084
:400B40007C7C19F0DFF803461946234A4FF4CC7303FB04F313440A46DA807B7C1E4A4FF4CC7101FB03F31344083300221A807B7C194A4FF4CC7101FB03F3134400229A8092
:400B80007B7C4FF4CC7202FB03F30833124A13440433184600214FF4C0721BF07AF97B7C4FF4CC7202FB03F30B4A13447B6105E07B7C01337B747B7C2D2BA4D97B69184633
:400BC0001C37BD4690BD00BF0000C0FFFFFFDF410000904000002440F0EEFF1FAFF3008080B584B000AF0346FB710023FB7307E0FB7B374A002142F82310FB7B0133FB7382
:400C0000FB7B032BF4D91BF04DF9034618461AF011FB02460B46104619462BA3D3E900231AF098FC02460B46104619464FF00002284B1AF065FB02460B46104619464FF0A3
:400C40000002254B1AF0AAF902460B46104619461AF0F0FD03463B810023BB8100BFBB895A1CBA813A899A42F9D80023FB730023FB721CE0FB7A194A4FF4CC7101FB03F321
:400C800013445B78DBB2FA799A420DD1FB7B5A1CFA731946FB7A4FF4CC7202FB03F30F4A13440B4A42F82130FB7A0133FB72FB7A2D2B02D8FB7B032BDCD9054B1846103714
:400CC000BD4680BDAFF300800000C0FFFFFFDF41E0EEFF1F0000904000002440F0EEFF1F80B483B000AF78607B6800225A707B680122DA707B6801229A707B680022DA801D
:400D00000C37BD465DF8047B704700BF80B584B000AF0346FB710023FB7314E0FB7B4FF4CC7202FB03F30B4A1344BB60BB685B78DBB2FA799A4203D1B868FFF7D1FF05E0AF
:400D4000FB7B0133FB73FB7B2D2BE7D91037BD4680BD00BFF0EEFF1F80B483B000AF00237B600023FB700023FB701CE0FB78134A2C2101FB03F313441B78DBB2012B0FD1CD
:400D8000FB780E4A2C2101FB03F3134403221A70FB782C2202FB03F3084A13447B6005E0FB780133FB70FB780F2BDFD97B6818460C37BD465DF8047B704700BF4038002026
:400DC000B0B586B000AF0023FB75CEE2FB7D4FF4CC7202FB03F3B44A13443B613B69DB78DBB2032B40F0BE823B699B78DBB2013B072B00F2B78201A252F823F06513000012
:400E00001D0E0000470E0000710E00009B0E00004F0F0000B11000000B120000FB7D4FF4CC7202FB03F3A04A1344184600F0A8FAFB7D4FF4CC7202FB03F39B4A134418462B
:400E4000FFF74EFF8EE2FB7D4FF4CC7202FB03F3954A1344184600F0DFFAFB7D4FF4CC7202FB03F3904A13441846FFF739FF79E2FB7D4FF4CC7202FB03F38B4A13441846FC
:400E800000F02AFBFB7D4FF4CC7202FB03F3864A13441846FFF724FF64E218F033FF03461846FB7D804A4FF4CC7101FB03F3134408331B889BB21A464FF47A7303FB02F3B3
:400EC0000344FA7D78494FF4CC7000FB02F20A44D28892B29B1AFB60F8681AF0ABF902460B46104619464FF00002704B1AF032FB02460B4614461D46FB7D6B4A4FF4CC7177
:400F000001FB03F313449B889BB218461AF092F902460B46204629461AF082FC0346002B00D11FE2FB7D4FF4CC7202FB03F35E4A1344184600F0D0FAFB7D4FF4CC7202FBD0
:400F400003F3594A13441846FFF7CAFE0AE218F0D9FE03461846FB7D534A4FF4CC7101FB03F3134408331B889BB21A464FF47A7303FB02F30344FA7D4B494FF4CC7000FB9B
:400F800002F20A44D28892B29B1ABB60B8681AF051F902460B46104619464FF00002434B1AF0D8FA02460B4614461D46FB7D3E4A4FF4CC7101FB03F3134408335B889BB28A
:400FC00018461AF037F902460B46204629461AF027FC0346002B00D1C4E1B8681AF02AF902460B46104619464FF000022F4B1AF0B1FA02460B4614461D46FB7D2A4A4FF444
:40100000CC7101FB03F313449B889BB218461AF011F902460B46204629461AF001FC0346002B00D19EE1FB7D4FF4CC7202FB03F31D4A1344184600F0EFF9FC7D18F062FE4E
:4010400003461946184A4FF4CC7303FB04F313440A46DA80FB7D144A4FF4CC7101FB03F31344083300221A80FB7D0F4A4FF4CC7101FB03F3134400229A80FB7D0A4A4FF473
:40108000CC7101FB03F313441B78DBB2002B0AD0FB7D4FF4CC7202FB03F3034A13441846FFF71EFE5EE15DE1F0EEFF1F00408F4018F028FE03461846FB7DAF4A4FF4CC7137
:4010C00001FB03F3134408331B889BB21A464FF47A7303FB02F30344FA7DA7494FF4CC7000FB02F20A44D28892B29B1A7B6078681AF0A0F802460B46104619464FF0000250
:401100009E4B1AF027FA02460B4614461D46FB7D994A4FF4CC7101FB03F3134408335B889BB218461AF086F802460B46204629461AF076FB0346002B00D113E178681AF0C4
:4011400079F802460B46104619464FF000028B4B1AF000FA02460B4614461D46FB7D864A4FF4CC7101FB03F313449B889BB218461AF060F802460B46204629461AF050FB3B
:401180000346002B00D1EDE0FB7D4FF4CC7202FB03F3794A1344184600F0F8F9FC7D18F0B1FD03461946744A4FF4CC7303FB04F313440A46DA80FB7D6F4A4FF4CC7101FB1E
:4011C00003F31344083300221A80FB7D6A4A4FF4CC7101FB03F3134400229A80FB7D664A4FF4CC7101FB03F313441B78DBB2002B0AD0FB7D4FF4CC7202FB03F35E4A134479
:401200001846FFF76DFDADE0ACE018F07BFD03461846FB7D584A4FF4CC7101FB03F3134408331B889BB21A464FF47A7303FB02F30344FA7D50494FF4CC7000FB02F20A440C
:40124000D28892B29B1A3B60386819F0F3FF02460B46104619464FF00002484B1AF07AF902460B4614461D46FB7D434A4FF4CC7101FB03F3134408335B889BB2184619F050
:40128000D9FF02460B46204629461AF0C9FA0346002B00D165E0386819F0CCFF02460B46104619464FF00002344B1AF053F902460B4614461D46FB7D2F4A4FF4CC7101FBF6
:4012C00003F313449B889BB2184619F0B3FF02460B46204629461AF0A3FA0346002B00D13FE0FB7D4FF4CC7202FB03F3224A1344184600F0F1F8FC7D18F004FD034619468F
:401300001D4A4FF4CC7303FB04F313440A46DA80FB7D194A4FF4CC7101FB03F31344083300221A80FB7D144A4FF4CC7101FB03F3134400229A80FB7D0F4A4FF4CC7101FB0B
:4013400003F313441B78DBB2002B0AD0FB7D4FF4CC7202FB03F3084A13441846FFF7C0FCFFE700BFFB7D0133FB75FB7D2D2B7FF62DAD1837BD46B0BDF0EEFF1F00408F40AC
:4013800080B584B000AF78600023FB730023BB730023FB7337E00023BB732EE0FA7BBB7B1C492C2000FB02F213440B445B78002B00D125E0FA7BB97B164813469B0013443D
:4013C0005B0013440B4402339B0003445B68002B0FD0FA7BB97B0F4813469B0013445B0013440B4402339B0003445B687868984700E005E0BB7B0133BB73BB7B072BCDD9B8
:40140000FB7B0133FB73FB7B0F2BC4D91037BD4680BD00BF4038002080B584B000AF78600023FB730023BB7300237B730023BB734AE000237B733DE0BA7B7B7B25492C20F8
:4014400000FB02F213440B445B78002B00D134E0BA7B7B7B1F492C2000FB02F213440B445A787B685B78DBB29A4220D1BA7B797B184813469B0013445B0013440B44023394
:401480009B0003445B68002B0ED0BA7B797B114813469B0013445B0013440B4402339B0003445B68786898470123FB7305E07B7B01337B737B7B072BBED9FB7B002B00D058
:4014C00005E0BB7B0133BB73BB7B0F2BB1D91037BD4680BD4038002080B584B000AF78600023FB730023BB730023FB7345E00023BB733CE0FA7BBB7B23492C2000FB02F20F
:4015000013440B445B78002B00D133E0FA7BBB7B1D492C2000FB02F213440B445A787B685B78DBB29A421FD1FA7BB97B164813469B0013445B0013440B4402339B000344E6
:401540005B68002B0FD0FA7BB97B0F4813469B0013445B0013440B4402339B0003445B687868984706E005E0BB7B0133BB73BB7B072BBFD9FB7B0133FB73FB7B0F2BB6D9FF
:401580001037BD4680BD00BF4038002080B584B000AF78600023FB730023BB730023FB7335E00023BB732CE0FA7BBB7B1B492C2000FB02F213440B445B78002B00D123E0B6
:4015C000FA7BB97B154813469B0013445B0013440B4402339B0003445B68002B0ED0FA7BB97B0E4813469B0013445B0013440B4402339B0003445B6878689847BB7B013368
:40160000BB73BB7B072BCFD9FB7B0133FB73FB7B0F2BC6D91037BD4680BD00BF4038002080B485B000AF78600023FB7325E0FB7B4FF4CC7202FB03F3144A1344BB60BB68C4
:401640009B78DBB2072B0ED0BB689B78DBB2062B09D0BB689B78DBB2082B04D0BB689B78DBB2052B06D1BB681B899BB201339AB2BB681A81FB7B0133FB73FB7B2D2BD6D972
:401680001437BD465DF8047B704700BFF0EEFF1F80B584B000AF78607B68FB60FB681B7B1846FFF733FB1037BD4680BD80B584B000AF78607B68FB60FB68D3F890311846EB
:4016C000FFF70EFB1037BD4680BD00BF80B400AF024B1846BD465DF8047B7047023B002080B500AF0248002142221AF0D2FB80BD003B002080B400AF034B01221A70BD4629
:401700005DF8047B704700BF64D9FF1F80B400AF034B00221A70BD465DF8047B704700BF64D9FF1F90B585B000AF0346FB8018F09DF8FB881B0A9BB2DAB21E4B1A70FB88FE
:40174000DAB21C4B5A705420002117F035FF0346BB81BB89002B2AD10023FB7308E0FB7B144AD35C184618F003F8FB7B0133FB73FB7B012BF3D95420012117F07BFF03462A
:40178000BB81BB89002B10D10223FB730AE0FC7B012018F02DF803461A46064B1A55FB7B0133FB73FB7B412BF1D917F0B5FF1437BD4690BD003B002080B584B000AF03461C
:4017C000FB800023FB73002018F0C4F80023BB8118F04CF8FB881B0A9BB2DAB2184B1A70FB88DAB2164B5A705420002117F0E4FE0346BB81BB89002B13D10023BB7308E017
:40180000BB7B0F4AD35C184617F0B2FFBB7B0133BB73BB7B412BF3D917F07EFF052015F043FFBB89002B04D0FB7B5A1CFA73092BCED9012018F08EF81037BD4680BD00BF72
:40184000003B002080B400AF024B1846BD465DF8047B7047443B002080B500AF0248002110221AF016FB80BD443B002080B582B000AF0023FB710023BB7117F0F7FF682061
:40188000002117F099FE03467B717B79002B53D1002017F06DFFFB795A1CFA711A46314B9B5C03F07F03DBB2184617F061FFFB795A1CFA711A462B4B9B5C03F07F03DBB24B
:4018C000184617F055FFFB795A1CFA711A46254B9B5C03F03F03DBB2184617F049FFFB795A1CFA711A461F4B9B5C03F00703DBB2184617F03DFFFB795A1CFA711A46194B4A
:401900009B5C03F03F03DBB2184617F031FFFB795A1CFA711A46134B9B5C03F01F03DBB2184617F025FFFB795A1CFA711A460D4B9B5C184617F01CFF17F0EEFE6820002104
:4019400017F03AFE03467B717B79002B07D10E2017F00EFF042017F00BFF17F0DDFE0837BD4680BD443B002090B583B000AF17F07DFF6820002117F01FFE0346BB80BB8847
:40198000002B02D1002017F0F3FE17F0C5FE17F06DFF6820012117F00FFE0346BB80BB88002B1CD10023FB7116E0FB79052B08D8FC79012017F01CFF03461A460A4B1A5509
:4019C00007E0FC79002017F013FF03461A46064B1A55FB790133FB71FB79062BE5D917F09BFE0C37BD4690BD443B002080B582B000AF0023FB710023BB716820002117F0FC
:401A0000DBFD03467B717B79002B07D10E2017F0AFFE042017F0ACFE17F07EFE0837BD4680BD00BF80B500AF15F09AFA15F0F8FE16F01EFC16F06CFF16F0CEF817F0D0FB83
:401A400000F012F8FEF752FEFEF7BCFBFEF740FC0EF0EAFB05F008FB09F092FC01F07AF909F080FD80BD00BF80B500AF18F0FCF8044817F09DFA17F0C1FF034818F034F802
:401A800080BD00BF8D1A0000CD1A000080B582B000AF18F009F90420FEF7DAFF78607B68002B08D07B6804225A707B6803229A707B680322DA70044B5B680133024A536050
:401AC0000837BD4680BD00BF446D002080B582B000AF17F0B3FF0720FEF7BAFF78607B68002B08D07B6807225A707B6803229A707B680322DA700837BD4680BD80B584B053
:401B000000AF78600B467B8013467B700023FB730023BB811AE017F0A9FE0720002117F04BFD0346FB73FB7B002B0CD17B78184617F01EFEBB897A6813441B78184617F041
:401B400017FE17F0E9FDBB890133BB81BA897B889A42E0D3FB7B18461037BD4680BD00BF80B582B000AF78600B467B80184BDB889BB2002B07D0164BDB889BB27A889A4282
:401B800011D200231FE0124B9B68114A11687A88084679689847034683F00103DBB2002B01D000230FE07B880A4879681A461AF065F9074A7B88D380054B01221A71064B8D
:401BC00002221A60012318460837BD4680BD00BF543B0020603B002080E100E080B584B000AF78607B68BB60BB68002B1CD0322015F05AFD0023FB730FE0BB68D3F808315F
:401C00009B6BFA7BB9680A44127910469847012015F04AFDFB7B0133FB73FB7B9AB2BB685B889BB29A42E8D31037BD4680BD00BF80B588B000AF78607B683B610023FB6191
:401C40004C4BBB612E2007F0A5FD03461A463B6913441B7BFB730FE0BB691B78012B08D1BB695B78FA7B9A4203D1BB695B68FB6106E0BB690833BB61BB691B78FF2BEBD11A
:401C8000FB69002B72D0FB6903F120023B690C33104619464FF4C0721AF0F0F80B2007F079FD03461A46FB69134493F82030392B0CBF01230023DAB2FB691A73042007F0F5
:401CC00069FD03461A463B6913441B7BBB73BB7B0D2B10D1052007F05DFD03461A463B6913441B7B7B737B7B18460AF02BFB0246FB69DA6108E0BB7B0E2B05D144200AF043
:401D000021FB0246FB69DA61FB690022DA71FB69DB6904337B617B69002B27D022E0164BD3F8483814489847B860BB68002B16D0BB687A695A61BB6800229A61BB68FA6952
:401D4000DA61BB68DB69D3F8B839BA68D26910469847094BD3F84C380748B96898477B6934337B617B691B68002BD8D12037BD4680BD00BF0483FF1FDC64002080B588B057
:401D800000AF78607B683B610023FB614C4BBB612E2007F0FFFC03461A463B6913441B7BFB730FE0BB691B78022B08D1BB695B78FA7B9A4203D1BB695B68FB6106E0BB69EE
:401DC0000833BB61BB691B78FF2BEBD1FB69002B72D0FB6903F120023B690C33104619464FF4C0721AF04AF80B2007F0D3FC03461A46FB69134493F82030392B0CBF0123C8
:401E00000023DAB2FB691A73042007F0C3FC03461A463B6913441B7BBB73BB7B0D2B10D1052007F0B7FC03461A463B6913441B7B7B737B7B18460AF085FA0246FB69DA61C6
:401E400008E0BB7B0E2B05D144200AF07BFA0246FB69DA61FB690022DA71FB69DB6904337B617B69002B27D022E0164BD3F8483814489847B860BB68002B16D0BB687A69AE
:401E80005A61BB6800229A61BB68FA69DA61BB68DB69D3F8B839BA68D26910469847094BD3F84C380748B96898477B6934337B617B691B68002BD8D12037BD4680BD00BF07
:401EC0000483FF1FDC64002080B588B000AF78600023FB617B683B610023FB7636E0FB7E444A4FF41C6101FB03F3134408335B78DBB2012B27D1FB7E4FF41C6202FB03F345
:401F00003C4A1344FB61FB7E3A4A4FF41C6101FB03F31344083302225A70FB7E0133364A9278934203DB334B01225A7213E0FB7E0133304A4FF41C6101FB03F31344083384
:401F400001225A7007E0FB7E0133FB762A4B9B78FA7E9A42C3D3FB69002B48D0FB6901225A7148200AF0EEF90246FB69DA61FB69DB6904337B617B69002B32D02DE01F4B91
:401F8000D3F848381D489847F860FB68002B21D0FB6800221A70FB687A695A61FB6800229A61FB68FA69DA61FB68DB69D3F8B839FA68D269104698473B69D3F89421FB686E
:401FC0001A62FB683A695A620C4BD3F84C380B48F96898477B6934337B617B691B68002BCDD1F86900F00CF8F86900F057F82037BD4680BDC83D0020C8640020DC640020B6
:4020000080B586B000AF78607B683B613B699B78DBB20B2B04D03B699B78DBB20A2B37D149200AF08FF902463B69DA613B69DB6904337B617B69002B2AD025E0164BD3F819
:40204000483815489847F860FB68002B19D0FB6800221A70FB687A695A61FB6800229A61FB683A69DA61FB68DB69D3F8B839FA68D26910469847084BD3F84C380648F9687E
:4020800098477B6934337B617B691B68002BD5D11837BD4680BD00BFDC64002080B586B000AF78607B683B613B699B78DBB2062B04D03B699B78DBB2072B3CD13B699B793F
:4020C000DBB2002B37D046200AF03CF902463B69DA613B69DB6904337B617B69002B2AD025E0164BD3F8483814489847F860FB68002B19D0FB6800221A70FB687A695A6196
:40210000FB6800229A61FB683A69DA61FB68DB69D3F8B839FA68D26910469847074BD3F84C380648F96898477B6934337B617B691B68002BD5D11837BD4680BDDC6400202C
:4021400090B58DB000AF78607B68FB619E4B9B78002B02D19C4B01225A70002387F82F3000BF994B9B7897F82F209A4252D297F82F304FF41C6202FB03F3944A1344BB61C1
:40218000BB69002B45D0B869FFF73AFFBB6903F12002FB690C33104619464FF4C07219F06DFE4D200AF0CEF80246BB69DA61BB69DB690433BB62BB6A002B2AD025E0844B42
:4021C000D3F848388248984778617B69002B19D07B6900221A707B69BA6A5A617B6900229A617B69BA69DA617B69DB69D3F8B8397A69D26910469847754BD3F84C38744882
:4022000079699847BB6A3433BB62BB6A1B68002BD5D100BF002387F82F305BE097F82F4048200AF08FF80146684A4FF41C6303FB04F313441833596097F82F30634A4FF4F0
:402240001C6101FB03F3134418335B6804337B627B6A002B39D034E05D4BD3F848385C48984738613B69002B28D03B6900221A703B697A6A5A613B6900229A6197F82F3031
:402280004FF41C6202FB03F3504A1A443B69DA613B69DB69D3F8B8393A69D26910469847FB69D3F894213B691A623B69FA695A62474BD3F84C384648396998477B6A3433D9
:4022C0007B627B6A1B68002BC6D197F82F30013387F82F303C4B9B7897F82F209A429DD3002387F82F305BE097F82F4049200AF029F80146354A4FF41C6303FB04F3134481
:402300001833596097F82F30304A4FF41C6101FB03F3134418335B6804333B623B6A002B39D034E02A4BD3F8483829489847F860FB68002B28D0FB6800221A70FB683A6A55
:402340005A61FB6800229A6197F82F304FF41C6202FB03F31D4A1A44FB68DA61FB68DB69D3F8B839FA68D26910469847FB69D3F89421FB681A62FB68FA695A62144BD3F879
:402380004C381348F96898473B6A34333B623B6A1B68002BC6D197F82F30013387F82F30094B9B7897F82F209A429DD3094B1B68002B03D0074B1B68F8699847FB69012269
:4023C0001A703437BD4690BDC8640020C83D0020DC64002068D9FF1F80B588B000AF78607B687B610023FB777AE0FB7F4FF41C6202FB03F3404A13443B613B69002B6CD010
:402400000023BB77FB7F032B1AD801A252F823F021240000292400003124000039240000364BDB78BB770BE0344B1B79BB7707E0324B5B79BB7703E0304B9B79BB7700BF66
:402440003B690022DA7000237B7742E03B692033184600214FF4C07219F01BFD452009F071FF02463B69DA613B69DB690433BB61BB69002B2AD025E0214BD3F8483820486C
:402480009847F860FB68002B19D0FB6800221A70FB68BA695A61FB6800229A61FB683A69DA61FB68DB69D3F8B839FA68D26910469847134BD3F84C381148F9689847BB69BE
:4024C0003433BB61BB691B68002BD5D17B7F01337B777A7FBB7F9A42B8D3FB7F0133FB77064B9B78FA7F9A42FFF47FAF7B6901221A702037BD4680BDC83D0020C864002094
:40250000DC64002090B58DB000AF78607B68BB62BB6A1B7B184600F0EBFB78627B6A002B00F0A081BB6A5A7B7B6ADA70FFF7E2F8FFF7D6F87B6A1B78184600F081FB034600
:402540007B847B8C1846FFF7EDF87B6ADB78DBB2032B00F2458101A252F823F06D25000007260000A526000043270000A64BDB79032B3AD1A44B1B7A022B36D1BB6A03F12E
:402580000E02BB6A1B7D9BB210461946FEF716F8F861FB699D4AA2FB0323DB08184618F039FE02460B461046194617F0C3FB02460B461046194619F03DF90346FB61BB6AF8
:4025C00003F10E02BB6A1B7D104600211A4619F060FCFB691A464FF00003B96A01F10E04104619462246FDF7BDFEFFF76FF80146BB6A03F10E02BB6A1B7D084611461A4656
:4026000019F03CFCECE0804BDB79032B3AD17E4B1B7A022B36D1BB6A03F10E02BB6A1B7D9BB210461946FDF7C9FFB861BB69774AA2FB0323DB08184618F0ECFD02460B4673
:402640001046194617F076FB02460B461046194619F0F0F80346BB61BB6A03F10E02BB6A1B7D104600211A4619F013FCBB691A464FF00003B96A01F10E04104619462246AA
:40268000FDF770FEFFF722F8034603F11001BB6A03F10E02BB6A1B7D084611461A4619F0EDFB9DE0584BDB79032B3AD1564B1B7A022B36D1BB6A03F10E02BB6A1B7D9BB234
:4026C00010461946FDF77AFF78617B694F4AA2FB0323DB08184618F09DFD02460B461046194617F027FB02460B461046194619F0A1F803467B61BB6A03F10E02BB6A1B7D4A
:40270000104600211A4619F0C4FB7B691A464FF00003B96A01F10E04104619462246FDF721FEFEF7D3FF034603F12001BB6A03F10E02BB6A1B7D084611461A4619F09EFB6B
:402740004EE0314BDB79032B3AD12F4B1B7A022B36D1BB6A03F10E02BB6A1B7D9BB210461946FDF72BFF38613B69284AA2FB0323DB08184618F04EFD02460B461046194685
:4027800017F0D8FA02460B461046194619F052F803463B61BB6A03F10E02BB6A1B7D104600211A4619F075FB3B691A464FF00003B96A01F10E04104619462246FDF7D2FD37
:4027C000FEF784FF034603F13001BB6A03F10E02BB6A1B7D084611461A4619F04FFB00BF7B8C1846FEF7E8FFFEF790FF452009F0A9FD02467B6ADA617B6ADB690433FB6208
:40280000FB6A002B2ED029E0C8640020CDCCCCCC174BD3F8483816489847F860FB68002B19D0FB6800221A70FB68FA6A5A61FB6800229A61FB687A6ADA61FB68DB69D3F8C6
:40284000B839FA68D26910469847094BD3F84C380748F9689847FB6A3433FB62FB6A1B68002BD5D1BB6A01221A703437BD4690BDDC64002080B586B000AF78607B683B6123
:402880003B691B7B184600F033FAF860FB68002B37D0472009F056FD0246FB68DA61FB68DB6904337B617B69002B2AD025E0184BD3F8483816489847B860BB68002B19D0DB
:4028C000BB6800221A70BB687A695A61BB6800229A61BB68FA68DA61BB68DB69D3F8B839BA68D26910469847094BD3F84C380848B96898477B6934337B617B691B68002BE7
:40290000D5D13B6901221A701837BD4680BD00BFDC64002080B586B000AF7860FEF7E0FE4FF40070FEF7FEFEFEF7D0FE034600221A704FF40070FEF73FFFFEF7D1FE4FF4E4
:402940001070FEF7EFFEFEF7C1FE034600221A704FF41070FEF730FFFEF7C2FE4FF42070FEF7E0FEFEF7B2FE034600221A704FF42070FEF721FFFEF7B3FE4FF43070FEF70A
:40298000D1FEFEF7A3FE034600221A704FF43070FEF712FF2E4B00229A702E4B3B613B69002B51D03B692033184600214FF4C07219F06FFA4A2009F0C5FC02463B69DA6182
:4029C0003B69DB6904337B617B69002B3CD037E0214BD3F8483820489847F860FB68002B2BD0FB6801221A70FB687A695A61FB6800229A61FB683A69DA61FB68DB69D3F887
:402A0000B839FA68D26910469847FB68DB69012283F86029FB68DB69002283F86129FB68DB69FA68D26992F86029D2B21A700A4BD3F84C380848F96898477B6934337B6177
:402A40007B691B68002BC3D11837BD4680BD00BFC8640020C83D0020DC64002090B583B000AF7860FEF73CFE4FF4E070FEF75AFEFEF72CFE03465A7A6C4B9A74FEF726FEE9
:402A800003469A7A6A4B1A71FEF720FE03460B331B78002B04D0FEF719FE0346DB7A00E01423644A1370FEF711FE03460C331B78002B04D0FEF70AFE03461B7B00E0162348
:402AC0005C4A5370FEF70CFE4FF4A070FEF72AFEFEF7FCFD034601331B781B029CB2FEF7F5FD03461B789BB2224613439BB29AB2514B1A80FEF7F4FD4FF4A070FEF712FEBA
:402B0000FEF7E4FD0346023318460021102219F0C0F9FEF7DBFD0346023300221A70FEF7D5FD0346033300221A70FEF7CFFD0346043305221A70FEF7C9FD03460533002295
:402B40001A704FF4A070FEF737FEFEF7BFFD0346023318460821FDF731FD03469AB2334B9A81FEF7BDFD4FF4C070FEF7DBFDFEF7ADFD034618460821FDF720FD03469AB244
:402B80002A4BDA81FEF7ACFD4FF40070FEF7CAFDFEF79CFD034605331B78002B0CBF01230023DAB2254B9A72FEF79AFD4FF41070FEF7B8FDFEF78AFD034605331B78002B9D
:402BC0000CBF01230023DAB21C4B83F8CA29FEF787FD4FF42070FEF7A5FDFEF777FD034605331B78002B0CBF01230023DAB2134B03F59C530A331A70FEF772FD4FF43070E6
:402C0000FEF790FDFEF762FD034605331B78002B0CBF01230023DAB2084B03F5EA530A331A70FEF7E3FE0C37BD4690BDC8640020386D0020C03D0020C4D8FF1FC83D00201C
:402C400080B485B000AF0346FB710023FB81264B9B78022B02D0042B14D03DE0234B1B78FA799A4203D14FF48063FB8109E01F4B93F8C039FA799A4203D14FF48863FB81CB
:402C80002AE029E0194B1B78FA799A4203D14FF48063FB811FE0154B93F8C039FA799A4203D14FF48863FB8115E0104B03F59C531B78FA799A4203D14FF49063FB810AE00C
:402CC0000A4B03F5EA531B78FA799A4203D14FF49863FB81FFE700BFFB8918461437BD465DF8047B704700BFC8640020C83D002080B485B000AF0346FB710023FB600023DC
:402D0000FB7216E0FB7A114A4FF41C6101FB03F313441B78FA799A4208D1FB7A4FF41C6202FB03F3094A1344FB6007E0FB7A0133FB72074B9B78FA7A9A42E3D3FB68184645
:402D40001437BD465DF8047B704700BFC83D0020C864002080B584B000AF08F0D9FDFDF7FBFFF860FB68002B47D00023FB72FB7AFA6813441C225A70FB7A5A1CFA72FA68FA
:402D800002339B001344824A5A60FB7AFA68134420225A70FB7A5A1CFA72FA6802339B0013447C4A5A60FB7AFA68134407225A70FB7A5A1CFA72FA6802339B001344764A0B
:402DC0005A60FB7AFA6813440A225A70FB7A5A1CFA72FA6802339B001344704A5A60FB7AFA6813440C225A70FB7A5A1CFA72FA6802339B0013446A4A5A60FDF7ADFFF86035
:402E0000FB68002B63D00023BB72BB7AFA6813440D225A70BB7A5A1CBA72FA6802339B001344604A5A60BB7AFA6813440E225A70BB7A5A1CBA72FA6802339B0013445A4AEA
:402E40005A60BB7AFA6813440F225A70BB7A5A1CBA72FA6802339B001344544A5A60BB7AFA68134411225A70BB7A5A1CBA72FA6802339B0013444E4A5A60BB7AFA6813446C
:402E800012225A70BB7A5A1CBA72FA6802339B001344484A5A60BB7AFA68134410225A70BB7A5A1CBA72FA6802339B001344424A5A60BB7AFA68134413225A70BB7A5A1C40
:402EC000BA72FA6802339B0013443C4A5A60FDF7B3FC78607B68002B0CD07B680D225A707B6842F210729A807B6805229A707B680322DA70FDF7A0FC78607B68002B0CD031
:402F00007B680E225A707B6843F698229A807B6805229A707B680322DA70FDF78DFC78607B68002B10D07B680A225A707B6844F620629A807B684FF4FA725A817B68062211
:402F40009A707B680322DA70FDF776FC78607B68002B0ED07B6813225A707B6800229A807B681E225A817B6806229A707B680322DA7016F09BFD03461A46114B1A801148CF
:402F8000FDF7ACF91048FDF7A9F91037BD4680BD311C00007D1D0000BD350000C91E00005D2A00001529000041210000D923000005250000752800009D200000CD2F0000A0
:402FC0006CD9FF1F1D3200001533000080B582B000AF8F4BD3F850388D48984778607B68002B00F011817B685B69002B00F00C810023FB700023BB7000237B70854B00224D
:403000001A71844B0022DA80834800214FF4007218F03FFF7B68DB6903F5D073184600214FF4C07218F035FF00233B7079E07B685A693B7813449B7FFF2B6ED00123BB7099
:40304000FB7883F00103DBB2002B05D07B685A693B7813449B7EFB707B68DB699B78DAB27B6859693B780B449B7F9A4256D17B685B69DB6A002B06D07B685B69DB6A7A6860
:40308000D269104698477B685B695B68002B29D07B68DB695F4A13607B685B691B7E002B06D07B685B691B7E9AB25A4BDA8004E07B685B69DB68574A93607B685B691B6877
:4030C0007A68D269104698477B685A697B689A617B6800225A6116F0E9FC03461A467B681A8217E07B685B691B687A68D269104698477B681B6A002B05D07B681B6A7A6802
:40310000526A10469847424BD3F854384048984700237B6001237B7006E005E03B7801333B703B78032B82D9BB7883F00103DBB2002B53D07B685B69DB6A002B06D07B6858
:403140005B69DB6A7A68D269104698477B685B695B68002B29D07B68DB692E4A13607B685B691B7E002B06D07B685B691B7E9AB2284BDA8004E07B685B69DB68254A93608A
:403180007B685B691B687A68D269104698477B685A697B689A617B6800225A6116F086FC03461A467B681A822EE07B685B691B687A68D269104698477B681B6A002B05D0AD
:4031C0007B681B6A7A68526A10469847104BD3F854380F48984700237B6015E07B7883F00103DBB2002B0FD0FB78002B07D0084BD3F854380648984700237B6004E0044B3B
:40320000D3F84438024898470837BD4680BD00BFDC640020543B0020603B0020B0B582B000AF3A4BD3F850383848984778607B68002B68D07B689B69002B64D07B689B694E
:403240001B8A002B5FD016F031FC03461A467B685B8A9BB219464FF47A7303FB01F313447A68128A92B29B1A3B60386817F0E2FF02460B46104619464FF00002244B18F0E6
:4032800069F902460B4614461D467B689B691B8A184617F0CFFF02460B462046294618F0BFFA0346002B2ED07B6800225A827B6800221A827B68DB899BB201339AB27B687D
:4032C000DA817B689B699B68002B04D07B689B699B68786898477B68DB899BB2142B07D90A4BD3F854380948984700237B6006E07B689A697B685A617B6800229A6114F0E6
:403300004FFE14F0A5FC0837BD46B0BDDC64002000408F4080B582B000AF884B1B79DBB283F00103DBB2002B00D03EE1844BD3F850388348984778607B68002B00F01B8117
:403340007B689B69002B00F016817B6800225A827B6800221A827B68DB6903F5D072774BDB889BB2104677491A4618F087FD7B68DB69724AD28892B2A3F820230023FB7070
:403380000023BB7000237B7000233B7061E07B689A693B78134493F82630FF2B55D00123BB70FB7883F00103DBB2002B06D07B689A693B78134493F82230FB707B689B699C
:4033C0005B68786898477B68DB699B78DAB27B6899693B780B4493F826309A4236D17B681B78DBB283F00103DBB2002B13D07B689B691B6B002B04D07B689B691B6B78680C
:4034000098477B681B6A002B05D07B681B6A7A68526A104698477B681B78DBB283F00103DBB2002B07D0464BD3F854384448984700237B6006E07B689A697B685A617B6863
:4034400000229A6101237B7006E005E03B7801333B703B78032B9AD9BB7883F00103DBB2002B38D07B689B695B68786898477B681B78DBB283F00103DBB2002B13D07B68A4
:403480009B691B6B002B04D07B689B691B6B786898477B681B6A002B05D07B681B6A7A68526A104698477B681B78DBB283F00103DBB2002B07D0224BD3F8543820489847A0
:4034C00000237B6057E07B689A697B685A617B6800229A614FE07B7883F00103DBB2002B49D0FB78002B07D0154BD3F854381448984700237B603EE07B689B695B7E002B3B
:4035000022D07B681B899BB2132B07D90C4BD3F854380B48984700237B602CE07B681B899BB201339AB27B681A817B689A697B685A617B6800229A611DE000BF543B0020FC
:40354000DC640020603B00207B685B899BB2002B05D116F0ABFA03461A467B685A817B689A697B685A617B6800229A61104BD3F844380F4898470F4B00221A710D4B00222C
:40358000DA800D4800214FF4007218F082FC7B68DB6903F5D073184600214FF4C07218F078FC14F0FDFC14F053FB0837BD4680BDDC640020543B0020603B002080B584B02D
:4035C00000AF78601B4B1B8801339AB2194B1A80194BD3F8503818489847F860FB68002B1BD0FB689B69002B17D0FB689B691B8A002B06D0FB685B8A9BB201339AB2FB68F8
:403600005A82FB689B695B69002B06D0FB689B899BB201339AB2FB689A8116F047FA03461A46064B1A80034B00221A801037BD4680BD00BF6ED9FF1FDC6400206CD9FF1F5D
:4036400090B58FB000AF78607B68FB62674B1B78DBB2002B00D0C1E0654B00225A73FB6A03F10C02FB6AB3F88C319BB2DBB21046194604F0A5F903461A465D4BDA705C485E
:4036800004F046F85A4B9B78FF2B08D1584B5B79FF2B04D1564B9B7AFF2B00F09580544B9B6B002B03D0524B9B6B51489847012387F837304F4B3B630CE03B6B1A784C4B07
:4036C000DB789A4203D1002387F8373006E03B6B01333B633B6B1B78FF2BEED197F83730002B1CD0424804F067F878627B6A002B15D07B6A3E489847034683F00103DBB2EE
:40370000002B0CD03A4BFF229A70394B9A78384B5A71374B5A79364B9A7200BF5EE0344805F0D6FD324B1B6B3B62314804F014F9F861FB69002B02D0FB692D4898472C48CB
:4037400004F0E4F92A4804F0D3F8B861BB69002B02D0BB6926489847AA233B7270237B720023BB72224B1B691B78FB72CC233B7333237B73C323BB733C23FB73A320FCF7E9
:40378000C7FC78617B69002B12D07B6908225A807B691A1D7B695B889BB21C4607F1080310461946224618F069FB7B69C2221A700F4804F069F838613B69002B03D03B699A
:4037C0000B4898470AE009E0094804F029F8B862BB6A002B02D0BB6A0548984714F02EFF14F082FD00BF3C37BD4690BDC86400203083FF1F2C83FF1F90B58FB000AF7860A6
:403800007B68FB62664B1B78DBB2002B00D0BEE0644B00225A73FB6A03F10C02FB6AB3F88C319BB2DBB21046194604F0C9F803461A465C4BDA705B4803F06AFF594B9B7878
:40384000FF2B08D1574B5B79FF2B04D1554B9B7AFF2B00F09280534B9B6B002B03D0514B9B6B50489847012387F837304E4B3B630CE03B6B1A784B4BDB789A4203D1002313
:4038800087F8373006E03B6B01333B633B6B1B78FF2BEED197F83730002B1CD0414803F08BFF78627B6A002B15D07B6A3D489847034683F00103DBB2002B0CD0394BFF227E
:4038C0009A70384B9A78374B5A71364B5A79354B9A7200BF5BE0334805F0FAFC314804F03BF838623B6A002B02D03B6A2D4898472C4804F00BF92B4803F0FAFFF861FB693F
:40390000002B02D0FB6927489847AA233B7370237B730023BB73234B1B691B78FB73CC233B7433237B74C323BB743C23FB74A420FCF7EEFBB861BB69002B12D0BB6908229A
:403940005A80BB691A1DBB695B889BB21C4607F10C0310461946224618F090FABB69C2221A70104803F090FF78617B69002B03D07B690C4898470AE009E00A4803F050FF01
:40398000B862BB6A002B02D0BB6A0648984715F0A5F914F0F9FF00BF3C37BD4690BD00BFC86400206C83FF1F2C83FF1FB0B590B004AF786003233B724FF6FF73BB8100235A
:4039C000FB818523BB727B68FB62FDF793FEFDF787FE4FF4E070FDF7A5FEFDF777FE03461B7A87F82B30FDF791FEFB6A1B78002B47D1A320FCF78CFB78627B6A002B3FD0F9
:403A000007F1100318460021102218F042FA97F82B30012B09D197F82B3007F1100210463C491A4618F078FA08E097F82B3007F11002104638491A4618F06EFA7B6A1D1D4B
:403A400007F11003184618F099FA03469BB207F11004009301AA07F1080393E8030082E80300F0204FF495712A46234603F0B4FD03461A467B6A5A807B6AC2221A7046E0BD
:403A800045E0A420FCF744FB38623B6A002B3ED007F1100318460021102218F0FAF997F82B30012B09D197F82B3007F11002104618491A4618F030FA08E097F82B3007F1C5
:403AC0001002104614491A4618F026FA3B6A1D1D07F11003184618F051FA03469BB207F11004009301AA07F1080393E8030082E80300F0204FF495712A46234603F06CFD82
:403B000003461A463B6A5A803B6AC2221A703037BD46B0BDA8C70100B4C7010090B58DB004AF786003233B724FF6FF73BB810023FB81C523BB72294BFB617B68BB61BB690D
:403B40001B78002B24D1A320FCF7E2FA78617B69002B1CD07B691C1DF86918F00FFA03469BB2009301AA07F1080393E8030082E803006020EA212246FB6903F02DFD03461E
:403B80001A467B695A807B69C2221A7023E022E0A420FCF7BDFA38613B69002B1BD03B691C1DF86918F0EAF903469BB2009301AA07F1080393E8030082E803006020EA2159
:403BC0002246FB6903F008FD03461A463B695A803B69C2221A702437BD4690BDC0C7010090B58DB004AF786003233B724FF6FF73BB810023FB81C523BB72294BFB617B685B
:403C0000BB61BB691B78002B24D1A320FCF780FA78617B69002B1CD07B691C1DF86918F0ADF903469BB2009301AA07F1080393E8030082E803002020EA212246FB6903F095
:403C4000CBFC03461A467B695A807B69C2221A7023E022E0A420FCF75BFA38613B69002B1BD03B691C1DF86918F088F903469BB2009301AA07F1080393E8030082E80300D7
:403C80002020EA212246FB6903F0A6FC03461A463B695A803B69C2221A702437BD4690BDFCC7010090B587B000AF78607B687B617B691B78002B4AD10023FB747B691C6B34
:403CC0002E2005F067FD034623441B7B562B19D1FDF710FDFDF704FD4FF40070FDF722FDFDF7F4FC03465B79BB74FDF70FFDBB7C002B03D17B69A5221A7127E07B69A62261
:403D00001A7123E07B691C6B2E2005F043FD034623441B7B572B19D1FDF7ECFCFDF7E0FC4FF42070FDF7FEFCFDF7D0FC03465B797B74FDF7EBFC7B7C002B03D17B69A522A0
:403D40001A7103E07B69A6221A714DE04CE07B691B78012B48D100233B747B691C6B2E2005F018FD034623441B7B562B19D1FDF7C1FCFDF7B5FC4FF43070FDF7D3FCFDF753
:403D8000A5FC03465B79FB73FDF7C0FCFB7B002B03D17B69A5221A7126E07B69A6221A7122E07B691C6B2E2005F0F4FC034623441B7B572B18D1FDF79DFCFDF791FC4FF49D
:403DC0001070FDF7AFFCFDF781FC03465B79BB73FDF79CFCBB7B002B03D17B69A5221A7102E07B69A6221A711C37BD4690BD00BFB0B586B000AF78607B687B61786905F0BF
:403E000011FD03461A464FF41C6303FB02F3464A13443B613B69002B00F083803B69D3F83C39386998473B69D3F8503938699847F8603B69D3F8403938699847FB68002BA7
:403E40006FD00023FB72FB68E3225A70FB7A5A1CFA7219463B691A78FB680B449A70FB7AFA6813449D1C7B691C6B242005F092FC0346083323441C1D242005F0AFFC03462F
:403E8000284621461A4617F0F9FF242005F0A6FC03461A46FB7A1344FB72FB7AFA6813449D1C7B691C6B252005F074FC0346083323441C1D252005F091FC0346284621460C
:403EC0001A4617F0DBFFFB7AFA6813449C1CFB7AFA6813440233184618F050F80346DBB220461946FCF72CFB252005F077FC03461A46FB7A1344FB72FB7A9AB2FB68A3F887
:403F000002213B69D3F83C39386998473B69D3F848393869F96898473B69D3F84039386998471837BD46B0BDC83D002080B584B000AF78607B68FB60FB68DB7A1846FEF7A4
:403F4000D7FEB8601037BD4680BD00BFF0B58FB004AF786003233B734FF6FF733B8200237B82C523BB734F4BBB607B687B627B6A1B78002B4AD1A320FCF7CAF838623B6A37
:403F8000002B42D00023FB77BA23BB833B6A00225A803B6A5B889BB21A463B6A13441D1DFB7F9B0007F12802134453F8204CFB7F9B0007F12802134453F8203C184617F029
:403FC000DDFF03469BB2BE8B009301AA07F10C0393E8030082E803001A2031462A46234603F0FAFA03461A463B6A5B889BB213449AB23B6A5A80BB8B2033BB83FB7F013340
:40400000FB773B6AC2221A7049E048E0A420FCF77FF8B861BB69002B41D00023FB75BA23BB82BB6900225A80BB695B889BB21A46BB6913441D1DFB7D9B0007F12802134441
:4040400053F8204CFB7D9B0007F12802134453F8203C184617F092FF03469BB2BE8A009301AA07F10C0393E8030082E803001A2031462A46234603F0AFFA03461A46BB695F
:404080005B889BB213449AB2BB695A80BB8A2033BB82FB7D0133FB75BB69C2221A702C37BD46F0BDA8C801002DE9F04196B004AF786003233B7500233B834FF6FF737B83A4
:4040C0008523BB75002387F847300023A7F844300023A7F842307B68FB63F86B05F0A2FB0346032B3ED801A252F823F0FD40000017410000314100004B410000D34BDB789E
:4041000087F847304FF40073A7F844304FF44073A7F8423026E0CD4B1B7987F847304FF41073A7F844304FF45073A7F8423019E0C64B5B7987F847304FF42073A7F8443064
:404140004FF46073A7F842300CE0C04B9B7987F847304FF43073A7F844304FF47073A7F8423000BFFB6B1B78002B40F00881FDF7C1FAFDF7B5FAB7F844301846FDF7D2FAB8
:40418000FDF7A4FA03465A1C07F1100310681860FDF7BCFAFDF7AEFAFDF7A2FAB7F842301846FDF7BFFA002387F84130DDE097F8413007F14802134413F8383C013B032B5F
:4041C00000F2CE8001A252F823F000BFDD4100003B4200009D420000FF420000A320FBF797FFB863BB6B002B26D097F84130984A32F8236097F84130954A9B0013445D8813
:40420000BB6B1C1DFDF762FA86461023009301AA07F1140393E8030082E80300304629462246734603F0D8F903461A46BB6B5A80BB6BC2221A7093E092E0A320FBF768FF90
:4042400078637B6B002B28D097F84130804A32F8238097F841307E4A9B0013445E887B6B1D1DFDF733FA034603F110041023009301AA07F1140393E8030082E803004046A0
:4042800031462A46234603F0A7F903461A467B6B5A807B6BC2221A7062E061E0A320FBF737FF38633B6B002B28D097F84130684A32F8238097F84130654A9B0013445E8886
:4042C0003B6B1D1DFDF702FA034603F120041023009301AA07F1140393E8030082E80300404631462A46234603F076F903461A463B6B5A803B6BC2221A7031E030E0A320C9
:40430000FBF706FFF862FB6A002B28D097F841304F4A32F8238097F841304D4A9B0013445E88FB6A1D1DFDF7D1F9034603F130041023009301AA07F1140393E8030082E899
:404340000300404631462A46234603F045F903461A46FB6A5A80FB6AC2221A70FFE700BF97F84130013387F8413097F8412097F847309A42FFF41BAFFDF7C8F90BE1FDF78B
:40438000B9F9FDF7ADF9B7F844301846FDF7CAF9FDF79CF903465A1C07F10C0310681860FDF7B4F9FDF7A6F9FDF79AF9B7F842301846FDF7B7F9002387F84030E2E097F8F9
:4043C000403007F14802134413F83C3C013B032B00F2D38001A252F823F000BFED43000055440000B744000019450000A420FBF78FFEB862BB6A002B26D097F84030144AA1
:4044000032F8236097F84030114A9B0013445D88BB6A1C1DFDF75AF986461023009301AA07F1140393E8030082E80300304629462246734603F0D0F803461A46BB6A5A8059
:40444000BB6AC2221A7098E097E000BFC8640020A883FF1FA420FBF75BFE78627B6A002B28D097F840304E4A32F8238097F840304B4A9B0013445E887B6A1D1DFDF726F973
:40448000034603F110041023009301AA07F1140393E8030082E80300404631462A46234603F09AF803461A467B6A5A807B6AC2221A7062E061E0A420FBF72AFE38623B6A8A
:4044C000002B28D097F84030354A32F8238097F84030334A9B0013445E883B6A1D1DFDF7F5F8034603F120041023009301AA07F1140393E8030082E80300404631462A4601
:40450000234603F069F803461A463B6A5A803B6AC2221A7031E030E0A420FBF7F9FDF861FB69002B28D097F840301D4A32F8238097F840301A4A9B0013445E88FB691D1DCA
:40454000FDF7C4F8034603F130041023009301AA07F1140393E8030082E80300404631462A46234603F038F803461A46FB695A80FB69C2221A70FFE700BF97F84030013325
:4045800087F8403097F8402097F847309A42FFF416AFFDF7BBF84837BD46BDE8F08100BFA883FF1FF0B58FB004AF786003233B734FF6FF733B8200237B82C523BB734F4BB5
:4045C000BB607B687B627B6A1B78002B4AD1A320FBF79EFD38623B6A002B42D00023FB77BA23BB833B6A00225A803B6A5B889BB21A463B6A13441D1DFB7F9B0007F1280263
:40460000134453F8204CFB7F9B0007F12802134453F8203C184617F0B1FC03469BB2BE8B009301AA07F10C0393E8030082E803001A2031462A46234602F0CEFF03461A4624
:404640003B6A5B889BB213449AB23B6A5A80BB8B2033BB83FB7F0133FB773B6AC2221A7049E048E0A420FBF753FDB861BB69002B41D00023FB75BA23BB82BB6900225A809C
:40468000BB695B889BB21A46BB6913441D1DFB7D9B0007F12802134453F8204CFB7D9B0007F12802134453F8203C184617F066FC03469BB2BE8A009301AA07F10C0393E8B6
:4046C000030082E803001A2031462A46234602F083FF03461A46BB695B889BB213449AB2BB695A80BB8A2033BB82FB7D0133FB75BB69C2221A702C37BD46F0BDD0C801007F
:40470000B0B588B000AF78607B68BB61B86905F089F803461A464FF41C6303FB02F3834A13447B617B69D3F83C39786998477B69D3F850397869984738617B69D3F84039C4
:40474000786998473B69002B00F0EC800023FB773B69A2225A70FB7F5A1CFA7719467B691A783B690B449A70FB7F5A1CFA771D46BB691C6B072005F00DF8034623441A7B7F
:404780003B692B449A70FB7F3A6913449D1CBB691C6B122004F0FEFF0346083323441C1D122005F01BF80346284621461A4617F065FBFB7F3A6913449C1C122005F00EF845
:4047C000034620461946FBF7BBFE122005F006F803461A46FB7F1344FB77FB7F3A6913449D1CBB691C6B0E2004F0D4FF0346083323441C1D0E2004F0F1FF034628462146CE
:404800001A4617F03BFBFB7F3A6913449C1C0E2004F0E4FF034620461946FBF791FE0E2004F0DCFF03460233DAB2FB7F1344FB77BB691C6B052004F0ADFF034623441B7B1B
:40484000FB73FB7B102B0CD0432B13D00F2B1AD1FB7F5A1CFA771A463B69134402229A7011E0FB7F5A1CFA771A463B69134401229A7008E0FB7F5A1CFA771A463B6913445F
:4048800003229A7000BFFB7F3A6913449D1CBB691C6B062004F07EFF034608332344043328461946082217F0E9FAFB7B102B07D1FB7F3A6913440233184608210BF024FBC5
:4048C000FB7F3A691344023318460821FBF738FEFB7F0833FB77BB691C6B062004F05AFF034608332344043318460021082217F0D0FAFB7F9AB23B69A3F802217B69002251
:4049000083F8A0297B69D3F83C39786998477B69D3F848397869396998477B69D3F84039786998472037BD46B0BD00BFC83D002090B585B000AF78607B68FB60F86804F097
:4049400071FF03461A464FF41C6303FB02F31C4A1344BB60BB6893F8A039DBB2002B28D0BB68002283F8A029FB681C6B0B2004F011FF0346083323441C1D0B2004F02EFF48
:404980000346204600211A4617F083FAFB681C6B0B2004F0FFFE0346234439221A73FB681C6B052004F0F6FE0346234444221A7302E0BB680822DA721437BD4690BD00BF36
:4049C000C83D002090B585B000AF78607B68FB60FB68002B3DD0FCF78DFEFCF781FE4FF4A070FCF79FFEFCF771FE034601331B781B029CB2FCF76AFE03461B789BB222461C
:404A000013439BB27B81FCF781FEFB681D3318460021102217F03DFA7A894FF00003F96801F11D04104619462246FBF79BFCFB681D33184617F0A2FA0346DAB2FB681A77E7
:404A4000FB6803F11D02FB681B7F10461946FBF777FD1437BD4690BDF0B58BB004AF78607B687B617B69002B65D07B691B699A8D7B691A837B691B69DA8D7B695A837B691B
:404A80001B78002B2CD1A320FBF742FB38613B69002B24D07B69B3F818E07B695E8B3B691D1D7B6903F11D047B691B6993F830309BB27A691269009301AB323210685168F0
:404AC00003C3704631462A46234602F085FD03461A463B695A803B69C2221A702BE02AE0A420FBF715FBF860FB68002B23D07B69B3F818E07B695E8BFB681D1D7B6903F1C0
:404B00001D047B691B6993F830309BB27A691269009301AB32321068516803C3704631462A46234602F058FD03461A46FB685A80FB68C2221A701C37BD46F0BDB0B584B01C
:404B400000AF78607B68BB60BB68002B58D00023FB8100237B732EE0BB681B7F1A467B7BD31A013B184616F065FB02460B464FF00000254915F02EF904460D467B7BBA6855
:404B800013445B7F03F00F03184616F053FB02460B462046294616F0B3FB02460B461046194616F047FE03469AB2FB891344FB817B7B01337B73BB681B7F7A7B9A42CBD322
:404BC000FCF798FDFCF78CFD4FF4A070FCF7AAFDFCF77CFD0346FA89D2B21A70FCF776FD03460133FA89120A92B2D2B21A704FF4A070FCF7E1FD054AFB891380FCF786FDAA
:404C00001037BD46B0BD00BF00002440C4D8FF1F90B585B000AF78607B68FB60FB68002B32D0FCF767FDFCF75BFD4FF4E070FCF779FDFCF74BFD03465B7AFB72FCF766FD57
:404C4000FB681D3318460021102217F022F9FA7A4FF00003F96801F11D04104619462246FBF780FBFB681D33184617F087F90346DAB2FB681A77FB6803F11D02FB681B7F26
:404C800010461946FBF75CFC1437BD4690BD00BFF0B58BB004AF78607B687B617B69002B65D07B691B699A8D7B691A837B691B69DA8D7B695A837B691B78002B2CD1A3202B
:404CC000FBF726FA38613B69002B24D07B69B3F818E07B695E8B3B691D1D7B6903F11D047B691B6993F830309BB27A691269009301AB32321068516803C3704631462A46E6
:404D0000234602F069FC03461A463B695A803B69C2221A702BE02AE0A420FBF7F9F9F860FB68002B23D07B69B3F818E07B695E8BFB681D1D7B6903F11D047B691B6993F807
:404D400030309BB27A691269009301AB32321068516803C3704631462A46234602F03CFC03461A46FB685A80FB68C2221A701C37BD46F0BDB0B584B000AF78607B68BB6086
:404D8000BB68002B50D00023FB730023BB732FE0BB681B7F1A46BB7BD31A013B184616F049FA02460B464FF00000214915F012F804460D46BB7BBA6813445B7F03F00F03F5
:404DC000184616F037FA02460B462046294616F097FA02460B461046194616F02BFD03469BB2DAB2FB7B1344FB73BB7B0133BB73BB681B7FBA7B9A42CAD3FCF77BFCFCF7E0
:404E00006FFC4FF4E070FCF78DFCFCF75FFC03460933FA7B1A704FF4E070FCF7CDFC054AFB7B9374FCF772FC1037BD46B0BD00BF00002440C864002080B586B000AF786092
:404E40007B687B617B691B78002B22D1FBF7F4FC38613B69002B1BD07B693A695A633B697A69C3F890213B6923225A703B6964225A813B6941F288329A803B69194AC3F84D
:404E800094213B6906229A703B690322DA7025E024E07B691B78012B20D1FBF7CDFCF860FB68002B1AD07B69FA685A63FB687A69C3F89021FB6824225A70FB6864225A8140
:404EC000FB6841F288329A80FB68064AC3F89421FB6806229A70FB680322DA701837BD4680BD00BF1D4F000080B485B000AF78607B68FB60FB685B6B002B0AD0FB685B6B7F
:404F0000002B03D0FB685B6B01221A70FB6800225A631437BD465DF8047B704780B588B000AF78607B68FB61FB69D3F89031BB61BB69002B38D0BB6913229A72BB6903F16F
:404F40001D02FB690C3310461946082216F096FFBB6908221A77FBF76FFC78617B69002B22D0134A07F10C031068516803C3BB691B78002B03D17B691B225A7002E07B691D
:404F80001F225A707B6903229A707B690C331A4607F10C0303CB106051607B690822A3F88C217B690322DA702037BD4680BD00BFF8C80100B0B590B004AF786004233B7296
:404FC0004FF6FF73BB810023FB81C523BB727B68BB62BB6A1B78002B40F00482BB6A1B691B783E2B40F0FE81A320FBF791F878627B6A002B00F01481002387F82F30FCF77C
:4050000079FBFCF729FCFCF7AFFC07F1100318460021082216F03DFFFCF714FC034602331B7803F04003002B32D097F82F305A1C87F82F201C46FCF705FC034602331B7840
:405040001B09DBB2DBB203F00103DBB243F03003DBB2DAB207F13003234403F8202C97F82F305A1C87F82F201C46FCF7EBFB034602331B78DBB203F00F03DBB243F0300313
:40508000DBB2DAB207F13003234403F8202C31E097F82F305A1C87F82F201C46FCF7D2FB034602331B781B09DBB2DBB203F00303DBB243F03003DBB2DAB207F130032344B3
:4050C00003F8202C97F82F305A1C87F82F201C46FCF7B8FB034602331B78DBB203F00F03DBB243F03003DBB2DAB207F13003234403F8202C97F82F305A1C87F82F2007F17D
:40510000300213443A2203F8202C97F82F305A1C87F82F201C46FCF795FB034601331B781B09DBB2DBB203F00703DBB243F03003DBB2DAB207F13003234403F8202C97F86D
:405140002F305A1C87F82F201C46FCF77BFB034601331B78DBB203F00F03DBB243F03003DBB2DAB207F13003234403F8202C97F82F305A1C87F82F2007F1300213443A222B
:4051800003F8202C97F82F305A1C87F82F201C46FCF758FB03461B781B09DBB2DBB203F00703DBB243F03003DBB2DAB207F13003234403F8202C97F82F305A1C87F82F20A0
:4051C0001C46FCF73FFB03461B78DBB203F00F03DBB243F03003DBB2DAB207F13003234403F8202CFCF792FA7B6A1D1D97F82F309BB207F11004009301AA07F1080393E82C
:40520000030082E80300C920BA212A46234602F0E3F903461A467B6A5A807B6AC2221A70A320FAF775FF78627B6A002B00F0D980002387F82330FCF75DFAFCF70DFBFCF750
:4052400093FB07F1100318460021082216F021FE97F823305A1C87F823201C46FCF7F2FA034604331B781B09DBB2DBB203F00303DBB243F03003DBB2DAB207F13003234484
:4052800003F8202C97F823305A1C87F823201C46FCF7D8FA034604331B78DBB203F00F03DBB243F03003DBB2DAB207F13003234403F8202C97F823305A1C87F8232007F1CA
:4052C000300213442F2203F8202C97F823305A1C87F823201C46FCF7B5FA034605331B781B09DBB2DBB203F00103DBB243F03003DBB2DAB207F13003234403F8202C97F8B2
:4053000023305A1C87F823201C46FCF79BFA034605331B78DBB203F00F03DBB243F03003DBB2DAB207F13003234403F8202C97F823305A1C87F8232007F1300213442F2281
:4053400003F8202C97F823305A1C87F823201C46FCF778FA034606331B781B09DBB2DBB243F03003DBB2DAB207F13003234403F8202C97F823305A1C87F823201C46FCF7EB
:4053800061FA034606331B78DBB203F00F03DBB243F03003DBB2DAB207F13003234403F8202CFCF7B3F97B6A1D1D97F823309BB207F11004009301AA07F1080393E803004E
:4053C00082E80300C9204FF495712A46234602F003F903461A467B6A5A807B6AC2221A70F5E1F4E1BB6A1B78012B40F0F081BB6A1B691B783E2B40F0EA81A420FAF788FEE1
:40540000F861FB69002B00F01481002387F82E30FCF770F9FCF720FAFCF7A6FA07F1100318460021082216F034FDFCF70BFA034602331B7803F04003002B32D097F82E30BF
:405440005A1C87F82E201C46FCF7FCF9034602331B781B09DBB2DBB203F00103DBB243F03003DBB2DAB207F13003234403F8202C97F82E305A1C87F82E201C46FCF7E2F914
:40548000034602331B78DBB203F00F03DBB243F03003DBB2DAB207F13003234403F8202C31E097F82E305A1C87F82E201C46FCF7C9F9034602331B781B09DBB2DBB203F0CA
:4054C0000303DBB243F03003DBB2DAB207F13003234403F8202C97F82E305A1C87F82E201C46FCF7AFF9034602331B78DBB203F00F03DBB243F03003DBB2DAB207F13003BA
:40550000234403F8202C97F82E305A1C87F82E2007F1300213443A2203F8202C97F82E305A1C87F82E201C46FCF78CF9034601331B781B09DBB2DBB203F00703DBB243F054
:405540003003DBB2DAB207F13003234403F8202C97F82E305A1C87F82E201C46FCF772F9034601331B78DBB203F00F03DBB243F03003DBB2DAB207F13003234403F8202C8F
:4055800097F82E305A1C87F82E2007F1300213443A2203F8202C97F82E305A1C87F82E201C46FCF74FF903461B781B09DBB2DBB203F00703DBB243F03003DBB2DAB207F1AF
:4055C0003003234403F8202C97F82E305A1C87F82E201C46FCF736F903461B78DBB203F00F03DBB243F03003DBB2DAB207F13003234403F8202CFCF789F8FB691D1D97F822
:405600002E309BB207F11004009301AA07F1080393E8030082E80300C920BA212A46234601F0DAFF03461A46FB695A80FB69C2221A70A420FAF76CFDF861FB69002B00F071
:40564000C6800023FB76FCF755F8FCF705F9FCF78BF907F1100318460021082216F019FCFB7E5A1CFA761C46FCF7ECF8034604331B781B09DBB2DBB203F00303DBB243F037
:405680003003DBB2DAB207F13003234403F8202CFB7E5A1CFA761C46FCF7D4F8034604331B78DBB203F00F03DBB243F03003DBB2DAB207F13003234403F8202CFB7E5A1CCC
:4056C000FA7607F1300213442F2203F8202CFB7E5A1CFA761C46FCF7B5F8034605331B781B09DBB2DBB203F00103DBB243F03003DBB2DAB207F13003234403F8202CFB7E19
:405700005A1CFA761C46FCF79DF8034605331B78DBB203F00F03DBB243F03003DBB2DAB207F13003234403F8202CFB7E5A1CFA7607F1300213442F2203F8202CFB7E5A1CA7
:40574000FA761C46FCF77EF8034606331B781B09DBB2DBB243F03003DBB2DAB207F13003234403F8202CFB7E5A1CFA761C46FCF769F8034606331B78DBB203F00F03DBB2FA
:4057800043F03003DBB2DAB207F13003234403F8202CFBF7BBFFFB691D1DFB7E9BB207F11004009301AA07F1080393E8030082E80300C9204FF495712A46234601F00CFF42
:4057C00003461A46FB695A80FB69C2221A703037BD46B0BD80B586B000AF78607B687B617B691B78002B20D11D20FBF731F938613B69002B18D07B693A695A633B697A6961
:40580000C3F890213B691C4AC3F894213B691D225A703B6906229A703B694FF47A725A813B690322DA7023E022E07B691B78012B1ED12120FBF70CF9F860FB68002B17D0A2
:405840007B69FA685A63FB687A69C3F89021FB68094AC3F89421FB6821225A70FB6806229A70FB684FF47A725A81FB680322DA701837BD4680BD00BFB54F000080B487B04C
:4058800000AF78607B687B617B691B78002B0AD17B695B6B3B613B69002B03D03B6901221A700DE00CE07B691B78012B08D17B695B6BFB60FB68002B02D0FB6801221A7022
:4058C0001C37BD465DF8047B704700BF80B584B000AF78607B68FB60FB68D3F89431002B07D0FB68D3F89431FA68D2F89021104698471037BD4680BD80B586B000AF786067
:405900007B687B617B691B78002B1ED11E20FBF79FF838613B69002B16D01E4B00229A707B693A695A633B697A69C3F890213B691E225A703B6906229A703B6964225A81AD
:405940003B690322DA7021E020E07B691B78012B1CD12220FBF77CF8F860FB68002B15D00C4B00225A727B69FA685A63FB687A69C3F89021FB6822225A70FB6806229A7010
:40598000FB6864225A81FB680322DA701837BD4680BD00BFBC83FF1F80B487B000AF78607B687B617B691B78002B0AD17B695B6B3B613B69002B03D03B6901221A700DE052
:4059C0000CE07B691B78012B08D17B695B6BFB60FB68002B02D0FB6801221A701C37BD465DF8047B704700BFB0B590B004AF786002233B724FF6FF73BB810023FB81C523AE
:405A0000BB727B68BB62BB6A1B78002B40F0DE81BB6A1B691B78012B40F0D881A320FAF777FB78627B6A002B00F0EA80002387F82F30FBF75FFEFBF70FFFFBF795FF07F19E
:405A4000100318460021082216F023FAFBF7FAFE034602331B7803F04003002B32D097F82F305A1C87F82F201C46FBF7EBFE034602331B781B09DBB2DBB203F00103DBB2A7
:405A800043F03003DBB2DAB207F13003234403F8202C97F82F305A1C87F82F201C46FBF7D1FE034602331B78DBB203F00F03DBB243F03003DBB2DAB207F13003234403F8FD
:405AC000202C31E097F82F305A1C87F82F201C46FBF7B8FE034602331B781B09DBB2DBB203F00303DBB243F03003DBB2DAB207F13003234403F8202C97F82F305A1C87F8FD
:405B00002F201C46FBF79EFE034602331B78DBB203F00F03DBB243F03003DBB2DAB207F13003234403F8202CA74B5B78002B0BD097F82F305A1C87F82F2007F13002134420
:405B40003A2203F8202C0AE097F82F305A1C87F82F2007F130021344202203F8202C97F82F305A1C87F82F201C46FBF76BFE034601331B781B09DBB2DBB203F00703DBB295
:405B800043F03003DBB2DAB207F13003234403F8202C97F82F305A1C87F82F201C46FBF751FE034601331B78DBB203F00F03DBB243F03003DBB2DAB207F13003234403F87D
:405BC000202CFBF7A3FD7B6A1D1D97F82F309BB207F11004009301AA07F1080393E8030082E8030010204FF4DD712A46234601F0F3FC03461A467B6A5A807B6AC2221A7000
:405C0000A320FAF785FA78627B6A002B00F0DA80002387F82330FBF76DFDFBF71DFEFBF7A3FE07F1100318460021082216F031F997F823305A1C87F823201C46FBF702FEBA
:405C4000034604331B781B09DBB2DBB203F00303DBB243F03003DBB2DAB207F13003234403F8202C97F823305A1C87F823201C46FBF7E8FD034604331B78DBB203F00F03FD
:405C8000DBB243F03003DBB2DAB207F13003234403F8202C97F823305A1C87F8232007F1300213442F2203F8202C97F823305A1C87F823201C46FBF7C5FD034605331B7888
:405CC0001B09DBB2DBB203F00103DBB243F03003DBB2DAB207F13003234403F8202C97F823305A1C87F823201C46FBF7ABFD034605331B78DBB203F00F03DBB243F03003DB
:405D0000DBB2DAB207F13003234403F8202C97F823305A1C87F8232007F1300213442F2203F8202C97F823305A1C87F823201C46FBF788FD034606331B781B09DBB2DBB2F8
:405D400043F03003DBB2DAB207F13003234403F8202C97F823305A1C87F823201C46FBF771FD034606331B78DBB203F00F03DBB243F03003DBB2DAB207F13003234403F8AF
:405D8000202CFBF7C3FC7B6A1D1D97F823309BB207F11004009301AA07F1080393E8030082E803004FF404704FF4DD712A46234601F012FC03461A467B6A5A807B6AC2220F
:405DC0001A70CFE1CEE100BFBC83FF1FBB6A1B78012B40F0C781BB6A1B691B78012B40F0C181A420FAF794F9F861FB69002B00F0EA80002387F82E30FBF77CFCFBF72CFD5F
:405E0000FBF7B2FD07F1100318460021082216F040F8FBF717FD034602331B7803F04003002B32D097F82E305A1C87F82E201C46FBF708FD034602331B781B09DBB2DBB27D
:405E400003F00103DBB243F03003DBB2DAB207F13003234403F8202C97F82E305A1C87F82E201C46FBF7EEFC034602331B78DBB203F00F03DBB243F03003DBB2DAB207F131
:405E80003003234403F8202C31E097F82E305A1C87F82E201C46FBF7D5FC034602331B781B09DBB2DBB203F00303DBB243F03003DBB2DAB207F13003234403F8202C97F8DF
:405EC0002E305A1C87F82E201C46FBF7BBFC034602331B78DBB203F00F03DBB243F03003DBB2DAB207F13003234403F8202C9F4B1B7A002B0BD097F82E305A1C87F82E20B9
:405F000007F1300213443A2203F8202C0AE097F82E305A1C87F82E2007F130021344202203F8202C97F82E305A1C87F82E201C46FBF788FC034601331B781B09DBB2DBB2C3
:405F400003F00703DBB243F03003DBB2DAB207F13003234403F8202C97F82E305A1C87F82E201C46FBF76EFC034601331B78DBB203F00F03DBB243F03003DBB2DAB207F1AB
:405F80003003234403F8202CFBF7C0FBFB691D1D97F82E309BB207F11004009301AA07F1080393E8030082E8030010204FF4DD712A46234601F010FB03461A46FB695A80C6
:405FC000FB69C2221A70A420FAF7A2F8F861FB69002B00F0C7800023FB76FBF78BFBFBF73BFCFBF7C1FC07F1100318460021082215F04FFFFB7E5A1CFA761C46FBF722FCA5
:40600000034604331B781B09DBB2DBB203F00303DBB243F03003DBB2DAB207F13003234403F8202CFB7E5A1CFA761C46FBF70AFC034604331B78DBB203F00F03DBB243F013
:406040003003DBB2DAB207F13003234403F8202CFB7E5A1CFA7607F1300213442F2203F8202CFB7E5A1CFA761C46FBF7EBFB034605331B781B09DBB2DBB203F00103DBB214
:4060800043F03003DBB2DAB207F13003234403F8202CFB7E5A1CFA761C46FBF7D3FB034605331B78DBB203F00F03DBB243F03003DBB2DAB207F13003234403F8202CFB7E03
:4060C0005A1CFA7607F1300213442F2203F8202CFB7E5A1CFA761C46FBF7B4FB034606331B781B09DBB2DBB243F03003DBB2DAB207F13003234403F8202CFB7E5A1CFA7635
:406100001C46FBF79FFB034606331B78DBB203F00F03DBB243F03003DBB2DAB207F13003234403F8202CFBF7F1FAFB691D1DFB7E9BB207F11004009301AA07F1080393E8DC
:40614000030082E803004FF404704FF4DD712A46234601F041FA03461A46FB695A80FB69C2221A703037BD46B0BD00BFBC83FF1FB0B5D6B004AF3B1D1860042387F814315D
:406180004FF6FF73A7F818310023A7F81A31C52387F816313B1D1B68C7F84431D7F84431D3F89031C7F84031D7F840311B78002B40F01283D7F840311B691B78012B40F000
:4061C0000B83A320F9F7A4FFC7F83C01D7F83C31002B30D0CA4B1B785A1CD1B2C84A11701A46C74B1344DB7887F81C31C44B1B78032B02D9C24B00221A70D7F83C311D1D62
:4062000007F58E740123009301AA07F58A7393E8030082E803004FF4147012212A46234601F0DAF903461A46D7F83C315A80D7F83C31C2221A7007F5887318460021022280
:4062400015F027FE07F58873D7F84001194601F0BBFF07F58673D7F84001194602F0FAF897F81131002B44D1A320F9F751FFC7F83C01D7F83C31002B5FD097F80D31002BFD
:406280001BD0A04A07F580731068516803C312891A80D7F83C3104331A4607F5807303CB106051601B881381D7F83C310A225A80D7F83C31C2221A703FE0934A07F1F4032F
:4062C0001068516803C312891A80D7F83C3104331A4607F1F40303CB106051601B881381D7F83C310A225A80D7F83C31C2221A7023E0A320F9F70CFFC7F83C01D7F83C31A5
:40630000002B1AD0814A07F1E8031068516803C312891A80D7F83C3104331A4607F1E80303CB106051601B881381D7F83C310A225A80D7F83C31C2221A70A320F9F7E8FE0D
:40634000C7F83C01D7F83C31002B1DD0704A07F1D803144620686168A26807C3A2891A80D7F83C3104331C4607F1D80307CB20606160A2601B88A381D7F83C310E225A8032
:40638000D7F83C31C2221A7097F81031002B44D1A320F9F7BDFEC7F83C01D7F83C31002B5FD097F80C31002B1BD0564A07F1CC031068516803C312891A80D7F83C3104333B
:4063C0001A4607F1CC0303CB106051601B881381D7F83C310A225A80D7F83C31C2221A703FE0494A07F1C0031068516803C312891A80D7F83C3104331A4607F1C00303CB6F
:40640000106051601B881381D7F83C310A225A80D7F83C31C2221A7023E0A320F9F778FEC7F83C01D7F83C31002B1AD0374A07F1B4031068516803C312891A80D7F83C3107
:4064400004331A4607F1B40303CB106051601B881381D7F83C310A225A80D7F83C31C2221A70A320F9F754FEC7F83C01D7F83C31002B1DD0274A07F1A403144620686168B4
:40648000A26807C3A2891A80D7F83C3104331C4607F1A40307CB20606160A2601B88A381D7F83C310E225A80D7F83C31C2221A704FF6FF73A7F818310023A7F81A31104BFC
:4064C0009B781A46642303FB02F3B3F5FA6F23DDD7F84001FFF788FA094B00229A70084B5B78002B14BF01230023DBB283F00103DBB203F00103DAB2014B5A7012E000BF50
:40650000BC83FF1FA0C90100ACC90100E0C70100B8C90100C8C90100A54B9B780133DAB2A34B9A70012387F81431A24B5B7B83F00103DBB2002B64D09F4B1B781846FAF7CD
:4065400023FA0346002B2ED0A320F9F7E1FDC7F83C01D7F83C31002B53D0984BC7F83831D7F83C311C1DD7F8380115F007FD03469BB2009301AA07F58A7393E8030082E82F
:406580000300B8204FF4E8712246D7F8383101F023F803461A46D7F83C315A80D7F83C31C2221A702DE0A320F9F7B2FDC7F83C01D7F83C31002B24D007F10C031846002103
:4065C000202215F066FCD7F83C311D1D07F10C042023009301AA07F58A7393E8030082E80300B8204FF4E8712A46234600F0F4FF03461A46D7F83C315A80D7F83C31C22200
:406600001A706F4B1B78DBB2002B72D0A320F9F77FFDC7F83C01D7F83C31002B00F0C780674B5B78DBB2002B2FD0664BC7F83431D7F83C311C1DD7F8340115F09FFC03464D
:406640002046D7F834111A4615F018FCD7F83C311C1DD7F8340115F091FC03469BB2009301AA07F58A7393E8030082E80300B8204FF4E8712246D7F8343100F0ADFF03466F
:406680001A46D7F83C315A802EE04F4BC7F83031D7F83C311C1DD7F8300115F06FFC03462046D7F830111A4615F0E8FBD7F83C311C1DD7F8300115F061FC03469BB20093B0
:4066C00001AA07F58A7393E8030082E80300B8204FF4E8712246D7F8303100F07DFF03461A46D7F83C315A80D7F83C31C2221A7081E3364B1B7883F00103DBB2002B56D05D
:40670000A320F9F705FDC7F83C01D7F83C31002B49D007F10C0318462021282215F0B9FB274B9B78042B0DD107F10C03284A1C4615460FCD0FC40FCD0FC495E8030084E86D
:4067400003000CE007F10C03224A1C4615460FCD0FC40FCD0FC495E80F0007C42380D7F83C311D1D07F10C03184615F007FC03469BB207F10C04009301AA07F58A7393E86F
:40678000030082E80300A0204FF4E8712A46234600F022FF03461A46D7F83C315A80D7F83C31C2221A70094B01221A7023E322E3BC83FF1F3083FF1FC03D002000C9010099
:4067C000C864002024C901004CC9010070D9FF1FD8C9010070C90100D7F840311B78012B40F00983D7F840311B691B78012B40F00283A420F9F78CFCC7F82C01D7F82C31BF
:40680000002B30D0C94BDB795A1CD1B2C74AD1711A46C64B13449B7A87F81C31C34BDB79032B02D9C14B0022DA71D7F82C311D1D07F58E740123009301AA07F58A7393E8B2
:40684000030082E803004FF4147012212A46234600F0C2FE03461A46D7F82C315A80D7F82C31C2221A7007F1A00318460021022215F00FFB07F1A003D7F84001194601F094
:40688000A3FC07F19C03D7F84001194601F0E2FD97F8A130002B44D1A420F9F739FCC7F82C01D7F82C31002B5FD097F89D30002B1BD09F4A07F190031068516803C31289F0
:4068C0001A80D7F82C3104331A4607F1900303CB106051601B881381D7F82C310A225A80D7F82C31C2221A703FE0924A07F184031068516803C312891A80D7F82C310433B5
:406900001A4607F1840303CB106051601B881381D7F82C310A225A80D7F82C31C2221A7023E0A420F9F7F4FBC7F82C01D7F82C31002B1AD0804A07F178031068516803C37F
:4069400012891A80D7F82C3104331A4607F1780303CB106051601B881381D7F82C310A225A80D7F82C31C2221A70A420F9F7D0FBC7F82C01D7F82C31002B1DD06F4A07F15A
:406980006803144620686168A26807C3A2891A80D7F82C3104331C4607F1680307CB20606160A2601B88A381D7F82C310E225A80D7F82C31C2221A7097F8A030002B44D1B5
:4069C000A420F9F7A5FBC7F82C01D7F82C31002B5ED097F89C30002B1BD0554A07F15C031068516803C312891A80D7F82C3104331A4607F15C0303CB106051601B881381FF
:406A0000D7F82C310A225A80D7F82C31C2221A703EE0484A07F150031068516803C312891A80D7F82C3104331A4607F1500303CB106051601B881381D7F82C310A225A80FD
:406A4000D7F82C31C2221A7022E0A420F9F760FBC7F82C01D7F82C31002B19D007F14403354A1068516803C312891A80D7F82C311A1D07F1440303CB106051601B8813818D
:406A8000D7F82C310A225A80D7F82C31C2221A70A420F9F73DFBC7F82C01D7F82C31002B1DD007F13403264A144620686168A26807C3A2891A80D7F82C311A1D07F1340379
:406AC000144607CB20606160A2601B88A381D7F82C310E225A80D7F82C31C2221A704FF6FF73A7F818310023A7F81A310F4B5B7A1A46642303FB02F3B3F5FA6F22DDD7F8FC
:406B00004001FEF771FF094B00225A72074B1B7A002B14BF01230023DBB283F00103DBB203F00103DAB2014B1A7211E0BC83FF1FA0C90100ACC90100E0C70100B8C90100FD
:406B4000C8C90100AE4B5B7A0133DAB2AC4B5A72012387F81431AB4B5B7B83F00103DBB2002B64D0A84B5B781846F9F70DFF0346002B2ED0A420F9F7CBFAC7F82C01D7F855
:406B80002C31002B53D0A14BC7F82831D7F82C311C1DD7F8280115F0F1F903469BB2009301AA07F58A7393E8030082E80300B8204FF4E8712246D7F8283100F00DFD0346DB
:406BC0001A46D7F82C315A80D7F82C31C2221A702DE0A420F9F79CFAC7F82C01D7F82C31002B24D007F10C0318460021202215F050F9D7F82C311D1D07F10C0420230093AD
:406C000001AA07F58A7393E8030082E80300B8204FF4E8712A46234600F0DEFC03461A46D7F82C315A80D7F82C31C2221A70784B1B78DBB2002B72D0A420F9F769FAC7F83F
:406C40002C01D7F82C31002B00F0D580704B5B78DBB2002B2FD06F4BC7F82431D7F82C311C1DD7F8240115F089F903462046D7F824111A4615F002F9D7F82C311C1DD7F811
:406C8000240115F07BF903469BB2009301AA07F58A7393E8030082E80300B8204FF4E8712246D7F8243100F097FC03461A46D7F82C315A802EE0584BC7F82031D7F82C315F
:406CC0001C1DD7F8200115F059F903462046D7F820111A4615F0D2F8D7F82C311C1DD7F8200115F04BF903469BB2009301AA07F58A7393E8030082E80300B8204FF4E8716C
:406D00002246D7F8203100F067FC03461A46D7F82C315A80D7F82C31C2221A706BE03F4B5B7883F00103DBB2002B64D0A420F9F7EFF9C7F82C01D7F82C31002B58D007F125
:406D40000C0318462021282215F0A3F8D7F82C311C1D07F10C03184615F010F9024607F10C032046194615F089F8294B9B78042B0DD107F10C032A4A1C4615460FCD0FC48E
:406D80000FCD0FC495E8030084E803000CE007F10C03244A1C4615460FCD0FC40FCD0FC495E80F0007C42380D7F82C311D1D07F10C03184615F0E2F803469BB207F10C0477
:406DC000009301AA07F58A7393E8030082E80300A0204FF4E8712A46234600F0FDFB03461A46D7F82C315A80D7F82C31C2221A700A4B01225A7007F5A477BD46B0BD00BF83
:406E0000BC83FF1F6C83FF1FC03D002000C90100C864002024C901004CC9010070D9FF1FD8C9010070C9010080B584B000AF78607B68FB60FB68DB78392B1DD1104B1422A7
:406E40001A700F4B16225A70FAF74AFC4FF4E070FAF768FCFAF73AFC03460B33084A12781A70FAF733FC03460C33054A52781A704FF4E070FAF7A0FC1037BD4680BD00BF48
:406E8000C03D002080B584B000AF78607B68FB60FB68DB788C2B02D08D2B07D00DE0144B16221A70124B16225A7006E0104B14221A700F4B14225A7000BFFAF711FC4FF4F1
:406EC000E070FAF72FFCFAF701FC03460B33084A12781A70FAF7FAFB03460C33044A52781A704FF4E070FAF767FC1037BD4680BDC03D002080B586B000AF78600023FB752B
:406F00007B683B613B691B6BFB60786802F08AFC0346FB72FB7A524A4FF41C6101FB03F3134408339B78DBB283F00103DBB2002B46D04C4B1B78DBB2012B40D1FB68002B83
:406F40003DD02E2002F026FC03461A46FB6813441B7B002B33D0042002F01CFC03461A46FB6813441B7BBB72BB7A0E2B08D03B691B691B78042B22D13B69DB780E2B1ED1E5
:406F80000123FB753B69FF225A713B695A793B699A72042002F0FEFB03461A46FB68134400221A732E2002F0F5FB03461A46FB68134400221A733B698C229A704BE04AE072
:406FC000FB68002B47D02E2002F0E4FB03461A46FB6813441B7B002B3DD0042002F0DAFB03461A46FB6813441B7B7B727B7A452B02D07B7A002B08D13B691B691B78042BB1
:4070000029D13B69DB78452B25D0FB7A144A4FF41C6101FB03F3134408339B78FB753B69FF225A713B695A793B699A72042002F0B1FB03461A46FB68134400221A732E2087
:4070400002F0A8FB03461A46FB68134400221A733B692B229A70FB7D18461837BD4680BDC83D0020386D002080B584B000AFF9F773FEF860FB68002B47D00023FB72FB7AA4
:40708000FA6813441B225A70FB7A5A1CFA72FA6802339B001344544A5A60FB7AFA6813441F225A70FB7A5A1CFA72FA6802339B0013444E4A5A60FB7AFA68134425225A702E
:4070C000FB7A5A1CFA72FA6802339B001344484A5A60FB7AFA6813441D225A70FB7A5A1CFA72FA6802339B001344424A5A60FB7AFA68134421225A70FB7A5A1CFA72FA6813
:4071000002339B0013443B4A5A60F9F725FEF860FB68002B1DD00023BB72BB7AFA6813441E225A70BB7A5A1CBA72FA6802339B001344314A5A60BB7AFA68134422225A702A
:40714000BB7A5A1CBA72FA6802339B0013442A4A5A6000F057F8F9F76FFB78607B68002B0BD07B6825225A707B6806229A707B680A225A817B680322DA701E20F9F768FC50
:4071800078607B68002B12D01C4A7B6853637B681A4AC3F890217B681E225A707B6806229A707B6864225A817B680322DA702220F9F74EFC78607B68002B12D0104A7B683C
:4071C00053637B680E4AC3F890217B6822225A707B6806229A707B6864225A817B680322DA701037BD4680BD41360000F9370000D5720000CD580000716100003083FF1F59
:407200006C83FF1F90B587B000AFAA233B7370237B730023BB732D4B1B691B78FB73CC233B7433237B74C323BB743C23FB74A320F8F76EFF78617B69002B15D0234B00228A
