:4000000000800020110000001D5701001D57010080B500AF024A034B1B68136015F0AAFBBC760040FA46004010B5054C237833B9044B13B10448AFF300800123237010BD73
:4000400030CFFF1F00000000A8B40100084B10B51BB108480849AFF300800848036803B910BD074B002BFBD0BDE81040184700BF00000000A8B4010034CFFF1F0881FF1F9B
:400080000000000080B582B000AF0023FB7118E0FB794FF4867202FB03F30D4A13443B603B681B78DBB2C22B08D13B68D3F808315B6838689847386800F0C6F8FB79013350
:4000C000FB71FB79132BE3D90837BD4680BD00BF90CFFF1F80B485B000AF0346FB710B4BFB6008E0FB681B78FA799A4200D106E0FB684C33FB60FB681B78A52BF2D1FB68E0
:4001000018461437BD465DF8047B70470C81FF1F90B585B000AF0346FB710023FB600023FB7245E0FB7A264A4FF4867101FB03F313441B78DBB2C02B37D1FB7A204A4FF42F
:40014000867101FB03F31344C1221A70FB7A1C4A4FF4867101FB03F3134400225A80FC7AFB791846FFF7B6FF0146154A4FF4867303FB04F3134403F584731960FB7A4FF437
:40018000867202FB03F30E4A13440433184600214FF480721AF01DFDFB7A4FF4867202FB03F3074A1344FB6005E0FB7A0133FB72FB7A132BB6D9FB6818461437BD4690BD57
:4001C00090CFFF1F80B582B000AF0023FB712DE0FB791B4A4FF4867101FB03F31344C0221A70FB79164A4FF4867101FB03F3134400225A80FB794FF4867202FB03F3104AB9
:4002000013440433184600214FF480721AF0E1FCFB790B4A4FF4867101FB03F3134403F5847300221A60FB790133FB71FB79132BCED9044800F052F80837BD4680BD00BF8D
:4002400090CFFF1F8500000080B582B000AF78607B68C0221A707B6800225A807B680433184600214FF480721AF0B3FC7B680022C3F808210837BD4680BD00BF80B584B049
:4002800000AF03463960FB711346BB800023FB730E4BBB6010E0BB681B78FA799A4208D1BB685B68BA883868114698470346FB7306E0BB680833BB60BB681B78A52BEAD185
:4002C000FB7B18461037BD4680BD00BFD482FF1F80B400AFBD465DF8047B704780B483B000AF78600B4B93F840300F2B0CD8094B93F840305A1CD1B2064A82F840101946E1
:40030000044A7B6842F821300C37BD465DF8047B704700BF80E4FF1F80B582B000AF0023FB7111E0FB790D4A52F823300C4A13600B4B1B68002B03D0094B1B68984700E0BB
:4003400008E0FB790133FB71044B93F84030FA799A42E7D30837BD4680BD00BF80E4FF1FC4E4FF1FF0B587B000AFC7E902017A600123FB755FE0FB7D013B7A68D618FB7DC1
:40038000184619F0E7FD02460B464FF000006B4918F0C0FB02460B46104619461AF0EAF803461A464FF00003D7E902011AF002F914461D46FB7D013B184619F0DBFD0246BE
:4003C0000B464FF000005D4918F0A4FB02460B46104619461AF0CEF803461A464FF00003D7E902011AF0E6F8A41A65EB0305FB7D013B184619F0BEFD02460B464FF00000A8
:400400004E4918F087FB02460B46104619461AF0B1F803461A464FF00003204629461AF0C9F802460B46D3B243F03003DBB23370FB7D0133FB75FB7D184619F08BFD024690
:400440000B464FF000003D4918F064FB02460B46104619461AF08EF803461A464FF00003D7E902011AF0A6F810461946D7E90223994208BF90427FF47EAFFB7D013B7A6887
:40048000D618FB7D184619F065FD02460B464FF000002A4918F03EFB02460B46104619461AF068F803461A464FF00003D7E902011AF080F814461D46FB7D013B184619F0C1
:4004C00059FD02460B464FF000001C4918F022FB02460B46104619461AF04CF803461A464FF00003D7E902011AF064F8A41A65EB0305FB7D013B184619F03CFD02460B4691
:400500004FF000000D4918F005FB02460B46104619461AF02FF803461A464FF00003204629461AF047F802460B46D3B243F03003DBB233701C37BD46F0BD00BF00002440BC
:4005400080B485B000AF78600B46FB7000237B730023FB7327E0FB78013B7A6813441B787B73FB78023BDBB2BB730FE097F90E3001337A68134497F90E2079680A441278B1
:400580001A70BB7BDBB2013BDBB2BB7397F90E20FB7B9A42EADAFB7B7A6813447A7B1A70FB7B0133FB73FA7BFB78013B9A42D2DB1437BD465DF8047B704700BFB0B584B0FF
:4005C00000AF78600B467B800023FB600023FB7234E0FB7A184619F0BDFC02460B461046194618F03FFA04460D46FB7A7A6813441B7803F00F03184619F0BCFC02460B4647
:400600002046294619F01CFD02460B4614461D46F86819F09FFC02460B461046194622462B4619F05BFB02460B461046194619F0A1FF0346FB60FB7A0133FB72FB7A9BB270
:400640007A889A42C5D8FB6818461037BD46B0BD80B485B000AF03460A46FB711346BB71FA79BB795340FB710023FB7312E0FB7903F00103002B07D0FB795B08DBB283F078
:400680007303DB43FB7102E0FB795B08FB71FB7B0133FB73FB7B072BE9D9FB7918461437BD465DF8047B704780B584B000AF78600B467B800023FB730023BB810DE0BB898B
:4006C0007A6813441B78FA7B10461946FFF7C0FF0346FB73BB890133BB81BA897B889A42EDD3FB7B18461037BD4680BD80B584B000AF0023FB732CE0FB7B484A4FF4CC716A
:4007000001FB03F3134400225A70FB7B434A4FF4CC7101FB03F313440122DA70FB7B3F4A4FF4CC7101FB03F3134401229A70FB7B4FF4CC7202FB03F30833384A1344043321
:40074000184600214FF4C0721AF043FAFB7B0133FB73FB7B2D2BCFD90023FB7323E0FB7B2F4A2C2101FB03F3134401221A70FB7B2C2202FB03F32A4A1344013318460021B5
:4007800008221AF026FAFB7B2C2202FB03F30833234A134404331846002108221AF019FAFB7B0133FB73FB7B0F2BD8D900F0D4FAB860BB68002B2BD00023FB71FB79BA6875
:4007C000134404225A70FB795A1CFA71BA6802339B001344134A5A60FB79BA68134405225A70FB795A1CFA71BA6802339B0013440D4A5A60FB79BA68134406225A70FB791D
:400800005A1CFA71BA6802339B001344074A5A600748FFF763FD1037BD4680BDD8E4FF1F282E00202116000091160000AD160000C10D00000000000090B585B000AF00234C
:40084000FB601AF0CFF90346184619F093FB02460B461046194646A3D3E9002319F01AFD02460B46104619464FF00002424B19F0E7FB02460B46104619464FF000023F4BB7
:4008800019F02CFA02460B461046194619F072FE0346FB8000237B8100BF7B895A1C7A81FA889A42F9D800237B7257E07B7A344A4FF4CC7101FB03F31344DB78DBB2012B6D
:4008C00049D17B7A2E4A4FF4CC7101FB03F3134400221A707B7A2A4A4FF4CC7101FB03F3134400229A807B7A254A4FF4CC7101FB03F313440222DA707C7A18F0A3F8034611
:4009000019461F4A4FF4CC7303FB04F313440A46DA807B7A1A4A4FF4CC7101FB03F31344083300221A807B7A4FF4CC7202FB03F30833134A13440433184600214FF4C072DB
:400940001AF047F97B7A4FF4CC7202FB03F30C4A1344FB6005E07B7A01337B727B7A2D2BA4D9FB6818461437BD4690BDAFF300800000C0FFFFFFDF41000090400000244068
:40098000D8E4FF1FAFF3008080B584B000AF0346FB710023FB731AF025F90346184619F0E9FA02460B461046194623A3D3E9002319F070FC02460B46104619464FF000022B
:4009C0001F4B19F03DFB02460B46104619464FF000021C4B19F082F902460B461046194619F0C8FD03463B810023BB8100BFBB895A1CBA813A899A42F9D80023FB7211E0AD
:400A0000FB7A114A4FF4CC7101FB03F313445B78DBB2FA799A4202D10123FB7305E0FB7A0133FB72FB7A2D2BEAD9FB7B18461037BD4680BDAFF300800000C0FFFFFFDF4124
:400A40000000904000002440D8E4FF1FAFF3008090B587B000AF0346FB7100237B611AF0C1F80346184619F085FA02460B461046194655A3D3E9002319F00CFC02460B46A6
:400A8000104619464FF00002514B19F0D9FA02460B46104619464FF000024E4B19F01EF902460B461046194619F064FD0346FB8100237B8200BF7B8A5A1C7A82FA899A424E
:400AC000F9D800237B7418E07B7C434A4FF4CC7101FB03F313445B78DBB2FA799A4209D17B7C4FF4CC7202FB03F33B4A13447B617B6964E07B7C01337B747B7C2D2BE3D9D5
:400B000000237B7457E07B7C334A4FF4CC7101FB03F31344DB78DBB2012B49D17B7C2E4A4FF4CC7101FB03F3134400221A707B7C294A4FF4CC7101FB03F313440222DA7084
:400B40007C7C17F07FFF03461946234A4FF4CC7303FB04F313440A46DA807B7C1E4A4FF4CC7101FB03F31344083300221A807B7C194A4FF4CC7101FB03F3134400229A80ED
:400B80007B7C4FF4CC7202FB03F30833124A13440433184600214FF4C0721AF01AF87B7C4FF4CC7202FB03F30B4A13447B6105E07B7C01337B747B7C2D2BA4D97B69184695
:400BC0001C37BD4690BD00BF0000C0FFFFFFDF410000904000002440D8E4FF1FAFF3008080B584B000AF0346FB710023FB7307E0FB7B374A002142F82310FB7B0133FB73A4
:400C0000FB7B032BF4D919F0EDFF0346184619F0B1F902460B46104619462BA3D3E9002319F038FB02460B46104619464FF00002284B19F005FA02460B46104619464FF026
:400C40000002254B19F04AF802460B461046194619F090FC03463B810023BB8100BFBB895A1CBA813A899A42F9D80023FB730023FB721CE0FB7A194A4FF4CC7101FB03F3E5
:400C800013445B78DBB2FA799A420DD1FB7B5A1CFA731946FB7A4FF4CC7202FB03F30F4A13440B4A42F82130FB7A0133FB72FB7A2D2B02D8FB7B032BDCD9054B1846103714
:400CC000BD4680BDAFF300800000C0FFFFFFDF41C8E4FF1F0000904000002440D8E4FF1F80B483B000AF78607B6800225A707B680122DA707B6801229A707B680022DA8061
:400D00000C37BD465DF8047B704700BF80B584B000AF0346FB710023FB7314E0FB7B4FF4CC7202FB03F30B4A1344BB60BB685B78DBB2FA799A4203D1B868FFF7D1FF05E0AF
:400D4000FB7B0133FB73FB7B2D2BE7D91037BD4680BD00BFD8E4FF1F80B483B000AF00237B600023FB700023FB701CE0FB78134A2C2101FB03F313441B78DBB2012B0FD1EF
:400D8000FB780E4A2C2101FB03F3134403221A70FB782C2202FB03F3084A13447B6005E0FB780133FB70FB780F2BDFD97B6818460C37BD465DF8047B704700BF282E002048
:400DC000B0B586B000AF0023FB75CEE2FB7D4FF4CC7202FB03F3B44A13443B613B69DB78DBB2032B40F0BE823B699B78DBB2013B072B00F2B78201A252F823F06513000012
:400E00001D0E0000470E0000710E00009B0E00004F0F0000B11000000B120000FB7D4FF4CC7202FB03F3A04A1344184600F0A8FAFB7D4FF4CC7202FB03F39B4A134418462B
:400E4000FFF74EFF8EE2FB7D4FF4CC7202FB03F3954A1344184600F0DFFAFB7D4FF4CC7202FB03F3904A13441846FFF739FF79E2FB7D4FF4CC7202FB03F38B4A13441846FC
:400E800000F02AFBFB7D4FF4CC7202FB03F3864A13441846FFF724FF64E217F0D3FD03461846FB7D804A4FF4CC7101FB03F3134408331B889BB21A464FF47A7303FB02F316
:400EC0000344FA7D78494FF4CC7000FB02F20A44D28892B29B1AFB60F86819F04BF802460B46104619464FF00002704B19F0D2F902460B4614461D46FB7D6B4A4FF4CC713C
:400F000001FB03F313449B889BB2184619F032F802460B462046294619F022FB0346002B00D11FE2FB7D4FF4CC7202FB03F35E4A1344184600F0D0FAFB7D4FF4CC7202FB94
:400F400003F3594A13441846FFF7CAFE0AE217F079FD03461846FB7D534A4FF4CC7101FB03F3134408331B889BB21A464FF47A7303FB02F30344FA7D4B494FF4CC7000FBFD
:400F800002F20A44D28892B29B1ABB60B86818F0F1FF02460B46104619464FF00002434B19F078F902460B4614461D46FB7D3E4A4FF4CC7101FB03F3134408335B889BB248
:400FC000184618F0D7FF02460B462046294619F0C7FA0346002B00D1C4E1B86818F0CAFF02460B46104619464FF000022F4B19F051F902460B4614461D46FB7D2A4A4FF4C1
:40100000CC7101FB03F313449B889BB2184618F0B1FF02460B462046294619F0A1FA0346002B00D19EE1FB7D4FF4CC7202FB03F31D4A1344184600F0EFF9FC7D17F002FD6F
:4010400003461946184A4FF4CC7303FB04F313440A46DA80FB7D144A4FF4CC7101FB03F31344083300221A80FB7D0F4A4FF4CC7101FB03F3134400229A80FB7D0A4A4FF473
:40108000CC7101FB03F313441B78DBB2002B0AD0FB7D4FF4CC7202FB03F3034A13441846FFF71EFE5EE15DE1D8E4FF1F00408F4017F0C8FC03461846FB7DAF4A4FF4CC71BC
:4010C00001FB03F3134408331B889BB21A464FF47A7303FB02F30344FA7DA7494FF4CC7000FB02F20A44D28892B29B1A7B60786818F040FF02460B46104619464FF00002AB
:401100009E4B19F0C7F802460B4614461D46FB7D994A4FF4CC7101FB03F3134408335B889BB2184618F026FF02460B462046294619F016FA0346002B00D113E1786818F0E6
:4011400019FF02460B46104619464FF000028B4B19F0A0F802460B4614461D46FB7D864A4FF4CC7101FB03F313449B889BB2184618F000FF02460B462046294619F0F0F9B5
:401180000346002B00D1EDE0FB7D4FF4CC7202FB03F3794A1344184600F0F8F9FC7D17F051FC03461946744A4FF4CC7303FB04F313440A46DA80FB7D6F4A4FF4CC7101FB80
:4011C00003F31344083300221A80FB7D6A4A4FF4CC7101FB03F3134400229A80FB7D664A4FF4CC7101FB03F313441B78DBB2002B0AD0FB7D4FF4CC7202FB03F35E4A134479
:401200001846FFF76DFDADE0ACE017F01BFC03461846FB7D584A4FF4CC7101FB03F3134408331B889BB21A464FF47A7303FB02F30344FA7D50494FF4CC7000FB02F20A446E
:40124000D28892B29B1A3B60386818F093FE02460B46104619464FF00002484B19F01AF802460B4614461D46FB7D434A4FF4CC7101FB03F3134408335B889BB2184618F015
:4012800079FE02460B462046294619F069F90346002B00D165E0386818F06CFE02460B46104619464FF00002344B18F0F3FF02460B4614461D46FB7D2F4A4FF4CC7101FB77
:4012C00003F313449B889BB2184618F053FE02460B462046294619F043F90346002B00D13FE0FB7D4FF4CC7202FB03F3224A1344184600F0F1F8FC7D17F0A4FB03461946B6
:401300001D4A4FF4CC7303FB04F313440A46DA80FB7D194A4FF4CC7101FB03F31344083300221A80FB7D144A4FF4CC7101FB03F3134400229A80FB7D0F4A4FF4CC7101FB0B
:4013400003F313441B78DBB2002B0AD0FB7D4FF4CC7202FB03F3084A13441846FFF7C0FCFFE700BFFB7D0133FB75FB7D2D2B7FF62DAD1837BD46B0BDD8E4FF1F00408F40CE
:4013800080B584B000AF78600023FB730023BB730023FB7337E00023BB732EE0FA7BBB7B1C492C2000FB02F213440B445B78002B00D125E0FA7BB97B164813469B0013443D
:4013C0005B0013440B4402339B0003445B68002B0FD0FA7BB97B0F4813469B0013445B0013440B4402339B0003445B687868984700E005E0BB7B0133BB73BB7B072BCDD9B8
:40140000FB7B0133FB73FB7B0F2BC4D91037BD4680BD00BF282E002080B584B000AF78600023FB730023BB7300237B730023BB734AE000237B733DE0BA7B7B7B25492C201A
:4014400000FB02F213440B445B78002B00D134E0BA7B7B7B1F492C2000FB02F213440B445A787B685B78DBB29A4220D1BA7B797B184813469B0013445B0013440B44023394
:401480009B0003445B68002B0ED0BA7B797B114813469B0013445B0013440B4402339B0003445B68786898470123FB7305E07B7B01337B737B7B072BBED9FB7B002B00D058
:4014C00005E0BB7B0133BB73BB7B0F2BB1D91037BD4680BD282E002080B584B000AF78600023FB730023BB730023FB7345E00023BB733CE0FA7BBB7B23492C2000FB02F231
:4015000013440B445B78002B00D133E0FA7BBB7B1D492C2000FB02F213440B445A787B685B78DBB29A421FD1FA7BB97B164813469B0013445B0013440B4402339B000344E6
:401540005B68002B0FD0FA7BB97B0F4813469B0013445B0013440B4402339B0003445B687868984706E005E0BB7B0133BB73BB7B072BBFD9FB7B0133FB73FB7B0F2BB6D9FF
:401580001037BD4680BD00BF282E002080B584B000AF78600023FB730023BB730023FB7335E00023BB732CE0FA7BBB7B1B492C2000FB02F213440B445B78002B00D123E0D8
:4015C000FA7BB97B154813469B0013445B0013440B4402339B0003445B68002B0ED0FA7BB97B0E4813469B0013445B0013440B4402339B0003445B6878689847BB7B013368
:40160000BB73BB7B072BCFD9FB7B0133FB73FB7B0F2BC6D91037BD4680BD00BF282E002080B485B000AF78600023FB7325E0FB7B4FF4CC7202FB03F3144A1344BB60BB68E6
:401640009B78DBB2072B0ED0BB689B78DBB2062B09D0BB689B78DBB2082B04D0BB689B78DBB2052B06D1BB681B899BB201339AB2BB681A81FB7B0133FB73FB7B2D2BD6D972
:401680001437BD465DF8047B704700BFD8E4FF1F80B584B000AF78607B68FB60FB681B7B1846FFF733FB1037BD4680BD80B584B000AF78607B68FB60FB68D3F8903118460D
:4016C000FFF70EFB1037BD4680BD00BF80B400AF024B1846BD465DF8047B7047EA30002080B500AF02480021422219F072FA80BDE830002080B400AF034B01221A70BD46D1
:401700005DF8047B704700BF4CCFFF1F80B400AF034B00221A70BD465DF8047B704700BF4CCFFF1F90B585B000AF0346FB8016F03DFFFB881B0A9BB2DAB21E4B1A70FB889D
:40174000DAB21C4B5A705420002116F0D5FD0346BB81BB89002B2AD10023FB7308E0FB7B144AD35C184616F0A3FEFB7B0133FB73FB7B012BF3D95420012116F01BFE03464B
:40178000BB81BB89002B10D10223FB730AE0FC7B012016F0CDFE03461A46064B1A55FB7B0133FB73FB7B412BF1D916F055FE1437BD4690BDE830002080B584B000AF0346FD
:4017C000FB800023FB73002016F064FF0023BB8116F0ECFEFB881B0A9BB2DAB2184B1A70FB88DAB2164B5A705420002116F084FD0346BB81BB89002B13D10023BB7308E030
:40180000BB7B0F4AD35C184616F052FEBB7B0133BB73BB7B412BF3D916F01EFE052014F0E3FDBB89002B04D0FB7B5A1CFA73092BCED9012016F02EFF1037BD4680BD00BFF4
:40184000E830002080B400AF024B1846BD465DF8047B70472C31002080B500AF02480021102219F0B6F980BD2C31002080B582B000AF0023FB710023BB7116F097FE68208D
:40188000002116F039FD03467B717B79002B53D1002016F00DFEFB795A1CFA711A46314B9B5C03F07F03DBB2184616F001FEFB795A1CFA711A462B4B9B5C03F07F03DBB271
:4018C000184616F0F5FDFB795A1CFA711A46254B9B5C03F03F03DBB2184616F0E9FDFB795A1CFA711A461F4B9B5C03F00703DBB2184616F0DDFDFB795A1CFA711A46194B73
:401900009B5C03F03F03DBB2184616F0D1FDFB795A1CFA711A46134B9B5C03F01F03DBB2184616F0C5FDFB795A1CFA711A460D4B9B5C184616F0BCFD16F08EFD682000218F
:4019400016F0DAFC03467B717B79002B07D10E2016F0AEFD042016F0ABFD16F07DFD0837BD4680BD2C31002090B583B000AF16F01DFE6820002116F0BFFC0346BB80BB88B9
:40198000002B02D1002016F093FD16F065FD16F00DFE6820012116F0AFFC0346BB80BB88002B1CD10023FB7116E0FB79052B08D8FC79012016F0BCFD03461A460A4B1A55F5
:4019C00007E0FC79002016F0B3FD03461A46064B1A55FB790133FB71FB79062BE5D916F03BFD0C37BD4690BD2C31002080B582B000AF0023FB710023BB716820002116F0E4
:401A00007BFC03467B717B79002B07D10E2016F04FFD042016F04CFD16F01EFD0837BD4680BD00BF80B500AF14F03AF914F098FD15F0BEFA15F00CFE14F06EFF16F070FA50
:401A400000F012F8FEF752FEFEF7BCFBFEF740FC0DF026FF05F0DCF809F09CF901F03AF909F08AFA80BD00BF80B500AF16F09CFF044816F03DF916F061FE034816F0D4FE9F
:401A800080BD00BF8D1A0000CD1A000080B582B000AF16F0A9FF0420FEF7DAFF78607B68002B08D07B6804225A707B6803229A707B680322DA70044B5B680133024A5360AC
:401AC0000837BD4680BD00BF0C63002080B582B000AF16F053FE0720FEF7BAFF78607B68002B08D07B6807225A707B6803229A707B680322DA700837BD4680BD80B584B0F7
:401B000000AF78600B467B8013467B700023FB730023BB811AE016F049FD0720002116F0EBFB0346FB73FB7B002B0CD17B78184616F0BEFCBB897A6813441B78184616F06A
:401B4000B7FC16F089FCBB890133BB81BA897B889A42E0D3FB7B18461037BD4680BD00BF80B582B000AF78600B467B80184BDB889BB2002B07D0164BDB889BB27A889A4246
:401B800011D200231FE0124B9B68114A11687A88084679689847034683F00103DBB2002B01D000230FE07B880A4879681A4619F005F8074A7B88D380054B01221A71064BEF
:401BC00002221A60012318460837BD4680BD00BF3C3100204831002080E100E080B584B000AF78607B68BB60BB68002B1CD0052014F0FAFB0023FB730FE0BB68D3F8083133
:401C00009B6BFA7BB9680A44127910469847012014F0EAFBFB7B0133FB73FB7B9AB2BB685B889BB29A42E8D31037BD4680BD00BF80B588B000AF78607B683B610023FB61F4
:401C4000444BBB612E2007F0A7FA03461A463B6913441B7BFB730FE0BB691B78012B08D1BB695B78FA7B9A4203D1BB695B68FB6106E0BB690833BB61BB691B78FF2BEBD123
:401C8000FB69002B62D0FB6903F11C023B690C33104619464FF4C07218F090FF042007F07BFA03461A463B6913441B7BBB73BB7B0D2B10D1052007F06FFA03461A463B6930
:401CC00013441B7B7B737B7B18460AF03BF80246FB699A6108E0BB7B0E2B05D144200AF031F80246FB699A61FB690022DA71FB699B6904337B617B69002B27D022E0164BD1
:401D0000D3F8483814489847B860BB68002B16D0BB687A695A61BB6800229A61BB68FA69DA61BB68DB69D3F8B039BA68D26910469847094BD3F84C380748B96898477B698C
:401D400034337B617B691B68002BD8D12037BD4680BD00BF0483FF1FA45A002080B588B000AF78607B683B610023FB61444BBB612E2007F011FA03461A463B6913441B7BA5
:401D8000FB730FE0BB691B78022B08D1BB695B78FA7B9A4203D1BB695B68FB6106E0BB690833BB61BB691B78FF2BEBD1FB69002B62D0FB6903F11C023B690C3310461946DD
:401DC0004FF4C07218F0FAFE042007F0E5F903461A463B6913441B7BBB73BB7B0D2B10D1052007F0D9F903461A463B6913441B7B7B737B7B184609F0A5FF0246FB699A6110
:401E000008E0BB7B0E2B05D1442009F09BFF0246FB699A61FB690022DA71FB699B6904337B617B69002B27D022E0164BD3F8483814489847B860BB68002B16D0BB687A694A
:401E40005A61BB6800229A61BB68FA69DA61BB68DB69D3F8B039BA68D26910469847094BD3F84C380748B96898477B6934337B617B691B68002BD8D12037BD4680BD00BF4F
:401E80000483FF1FA45A002080B588B000AF78600023FB617B683B610023FB7636E0FB7E444A40F6B81101FB03F3134408335B78DBB2012B27D1FB7E40F6B81202FB03F349
:401EC0003C4A1344FB61FB7E3A4A40F6B81101FB03F31344083302225A70FB7E0133364A9278934203DB334B01225A7213E0FB7E0133304A40F6B81101FB03F31344083347
:401F000001225A7007E0FB7E0133FB762A4B9B78FA7E9A42C3D3FB69002B48D0FB6901225A71482009F00EFF0246FB699A61FB699B6904337B617B69002B32D02DE01F4B2C
:401F4000D3F848381D489847F860FB68002B21D0FB6800221A70FB687A695A61FB6800229A61FB68FA69DA61FB68DB69D3F8B039FA68D269104698473B69D3F89421FB68B6
:401F80001A62FB683A695A620C4BD3F84C380B48F96898477B6934337B617B691B68002BCDD1F86900F00CF8F86900F057F82037BD4680BDB0330020905A0020A45A00209C
:401FC00080B586B000AF78607B683B613B699B78DBB20B2B04D03B699B78DBB20A2B37D1492009F0AFFE02463B699A613B699B6904337B617B69002B2AD025E0164BD3F8B6
:40200000483815489847F860FB68002B19D0FB6800221A70FB687A695A61FB6800229A61FB683A69DA61FB68DB69D3F8B039FA68D26910469847084BD3F84C380648F968C6
:4020400098477B6934337B617B691B68002BD5D11837BD4680BD00BFA45A002080B586B000AF78607B683B613B699B78DBB2062B04D03B699B78DBB2072B3CD13B699B79C1
:40208000DBB2002B37D0462009F05CFE02463B699A613B699B6904337B617B69002B2AD025E0164BD3F8483814489847F860FB68002B19D0FB6800221A70FB687A695A6132
:4020C000FB6800229A61FB683A69DA61FB68DB69D3F8B039FA68D26910469847074BD3F84C380648F96898477B6934337B617B691B68002BD5D11837BD4680BDA45A0020B7
:4021000090B58DB000AF78607B68FB619D4B9B78002B02D19B4B01225A70002387F82F3000BF984B9B7897F82F209A424FD297F82F3040F6B81202FB03F3934A1344BB61C9
:40214000BB69002B42D0BB6903F11C02FB690C33104619464FF4C07218F030FD4D2009F0F1FD0246BB699A61BB699B690433BB62BB6A002B2AD025E0844BD3F8483883485B
:40218000984778617B69002B19D07B6900221A707B69BA6A5A617B6900229A617B69BA69DA617B69DB69D3F8B0397A69D26910469847764BD3F84C38744879699847BB6AF8
:4021C0003433BB62BB6A1B68002BD5D100BF002387F82F305BE097F82F40482009F0B2FD0146694A40F6B81303FB04F313441833196097F82F30644A40F6B81101FB03F341
:40220000134418331B6804337B627B6A002B39D034E05E4BD3F848385C48984738613B69002B28D03B6900221A703B697A6A5A613B6900229A6197F82F3040F6B81202FB22
:4022400003F3514A1A443B69DA613B69DB69D3F8B0393A69D26910469847FB69D3F894213B691A623B69FA695A62484BD3F84C384648396998477B6A34337B627B6A1B6898
:40228000002BC6D197F82F30013387F82F303D4B9B7897F82F209A429DD3002387F82F305BE097F82F40492009F04CFD0146364A40F6B81303FB04F313441833196097F84B
:4022C0002F30314A40F6B81101FB03F3134418331B6804333B623B6A002B39D034E02B4BD3F8483829489847F860FB68002B28D0FB6800221A70FB683A6A5A61FB680022E8
:402300009A6197F82F3040F6B81202FB03F31E4A1A44FB68DA61FB68DB69D3F8B039FA68D26910469847FB69D3F89421FB681A62FB68FA695A62154BD3F84C381348F96880
:4023400098473B6A34333B623B6A1B68002BC6D197F82F30013387F82F300A4B9B7897F82F209A429DD30A4B1B68002B03D0084B1B68F8699847FB6901221A703437BD46EE
:4023800090BD00BF905A0020B0330020A45A002050CFFF1F80B588B000AF78607B687B610023FB777AE0FB7F40F6B81202FB03F3404A13443B613B69002B6CD00023BB77BD
:4023C000FB7F032B1AD801A252F823F0DD230000E5230000ED230000F5230000364BDB78BB770BE0344B1B79BB7707E0324B5B79BB7703E0304B9B79BB7700BF3B6900224A
:40240000DA7000237B7742E03B691C33184600214FF4C07218F0DDFB452009F093FC02463B699A613B699B690433BB61BB69002B2AD025E0214BD3F8483820489847F860E1
:40244000FB68002B19D0FB6800221A70FB68BA695A61FB6800229A61FB683A69DA61FB68DB69D3F8B039FA68D26910469847134BD3F84C381148F9689847BB693433BB61BA
:40248000BB691B68002BD5D17B7F01337B777A7FBB7F9A42B8D3FB7F0133FB77064B9B78FA7F9A42FFF47FAF7B6901221A702037BD4680BDB0330020905A0020A45A00209D
:4024C00090B58DB000AF78607B68BB62BB6A1B7B184600F0CDFB78627B6A002B00F0A081BB6A5A7B7B6ADA70FFF704F9FFF7F8F87B6A1B78184600F061FB03467B847B8C94
:402500001846FFF70FF97B6ADB78DBB2032B00F2458101A252F823F029250000C325000061260000FF260000A64BDB79032B3AD1A44B1B7A022B36D1BB6A03F10E02BB6A2E
:402540001B7D9BB210461946FEF738F8F861FB699D4AA2FB0323DB08184617F0FBFC02460B461046194616F085FA02460B461046194617F0FFFF0346FB61BB6A03F10E0202
:40258000BB6A1B7D104600211A4618F022FBFB691A464FF00003B96A01F10E04104619462246FDF7DFFEFFF791F80146BB6A03F10E02BB6A1B7D084611461A4618F0FEFA96
:4025C000ECE0804BDB79032B3AD17E4B1B7A022B36D1BB6A03F10E02BB6A1B7D9BB210461946FDF7EBFFB861BB69774AA2FB0323DB08184617F0AEFC02460B46104619465E
:4026000016F038FA02460B461046194617F0B2FF0346BB61BB6A03F10E02BB6A1B7D104600211A4618F0D5FABB691A464FF00003B96A01F10E04104619462246FDF792FED5
:40264000FFF744F8034603F11001BB6A03F10E02BB6A1B7D084611461A4618F0AFFA9DE0584BDB79032B3AD1564B1B7A022B36D1BB6A03F10E02BB6A1B7D9BB2104619463F
:40268000FDF79CFF78617B694F4AA2FB0323DB08184617F05FFC02460B461046194616F0E9F902460B461046194617F063FF03467B61BB6A03F10E02BB6A1B7D1046002160
:4026C0001A4618F086FA7B691A464FF00003B96A01F10E04104619462246FDF743FEFEF7F5FF034603F12001BB6A03F10E02BB6A1B7D084611461A4618F060FA4EE0314BB5
:40270000DB79032B3AD12F4B1B7A022B36D1BB6A03F10E02BB6A1B7D9BB210461946FDF74DFF38613B69284AA2FB0323DB08184617F010FC02460B461046194616F09AF9F4
:4027400002460B461046194617F014FF03463B61BB6A03F10E02BB6A1B7D104600211A4618F037FA3B691A464FF00003B96A01F10E04104619462246FDF7F4FDFEF7A6FF0D
:40278000034603F13001BB6A03F10E02BB6A1B7D084611461A4618F011FA00BF7B8C1846FFF70AF8FEF7B2FF452009F0CBFA02467B6A9A617B6A9B690433FB62FB6A002B93
:4027C0002ED029E0905A0020CDCCCCCC174BD3F8483816489847F860FB68002B19D0FB6800221A70FB68FA6A5A61FB6800229A61FB687A6ADA61FB68DB69D3F8B039FA688E
:40280000D26910469847094BD3F84C380748F9689847FB6A3433FB62FB6A1B68002BD5D1BB6A01221A703437BD4690BDA45A002080B586B000AF78607B683B613B691B7BBE
:40284000184600F015FAF860FB68002B37D0472009F078FA0246FB689A61FB689B6904337B617B69002B2AD025E0184BD3F8483816489847B860BB68002B19D0BB6800228F
:402880001A70BB687A695A61BB6800229A61BB68FA68DA61BB68DB69D3F8B039BA68D26910469847094BD3F84C380848B96898477B6934337B617B691B68002BD5D13B692A
:4028C00001221A701837BD4680BD00BFA45A002080B586B000AF7860FEF702FF4FF40070FEF720FFFEF7F2FE034600221A704FF40070FEF761FFFEF7F3FE4FF41070FEF790
:4029000011FFFEF7E3FE034600221A704FF41070FEF752FFFEF7E4FE4FF42070FEF702FFFEF7D4FE034600221A704FF42070FEF743FFFEF7D5FE4FF43070FEF7F3FEFEF7C7
:40294000C5FE034600221A704FF43070FEF734FF2E4B00229A702E4B3B613B69002B51D03B691C33184600214FF4C07218F031F94A2009F0E7F902463B699A613B699B69FF
:4029800004337B617B69002B3CD037E0214BD3F8483820489847F860FB68002B2BD0FB6801221A70FB687A695A61FB6800229A61FB683A69DA61FB68DB69D3F8B039FA6864
:4029C000D26910469847FB68DB69012283F85829FB68DB69002283F85929FB68DB69FA68D26992F85829D2B21A700A4BD3F84C380848F96898477B6934337B617B691B68BC
:402A0000002BC3D11837BD4680BD00BF905A0020B0330020A45A002090B583B000AF7860FEF75EFE4FF4E070FEF77CFEFEF74EFE03465A7A5D4B9A74FEF748FE03469A7A60
:402A40005B4B1A71FEF74CFE4FF4A070FEF76AFEFEF73CFE034601331B781B029CB2FEF735FE03461B789BB2224613439BB29AB2504B1A80FEF734FE4FF4A070FEF752FEF0
:402A8000FEF724FE0346023318460021102218F0A0F8FEF71BFE0346023300221A70FEF715FE0346033300221A70FEF70FFE0346043305221A70FEF709FE034605330022F3
:402AC0001A704FF4A070FEF777FEFEF7FFFD0346023318460821FDF771FD03469AB2334B9A81FEF7FDFD4FF4C070FEF71BFEFEF7EDFD034618460821FDF760FD03469AB204
:402B00002A4BDA81FEF7ECFD4FF40070FEF70AFEFEF7DCFD034605331B78002B0CBF01230023DAB2244B9A72FEF7DAFD4FF41070FEF7F8FDFEF7CAFD034605331B78002B9D
:402B40000CBF01230023DAB21B4B83F8C229FEF7C7FD4FF42070FEF7E5FDFEF7B7FD034605331B78002B0CBF01230023DAB2124B03F59B531A331A70FEF7B2FD4FF4307061
:402B8000FEF7D0FDFEF7A2FD034605331B78002B0CBF01230023DAB2074B03F5E95312331A70FEF723FF0C37BD4690BD905A002000630020A8CEFF1FB033002080B485B056
:402BC00000AF0346FB710023FB81274B9B78022B02D0042B14D03FE0244B1B78FA799A4203D14FF48063FB8109E0204B93F8B839FA799A4203D14FF48863FB812CE02BE0A1
:402C00001A4B1B78FA799A4203D14FF48063FB8121E0164B93F8B839FA799A4203D14FF48863FB8117E0114B03F59B5310331B78FA799A4203D14FF49063FB810BE00B4B07
:402C400003F5E95308331B78FA799A4203D14FF49863FB81FFE700BFFB8918461437BD465DF8047B704700BF905A0020B033002080B485B000AF0346FB710023FB600023DB
:402C8000FB7216E0FB7A114A40F6B81101FB03F313441B78FA799A4208D1FB7A40F6B81202FB03F3094A1344FB6007E0FB7A0133FB72074B9B78FA7A9A42E3D3FB68184648
:402CC0001437BD465DF8047B704700BFB0330020905A002080B584B000AF08F023FBFEF73BF8F860FB68002B47D00023FB72FB7AFA6813441C225A70FB7A5A1CFA72FA685D
:402D000002339B001344824A5A60FB7AFA68134420225A70FB7A5A1CFA72FA6802339B0013447C4A5A60FB7AFA68134407225A70FB7A5A1CFA72FA6802339B001344764A8B
:402D40005A60FB7AFA6813440A225A70FB7A5A1CFA72FA6802339B001344704A5A60FB7AFA6813440C225A70FB7A5A1CFA72FA6802339B0013446A4A5A60FDF7EDFFF86075
:402D8000FB68002B63D00023BB72BB7AFA6813440D225A70BB7A5A1CBA72FA6802339B001344604A5A60BB7AFA6813440E225A70BB7A5A1CBA72FA6802339B0013445A4A6B
:402DC0005A60BB7AFA6813440F225A70BB7A5A1CBA72FA6802339B001344544A5A60BB7AFA68134411225A70BB7A5A1CBA72FA6802339B0013444E4A5A60BB7AFA681344ED
:402E000012225A70BB7A5A1CBA72FA6802339B001344484A5A60BB7AFA68134410225A70BB7A5A1CBA72FA6802339B001344424A5A60BB7AFA68134413225A70BB7A5A1CC0
:402E4000BA72FA6802339B0013443C4A5A60FDF7F3FC78607B68002B0CD07B680D225A707B6842F210729A807B6805229A707B680322DA70FDF7E0FC78607B68002B0CD031
:402E80007B680E225A707B6843F698229A807B6805229A707B680322DA70FDF7CDFC78607B68002B0FD07B680A225A707B6844F620629A807B68FA225A817B6806229A70DC
:402EC0007B680322DA70FDF7B7FC78607B68002B0ED07B6813225A707B6800229A807B6814225A817B6806229A707B680322DA7015F07CFC03461A46114B1A801148FDF750
:402F0000EDF91148FDF7EAF91037BD4680BD00BF311C00005D1D00003D350000891E0000192A0000D12800000121000095230000C1240000312800005D2000004D2F000008
:402F400054CFFF1F9D3100009532000080B582B000AF8F4BD3F850388D48984778607B68002B00F011817B685B69002B00F00C810023FB700023BB7000237B70854B0022F1
:402F80001A71844B0022DA80834800214FF4007217F01FFE7B68DB6903F5CE73184600214FF4C07217F015FE00233B7079E07B685A693B7813449B7FFF2B6ED00123BB7060
:402FC000FB7883F00103DBB2002B05D07B685A693B7813449B7EFB707B68DB699B78DAB27B6859693B780B449B7F9A4256D17B685B69DB6A002B06D07B685B69DB6A7A68E1
:40300000D269104698477B685B695B68002B29D07B68DB695F4A13607B685B691B7E002B06D07B685B691B7E9AB25A4BDA8004E07B685B69DB68574A93607B685B691B68F7
:403040007A68D269104698477B685A697B689A617B6800225A6115F0C9FB03461A467B681A8217E07B685B691B687A68D269104698477B681B6A002B05D07B681B6A7A68A4
:40308000526A10469847424BD3F854384048984700237B6001237B7006E005E03B7801333B703B78032B82D9BB7883F00103DBB2002B53D07B685B69DB6A002B06D07B68D9
:4030C0005B69DB6A7A68D269104698477B685B695B68002B29D07B68DB692E4A13607B685B691B7E002B06D07B685B691B7E9AB2284BDA8004E07B685B69DB68254A93600B
:403100007B685B691B687A68D269104698477B685A697B689A617B6800225A6115F066FB03461A467B681A822EE07B685B691B687A68D269104698477B681B6A002B05D04F
:403140007B681B6A7A68526A10469847104BD3F854380F48984700237B6015E07B7883F00103DBB2002B0FD0FB78002B07D0084BD3F854380648984700237B6004E0044BBB
:40318000D3F84438024898470837BD4680BD00BFA45A00203C31002048310020B0B582B000AF3A4BD3F850383848984778607B68002B68D07B689B69002B64D07B689B6955
:4031C0001B8A002B5FD015F011FB03461A467B685B8A9BB219464FF47A7303FB01F313447A68128A92B29B1A3B60386816F0C2FE02460B46104619464FF00002244B17F0AC
:4032000049F802460B4614461D467B689B691B8A184616F0AFFE02460B462046294617F09FF90346002B2ED07B6800225A827B6800221A827B68DB899BB201339AB27B6862
:40324000DA817B689B699B68002B04D07B689B699B68786898477B68DB899BB2142B07D90A4BD3F854380948984700237B6006E07B689A697B685A617B6800229A6113F067
:403280002FFD13F085FB0837BD46B0BDA45A002000408F4080B582B000AF884B1B79DBB283F00103DBB2002B00D03EE1844BD3F850388348984778607B68002B00F01B811D
:4032C0007B689B69002B00F016817B6800225A827B6800221A827B68DB6903F5CE72774BDB889BB2104677491A4617F067FC7B68DB69724AD28892B2A3F81C230023FB7019
:403300000023BB7000237B7000233B7061E07B689A693B78134493F82630FF2B55D00123BB70FB7883F00103DBB2002B06D07B689A693B78134493F82230FB707B689B691C
:403340005B68786898477B68DB699B78DAB27B6899693B780B4493F826309A4236D17B681B78DBB283F00103DBB2002B13D07B689B691B6B002B04D07B689B691B6B78688C
:4033800098477B681B6A002B05D07B681B6A7A68526A104698477B681B78DBB283F00103DBB2002B07D0464BD3F854384448984700237B6006E07B689A697B685A617B68E4
:4033C00000229A6101237B7006E005E03B7801333B703B78032B9AD9BB7883F00103DBB2002B38D07B689B695B68786898477B681B78DBB283F00103DBB2002B13D07B6825
:403400009B691B6B002B04D07B689B691B6B786898477B681B6A002B05D07B681B6A7A68526A104698477B681B78DBB283F00103DBB2002B07D0224BD3F854382048984720
:4034400000237B6057E07B689A697B685A617B6800229A614FE07B7883F00103DBB2002B49D0FB78002B07D0154BD3F854381448984700237B603EE07B689B695B7E002BBB
:4034800022D07B681B899BB2132B07D90C4BD3F854380B48984700237B602CE07B681B899BB201339AB27B681A817B689A697B685A617B6800229A611DE000BF3C3100209F
:4034C000A45A0020483100207B685B899BB2002B05D115F08BF903461A467B685A817B689A697B685A617B6800229A61104BD3F844380F4898470F4B00221A710D4B002233
:40350000DA800D4800214FF4007217F062FB7B68DB6903F5CE73184600214FF4C07217F058FB13F0DDFB13F033FA0837BD4680BDA45A00203C3100204831002080B584B0BD
:4035400000AF78601B4B1B8801339AB2194B1A80194BD3F8503818489847F860FB68002B1BD0FB689B69002B17D0FB689B691B8A002B06D0FB685B8A9BB201339AB2FB6878
:403580005A82FB689B695B69002B06D0FB689B899BB201339AB2FB689A8115F027F903461A46064B1A80034B00221A801037BD4680BD00BF56CFFF1FA45A002054CFFF1F86
:4035C00090B58FB000AF78607B68FB62664B1B78DBB2002B00D0BEE0FB6A03F10C02FB6AB3F88C319BB2DBB21046194603F0BCFF03461A465D4BDA705C4803F05DFE5B4B72
:403600009B78FF2B08D1594B5B79FF2B04D1574B9B7AFF2B00F09580544B9B6B002B03D0524B9B6B51489847012387F83730504B3B630CE03B6B1A784C4BDB789A4203D158
:40364000002387F8373006E03B6B01333B633B6B1B78FF2BEED197F83730002B1CD0434803F07EFE78627B6A002B15D07B6A3F489847034683F00103DBB2002B0CD03B4BC6
:40368000FF229A70394B9A78384B5A71374B5A79364B9A7200BF5EE0344805F019FB334B1B6B3B62314803F02BFFF861FB69002B02D0FB692D4898472C4803F0FBFF2B481A
:4036C00003F0EAFEB861BB69002B02D0BB6927489847AA233B7270237B720023BB72234B1B691B78FB72CC233B7333237B73C323BB733C23FB73A320FCF70AFD78617B69CB
:40370000002B12D07B6908225A807B691A1D7B695B889BB21C4607F1080310461946224617F04CFA7B69C2221A70104803F080FE38613B69002B03D03B690C4898470AE07F
:4037400009E00A4803F040FEB862BB6A002B02D0BB6A0648984713F011FE13F065FC00BF3C37BD4690BD00BF905A00203083FF1F2C83FF1F90B58FB000AF78607B68FB62A5
:40378000644B1B78DBB2002B00D0BBE0FB6A03F10C02FB6AB3F88C319BB2DBB21046194603F0E2FE03461A465B4BDA705A4803F083FD594B9B78FF2B08D1574B5B79FF2B06
:4037C00004D1554B9B7AFF2B00F09280524B9B6B002B03D0504B9B6B4F489847012387F837304E4B3B630CE03B6B1A784A4BDB789A4203D1002387F8373006E03B6B013395
:403800003B633B6B1B78FF2BEED197F83730002B1CD0414803F0A4FD78627B6A002B15D07B6A3D489847034683F00103DBB2002B0CD0394BFF229A70374B9A78364B5A71A3
:40384000354B5A79344B9A7200BF5BE0324805F03FFA314803F054FE38623B6A002B02D03B6A2D4898472C4803F024FF2A4803F013FEF861FB69002B02D0FB69264898476A
:40388000AA233B7370237B730023BB73224B1B691B78FB73CC233B7433237B74C323BB743C23FB74A420FCF733FCB861BB69002B12D0BB6908225A80BB691A1DBB695B8849
:4038C0009BB21C4607F10C0310461946224617F075F9BB69C2221A700F4803F0A9FD78617B69002B03D07B690B4898470AE009E0094803F069FDB862BB6A002B02D0BB6A4F
:403900000548984714F08AF813F0DEFE00BF3C37BD4690BD905A00206C83FF1F2C83FF1FB0B590B004AF786003233B724FF6FF73BB810023FB818523BB727B68FB62FDF7F2
:40394000D9FEFDF7CDFE4FF4E070FDF7EBFEFDF7BDFE03461B7A87F82B30FDF7D7FEFB6A1B78002B47D1A320FCF7D2FB78627B6A002B3FD007F1100318460021102217F097
:4039800028F997F82B30012B09D197F82B3007F1100210463C491A4617F05EF908E097F82B3007F11002104638491A4617F054F97B6A1D1D07F11003184617F07FF90346B2
:4039C0009BB207F11004009301AA07F1080393E8030082E80300F0204FF495712A46234603F0CEFB03461A467B6A5A807B6AC2221A7046E045E0A420FCF78AFB38623B6AD3
:403A0000002B3ED007F1100318460021102217F0E0F897F82B30012B09D197F82B3007F11002104618491A4617F016F908E097F82B3007F11002104614491A4617F00CF9A6
:403A40003B6A1D1D07F11003184617F037F903469BB207F11004009301AA07F1080393E8030082E80300F0204FF495712A46234603F086FB03461A463B6A5A803B6AC222A2
:403A80001A703037BD46B0BDB8B40100C4B4010090B58DB004AF786003233B724FF6FF73BB810023FB81C523BB72294BFB617B68BB61BB691B78002B24D1A320FCF728FBB9
:403AC00078617B69002B1CD07B691C1DF86917F0F5F803469BB2009301AA07F1080393E8030082E803006020EA212246FB6903F047FB03461A467B695A807B69C2221A7079
:403B000023E022E0A420FCF703FB38613B69002B1BD03B691C1DF86917F0D0F803469BB2009301AA07F1080393E8030082E803006020EA212246FB6903F022FB03461A4699
:403B40003B695A803B69C2221A702437BD4690BDD0B4010090B58DB004AF786003233B724FF6FF73BB810023FB81C523BB72294BFB617B68BB61BB691B78002B24D1A32095
:403B8000FCF7C6FA78617B69002B1CD07B691C1DF86917F093F803469BB2009301AA07F1080393E8030082E803002020EA212246FB6903F0E5FA03461A467B695A807B6978
:403BC000C2221A7023E022E0A420FCF7A1FA38613B69002B1BD03B691C1DF86917F06EF803469BB2009301AA07F1080393E8030082E803002020EA212246FB6903F0C0FA7C
:403C000003461A463B695A803B69C2221A702437BD4690BDF0B4010090B587B000AF78607B687B617B691B78002B4AD10023FB747B691C6B2E2005F0AFFA034623441B7B4D
:403C4000562B19D1FDF756FDFDF74AFD4FF40070FDF768FDFDF73AFD03465B79BB74FDF755FDBB7C002B03D17B69A5221A7127E07B69A6221A7123E07B691C6B2E2005F033
:403C80008BFA034623441B7B572B19D1FDF732FDFDF726FD4FF42070FDF744FDFDF716FD03465B797B74FDF731FD7B7C002B03D17B69A5221A7103E07B69A6221A714DE0E3
:403CC0004CE07B691B78012B48D100233B747B691C6B2E2005F060FA034623441B7B562B19D1FDF707FDFDF7FBFC4FF43070FDF719FDFDF7EBFC03465B79FB73FDF706FD24
:403D0000FB7B002B03D17B69A5221A7126E07B69A6221A7122E07B691C6B2E2005F03CFA034623441B7B572B18D1FDF7E3FCFDF7D7FC4FF41070FDF7F5FCFDF7C7FC0346C2
:403D40005B79BB73FDF7E2FCBB7B002B03D17B69A5221A7102E07B69A6221A711C37BD4690BD00BFB0B586B000AF78607B687B61786905F059FA03461A4640F6B81303FBD7
:403D800002F3464A13443B613B69002B00F083803B69D3F83839386998473B69D3F84C3938699847F8603B69D3F83C3938699847FB68002B6FD00023FB72FB68E3225A70AA
:403DC000FB7A5A1CFA7219463B691A78FB680B449A70FB7AFA6813449D1C7B691C6B242005F0DAF90346083323441C1D242005F0F7F90346284621461A4616F0DFFE2420CB
:403E000005F0EEF903461A46FB7A1344FB72FB7AFA6813449D1C7B691C6B252005F0BCF90346083323441C1D252005F0D9F90346284621461A4616F0C1FEFB7AFA681344E2
:403E40009C1CFB7AFA6813440233184616F036FF0346DBB220461946FCF772FB252005F0BFF903461A46FB7A1344FB72FB7A9AB2FB68A3F802213B69D3F83839386998477D
:403E80003B69D3F844393869F96898473B69D3F83C39386998471837BD46B0BDB033002080B584B000AF78607B68FB60FB68DB7A1846FEF7DDFEB8601037BD4680BD00BF9D
:403EC000F0B58FB004AF786003233B734FF6FF733B8200237B82C523BB734F4BBB607B687B627B6A1B78002B4AD1A320FCF710F938623B6A002B42D00023FB77BA23BB83B7
:403F00003B6A00225A803B6A5B889BB21A463B6A13441D1DFB7F9B0007F12802134453F8204CFB7F9B0007F12802134453F8203C184616F0C3FE03469BB2BE8B009301AAB9
:403F400007F10C0393E8030082E803001A2031462A46234603F014F903461A463B6A5B889BB213449AB23B6A5A80BB8B2033BB83FB7F0133FB773B6AC2221A7049E048E0CA
:403F8000A420FCF7C5F8B861BB69002B41D00023FB75BA23BB82BB6900225A80BB695B889BB21A46BB6913441D1DFB7D9B0007F12802134453F8204CFB7D9B0007F1280266
:403FC000134453F8203C184616F078FE03469BB2BE8A009301AA07F10C0393E8030082E803001A2031462A46234603F0C9F803461A46BB695B889BB213449AB2BB695A80FF
:40400000BB8A2033BB82FB7D0133FB75BB69C2221A702C37BD46F0BD9CB501002DE9F04196B004AF786003233B7500233B834FF6FF737B838523BB75002387F84730002300
:40404000A7F844300023A7F842307B68FB63F86B05F0EAF80346032B3ED801A252F823F0714000008B400000A5400000BF400000D34BDB7887F847304FF40073A7F8443061
:404080004FF44073A7F8423026E0CD4B1B7987F847304FF41073A7F844304FF45073A7F8423019E0C64B5B7987F847304FF42073A7F844304FF46073A7F842300CE0C04B86
:4040C0009B7987F847304FF43073A7F844304FF47073A7F8423000BFFB6B1B78002B40F00881FDF707FBFDF7FBFAB7F844301846FDF718FBFDF7EAFA03465A1C07F11003E1
:4041000010681860FDF702FBFDF7F4FAFDF7E8FAB7F842301846FDF705FB002387F84130DDE097F8413007F14802134413F8383C013B032B00F2CE8001A252F823F000BF22
:4041400051410000AF4100001142000073420000A320FBF7DDFFB863BB6B002B26D097F84130984A32F8236097F84130954A9B0013445D88BB6B1C1DFDF7A8FA8646102389
:40418000009301AA07F1140393E8030082E80300304629462246734602F0F2FF03461A46BB6B5A80BB6BC2221A7093E092E0A320FBF7AEFF78637B6B002B28D097F8413076
:4041C000804A32F8238097F841307E4A9B0013445E887B6B1D1DFDF779FA034603F110041023009301AA07F1140393E8030082E80300404631462A46234602F0C1FF034674
:404200001A467B6B5A807B6BC2221A7062E061E0A320FBF77DFF38633B6B002B28D097F84130684A32F8238097F84130654A9B0013445E883B6B1D1DFDF748FA034603F199
:4042400020041023009301AA07F1140393E8030082E80300404631462A46234602F090FF03461A463B6B5A803B6BC2221A7031E030E0A320FBF74CFFF862FB6A002B28D018
:4042800097F841304F4A32F8238097F841304D4A9B0013445E88FB6A1D1DFDF717FA034603F130041023009301AA07F1140393E8030082E80300404631462A46234602F0E1
:4042C0005FFF03461A46FB6A5A80FB6AC2221A70FFE700BF97F84130013387F8413097F8412097F847309A42FFF41BAFFDF70EFA0BE1FDF7FFF9FDF7F3F9B7F84430184618
:40430000FDF710FAFDF7E2F903465A1C07F10C0310681860FDF7FAF9FDF7ECF9FDF7E0F9B7F842301846FDF7FDF9002387F84030E2E097F8403007F14802134413F83C3C15
:40434000013B032B00F2D38001A252F823F000BF61430000C94300002B4400008D440000A420FBF7D5FEB862BB6A002B26D097F84030144A32F8236097F84030114A9B00F7
:4043800013445D88BB6A1C1DFDF7A0F986461023009301AA07F1140393E8030082E80300304629462246734602F0EAFE03461A46BB6A5A80BB6AC2221A7098E097E000BFD6
:4043C000905A0020A883FF1FA420FBF7A1FE78627B6A002B28D097F840304E4A32F8238097F840304B4A9B0013445E887B6A1D1DFDF76CF9034603F110041023009301AA29
:4044000007F1140393E8030082E80300404631462A46234602F0B4FE03461A467B6A5A807B6AC2221A7062E061E0A420FBF770FE38623B6A002B28D097F84030354A32F89C
:40444000238097F84030334A9B0013445E883B6A1D1DFDF73BF9034603F120041023009301AA07F1140393E8030082E80300404631462A46234602F083FE03461A463B6ADB
:404480005A803B6AC2221A7031E030E0A420FBF73FFEF861FB69002B28D097F840301D4A32F8238097F840301A4A9B0013445E88FB691D1DFDF70AF9034603F13004102374
:4044C000009301AA07F1140393E8030082E80300404631462A46234602F052FE03461A46FB695A80FB69C2221A70FFE700BF97F84030013387F8403097F8402097F84730F7
:404500009A42FFF416AFFDF701F94837BD46BDE8F08100BFA883FF1FF0B58FB004AF786003233B734FF6FF733B8200237B82C523BB734F4BBB607B687B627B6A1B78002B54
:404540004AD1A320FBF7E4FD38623B6A002B42D00023FB77BA23BB833B6A00225A803B6A5B889BB21A463B6A13441D1DFB7F9B0007F12802134453F8204CFB7F9B0007F100
:404580002802134453F8203C184616F097FB03469BB2BE8B009301AA07F10C0393E8030082E803001A2031462A46234602F0E8FD03461A463B6A5B889BB213449AB23B6AA7
:4045C0005A80BB8B2033BB83FB7F0133FB773B6AC2221A7049E048E0A420FBF799FDB861BB69002B41D00023FB75BA23BB82BB6900225A80BB695B889BB21A46BB691344C5
:404600001D1DFB7D9B0007F12802134453F8204CFB7D9B0007F12802134453F8203C184616F04CFB03469BB2BE8A009301AA07F10C0393E8030082E803001A2031462A46F0
:40464000234602F09DFD03461A46BB695B889BB213449AB2BB695A80BB8A2033BB82FB7D0133FB75BB69C2221A702C37BD46F0BDC4B50100B0B586B000AF78607B687B61B6
:40468000786904F0D1FD03461A4640F6B81303FB02F3524A13443B613B69D3F83839386998473B69D3F84C3938699847F8603B69D3F83C3938699847FB68002B00F08A8013
:4046C0000023FB72FB68A2225A70FB7A5A1CFA7219463B691A78FB680B449A70FB7A5A1CFA721D467B691C6B072004F055FD034623441A7BFB682B449A70FB7AFA681344B0
:404700009D1C7B691C6B122004F046FD0346083323441C1D122004F063FD0346284621461A4616F04BFAFB7AFA6813449C1C122004F056FD034620461946FBF701FF1220E8
:4047400004F04EFD03461A46FB7A1344FB72FB7AFA6813449D1C7B691C6B0E2004F01CFD0346083323441C1D0E2004F039FD0346284621461A4616F021FAFB7AFA68134442
:404780009C1C0E2004F02CFD034620461946FBF7D7FE0E2004F024FD03461A46FB7A1344FB72FB7A9AB2FB68A3F802213B69002283F898293B69D3F83839386998473B6914
:4047C000D3F844393869F96898473B69D3F83C39386998471837BD46B0BD00BFB033002090B585B000AF78607B68FB60F86804F01BFD03461A4640F6B81303FB02F31C4AFD
:404800001344BB60BB6893F89839DBB2002B28D0BB68002283F89829FB681C6B0B2004F0BBFC0346083323441C1D0B2004F0D8FC0346204600211A4616F0CBF9FB681C6B9B
:404840000B2004F0A9FC0346234439221A73FB681C6B052004F0A0FC0346234444221A7302E0BB680822DA721437BD4690BD00BFB033002090B585B000AF78607B68FB6083
:40488000FB68002B3DD0FCF735FFFCF729FF4FF4A070FCF747FFFCF719FF034601331B781B029CB2FCF712FF03461B789BB2224613439BB27B81FCF729FFFB681D331846A9
:4048C0000021102216F085F97A894FF00003F96801F11D04104619462246FBF743FDFB681D33184616F0EAF90346DAB2FB681A77FB6803F11D02FB681B7F10461946FBF7FC
:404900001FFE1437BD4690BDF0B58BB004AF78607B687B617B69002B65D07B691B699A8D7B691A837B691B69DA8D7B695A837B691B78002B2CD1A320FBF7EAFB38613B693B
:40494000002B24D07B69B3F818E07B695E8B3B691D1D7B6903F11D047B691B6993F830309BB27A691269009301AB32321068516803C3704631462A46234602F001FC034617
:404980001A463B695A803B69C2221A702BE02AE0A420FBF7BDFBF860FB68002B23D07B69B3F818E07B695E8BFB681D1D7B6903F11D047B691B6993F830309BB27A691269C3
:4049C000009301AB32321068516803C3704631462A46234602F0D4FB03461A46FB685A80FB68C2221A701C37BD46F0BDB0B584B000AF78607B68BB60BB68002B58D00023E5
:404A0000FB8100237B732EE0BB681B7F1A467B7BD31A013B184615F0ADFA02460B464FF00000254914F076F804460D467B7BBA6813445B7F03F00F03184615F09BFA0246B2
:404A40000B462046294615F0FBFA02460B461046194615F08FFD03469AB2FB891344FB817B7B01337B73BB681B7F7A7B9A42CBD3FCF740FEFCF734FE4FF4A070FCF752FE1B
:404A8000FCF724FE0346FA89D2B21A70FCF71EFE03460133FA89120A92B2D2B21A704FF4A070FCF789FE054AFB891380FCF72EFE1037BD46B0BD00BF00002440A8CEFF1FCA
:404AC00090B585B000AF78607B68FB60FB68002B32D0FCF70FFEFCF703FE4FF4E070FCF721FEFCF7F3FD03465B7AFB72FCF70EFEFB681D3318460021102216F06AF8FA7AA1
:404B00004FF00003F96801F11D04104619462246FBF728FCFB681D33184616F0CFF80346DAB2FB681A77FB6803F11D02FB681B7F10461946FBF704FD1437BD4690BD00BF70
:404B4000F0B58BB004AF78607B687B617B69002B65D07B691B699A8D7B691A837B691B69DA8D7B695A837B691B78002B2CD1A320FBF7CEFA38613B69002B24D07B69B3F820
:404B800018E07B695E8B3B691D1D7B6903F11D047B691B6993F830309BB27A691269009301AB32321068516803C3704631462A46234602F0E5FA03461A463B695A803B691F
:404BC000C2221A702BE02AE0A420FBF7A1FAF860FB68002B23D07B69B3F818E07B695E8BFB681D1D7B6903F11D047B691B6993F830309BB27A691269009301AB3232106805
:404C0000516803C3704631462A46234602F0B8FA03461A46FB685A80FB68C2221A701C37BD46F0BDB0B584B000AF78607B68BB60BB68002B50D00023FB730023BB732FE014
:404C4000BB681B7F1A46BB7BD31A013B184615F091F902460B464FF00000214913F05AFF04460D46BB7BBA6813445B7F03F00F03184615F07FF902460B462046294615F0B4
:404C8000DFF902460B461046194615F073FC03469BB2DAB2FB7B1344FB73BB7B0133BB73BB681B7FBA7B9A42CAD3FCF723FDFCF717FD4FF4E070FCF735FDFCF707FD0346E8
:404CC0000933FA7B1A704FF4E070FCF775FD054AFB7B9374FCF71AFD1037BD46B0BD00BF00002440905A002080B586B000AF78607B687B617B691B78002B22D1FBF79CFDF6
:404D000038613B69002B1BD07B693A695A633B697A69C3F890213B6923225A703B6964225A813B6941F288329A803B69194AC3F894213B6906229A703B690322DA7025E021
:404D400024E07B691B78012B20D1FBF775FDF860FB68002B1AD07B69FA685A63FB687A69C3F89021FB6824225A70FB6864225A81FB6841F288329A80FB68064AC3F89421EE
:404D8000FB6806229A70FB680322DA701837BD4680BD00BFCD4D000080B485B000AF78607B68FB60FB685B6B002B0AD0FB685B6B002B03D0FB685B6B01221A70FB68002246
:404DC0005A631437BD465DF8047B704780B588B000AF78607B68FB61FB69D3F89031BB61BB69002B38D0BB6913229A72BB6903F11D02FB690C3310461946082215F0DEFE88
:404E0000BB6908221A77FBF717FD78617B69002B22D0134A07F10C031068516803C3BB691B78002B03D17B691B225A7002E07B691F225A707B6903229A707B690C331A4650
:404E400007F10C0303CB106051607B690822A3F88C217B690322DA702037BD4680BD00BFECB50100B0B590B004AF786004233B724FF6FF73BB810023FB81C523BB727B680D
:404E8000BB62BB6A1B78002B40F00482BB6A1B691B783E2B40F0FE81A320FBF739F978627B6A002B00F01481002387F82F30FCF721FCFCF7D1FCFCF757FD07F11003184611
:404EC0000021082215F085FEFCF7BCFC034602331B7803F04003002B32D097F82F305A1C87F82F201C46FCF7ADFC034602331B781B09DBB2DBB203F00103DBB243F0300357
:404F0000DBB2DAB207F13003234403F8202C97F82F305A1C87F82F201C46FCF793FC034602331B78DBB203F00F03DBB243F03003DBB2DAB207F13003234403F8202C31E0D0
:404F400097F82F305A1C87F82F201C46FCF77AFC034602331B781B09DBB2DBB203F00303DBB243F03003DBB2DAB207F13003234403F8202C97F82F305A1C87F82F201C4673
:404F8000FCF760FC034602331B78DBB203F00F03DBB243F03003DBB2DAB207F13003234403F8202C97F82F305A1C87F82F2007F1300213443A2203F8202C97F82F305A1C60
:404FC00087F82F201C46FCF73DFC034601331B781B09DBB2DBB203F00703DBB243F03003DBB2DAB207F13003234403F8202C97F82F305A1C87F82F201C46FCF723FC034636
:4050000001331B78DBB203F00F03DBB243F03003DBB2DAB207F13003234403F8202C97F82F305A1C87F82F2007F1300213443A2203F8202C97F82F305A1C87F82F201C4648
:40504000FCF700FC03461B781B09DBB2DBB203F00703DBB243F03003DBB2DAB207F13003234403F8202C97F82F305A1C87F82F201C46FCF7E7FB03461B78DBB203F00F036E
:40508000DBB243F03003DBB2DAB207F13003234403F8202CFCF73AFB7B6A1D1D97F82F309BB207F11004009301AA07F1080393E8030082E80300C920BA212A46234602F0C2
:4050C0005FF803461A467B6A5A807B6AC2221A70A320FBF71DF878627B6A002B00F0D980002387F82330FCF705FBFCF7B5FBFCF73BFC07F1100318460021082215F069FDCD
:4051000097F823305A1C87F823201C46FCF79AFB034604331B781B09DBB2DBB203F00303DBB243F03003DBB2DAB207F13003234403F8202C97F823305A1C87F823201C46C0
:40514000FCF780FB034604331B78DBB203F00F03DBB243F03003DBB2DAB207F13003234403F8202C97F823305A1C87F8232007F1300213442F2203F8202C97F823305A1CAC
:4051800087F823201C46FCF75DFB034605331B781B09DBB2DBB203F00103DBB243F03003DBB2DAB207F13003234403F8202C97F823305A1C87F823201C46FCF743FB03465C
:4051C00005331B78DBB203F00F03DBB243F03003DBB2DAB207F13003234403F8202C97F823305A1C87F8232007F1300213442F2203F8202C97F823305A1C87F823201C46BE
:40520000FCF720FB034606331B781B09DBB2DBB243F03003DBB2DAB207F13003234403F8202C97F823305A1C87F823201C46FCF709FB034606331B78DBB203F00F03DBB20E
:4052400043F03003DBB2DAB207F13003234403F8202CFCF75BFA7B6A1D1D97F823309BB207F11004009301AA07F1080393E8030082E80300C9204FF495712A46234601F00C
:405280007FFF03461A467B6A5A807B6AC2221A70F5E1F4E1BB6A1B78012B40F0F081BB6A1B691B783E2B40F0EA81A420FAF730FFF861FB69002B00F01481002387F82E30F4
:4052C000FCF718FAFCF7C8FAFCF74EFB07F1100318460021082215F07CFCFCF7B3FA034602331B7803F04003002B32D097F82E305A1C87F82E201C46FCF7A4FA03460233D2
:405300001B781B09DBB2DBB203F00103DBB243F03003DBB2DAB207F13003234403F8202C97F82E305A1C87F82E201C46FCF78AFA034602331B78DBB203F00F03DBB243F054
:405340003003DBB2DAB207F13003234403F8202C31E097F82E305A1C87F82E201C46FCF771FA034602331B781B09DBB2DBB203F00303DBB243F03003DBB2DAB207F1300388
:40538000234403F8202C97F82E305A1C87F82E201C46FCF757FA034602331B78DBB203F00F03DBB243F03003DBB2DAB207F13003234403F8202C97F82E305A1C87F82E20B1
:4053C00007F1300213443A2203F8202C97F82E305A1C87F82E201C46FCF734FA034601331B781B09DBB2DBB203F00703DBB243F03003DBB2DAB207F13003234403F8202CA6
:4054000097F82E305A1C87F82E201C46FCF71AFA034601331B78DBB203F00F03DBB243F03003DBB2DAB207F13003234403F8202C97F82E305A1C87F82E2007F1300213449B
:405440003A2203F8202C97F82E305A1C87F82E201C46FCF7F7F903461B781B09DBB2DBB203F00703DBB243F03003DBB2DAB207F13003234403F8202C97F82E305A1C87F836
:405480002E201C46FCF7DEF903461B78DBB203F00F03DBB243F03003DBB2DAB207F13003234403F8202CFCF731F9FB691D1D97F82E309BB207F11004009301AA07F10803DD
:4054C00093E8030082E80300C920BA212A46234601F056FE03461A46FB695A80FB69C2221A70A420FAF714FEF861FB69002B00F0C6800023FB76FCF7FDF8FCF7ADF9FCF739
:4055000033FA07F1100318460021082215F061FBFB7E5A1CFA761C46FCF794F9034604331B781B09DBB2DBB203F00303DBB243F03003DBB2DAB207F13003234403F8202CB9
:40554000FB7E5A1CFA761C46FCF77CF9034604331B78DBB203F00F03DBB243F03003DBB2DAB207F13003234403F8202CFB7E5A1CFA7607F1300213442F2203F8202CFB7E87
:405580005A1CFA761C46FCF75DF9034605331B781B09DBB2DBB203F00103DBB243F03003DBB2DAB207F13003234403F8202CFB7E5A1CFA761C46FCF745F9034605331B7826
:4055C000DBB203F00F03DBB243F03003DBB2DAB207F13003234403F8202CFB7E5A1CFA7607F1300213442F2203F8202CFB7E5A1CFA761C46FCF726F9034606331B781B09B0
:40560000DBB2DBB243F03003DBB2DAB207F13003234403F8202CFB7E5A1CFA761C46FCF711F9034606331B78DBB203F00F03DBB243F03003DBB2DAB207F13003234403F8FA
:40564000202CFCF763F8FB691D1DFB7E9BB207F11004009301AA07F1080393E8030082E80300C9204FF495712A46234601F088FD03461A46FB695A80FB69C2221A70303753
:40568000BD46B0BD80B586B000AF78607B687B617B691B78002B20D11D20FBF7D9F938613B69002B18D07B693A695A633B697A69C3F890213B691C4AC3F894213B691D2251
:4056C0005A703B6906229A703B694FF47A725A813B690322DA7023E022E07B691B78012B1ED12120FBF7B4F9F860FB68002B17D07B69FA685A63FB687A69C3F89021FB68ED
:40570000094AC3F89421FB6821225A70FB6806229A70FB684FF47A725A81FB680322DA701837BD4680BD00BF654E000080B487B000AF78607B687B617B691B78002B0AD133
:405740007B695B6B3B613B69002B03D03B6901221A700DE00CE07B691B78012B08D17B695B6BFB60FB68002B02D0FB6801221A701C37BD465DF8047B704700BF80B584B01D
:4057800000AF78607B68FB60FB68D3F89431002B07D0FB68D3F89431FA68D2F89021104698471037BD4680BD80B586B000AF78607B687B617B691B78002B1ED11E20FBF731
:4057C00047F938613B69002B16D01E4B00229A707B693A695A633B697A69C3F890213B691E225A703B6906229A703B6964225A813B690322DA7021E020E07B691B78012B0F
:405800001CD12220FBF724F9F860FB68002B15D00C4B00225A727B69FA685A63FB687A69C3F89021FB6822225A70FB6806229A70FB6864225A81FB680322DA701837BD4677
:4058400080BD00BFBC83FF1F80B487B000AF78607B687B617B691B78002B0AD17B695B6B3B613B69002B03D03B6901221A700DE00CE07B691B78012B08D17B695B6BFB600E
:40588000FB68002B02D0FB6801221A701C37BD465DF8047B704700BFB0B590B004AF786002233B724FF6FF73BB810023FB81C523BB727B68BB62BB6A1B78002B40F0DE81BD
:4058C000BB6A1B691B78012B40F0D881A320FAF71FFC78627B6A002B00F0EA80002387F82F30FBF707FFFBF7B7FFFCF73DF807F1100318460021082215F06BF9FBF7A2FF2B
:40590000034602331B7803F04003002B32D097F82F305A1C87F82F201C46FBF793FF034602331B781B09DBB2DBB203F00103DBB243F03003DBB2DAB207F13003234403F8FC
:40594000202C97F82F305A1C87F82F201C46FBF779FF034602331B78DBB203F00F03DBB243F03003DBB2DAB207F13003234403F8202C31E097F82F305A1C87F82F201C46B0
:40598000FBF760FF034602331B781B09DBB2DBB203F00303DBB243F03003DBB2DAB207F13003234403F8202C97F82F305A1C87F82F201C46FBF746FF034602331B78DBB200
:4059C00003F00F03DBB243F03003DBB2DAB207F13003234403F8202CA74B5B78002B0BD097F82F305A1C87F82F2007F1300213443A2203F8202C0AE097F82F305A1C87F8CF
:405A00002F2007F130021344202203F8202C97F82F305A1C87F82F201C46FBF713FF034601331B781B09DBB2DBB203F00703DBB243F03003DBB2DAB207F13003234403F891
:405A4000202C97F82F305A1C87F82F201C46FBF7F9FE034601331B78DBB203F00F03DBB243F03003DBB2DAB207F13003234403F8202CFBF74BFE7B6A1D1D97F82F309BB241
:405A800007F11004009301AA07F1080393E8030082E8030010204FF4DD712A46234601F06FFB03461A467B6A5A807B6AC2221A70A320FAF72DFB78627B6A002B00F0DA80EE
:405AC000002387F82330FBF715FEFBF7C5FEFBF74BFF07F1100318460021082215F079F897F823305A1C87F823201C46FBF7AAFE034604331B781B09DBB2DBB203F0030331
:405B0000DBB243F03003DBB2DAB207F13003234403F8202C97F823305A1C87F823201C46FBF790FE034604331B78DBB203F00F03DBB243F03003DBB2DAB207F13003234441
:405B400003F8202C97F823305A1C87F8232007F1300213442F2203F8202C97F823305A1C87F823201C46FBF76DFE034605331B781B09DBB2DBB203F00103DBB243F0300396
:405B8000DBB2DAB207F13003234403F8202C97F823305A1C87F823201C46FBF753FE034605331B78DBB203F00F03DBB243F03003DBB2DAB207F13003234403F8202C97F81A
:405BC00023305A1C87F8232007F1300213442F2203F8202C97F823305A1C87F823201C46FBF730FE034606331B781B09DBB2DBB243F03003DBB2DAB207F13003234403F806
:405C0000202C97F823305A1C87F823201C46FBF719FE034606331B78DBB203F00F03DBB243F03003DBB2DAB207F13003234403F8202CFBF76BFD7B6A1D1D97F823309BB25F
:405C400007F11004009301AA07F1080393E8030082E803004FF404704FF4DD712A46234601F08EFA03461A467B6A5A807B6AC2221A70CFE1CEE100BFBC83FF1FBB6A1B7864
:405C8000012B40F0C781BB6A1B691B78012B40F0C181A420FAF73CFAF861FB69002B00F0EA80002387F82E30FBF724FDFBF7D4FDFBF75AFE07F1100318460021082214F061
:405CC00088FFFBF7BFFD034602331B7803F04003002B32D097F82E305A1C87F82E201C46FBF7B0FD034602331B781B09DBB2DBB203F00103DBB243F03003DBB2DAB207F180
:405D00003003234403F8202C97F82E305A1C87F82E201C46FBF796FD034602331B78DBB203F00F03DBB243F03003DBB2DAB207F13003234403F8202C31E097F82E305A1C6F
:405D400087F82E201C46FBF77DFD034602331B781B09DBB2DBB203F00303DBB243F03003DBB2DAB207F13003234403F8202C97F82E305A1C87F82E201C46FBF763FD03462E
:405D800002331B78DBB203F00F03DBB243F03003DBB2DAB207F13003234403F8202C9F4B1B7A002B0BD097F82E305A1C87F82E2007F1300213443A2203F8202C0AE097F852
:405DC0002E305A1C87F82E2007F130021344202203F8202C97F82E305A1C87F82E201C46FBF730FD034601331B781B09DBB2DBB203F00703DBB243F03003DBB2DAB207F1F8
:405E00003003234403F8202C97F82E305A1C87F82E201C46FBF716FD034601331B78DBB203F00F03DBB243F03003DBB2DAB207F13003234403F8202CFBF768FCFB691D1D6F
:405E400097F82E309BB207F11004009301AA07F1080393E8030082E8030010204FF4DD712A46234601F08CF903461A46FB695A80FB69C2221A70A420FAF74AF9F861FB6932
:405E8000002B00F0C7800023FB76FBF733FCFBF7E3FCFBF769FD07F1100318460021082214F097FEFB7E5A1CFA761C46FBF7CAFC034604331B781B09DBB2DBB203F0030392
:405EC000DBB243F03003DBB2DAB207F13003234403F8202CFB7E5A1CFA761C46FBF7B2FC034604331B78DBB203F00F03DBB243F03003DBB2DAB207F13003234403F8202CD2
:405F0000FB7E5A1CFA7607F1300213442F2203F8202CFB7E5A1CFA761C46FBF793FC034605331B781B09DBB2DBB203F00103DBB243F03003DBB2DAB207F13003234403F8C5
:405F4000202CFB7E5A1CFA761C46FBF77BFC034605331B78DBB203F00F03DBB243F03003DBB2DAB207F13003234403F8202CFB7E5A1CFA7607F1300213442F2203F8202CA8
:405F8000FB7E5A1CFA761C46FBF75CFC034606331B781B09DBB2DBB243F03003DBB2DAB207F13003234403F8202CFB7E5A1CFA761C46FBF747FC034606331B78DBB203F0A0
:405FC0000F03DBB243F03003DBB2DAB207F13003234403F8202CFBF799FBFB691D1DFB7E9BB207F11004009301AA07F1080393E8030082E803004FF404704FF4DD712A46D0
:40600000234601F0BDF803461A46FB695A80FB69C2221A703037BD46B0BD00BFBC83FF1FB0B5C6B004AF3B1D1860042387F8D4304FF6FF73A7F8D8300023A7F8DA30C5238B
:4060400087F8D6303B1D1B68C7F80431D7F80431D3F89031C7F80031D7F800311B78002B40F06382D7F800311B691B78012B40F05C82A320FAF74CF8C7F8FC00D7F8FC307A
:40608000002B30D0C84B1B785A1CD1B2C64A11701A46C54B1344DB7887F8DC30C24B1B78032B02D9C04B00221A70D7F8FC301D1D07F1DC040123009301AA07F1D40393E8C7
:4060C000030082E803004FF4147012212A46234601F056F803461A46D7F8FC305A80D7F8FC30C2221A7007F1D00318460021022214F06FFD07F1D003D7F80001194601F06E
:40610000D7FD97F8D130002B24D1A320FAF700F8C7F8FC00D7F8FC30002B3FD0A34A07F1C4031068516803C312891A80D7F8FC3004331A4607F1C40303CB106051601B8884
:406140001381D7F8FC300A225A80D7F8FC30C2221A7023E0A320F9F7DBFFC7F8FC00D7F8FC30002B1AD0924A07F1B8031068516803C312891A80D7F8FC3004331A4607F181
:40618000B80303CB106051601B881381D7F8FC300A225A80D7F8FC30C2221A70A320F9F7B7FFC7F8FC00D7F8FC30002B1DD0814A07F1A803144620686168A26807C3A28945
:4061C0001A80D7F8FC3004331C4607F1A80307CB20606160A2601B88A381D7F8FC300E225A80D7F8FC30C2221A7097F8D030002B24D1A320F9F78CFFC7F8FC00D7F8FC30E1
:40620000002B3FD0694A07F19C031068516803C312891A80D7F8FC3004331A4607F19C0303CB106051601B881381D7F8FC300A225A80D7F8FC30C2221A7023E0A320F9F73F
:4062400067FFC7F8FC00D7F8FC30002B1AD0584A07F190031068516803C312891A80D7F8FC3004331A4607F1900303CB106051601B881381D7F8FC300A225A80D7F8FC3055
:40628000C2221A70A320F9F743FFC7F8FC00D7F8FC30002B1DD0484A07F18003144620686168A26807C3A2891A80D7F8FC3004331C4607F1800307CB20606160A2601B8895
:4062C000A381D7F8FC300E225A80D7F8FC30C2221A704FF6FF73A7F8D8300023A7F8DA30314B9B781A46642303FB02F3B3F5FA6F16DDD7F80001FFF7CFFA2B4B00229A7044
:40630000294B5B78002B14BF01230023DBB283F00103DBB203F00103DAB2234B5A7005E0214B9B780133DAB21F4B9A70012387F8D430224B1B78002B74D0214B1B7818467A
:40634000FAF722FB0346002B3ED0A320F9F7E0FEC7F8FC00D7F8FC30002B63D0194BC7F8F830D7F8FC301C1DD7F8F80014F0A6FC03469BB2009301AA07F1D40393E80300DB
:4063800082E80300B8204FF4E8712246D7F8F83000F0F6FE03461A46D7F8FC305A80D7F8FC30C2221A703DE0BC83FF1F64B6010070B601007CB601008CB6010058CFFF1F5B
:4063C000A8330020F4B50100A320F9F7A1FEC7F8FC00D7F8FC30002B24D007F10C0318460021202214F0F5FBD7F8FC301D1D07F10C042023009301AA07F1D40393E803000A
:4064000082E80300B8204FF4E8712A46234600F0B7FE03461A46D7F8FC305A80D7F8FC30C2221A70BA4B1B78DBB2002B71D0A320F9F76EFEC7F8FC00D7F8FC30002B73D042
:40644000B34B5B78DBB2002B2FD0B24BC7F8F430D7F8FC301C1DD7F8F40014F02FFC03462046D7F8F4101A4614F0A8FBD7F8FC301C1DD7F8F40014F021FC03469BB20093C4
:4064800001AA07F1D40393E8030082E80300B8204FF4E8712246D7F8F43000F071FE03461A46D7F8FC305A802EE09B4BC7F8F030D7F8FC301C1DD7F8F00014F0FFFB0346BE
:4064C0002046D7F8F0101A4614F078FBD7F8FC301C1DD7F8F00014F0F1FB03469BB2009301AA07F1D40393E8030082E80300B8204FF4E8712246D7F8F03000F041FE0346DC
:406500001A46D7F8FC305A80D7F8FC30C2221A7073E2824B1B7883F00103DBB2002B03D07E4B01221A7068E267E2D7F800311B78012B40F06282D7F800311B691B78012BE7
:4065400040F05B82A420F9F7E3FDC7F8EC00D7F8EC30002B30D0724BDB795A1CD1B2704AD1711A466E4B13449B7A87F8DC306C4BDB79032B02D96A4B0022DA71D7F8EC3082
:406580001D1D07F1DC040123009301AA07F1D40393E8030082E803004FF4147012212A46234600F0EDFD03461A46D7F8EC305A80D7F8EC30C2221A7007F17C031846002143
:4065C000022214F006FB07F17C03D7F80001194601F06EFB97F87D30002B24D1A420F9F797FDC7F8EC00D7F8EC30002B3FD04D4A07F170031068516803C312891A80D7F801
:40660000EC3004331A4607F1700303CB106051601B881381D7F8EC300A225A80D7F8EC30C2221A7023E0A420F9F772FDC7F8EC00D7F8EC30002B1AD03B4A07F1640310689F
:40664000516803C312891A80D7F8EC3004331A4607F1640303CB106051601B881381D7F8EC300A225A80D7F8EC30C2221A70A420F9F74EFDC7F8EC00D7F8EC30002B1DD068
:406680002A4A07F15403144620686168A26807C3A2891A80D7F8EC3004331C4607F1540307CB20606160A2601B88A381D7F8EC300E225A80D7F8EC30C2221A7097F87C309B
:4066C000002B35D1A420F9F723FDC7F8EC00D7F8EC30002B50D0134A07F148031068516803C312891A80D7F8EC3004331A4607F1480303CB106051601B881381D7F8EC3012
:406700000A225A80D7F8EC30C2221A7034E000BF905A002018B6010040B6010058CFFF1FBC83FF1F64B6010070B601007CB60100A420F9F7EDFCC7F8EC00D7F8EC30002BE2
:406740001AD0B04A07F13C031068516803C312891A80D7F8EC3004331A4607F13C0303CB106051601B881381D7F8EC300A225A80D7F8EC30C2221A70A420F9F7C9FCC7F871
:40678000EC00D7F8EC30002B1DD09F4A07F12C03144620686168A26807C3A2891A80D7F8EC3004331C4607F12C0307CB20606160A2601B88A381D7F8EC300E225A80D7F84B
:4067C000EC30C2221A704FF6FF73A7F8D8300023A7F8DA308D4B5B7A1A46642303FB02F3B3F5FA6F16DDD7F80001FFF755F8874B00225A72854B1B7A002B14BF01230023DD
:40680000DBB283F00103DBB203F00103DAB27F4B1A7205E07D4B5B7A0133DAB27B4B5A72012387F8D4307A4B5B78002B64D0794B5B781846FAF7A8F80346002B2ED0A420C0
:40684000F9F766FCC7F8EC00D7F8EC30002B53D0714BC7F8E830D7F8EC301C1DD7F8E80014F02CFA03469BB2009301AA07F1D40393E8030082E80300B8204FF4E8712246E0
:40688000D7F8E83000F07CFC03461A46D7F8EC305A80D7F8EC30C2221A702DE0A420F9F737FCC7F8EC00D7F8EC30002B24D007F10C0318460021202214F08BF9D7F8EC30DE
:4068C0001D1D07F10C042023009301AA07F1D40393E8030082E80300B8204FF4E8712A46234600F04DFC03461A46D7F8EC305A80D7F8EC30C2221A70484B1B78DBB2002BF0
:4069000071D0A420F9F704FCC7F8EC00D7F8EC30002B72D0414B5B78DBB2002B2FD0404BC7F8E430D7F8EC301C1DD7F8E40014F0C5F903462046D7F8E4101A4614F03EF945
:40694000D7F8EC301C1DD7F8E40014F0B7F903469BB2009301AA07F1D40393E8030082E80300B8204FF4E8712246D7F8E43000F007FC03461A46D7F8EC305A802EE0294B5C
:40698000C7F8E030D7F8EC301C1DD7F8E00014F095F903462046D7F8E0101A4614F00EF9D7F8EC301C1DD7F8E00014F087F903469BB2009301AA07F1D40393E8030082E8E8
:4069C0000300B8204FF4E8712246D7F8E03000F0D7FB03461A46D7F8EC305A80D7F8EC30C2221A7009E00A4B5B7883F00103DBB2002B02D0064B01225A7007F58477BD4606
:406A0000B0BD00BF70B601008CB60100BC83FF1F58CFFF1FA8330020F4B50100905A002018B6010040B6010080B485B000AF78607B68FB60FB68DB78392B05D1054B142205
:406A40001A70044B16225A701437BD465DF8047B704700BFA833002080B485B000AF78607B68FB60FB68DB788C2B02D08D2B07D00DE0094B16221A70074B16225A7006E06F
:406A8000054B14221A70044B14225A7000BF1437BD465DF8047B7047A833002080B586B000AF78600023FB757B683B613B691B6BFB60786802F0B8FB0346FB72FB7A524A0F
:406AC00040F6B81101FB03F3134408339B78DBB283F00103DBB2002B46D04C4B1B78DBB2012B40D1FB68002B3DD02E2002F054FB03461A46FB6813441B7B002B33D00420C5
:406B000002F04AFB03461A46FB6813441B7BBB72BB7A0E2B08D03B691B691B78042B22D13B69DB780E2B1ED10123FB753B69FF225A713B695A793B699A72042002F02CFB2E
:406B400003461A46FB68134400221A732E2002F023FB03461A46FB68134400221A733B698C229A704BE04AE0FB68002B47D02E2002F012FB03461A46FB6813441B7B002BCC
:406B80003DD0042002F008FB03461A46FB6813441B7B7B727B7A452B02D07B7A002B08D13B691B691B78042B29D13B69DB78452B25D0FB7A144A40F6B81101FB03F313443E
:406BC00008339B78FB753B69FF225A713B695A793B699A72042002F0DFFA03461A46FB68134400221A732E2002F0D6FA03461A46FB68134400221A733B692B229A70FB7D8A
:406C000018461837BD4680BDB03300200063002080B584B000AFFAF79FF8F860FB68002B47D00023FB72FB7AFA6813441B225A70FB7A5A1CFA72FA6802339B001344544A01
:406C40005A60FB7AFA6813441F225A70FB7A5A1CFA72FA6802339B0013444E4A5A60FB7AFA68134425225A70FB7A5A1CFA72FA6802339B001344484A5A60FB7AFA68134456
:406C80001D225A70FB7A5A1CFA72FA6802339B001344424A5A60FB7AFA68134421225A70FB7A5A1CFA72FA6802339B0013443B4A5A60FAF751F8F860FB68002B1DD000231B
:406CC000BB72BB7AFA6813441E225A70BB7A5A1CBA72FA6802339B001344314A5A60BB7AFA68134422225A70BB7A5A1CBA72FA6802339B0013442A4A5A6000F057F8F9F721
:406D00009BFD78607B68002B0BD07B6825225A707B6806229A707B680A225A817B680322DA701E20F9F794FE78607B68002B12D01C4A7B6853637B681A4AC3F890217B6898
:406D40001E225A707B6806229A707B6864225A817B680322DA702220F9F77AFE78607B68002B12D0104A7B6853637B680E4AC3F890217B6822225A707B6806229A707B6869
:406D800064225A817B680322DA701037BD4680BDC1350000753700007D6E00007D570000216000003083FF1F6C83FF1F90B587B000AFAA233B7370237B730023BB732D4BE9
:406DC0001B691B78FB73CC233B7433237B74C323BB743C23FB74A320F9F79AF978617B69002B15D0234B00221A637B6908225A807B691A1D7B695B889BB21C4607F10C03A8
:406E000010461946224613F0D9FE7B69C2221A70AA233B7170237B710023BB71164B1B691B78FB71CC233B7233237B72C323BB723C23FB72A420F9F76BF978617B69002B20
:406E400014D00D4B00221A637B6908225A807B691A1D7B695B889BB21C463B1D10461946224613F0ABFE7B69C2221A701C37BD4690BD00BF3083FF1F6C83FF1F80B594B092
:406E800000AF7860B34BFB64AFE0B34B1B691A78FB6C1B789A4240F0A580002387F84B30FB6C9B88002B50D0AB4B1B8901339AB2A94B1A81A84B1B891A4613469B00134443
:406EC0005B00184613F056F802460B46C7E91023A14B1B699B88184613F03CF802460B4610461946D7E9102313F026FB0346002B2BD0994B0022DA70974B1B699A79964B66
:406F00009A72F9F799FCF863FB6B002B1AD0934A07F120031068516803C3FB6B1B225A70FB6B03229A70FB6B0C331A4607F1200303CB10605160FB6B0822A3F88C21FB6BAC
:406F40000322DA70012387F84B3097F84B3083F00103DBB2002B44D0002387F84A303CE07D4B1A797C4B196997F84A300B44DB7C9A422DD1784B0022DA70774B1A6997F8CF
:406F80004A3013445A7E744B5A71F9F755FCB863BB6B002B1BD0714A07F118031068516803C3BB6B1B225A70BB6B03229A70BB6B0C331A4607F1180303CB10605160BB6BD2
:406FC0000822A3F88C21BB6B0322DA7009E008E097F84A30013387F84A3097F84A30052BBED907E0FB6C4433FB64FB6C1B78FF2B7FF44BAF5A4BFB64B9E05A4B1B691A78A6
:40700000FB6C1B789A4240F0AF80002387F84930FB6C9B88002B50D0524B1B8901339AB2504B1A814F4B1B891A4613469B0013445B00184612F09EFF02460B46C7E90C237B
:40704000484B1B699B88184612F084FF02460B4610461946D7E90C2313F064FA0346002B2BD0404B0022DA703E4B1B699A793D4B9A72F9F7E1FBF862FB6A002B1AD0374A1A
:4070800007F110031068516803C3FB6A1F225A70FB6A03229A70FB6A0C331A4607F1100303CB10605160FB6A0822A3F88C21FB6A0322DA70012387F8493097F8493083F08A
:4070C0000103DBB2002B44D0002387F848303CE0244B1A79234B196997F848300B44DB7C9A422DD11F4B0022DA701E4B1A6997F8483013445A7E1B4B5A71F9F79DFBB86246
:40710000BB6A002B1BD0154A07F108031068516803C3BB6A1F225A70BB6A03229A70BB6A0C331A4607F1080303CB10605160BB6A0822A3F88C21BB6A0322DA7009E008E085
:4071400097F84830013387F8483097F84830052BBED911E0DC83FF1F3083FF1F9CB60100B08DFF1F6C83FF1FFB6C4433FB64FB6C1B78FF2B7FF441AF5037BD4680BD00BFCB
:4071800080B588B000AFBA607B600346FB810B46BB810023FB83BB68002B00F08680454A07F118031068186092889A80FB8BBA681A4407F1180310461946022213F0FEFCD2
:4071C000FB8B0233FB83FB8B5A1CFA831A46BB681344FA89120A92B2D2B21A70FB8B5A1CFA831A46BB681344FA89D2B21A70FB8B5A1CFA831A46BB681344BA89120A92B238
:40720000D2B21A70FB8B5A1CFA831A46BB681344BA89D2B21A7097F82C30DBB203F00F03DBB243F02003DBB2DBB23B7497F82E307B740223BB747B8E1B0A9BB2DBB2FB74CC
