:400000000080002011000000354E0100354E010080B500AF024A034B1B68136014F036FFBC760040FA46004010B5054C237833B9044B13B10448AFF300800123237010BDC6
:40004000D8D2FF1F00000000A0AB0100084B10B51BB108480849AFF300800848036803B910BD074B002BFBD0BDE81040184700BF00000000A0AB0100DCD2FF1F0881FF1F67
:400080000000000080B582B000AF0023FB7118E0FB794FF4867202FB03F30D4A13443B603B681B78DBB2C22B08D13B68D3F808315B6838689847386800F0C6F8FB79013350
:4000C000FB71FB79132BE3D90837BD4680BD00BF38D3FF1F80B485B000AF0346FB710B4BFB6008E0FB681B78FA799A4200D106E0FB684C33FB60FB681B78A52BF2D1FB6834
:4001000018461437BD465DF8047B70470C81FF1F90B585B000AF0346FB710023FB600023FB7245E0FB7A264A4FF4867101FB03F313441B78DBB2C02B37D1FB7A204A4FF42F
:40014000867101FB03F31344C1221A70FB7A1C4A4FF4867101FB03F3134400225A80FC7AFB791846FFF7B6FF0146154A4FF4867303FB04F3134403F584731960FB7A4FF437
:40018000867202FB03F30E4A13440433184600214FF480721AF099F8FB7A4FF4867202FB03F3074A1344FB6005E0FB7A0133FB72FB7A132BB6D9FB6818461437BD4690BDE0
:4001C00038D3FF1F80B582B000AF0023FB712DE0FB791B4A4FF4867101FB03F31344C0221A70FB79164A4FF4867101FB03F3134400225A80FB794FF4867202FB03F3104A0D
:4002000013440433184600214FF480721AF05DF8FB790B4A4FF4867101FB03F3134403F5847300221A60FB790133FB71FB79132BCED9044800F052F80837BD4680BD00BF15
:4002400038D3FF1F8500000080B582B000AF78607B68C0221A707B6800225A807B680433184600214FF480721AF02FF87B680022C3F808210837BD4680BD00BF80B584B025
:4002800000AF03463960FB711346BB800023FB730E4BBB6010E0BB681B78FA799A4208D1BB685B68BA883868114698470346FB7306E0BB680833BB60BB681B78A52BEAD185
:4002C000FB7B18461037BD4680BD00BFD482FF1F80B400AFBD465DF8047B704780B483B000AF78600B4B93F840300F2B0CD8094B93F840305A1CD1B2064A82F840101946E1
:40030000044A7B6842F821300C37BD465DF8047B704700BF28E8FF1F80B582B000AF0023FB7111E0FB790D4A52F823300C4A13600B4B1B68002B03D0094B1B68984700E00F
:4003400008E0FB790133FB71044B93F84030FA799A42E7D30837BD4680BD00BF28E8FF1F6CE8FF1FF0B587B000AFC7E902017A600123FB755FE0FB7D013B7A68D618FB7D69
:40038000184619F063F902460B464FF000006B4917F03CFF02460B461046194619F066FC03461A464FF00003D7E9020119F07EFC14461D46FB7D013B184619F057F9024652
:4003C0000B464FF000005D4917F020FF02460B461046194619F04AFC03461A464FF00003D7E9020119F062FCA41A65EB0305FB7D013B184619F03AF902460B464FF00000B3
:400400004E4917F003FF02460B461046194619F02DFC03461A464FF000032046294619F045FC02460B46D3B243F03003DBB23370FB7D0133FB75FB7D184619F007F902469B
:400440000B464FF000003D4917F0E0FE02460B461046194619F00AFC03461A464FF00003D7E9020119F022FC10461946D7E90223994208BF90427FF47EAFFB7D013B7A680B
:40048000D618FB7D184619F0E1F802460B464FF000002A4917F0BAFE02460B461046194619F0E4FB03461A464FF00003D7E9020119F0FCFB14461D46FB7D013B184619F0D0
:4004C000D5F802460B464FF000001C4917F09EFE02460B461046194619F0C8FB03461A464FF00003D7E9020119F0E0FBA41A65EB0305FB7D013B184619F0B8F802460B4629
:400500004FF000000D4917F081FE02460B461046194619F0ABFB03461A464FF000032046294619F0C3FB02460B46D3B243F03003DBB233701C37BD46F0BD00BF0000244042
:4005400080B485B000AF78600B46FB7000237B730023FB7327E0FB78013B7A6813441B787B73FB78023BDBB2BB730FE097F90E3001337A68134497F90E2079680A441278B1
:400580001A70BB7BDBB2013BDBB2BB7397F90E20FB7B9A42EADAFB7B7A6813447A7B1A70FB7B0133FB73FA7BFB78013B9A42D2DB1437BD465DF8047B704700BFB0B584B0FF
:4005C00000AF78600B467B800023FB600023FB7234E0FB7A184619F039F802460B461046194617F00BFE04460D46FB7A7A6813441B7803F00F03184619F038F802460B4688
:400600002046294619F098F802460B4614461D46F86819F01BF802460B461046194622462B4618F0D7FE02460B461046194619F01DFB0346FB60FB7A0133FB72FB7A9BB28B
:400640007A889A42C5D8FB6818461037BD46B0BD80B485B000AF03460A46FB711346BB71FA79BB795340FB710023FB7312E0FB7903F00103002B07D0FB795B08DBB283F078
:400680007303DB43FB7102E0FB795B08FB71FB7B0133FB73FB7B072BE9D9FB7918461437BD465DF8047B704780B584B000AF78600B467B800023FB730023BB810DE0BB898B
:4006C0007A6813441B78FA7B10461946FFF7C0FF0346FB73BB890133BB81BA897B889A42EDD3FB7B18461037BD4680BD80B584B000AF0023FB732CE0FB7B484A4FF4CC716A
:4007000001FB03F3134400225A70FB7B434A4FF4CC7101FB03F313440122DA70FB7B3F4A4FF4CC7101FB03F3134401229A70FB7B4FF4CC7202FB03F30833384A1344043321
:40074000184600214FF4C07219F0BFFDFB7B0133FB73FB7B2D2BCFD90023FB7323E0FB7B2F4A2C2101FB03F3134401221A70FB7B2C2202FB03F32A4A134401331846002137
:40078000082219F0A2FDFB7B2C2202FB03F30833234A1344043318460021082219F095FDFB7B0133FB73FB7B0F2BD8D900F070FAB860BB68002B2BD00023FB71FB79BA68DD
:4007C000134404225A70FB795A1CFA71BA6802339B001344134A5A60FB79BA68134405225A70FB795A1CFA71BA6802339B0013440D4A5A60FB79BA68134406225A70FB791D
:400800005A1CFA71BA6802339B001344074A5A600748FFF763FD1037BD4680BD80E8FF1FD031002059150000C9150000E5150000F90C00000000000090B585B000AF002319
:40084000FB6019F04BFD0346184618F00FFF02460B461046194646A3D3E9002319F096F802460B46104619464FF00002424B18F063FF02460B46104619464FF000023F4BC3
:4008800018F0A8FD02460B461046194619F0EEF90346FB8000237B8100BF7B895A1C7A81FA889A42F9D800237B7257E07B7A344A4FF4CC7101FB03F31344DB78DBB2012B78
:4008C00049D17B7A2E4A4FF4CC7101FB03F3134400221A707B7A2A4A4FF4CC7101FB03F3134400229A807B7A254A4FF4CC7101FB03F313440222DA707C7A17F03BFC034676
:4009000019461F4A4FF4CC7303FB04F313440A46DA807B7A1A4A4FF4CC7101FB03F31344083300221A807B7A4FF4CC7202FB03F30833134A13440433184600214FF4C072DB
:4009400019F0C3FC7B7A4FF4CC7202FB03F30C4A1344FB6005E07B7A01337B727B7A2D2BA4D9FB6818461437BD4690BDAFF300800000C0FFFFFFDF410000904000002440EA
:4009800080E8FF1FAFF3008090B587B000AF0346FB7100237B6119F0A1FC0346184618F065FE02460B461046194655A3D3E9002318F0ECFF02460B46104619464FF0000251
:4009C000514B18F0B9FE02460B46104619464FF000024E4B18F0FEFC02460B461046194619F044F90346FB8100237B8200BF7B8A5A1C7A82FA899A42F9D800237B7418E089
:400A00007B7C434A4FF4CC7101FB03F313445B78DBB2FA799A4209D17B7C4FF4CC7202FB03F33B4A13447B617B6964E07B7C01337B747B7C2D2BE3D900237B7457E07B7C30
:400A4000334A4FF4CC7101FB03F31344DB78DBB2012B49D17B7C2E4A4FF4CC7101FB03F3134400221A707B7C294A4FF4CC7101FB03F313440222DA707C7C17F07BFB0346C7
:400A80001946234A4FF4CC7303FB04F313440A46DA807B7C1E4A4FF4CC7101FB03F31344083300221A807B7C194A4FF4CC7101FB03F3134400229A807B7C4FF4CC7202FBFF
:400AC00003F30833124A13440433184600214FF4C07219F0FAFB7B7C4FF4CC7202FB03F30B4A13447B6105E07B7C01337B747B7C2D2BA4D97B6918461C37BD4690BD00BF87
:400B00000000C0FFFFFFDF41000090400000244080E8FF1FAFF3008080B584B000AF0346FB710023FB7307E0FB7B374A002142F82310FB7B0133FB73FB7B032BF4D919F0A0
:400B4000CDFB0346184618F091FD02460B46104619462BA3D3E9002318F018FF02460B46104619464FF00002284B18F0E5FD02460B46104619464FF00002254B18F02AFC3D
:400B800002460B461046194619F070F803463B810023BB8100BFBB895A1CBA813A899A42F9D80023FB730023FB721CE0FB7A194A4FF4CC7101FB03F313445B78DBB2FA795D
:400BC0009A420DD1FB7B5A1CFA731946FB7A4FF4CC7202FB03F30F4A13440B4A42F82130FB7A0133FB72FB7A2D2B02D8FB7B032BDCD9054B18461037BD4680BDAFF300809D
:400C00000000C0FFFFFFDF4170E8FF1F000090400000244080E8FF1F80B483B000AF78607B6800225A707B680122DA707B6801229A707B680022DA800C37BD465DF8047B11
:400C4000704700BF80B584B000AF0346FB710023FB7314E0FB7B4FF4CC7202FB03F30B4A1344BB60BB685B78DBB2FA799A4203D1B868FFF7D1FF05E0FB7B0133FB73FB7BFC
:400C80002D2BE7D91037BD4680BD00BF80E8FF1F80B483B000AF00237B600023FB700023FB701CE0FB78134A2C2101FB03F313441B78DBB2012B0FD1FB780E4A2C2101FB7E
:400CC00003F3134403221A70FB782C2202FB03F3084A13447B6005E0FB780133FB70FB780F2BDFD97B6818460C37BD465DF8047B704700BFD0310020B0B586B000AF002305
:400D0000FB75CEE2FB7D4FF4CC7202FB03F3B44A13443B613B69DB78DBB2032B40F0BE823B699B78DBB2013B072B00F2B78201A252F823F09D120000550D00007F0D00001A
:400D4000A90D0000D30D0000870E0000E90F000043110000FB7D4FF4CC7202FB03F3A04A1344184600F0A8FAFB7D4FF4CC7202FB03F39B4A13441846FFF74EFF8EE2FB7D2E
:400D80004FF4CC7202FB03F3954A1344184600F0DFFAFB7D4FF4CC7202FB03F3904A13441846FFF739FF79E2FB7D4FF4CC7202FB03F38B4A1344184600F02AFBFB7D4FF418
:400DC000CC7202FB03F3864A13441846FFF724FF64E217F0CFF903461846FB7D804A4FF4CC7101FB03F3134408331B889BB21A464FF47A7303FB02F30344FA7D78494FF4ED
:400E0000CC7000FB02F20A44D28892B29B1AFB60F86818F02BFC02460B46104619464FF00002704B18F0B2FD02460B4614461D46FB7D6B4A4FF4CC7101FB03F313449B888C
:400E40009BB2184618F012FC02460B462046294618F002FF0346002B00D11FE2FB7D4FF4CC7202FB03F35E4A1344184600F0D0FAFB7D4FF4CC7202FB03F3594A13441846AD
:400E8000FFF7CAFE0AE217F075F903461846FB7D534A4FF4CC7101FB03F3134408331B889BB21A464FF47A7303FB02F30344FA7D4B494FF4CC7000FB02F20A44D28892B234
:400EC0009B1ABB60B86818F0D1FB02460B46104619464FF00002434B18F058FD02460B4614461D46FB7D3E4A4FF4CC7101FB03F3134408335B889BB2184618F0B7FB0246CA
:400F00000B462046294618F0A7FE0346002B00D1C4E1B86818F0AAFB02460B46104619464FF000022F4B18F031FD02460B4614461D46FB7D2A4A4FF4CC7101FB03F31344DD
:400F40009B889BB2184618F091FB02460B462046294618F081FE0346002B00D19EE1FB7D4FF4CC7202FB03F31D4A1344184600F0EFF9FC7D17F0FEF803461946184A4FF4B3
:400F8000CC7303FB04F313440A46DA80FB7D144A4FF4CC7101FB03F31344083300221A80FB7D0F4A4FF4CC7101FB03F3134400229A80FB7D0A4A4FF4CC7101FB03F31344FB
:400FC0001B78DBB2002B0AD0FB7D4FF4CC7202FB03F3034A13441846FFF71EFE5EE15DE180E8FF1F00408F4017F0C4F803461846FB7DAF4A4FF4CC7101FB03F313440833DB
:401000001B889BB21A464FF47A7303FB02F30344FA7DA7494FF4CC7000FB02F20A44D28892B29B1A7B60786818F020FB02460B46104619464FF000029E4B18F0A7FC024637
:401040000B4614461D46FB7D994A4FF4CC7101FB03F3134408335B889BB2184618F006FB02460B462046294618F0F6FD0346002B00D113E1786818F0F9FA02460B46104600
:4010800019464FF000028B4B18F080FC02460B4614461D46FB7D864A4FF4CC7101FB03F313449B889BB2184618F0E0FA02460B462046294618F0D0FD0346002B00D1EDE0CA
:4010C000FB7D4FF4CC7202FB03F3794A1344184600F0F8F9FC7D17F04DF803461946744A4FF4CC7303FB04F313440A46DA80FB7D6F4A4FF4CC7101FB03F3134408330022B1
:401100001A80FB7D6A4A4FF4CC7101FB03F3134400229A80FB7D664A4FF4CC7101FB03F313441B78DBB2002B0AD0FB7D4FF4CC7202FB03F35E4A13441846FFF76DFDADE098
:40114000ACE017F017F803461846FB7D584A4FF4CC7101FB03F3134408331B889BB21A464FF47A7303FB02F30344FA7D50494FF4CC7000FB02F20A44D28892B29B1A3B6094
:40118000386818F073FA02460B46104619464FF00002484B18F0FAFB02460B4614461D46FB7D434A4FF4CC7101FB03F3134408335B889BB2184618F059FA02460B462046B4
:4011C000294618F049FD0346002B00D165E0386818F04CFA02460B46104619464FF00002344B18F0D3FB02460B4614461D46FB7D2F4A4FF4CC7101FB03F313449B889BB256
:40120000184618F033FA02460B462046294618F023FD0346002B00D13FE0FB7D4FF4CC7202FB03F3224A1344184600F0F1F8FC7D16F0A0FF034619461D4A4FF4CC7303FB8E
:4012400004F313440A46DA80FB7D194A4FF4CC7101FB03F31344083300221A80FB7D144A4FF4CC7101FB03F3134400229A80FB7D0F4A4FF4CC7101FB03F313441B78DBB246
:40128000002B0AD0FB7D4FF4CC7202FB03F3084A13441846FFF7C0FCFFE700BFFB7D0133FB75FB7D2D2B7FF62DAD1837BD46B0BD80E8FF1F00408F4080B584B000AF786060
:4012C0000023FB730023BB730023FB7337E00023BB732EE0FA7BBB7B1C492C2000FB02F213440B445B78002B00D125E0FA7BB97B164813469B0013445B0013440B440233B8
:401300009B0003445B68002B0FD0FA7BB97B0F4813469B0013445B0013440B4402339B0003445B687868984700E005E0BB7B0133BB73BB7B072BCDD9FB7B0133FB73FB7B20
:401340000F2BC4D91037BD4680BD00BFD031002080B584B000AF78600023FB730023BB7300237B730023BB734AE000237B733DE0BA7B7B7B25492C2000FB02F213440B4429
:401380005B78002B00D134E0BA7B7B7B1F492C2000FB02F213440B445A787B685B78DBB29A4220D1BA7B797B184813469B0013445B0013440B4402339B0003445B68002B1A
:4013C0000ED0BA7B797B114813469B0013445B0013440B4402339B0003445B68786898470123FB7305E07B7B01337B737B7B072BBED9FB7B002B00D005E0BB7B0133BB736C
:40140000BB7B0F2BB1D91037BD4680BDD031002080B584B000AF78600023FB730023BB730023FB7345E00023BB733CE0FA7BBB7B23492C2000FB02F213440B445B78002B1F
:4014400000D133E0FA7BBB7B1D492C2000FB02F213440B445A787B685B78DBB29A421FD1FA7BB97B164813469B0013445B0013440B4402339B0003445B68002B0FD0FA7B09
:40148000B97B0F4813469B0013445B0013440B4402339B0003445B687868984706E005E0BB7B0133BB73BB7B072BBFD9FB7B0133FB73FB7B0F2BB6D91037BD4680BD00BFBC
:4014C000D031002080B584B000AF78600023FB730023BB730023FB7335E00023BB732CE0FA7BBB7B1B492C2000FB02F213440B445B78002B00D123E0FA7BB97B15481346D5
:401500009B0013445B0013440B4402339B0003445B68002B0ED0FA7BB97B0E4813469B0013445B0013440B4402339B0003445B6878689847BB7B0133BB73BB7B072BCFD949
:40154000FB7B0133FB73FB7B0F2BC6D91037BD4680BD00BFD031002080B485B000AF78600023FB7325E0FB7B4FF4CC7202FB03F3144A1344BB60BB689B78DBB2072B0ED08A
:40158000BB689B78DBB2062B09D0BB689B78DBB2082B04D0BB689B78DBB2052B06D1BB681B899BB201339AB2BB681A81FB7B0133FB73FB7B2D2BD6D91437BD465DF8047BC1
:4015C000704700BF80E8FF1F80B584B000AF78607B68FB60FB681B7B1846FFF733FB1037BD4680BD80B584B000AF78607B68FB60FB68D3F890311846FFF70EFB1037BD46FB
:4016000080BD00BF80B400AF024B1846BD465DF8047B70479234002080B500AF02480021422218F052FE80BD9034002080B400AF034B01221A70BD465DF8047B704700BF55
:40164000F4D2FF1F80B400AF034B00221A70BD465DF8047B704700BFF4D2FF1F90B585B000AF0346FB8016F039FBFB881B0A9BB2DAB21E4B1A70FB88DAB21C4B5A70542029
:40168000002116F0D1F90346BB81BB89002B2AD10023FB7308E0FB7B144AD35C184616F09FFAFB7B0133FB73FB7B012BF3D95420012116F017FA0346BB81BB89002B10D1C9
:4016C0000223FB730AE0FC7B012016F0C9FA03461A46064B1A55FB7B0133FB73FB7B412BF1D916F051FA1437BD4690BD9034002080B584B000AF0346FB800023FB73002082
:4017000016F060FB0023BB8116F0E8FAFB881B0A9BB2DAB2184B1A70FB88DAB2164B5A705420002116F080F90346BB81BB89002B13D10023BB7308E0BB7B0F4AD35C184618
:4017400016F04EFABB7B0133BB73BB7B412BF3D916F01AFA052014F0DBF9BB89002B04D0FB7B5A1CFA73092BCED9012016F02AFB1037BD4680BD00BF9034002080B400AF2E
:40178000024B1846BD465DF8047B7047D434002080B500AF02480021102218F096FD80BDD434002080B582B000AF0023FB710023BB7116F093FA6820002116F035F903469A
:4017C0007B717B79002B53D1002016F009FAFB795A1CFA711A46314B9B5C03F07F03DBB2184616F0FDF9FB795A1CFA711A462B4B9B5C03F07F03DBB2184616F0F1F9FB7927
:401800005A1CFA711A46254B9B5C03F03F03DBB2184616F0E5F9FB795A1CFA711A461F4B9B5C03F00703DBB2184616F0D9F9FB795A1CFA711A46194B9B5C03F03F03DBB254
:40184000184616F0CDF9FB795A1CFA711A46134B9B5C03F01F03DBB2184616F0C1F9FB795A1CFA711A460D4B9B5C184616F0B8F916F08AF96820002116F0D6F803467B7120
:401880007B79002B07D10E2016F0AAF9042016F0A7F916F079F90837BD4680BDD434002090B583B000AF16F019FA6820002116F0BBF80346BB80BB88002B02D1002016F0E4
:4018C0008FF916F061F916F009FA6820012116F0ABF80346BB80BB88002B1CD10023FB7116E0FB79052B08D8FC79012016F0B8F903461A460A4B1A5507E0FC79002016F080
:40190000AFF903461A46064B1A55FB790133FB71FB79062BE5D916F037F90C37BD4690BDD434002080B582B000AF0023FB710023BB716820002116F077F803467B717B79F3
:40194000002B07D10E2016F04BF9042016F048F916F01AF90837BD4680BD00BF80B500AF13F032FD14F090F914F0BAFE15F008FA14F066FB15F06CFE00F012F8FEF7B6FE4D
:40198000FEF720FCFEF7A4FC0DF03AFB04F042FE08F0BEFE01F034F808F0ACFF80BD00BF80B500AF16F098FB044815F039FD16F05DFA034816F0D0FA80BD00BFC519000055
:4019C000051A000080B582B000AF16F0A5FB0420FEF7DAFF78607B68002B08D07B6804225A707B6803229A707B680322DA70044B5B680133024A53600837BD4680BD00BFA2
:401A0000B466002080B582B000AF16F04FFA0720FEF7BAFF78607B68002B08D07B6807225A707B6803229A707B680322DA700837BD4680BD80B584B000AF78600B467B807F
:401A400013467B700023FB730023BB811AE016F045F90720002115F0E7FF0346FB73FB7B002B0CD17B78184616F0BAF8BB897A6813441B78184616F0B3F816F085F8BB899D
:401A80000133BB81BA897B889A42E0D3FB7B18461037BD4680BD00BF80B582B000AF78600B467B80164BDB889BB2002B07D0144BDB889BB27A889A4211D200231CE0104B30
:401AC0009B680F4A11687A88084679689847034683F00103DBB2002B01D000230CE07B88084879681A4618F0E5FB054A7B88D380034B01221A71012318460837BD4680BD8B
:401B0000E4340020F034002080B584B000AF78607B68BB60BB68002B19D0322013F0F8FF0023FB730CE0BB68D3F808319B6BFA7BB9680A44127910469847FB7B0133FB7352
:401B4000FB7B9AB2BB685B889BB29A42EBD31037BD4680BD80B588B000AF78607B683B610023FB61444BBB612E2006F0C5FF03461A463B6913441B7BFB730FE0BB691B783C
:401B8000012B08D1BB695B78FA7B9A4203D1BB695B68FB6106E0BB690833BB61BB691B78FF2BEBD1FB69002B62D0FB6903F11C023B690C33104619464FF4C07218F07AFB02
:401BC000042006F099FF03461A463B6913441B7BBB73BB7B0D2B10D1052006F08DFF03461A463B6913441B7B7B737B7B184609F065FD0246FB699A6108E0BB7B0E2B05D12A
:401C0000442009F05BFD0246FB699A61FB690022DA71FB699B6904337B617B69002B27D022E0164BD3F8483814489847B860BB68002B16D0BB687A695A61BB6800229A61C0
:401C4000BB68FA69DA61BB68DB69D3F8B039BA68D26910469847094BD3F84C380748B96898477B6934337B617B691B68002BD8D12037BD4680BD00BF0483FF1F4C5E0020DD
:401C800080B588B000AF78607B683B610023FB61444BBB612E2006F02FFF03461A463B6913441B7BFB730FE0BB691B78022B08D1BB695B78FA7B9A4203D1BB695B68FB6162
:401CC00006E0BB690833BB61BB691B78FF2BEBD1FB69002B62D0FB6903F11C023B690C33104619464FF4C07218F0E4FA042006F003FF03461A463B6913441B7BBB73BB7B02
:401D00000D2B10D1052006F0F7FE03461A463B6913441B7B7B737B7B184609F0CFFC0246FB699A6108E0BB7B0E2B05D1442009F0C5FC0246FB699A61FB690022DA71FB696C
:401D40009B6904337B617B69002B27D022E0164BD3F8483814489847B860BB68002B16D0BB687A695A61BB6800229A61BB68FA69DA61BB68DB69D3F8B039BA68D269104681
:401D80009847094BD3F84C380748B96898477B6934337B617B691B68002BD8D12037BD4680BD00BF0483FF1F4C5E002080B588B000AF78600023FB617B683B610023FB76A5
:401DC00036E0FB7E444A40F6B81101FB03F3134408335B78DBB2012B27D1FB7E40F6B81202FB03F33C4A1344FB61FB7E3A4A40F6B81101FB03F31344083302225A70FB7E33
:401E00000133364A9278934203DB334B01225A7213E0FB7E0133304A40F6B81101FB03F31344083301225A7007E0FB7E0133FB762A4B9B78FA7E9A42C3D3FB69002B48D01C
:401E4000FB6901225A71482009F038FC0246FB699A61FB699B6904337B617B69002B32D02DE01F4BD3F848381D489847F860FB68002B21D0FB6800221A70FB687A695A615B
:401E8000FB6800229A61FB68FA69DA61FB68DB69D3F8B039FA68D269104698473B69D3F89421FB681A62FB683A695A620C4BD3F84C380B48F96898477B6934337B617B696B
:401EC0001B68002BCDD1F86900F00CF8F86900F057F82037BD4680BD58370020385E00204C5E002080B586B000AF78607B683B613B699B78DBB20B2B04D03B699B78DBB2D8
:401F00000A2B37D1492009F0D9FB02463B699A613B699B6904337B617B69002B2AD025E0164BD3F8483815489847F860FB68002B19D0FB6800221A70FB687A695A61FB6854
:401F400000229A61FB683A69DA61FB68DB69D3F8B039FA68D26910469847084BD3F84C380648F96898477B6934337B617B691B68002BD5D11837BD4680BD00BF4C5E00202F
:401F800080B586B000AF78607B683B613B699B78DBB2062B04D03B699B78DBB2072B3CD13B699B79DBB2002B37D0462009F086FB02463B699A613B699B6904337B617B6907
:401FC000002B2AD025E0164BD3F8483814489847F860FB68002B19D0FB6800221A70FB687A695A61FB6800229A61FB683A69DA61FB68DB69D3F8B039FA68D2691046984703
:40200000074BD3F84C380648F96898477B6934337B617B691B68002BD5D11837BD4680BD4C5E002090B58DB000AF78607B68FB619F4B9B78002B02D19D4B01225A7000237E
:4020400087F82F3053E097F82F3040F6B81202FB03F3984A1344BB61BB69002B42D0BB6903F11C02FB690C33104619464FF4C07218F020F94D2009F021FB0246BB699A61AB
:40208000BB699B690433BB62BB6A002B2AD025E0894BD3F848388848984778617B69002B19D07B6900221A707B69BA6A5A617B6900229A617B69BA69DA617B69DB69D3F82D
:4020C000B0397A69D269104698477B4BD3F84C38794879699847BB6A3433BB62BB6A1B68002BD5D197F82F30013387F82F30704B9B7897F82F209A42A5D3002387F82F30EA
:402100005BE097F82F40482009F0D8FA0146694A40F6B81303FB04F313441833196097F82F30644A40F6B81101FB03F3134418331B6804337B627B6A002B39D034E05E4B8C
:40214000D3F848385C48984738613B69002B28D03B6900221A703B697A6A5A613B6900229A6197F82F3040F6B81202FB03F3514A1A443B69DA613B69DB69D3F8B0393A69E5
:40218000D26910469847FB69D3F894213B691A623B69FA695A62484BD3F84C384648396998477B6A34337B627B6A1B68002BC6D197F82F30013387F82F303D4B9B7897F87A
:4021C0002F209A429DD3002387F82F305BE097F82F40492009F072FA0146364A40F6B81303FB04F313441833196097F82F30314A40F6B81101FB03F3134418331B680433AE
:402200003B623B6A002B39D034E02B4BD3F8483829489847F860FB68002B28D0FB6800221A70FB683A6A5A61FB6800229A6197F82F3040F6B81202FB03F31E4A1A44FB68CA
:40224000DA61FB68DB69D3F8B039FA68D26910469847FB69D3F89421FB681A62FB68FA695A62154BD3F84C381348F96898473B6A34333B623B6A1B68002BC6D197F82F30E6
:40228000013387F82F300A4B9B7897F82F209A429DD30A4B1B68002B03D0084B1B68F8699847FB6901221A703437BD4690BD00BF385E0020583700204C5E0020F8D2FF1FEC
:4022C00080B588B000AF78607B687B610023FB777AE0FB7F40F6B81202FB03F3404A13443B613B69002B6CD00023BB77FB7F032B1AD801A252F823F00923000011230000F8
:402300001923000021230000364BDB78BB770BE0344B1B79BB7707E0324B5B79BB7703E0304B9B79BB7700BF3B690022DA7000237B7742E03B691C33184600214FF4C072EC
:4023400017F0C3FF452009F0B9F902463B699A613B699B690433BB61BB69002B2AD025E0214BD3F8483820489847F860FB68002B19D0FB6800221A70FB68BA695A61FB68D4
:4023800000229A61FB683A69DA61FB68DB69D3F8B039FA68D26910469847134BD3F84C381148F9689847BB693433BB61BB691B68002BD5D17B7F01337B777A7FBB7F9A42FE
:4023C000B8D3FB7F0133FB77064B9B78FA7F9A42FFF47FAF7B6901221A702037BD4680BD58370020385E00204C5E002080B588B000AF78607B68BB61BB691B7B184600F006
:40240000CDFA78617B69002B00F0A080BB695A7B7B69DA70FFF70AF9FFF7FEF87B691B78184600F061FA03467B827B8A1846FFF715F97B69DB78DBB2032B49D801A252F804
:4024400023F000BF552400007124000091240000B1240000FFF7D6F80146BB6903F10E02BB691B7D084611461A4617F023FF2FE0FFF7C8F8034603F11001BB6903F10E029A
:40248000BB691B7D084611461A4617F013FF1FE0FFF7B8F8034603F12001BB6903F10E02BB691B7D084611461A4617F003FF0FE0FFF7A8F8034603F13001BB6903F10E0232
:4024C000BB691B7D084611461A4617F0F3FE00BF7B8A1846FFF70CF9FFF7B4F8452009F0EDF802467B699A617B699B690433FB61FB69002B2AD025E0174BD3F848381648E6
:402500009847F860FB68002B19D0FB6800221A70FB68FA695A61FB6800229A61FB687A69DA61FB68DB69D3F8B039FA68D26910469847094BD3F84C380748F9689847FB6999
:402540003433FB61FB691B68002BD5D1BB6901221A702037BD4680BD4C5E002080B586B000AF78607B683B613B691B7B184600F015FAF860FB68002B37D0472009F09EF8C3
:402580000246FB689A61FB689B6904337B617B69002B2AD025E0184BD3F8483816489847B860BB68002B19D0BB6800221A70BB687A695A61BB6800229A61BB68FA68DA6123
:4025C000BB68DB69D3F8B039BA68D26910469847094BD3F84C380848B96898477B6934337B617B691B68002BD5D13B6901221A701837BD4680BD00BF4C5E002080B586B008
:4026000000AF7860FFF708F84FF40070FFF726F8FEF7F8FF034600221A704FF40070FFF767F8FEF7F9FF4FF41070FFF717F8FEF7E9FF034600221A704FF41070FFF758F8DD
:40264000FEF7EAFF4FF42070FFF708F8FEF7DAFF034600221A704FF42070FFF749F8FEF7DBFF4FF43070FEF7F9FFFEF7CBFF034600221A704FF43070FFF73AF82E4B0022ED
:402680009A702E4B3B613B69002B51D03B691C33184600214FF4C07217F017FE4A2009F00DF802463B699A613B699B6904337B617B69002B3CD037E0214BD3F848382048AD
:4026C0009847F860FB68002B2BD0FB6801221A70FB687A695A61FB6800229A61FB683A69DA61FB68DB69D3F8B039FA68D26910469847FB68DB69012283F85829FB68DB69AE
:40270000002283F85929FB68DB69FA68D26992F85829D2B21A700A4BD3F84C380848F96898477B6934337B617B691B68002BC3D11837BD4680BD00BF385E002058370020E9
:402740004C5E002090B583B000AF7860FEF764FF4FF4E070FEF782FFFEF754FF03465A7A5D4B9A74FEF74EFF03469A7A5B4B1A71FEF752FF4FF4A070FEF770FFFEF742FF11
:40278000034601331B781B029CB2FEF73BFF03461B789BB2224613439BB29AB2504B1A80FEF73AFF4FF4A070FEF758FFFEF72AFF0346023318460021102217F086FDFEF721
:4027C00021FF0346023300221A70FEF71BFF0346033300221A70FEF715FF0346043305221A70FEF70FFF0346053300221A704FF4A070FEF77DFFFEF705FF03460233184652
:402800000821FDF7DBFE03469AB2334B9A81FEF703FF4FF4C070FEF721FFFEF7F3FE034618460821FDF7CAFE03469AB22A4BDA81FEF7F2FE4FF40070FEF710FFFEF7E2FEAD
:40284000034605331B78002B0CBF01230023DAB2244B9A72FEF7E0FE4FF41070FEF7FEFEFEF7D0FE034605331B78002B0CBF01230023DAB21B4B83F8C229FEF7CDFE4FF40A
:402880002070FEF7EBFEFEF7BDFE034605331B78002B0CBF01230023DAB2124B03F59B531A331A70FEF7B8FE4FF43070FEF7D6FEFEF7A8FE034605331B78002B0CBF0123E3
:4028C0000023DAB2074B03F5E95312331A70FFF729F80C37BD4690BD385E0020A866002050D2FF1F5837002080B485B000AF0346FB710023FB81274B9B78022B02D0042B38
:4029000014D03FE0244B1B78FA799A4203D14FF48063FB8109E0204B93F8B839FA799A4203D14FF48863FB812CE02BE01A4B1B78FA799A4203D14FF48063FB8121E0164BFA
:4029400093F8B839FA799A4203D14FF48863FB8117E0114B03F59B5310331B78FA799A4203D14FF49063FB810BE00B4B03F5E95308331B78FA799A4203D14FF49863FB810A
:40298000FFE700BFFB8918461437BD465DF8047B704700BF385E00205837002080B485B000AF0346FB710023FB600023FB7216E0FB7A114A40F6B81101FB03F313441B7817
:4029C000FA799A4208D1FB7A40F6B81202FB03F3094A1344FB6007E0FB7A0133FB72074B9B78FA7A9A42E3D3FB6818461437BD465DF8047B704700BF58370020385E00201C
:402A000080B584B000AF08F04BF9FEF741F9F860FB68002B47D00023FB72FB7AFA6813441C225A70FB7A5A1CFA72FA6802339B001344824A5A60FB7AFA68134420225A70B0
:402A4000FB7A5A1CFA72FA6802339B0013447C4A5A60FB7AFA68134407225A70FB7A5A1CFA72FA6802339B001344764A5A60FB7AFA6813440A225A70FB7A5A1CFA72FA689E
:402A800002339B001344704A5A60FB7AFA6813440C225A70FB7A5A1CFA72FA6802339B0013446A4A5A60FEF7F3F8F860FB68002B63D00023BB72BB7AFA6813440D225A70D7
:402AC000BB7A5A1CBA72FA6802339B001344604A5A60BB7AFA6813440E225A70BB7A5A1CBA72FA6802339B0013445A4A5A60BB7AFA6813440F225A70BB7A5A1CBA72FA684A
:402B000002339B001344544A5A60BB7AFA68134411225A70BB7A5A1CBA72FA6802339B0013444E4A5A60BB7AFA68134412225A70BB7A5A1CBA72FA6802339B001344484A9B
:402B40005A60BB7AFA68134410225A70BB7A5A1CBA72FA6802339B001344424A5A60BB7AFA68134413225A70BB7A5A1CBA72FA6802339B0013443C4A5A60FDF75DFE786057
:402B80007B68002B0CD07B680D225A707B6849F640429A807B6805229A707B680322DA70FDF74AFE78607B68002B0CD07B680E225A707B684AF6C8729A807B6805229A70C5
:402BC0007B680322DA70FDF737FE78607B68002B10D07B680A225A707B684CF250329A807B684FF4FA725A817B6806229A707B680322DA70FDF720FE78607B68002B0ED054
:402C00007B6813225A707B6800229A807B6814225A817B6806229A707B680322DA7015F07DF903461A46114B1A801148FDF756FB1048FDF753FB1037BD4680BD551B0000EF
:402C4000811C000059320000AD1D000045270000FD25000025200000C1220000ED2300005D250000811F0000792C0000FCD2FF1FC92E0000B92F000080B582B000AF8F4B1A
:402C8000D3F850388D48984778607B68002B00F011817B685B69002B00F00C810023FB700023BB7000237B70854B00221A71844B0022DA80834800214FF4007217F005FBFC
:402CC0007B68DB6903F5CE73184600214FF4C07217F0FBFA00233B7079E07B685A693B7813449B7FFF2B6ED00123BB70FB7883F00103DBB2002B05D07B685A693B781344B5
:402D00009B7EFB707B68DB699B78DAB27B6859693B780B449B7F9A4256D17B685B69DB6A002B06D07B685B69DB6A7A68D269104698477B685B695B68002B29D07B68DB69A5
:402D40005F4A13607B685B691B7E002B06D07B685B691B7E9AB25A4BDA8004E07B685B69DB68574A93607B685B691B687A68D269104698477B685A697B689A617B68002204
:402D80005A6115F0CBF803461A467B681A8217E07B685B691B687A68D269104698477B681B6A002B05D07B681B6A7A68526A10469847424BD3F854384048984700237B6009
:402DC00001237B7006E005E03B7801333B703B78032B82D9BB7883F00103DBB2002B53D07B685B69DB6A002B06D07B685B69DB6A7A68D269104698477B685B695B68002BE6
:402E000029D07B68DB692E4A13607B685B691B7E002B06D07B685B691B7E9AB2284BDA8004E07B685B69DB68254A93607B685B691B687A68D269104698477B685A697B68B8
:402E40009A617B6800225A6115F068F803461A467B681A822EE07B685B691B687A68D269104698477B681B6A002B05D07B681B6A7A68526A10469847104BD3F854380F48D4
:402E8000984700237B6015E07B7883F00103DBB2002B0FD0FB78002B07D0084BD3F854380648984700237B6004E0044BD3F84438024898470837BD4680BD00BF4C5E00204A
:402EC000E4340020F0340020B0B582B000AF384BD3F850383648984778607B68002B64D07B689B69002B60D07B689B691B8A002B5BD015F013F803461A467B685B8A9BB2D1
:402F000019464FF47A7303FB01F313447A68128A92B29B1A3B60386816F0A8FB02460B46104619464FF00002224B16F02FFD02460B4614461D467B689B691B8A184616F0EA
:402F400095FB02460B462046294616F085FE0346002B2AD07B6800225A827B6800221A827B68DB899BB201339AB27B68DA817B689B699B68002B04D07B689B699B687868D5
:402F800098477B68DB899BB2142B07D9084BD3F854380748984700237B6006E07B689A697B685A617B6800229A610837BD46B0BD4C5E002000408F4080B582B000AF884BCE
:402FC0001B79DBB283F00103DBB2002B00D03AE1844BD3F850388348984778607B68002B00F01B817B689B69002B00F016817B6800225A827B6800221A827B68DB6903F51E
:40300000CE72774BDB889BB2104677491A4617F051F97B68DB69724AD28892B2A3F81C230023FB700023BB7000237B7000233B7061E07B689A693B78134493F82630FF2BC8
:4030400055D00123BB70FB7883F00103DBB2002B06D07B689A693B78134493F82230FB707B689B695B68786898477B68DB699B78DAB27B6899693B780B4493F826309A4259
:4030800036D17B681B78DBB283F00103DBB2002B13D07B689B691B6B002B04D07B689B691B6B786898477B681B6A002B05D07B681B6A7A68526A104698477B681B78DBB2B6
:4030C00083F00103DBB2002B07D0464BD3F854384448984700237B6006E07B689A697B685A617B6800229A6101237B7006E005E03B7801333B703B78032B9AD9BB7883F0A9
:403100000103DBB2002B38D07B689B695B68786898477B681B78DBB283F00103DBB2002B13D07B689B691B6B002B04D07B689B691B6B786898477B681B6A002B05D07B686A
:403140001B6A7A68526A104698477B681B78DBB283F00103DBB2002B07D0224BD3F854382048984700237B6057E07B689A697B685A617B6800229A614FE07B7883F0010391
:40318000DBB2002B49D0FB78002B07D0154BD3F854381448984700237B603EE07B689B695B7E002B22D07B681B899BB2132B07D90C4BD3F854380B48984700237B602CE002
:4031C0007B681B899BB201339AB27B681A817B689A697B685A617B6800229A611DE000BFE43400204C5E0020F03400207B685B899BB2002B05D114F091FE03461A467B6843
:403200005A817B689A697B685A617B6800229A610E4BD3F844380D4898470D4B00221A710B4B0022DA800B4800214FF4007217F04CF87B68DB6903F5CE73184600214FF4EE
:40324000C07217F042F80837BD4680BD4C5E0020E4340020F034002080B584B000AF78601B4B1B8801339AB2194B1A80194BD3F8503818489847F860FB68002B1BD0FB6875
:403280009B69002B17D0FB689B691B8A002B06D0FB685B8A9BB201339AB2FB685A82FB689B695B69002B06D0FB689B899BB201339AB2FB689A8114F031FE03461A46064B6C
:4032C0001A80034B00221A801037BD4680BD00BFFED2FF1F4C5E0020FCD2FF1F90B58FB000AF78607B68FB62634B1B78DBB2002B00D0BEE0FB6A03F10C02FB6AB3F88C315A
:403300009BB2DBB21046194603F030FE03461A465A4BDA70594803F0D1FC584B9B78FF2B08D1564B5B79FF2B04D1544B9B7AFF2B00F09580514B9B6B002B03D04F4B9B6B94
:403340004E489847012387F837304D4B3B630CE03B6B1A78494BDB789A4203D1002387F8373006E03B6B01333B633B6B1B78FF2BEED197F83730002B1CD0404803F0F2FCDE
:4033800078627B6A002B15D07B6A3C489847034683F00103DBB2002B0CD0384BFF229A70364B9A78354B5A71344B5A79334B9A7200BF5EE0314805F03BF9304B1B6B3B62FD
:4033C0002E4803F09FFDF861FB69002B02D0FB692A489847294803F06FFE284803F05EFDB861BB69002B02D0BB6924489847AA233B7270237B720023BB72204B1B691B7855
:40340000FB72CC233B7333237B73C323BB733C23FB73A320FCF77CFE78617B69002B12D07B6908225A807B691A1D7B695B889BB21C4607F1080310461946224616F03AFF8B
:403440007B69C2221A700D4803F0F4FC38613B69002B03D03B69094898470AE009E0074803F0B4FCB862BB6A002B02D0BB6A034898473C37BD4690BD385E00203083FF1F19
:403480002C83FF1F90B58FB000AF78607B68FB62624B1B78DBB2002B00D0BBE0FB6A03F10C02FB6AB3F88C319BB2DBB21046194603F05CFD03461A46594BDA70584803F058
:4034C000FDFB574B9B78FF2B08D1554B5B79FF2B04D1534B9B7AFF2B00F09280504B9B6B002B03D04E4B9B6B4D489847012387F837304C4B3B630CE03B6B1A78484BDB78CF
:403500009A4203D1002387F8373006E03B6B01333B633B6B1B78FF2BEED197F83730002B1CD03F4803F01EFC78627B6A002B15D07B6A3B489847034683F00103DBB2002B23
:403540000CD0374BFF229A70354B9A78344B5A71334B5A79324B9A7200BF5BE0304805F067F82F4803F0CEFC38623B6A002B02D03B6A2B4898472A4803F09EFD284803F07C
:403580008DFCF861FB69002B02D0FB6924489847AA233B7370237B730023BB73204B1B691B78FB73CC233B7433237B74C323BB743C23FB74A420FCF7ABFDB861BB69002B4F
:4035C00012D0BB6908225A80BB691A1DBB695B889BB21C4607F10C0310461946224616F069FEBB69C2221A700D4803F023FC78617B69002B03D07B69094898470AE009E084
:40360000074803F0E3FBB862BB6A002B02D0BB6A034898473C37BD4690BD00BF385E00206C83FF1F2C83FF1FB0B590B004AF786003233B724FF6FF73BB810023FB81852390
:40364000BB727B68FB62FDF7F1FFFDF7E5FF4FF4E070FEF703F8FDF7D5FF03461B7A87F82B30FDF7EFFFFB6A1B78002B47D1A320FCF74EFD78627B6A002B3FD007F11003FC
:4036800018460021102216F020FE97F82B30012B09D197F82B3007F1100210463C491A4616F056FE08E097F82B3007F11002104638491A4616F04CFE7B6A1D1D07F110032F
:4036C000184616F077FE03469BB207F11004009301AA07F1080393E8030082E80300F0204FF495712A46234603F04CFA03461A467B6A5A807B6AC2221A7046E045E0A420EE
:40370000FCF706FD38623B6A002B3ED007F1100318460021102216F0D8FD97F82B30012B09D197F82B3007F11002104618491A4616F00EFE08E097F82B3007F11002104645
:4037400014491A4616F004FE3B6A1D1D07F11003184616F02FFE03469BB207F11004009301AA07F1080393E8030082E80300F0204FF495712A46234603F004FA03461A466F
:403780003B6A5A803B6AC2221A703037BD46B0BDB0AB0100BCAB010090B58DB004AF786003233B724FF6FF73BB810023FB81C523BB72294BFB617B68BB61BB691B78002BA4
:4037C00024D1A320FCF7A4FC78617B69002B1CD07B691C1DF86916F0EDFD03469BB2009301AA07F1080393E8030082E803006020EA212246FB6903F0C5F903461A467B69E5
:403800005A807B69C2221A7023E022E0A420FCF77FFC38613B69002B1BD03B691C1DF86916F0C8FD03469BB2009301AA07F1080393E8030082E803006020EA212246FB69B0
:4038400003F0A0F903461A463B695A803B69C2221A702437BD4690BDC8AB010090B58DB004AF786003233B724FF6FF73BB810023FB81C523BB72294BFB617B68BB61BB69EA
:403880001B78002B24D1A320FCF742FC78617B69002B1CD07B691C1DF86916F08BFD03469BB2009301AA07F1080393E8030082E803002020EA212246FB6903F063F9034610
:4038C0001A467B695A807B69C2221A7023E022E0A420FCF71DFC38613B69002B1BD03B691C1DF86916F066FD03469BB2009301AA07F1080393E8030082E803002020EA217C
:403900002246FB6903F03EF903461A463B695A803B69C2221A702437BD4690BDE8AB010090B587B000AF78607B687B617B691B78002B4AD10023FB747B691C6B2E2005F05A
:40394000DBF8034623441B7B562B19D1FDF76EFEFDF762FE4FF40070FDF780FEFDF752FE03465B79BB74FDF76DFEBB7C002B03D17B69A5221A7127E07B69A6221A7123E04E
:403980007B691C6B2E2005F0B7F8034623441B7B572B19D1FDF74AFEFDF73EFE4FF42070FDF75CFEFDF72EFE03465B797B74FDF749FE7B7C002B03D17B69A5221A7103E0F5
:4039C0007B69A6221A714DE04CE07B691B78012B48D100233B747B691C6B2E2005F08CF8034623441B7B562B19D1FDF71FFEFDF713FE4FF43070FDF731FEFDF703FE03466C
:403A00005B79FB73FDF71EFEFB7B002B03D17B69A5221A7126E07B69A6221A7122E07B691C6B2E2005F068F8034623441B7B572B18D1FDF7FBFDFDF7EFFD4FF41070FDF708
:403A40000DFEFDF7DFFD03465B79BB73FDF7FAFDBB7B002B03D17B69A5221A7102E07B69A6221A711C37BD4690BD00BFB0B586B000AF78607B687B61786905F085F80346D2
:403A80001A4640F6B81303FB02F3464A13443B613B69002B00F083803B69D3F83839386998473B69D3F84C3938699847F8603B69D3F83C3938699847FB68002B6FD00023ED
:403AC000FB72FB68E3225A70FB7A5A1CFA7219463B691A78FB680B449A70FB7AFA6813449D1C7B691C6B242005F006F80346083323441C1D242005F023F803462846214660
:403B00001A4616F0D7FB242005F01AF803461A46FB7A1344FB72FB7AFA6813449D1C7B691C6B252004F0E8FF0346083323441C1D252005F005F80346284621461A4616F0CF
:403B4000B9FBFB7AFA6813449C1CFB7AFA6813440233184616F02EFC0346DBB220461946FCF7EEFC252004F0EBFF03461A46FB7A1344FB72FB7A9AB2FB68A3F802213B69B7
:403B8000D3F83839386998473B69D3F844393869F96898473B69D3F83C39386998471837BD46B0BD5837002080B584B000AF78607B68FB60FB68DB7A1846FEF7EFFEB8606C
:403BC0001037BD4680BD00BFF0B58FB004AF786003233B734FF6FF733B8200237B82C523BB734F4BBB607B687B627B6A1B78002B4AD1A320FCF78CFA38623B6A002B42D0A7
:403C00000023FB77BA23BB833B6A00225A803B6A5B889BB21A463B6A13441D1DFB7F9B0007F12802134453F8204CFB7F9B0007F12802134453F8203C184616F0BBFB0346EB
:403C40009BB2BE8B009301AA07F10C0393E8030082E803001A2031462A46234602F092FF03461A463B6A5B889BB213449AB23B6A5A80BB8B2033BB83FB7F0133FB773B6A35
:403C8000C2221A7049E048E0A420FCF741FAB861BB69002B41D00023FB75BA23BB82BB6900225A80BB695B889BB21A46BB6913441D1DFB7D9B0007F12802134453F8204C61
:403CC000FB7D9B0007F12802134453F8203C184616F070FB03469BB2BE8A009301AA07F10C0393E8030082E803001A2031462A46234602F047FF03461A46BB695B889BB2F5
:403D000013449AB2BB695A80BB8A2033BB82FB7D0133FB75BB69C2221A702C37BD46F0BD94AC01002DE9F04196B004AF786003233B7500233B834FF6FF737B838523BB75AF
:403D4000002387F847300023A7F844300023A7F842307B68FB63F86B04F016FF0346032B3ED801A252F823F0793D0000933D0000AD3D0000C73D0000D34BDB7887F84730AB
:403D80004FF40073A7F844304FF44073A7F8423026E0CD4B1B7987F847304FF41073A7F844304FF45073A7F8423019E0C64B5B7987F847304FF42073A7F844304FF46073C8
:403DC000A7F842300CE0C04B9B7987F847304FF43073A7F844304FF47073A7F8423000BFFB6B1B78002B40F00881FDF71FFCFDF713FCB7F844301846FDF730FCFDF702FC40
:403E000003465A1C07F1100310681860FDF71AFCFDF70CFCFDF700FCB7F842301846FDF71DFC002387F84130DDE097F8413007F14802134413F8383C013B032B00F2CE80B4
:403E400001A252F823F000BF593E0000B73E0000193F00007B3F0000A320FCF759F9B863BB6B002B26D097F84130984A32F8236097F84130954A9B0013445D88BB6B1C1DD7
:403E8000FDF7C0FB86461023009301AA07F1140393E8030082E80300304629462246734602F070FE03461A46BB6B5A80BB6BC2221A7093E092E0A320FCF72AF978637B6BFA
:403EC000002B28D097F84130804A32F8238097F841307E4A9B0013445E887B6B1D1DFDF791FB034603F110041023009301AA07F1140393E8030082E80300404631462A469F
:403F0000234602F03FFE03461A467B6B5A807B6BC2221A7062E061E0A320FCF7F9F838633B6B002B28D097F84130684A32F8238097F84130654A9B0013445E883B6B1D1DB8
:403F4000FDF760FB034603F120041023009301AA07F1140393E8030082E80300404631462A46234602F00EFE03461A463B6B5A803B6BC2221A7031E030E0A320FCF7C8F87E
:403F8000F862FB6A002B28D097F841304F4A32F8238097F841304D4A9B0013445E88FB6A1D1DFDF72FFB034603F130041023009301AA07F1140393E8030082E8030040462B
:403FC00031462A46234602F0DDFD03461A46FB6A5A80FB6AC2221A70FFE700BF97F84130013387F8413097F8412097F847309A42FFF41BAFFDF726FB0BE1FDF717FBFDF797
:404000000BFBB7F844301846FDF728FBFDF7FAFA03465A1C07F10C0310681860FDF712FBFDF704FBFDF7F8FAB7F842301846FDF715FB002387F84030E2E097F8403007F11C
:404040004802134413F83C3C013B032B00F2D38001A252F823F000BF69400000D14000003341000095410000A420FCF751F8B862BB6A002B26D097F84030144A32F8236040
:4040800097F84030114A9B0013445D88BB6A1C1DFDF7B8FA86461023009301AA07F1140393E8030082E80300304629462246734602F068FD03461A46BB6A5A80BB6AC22286
:4040C0001A7098E097E000BF385E0020A883FF1FA420FCF71DF878627B6A002B28D097F840304E4A32F8238097F840304B4A9B0013445E887B6A1D1DFDF784FA034603F13D
:4041000010041023009301AA07F1140393E8030082E80300404631462A46234602F032FD03461A467B6A5A807B6AC2221A7062E061E0A420FBF7ECFF38623B6A002B28D0C8
:4041400097F84030354A32F8238097F84030334A9B0013445E883B6A1D1DFDF753FA034603F120041023009301AA07F1140393E8030082E80300404631462A46234602F0EC
:4041800001FD03461A463B6A5A803B6AC2221A7031E030E0A420FBF7BBFFF861FB69002B28D097F840301D4A32F8238097F840301A4A9B0013445E88FB691D1DFDF722FA39
:4041C000034603F130041023009301AA07F1140393E8030082E80300404631462A46234602F0D0FC03461A46FB695A80FB69C2221A70FFE700BF97F84030013387F84030CF
:4042000097F8402097F847309A42FFF416AFFDF719FA4837BD46BDE8F08100BFA883FF1FF0B58FB004AF786003233B734FF6FF733B8200237B82C523BB734F4BBB607B68C9
:404240007B627B6A1B78002B4AD1A320FBF760FF38623B6A002B42D00023FB77BA23BB833B6A00225A803B6A5B889BB21A463B6A13441D1DFB7F9B0007F12802134453F87E
:40428000204CFB7F9B0007F12802134453F8203C184616F08FF803469BB2BE8B009301AA07F10C0393E8030082E803001A2031462A46234602F066FC03461A463B6A5B8854
:4042C0009BB213449AB23B6A5A80BB8B2033BB83FB7F0133FB773B6AC2221A7049E048E0A420FBF715FFB861BB69002B41D00023FB75BA23BB82BB6900225A80BB695B88DD
:404300009BB21A46BB6913441D1DFB7D9B0007F12802134453F8204CFB7D9B0007F12802134453F8203C184616F044F803469BB2BE8A009301AA07F10C0393E8030082E8FA
:4043400003001A2031462A46234602F01BFC03461A46BB695B889BB213449AB2BB695A80BB8A2033BB82FB7D0133FB75BB69C2221A702C37BD46F0BDBCAC0100B0B586B06F
:4043800000AF78607B687B61786904F0FDFB03461A4640F6B81303FB02F3524A13443B613B69D3F83839386998473B69D3F84C3938699847F8603B69D3F83C39386998472E
:4043C000FB68002B00F08A800023FB72FB68A2225A70FB7A5A1CFA7219463B691A78FB680B449A70FB7A5A1CFA721D467B691C6B072004F081FB034623441A7BFB682B4439
:404400009A70FB7AFA6813449D1C7B691C6B122004F072FB0346083323441C1D122004F08FFB0346284621461A4615F043FFFB7AFA6813449C1C122004F082FB03462046BC
:404440001946FCF77DF8122004F07AFB03461A46FB7A1344FB72FB7AFA6813449D1C7B691C6B0E2004F048FB0346083323441C1D0E2004F065FB0346284621461A4615F018
:4044800019FFFB7AFA6813449C1C0E2004F058FB034620461946FCF753F80E2004F050FB03461A46FB7A1344FB72FB7A9AB2FB68A3F802213B69002283F898293B69D3F89B
:4044C0003839386998473B69D3F844393869F96898473B69D3F83C39386998471837BD46B0BD00BF5837002090B585B000AF78607B68FB60F86804F047FB03461A4640F6B9
:40450000B81303FB02F31C4A1344BB60BB6893F89839DBB2002B28D0BB68002283F89829FB681C6B0B2004F0E7FA0346083323441C1D0B2004F004FB0346204600211A46D9
:4045400015F0C3FEFB681C6B0B2004F0D5FA0346234439221A73FB681C6B052004F0CCFA0346234444221A7302E0BB680822DA721437BD4690BD00BF5837002090B585B09B
:4045800000AF78607B68FB60FB68002B3DD0FDF74DF8FDF741F84FF4A070FDF75FF8FDF731F8034601331B781B029CB2FDF72AF803461B789BB2224613439BB27B81FDF7C5
:4045C00041F8FB681D3318460021102215F07DFE7A894FF00003F96801F11D04104619462246FBF7BFFEFB681D33184615F0E2FE0346DAB2FB681A77FB6803F11D02FB6881
:404600001B7F10461946FBF79BFF1437BD4690BDF0B58BB004AF78607B687B617B69002B65D07B691B699A8D7B691A837B691B69DA8D7B695A837B691B78002B2CD1A32094
:40464000FBF766FD38613B69002B24D07B69B3F818E07B695E8B3B691D1D7B6903F11D047B691B6993F830309BB27A691269009301AB32321068516803C3704631462A4629
:40468000234602F07FFA03461A463B695A803B69C2221A702BE02AE0A420FBF739FDF860FB68002B23D07B69B3F818E07B695E8BFB681D1D7B6903F11D047B691B6993F836
:4046C00030309BB27A691269009301AB32321068516803C3704631462A46234602F052FA03461A46FB685A80FB68C2221A701C37BD46F0BDB0B584B000AF78607B68BB60F9
:40470000BB68002B58D00023FB8100237B732EE0BB681B7F1A467B7BD31A013B184614F0A5FF02460B464FF00000254913F06EFD04460D467B7BBA6813445B7F03F00F0364
:40474000184614F093FF02460B462046294614F0F3FF02460B461046194615F087FA03469AB2FB891344FB817B7B01337B73BB681B7F7A7B9A42CBD3FCF758FFFCF74CFF55
:404780004FF4A070FCF76AFFFCF73CFF0346FA89D2B21A70FCF736FF03460133FA89120A92B2D2B21A704FF4A070FCF7A1FF054AFB891380FCF746FF1037BD46B0BD00BFB2
:4047C0000000244050D2FF1F90B585B000AF78607B68FB60FB68002B32D0FCF727FFFCF71BFF4FF4E070FCF739FFFCF70BFF03465B7AFB72FCF726FFFB681D331846002190
:40480000102215F062FDFA7A4FF00003F96801F11D04104619462246FBF7A4FDFB681D33184615F0C7FD0346DAB2FB681A77FB6803F11D02FB681B7F10461946FBF780FECD
:404840001437BD4690BD00BFF0B58BB004AF78607B687B617B69002B65D07B691B699A8D7B691A837B691B69DA8D7B695A837B691B78002B2CD1A320FBF74AFC38613B69F9
:40488000002B24D07B69B3F818E07B695E8B3B691D1D7B6903F11D047B691B6993F830309BB27A691269009301AB32321068516803C3704631462A46234602F063F9034679
:4048C0001A463B695A803B69C2221A702BE02AE0A420FBF71DFCF860FB68002B23D07B69B3F818E07B695E8BFB681D1D7B6903F11D047B691B6993F830309BB27A69126923
:40490000009301AB32321068516803C3704631462A46234602F036F903461A46FB685A80FB68C2221A701C37BD46F0BDB0B584B000AF78607B68BB60BB68002B50D000234D
:40494000FB730023BB732FE0BB681B7F1A46BB7BD31A013B184614F089FE02460B464FF00000214913F052FC04460D46BB7BBA6813445B7F03F00F03184614F077FE024627
:404980000B462046294614F0D7FE02460B461046194615F06BF903469BB2DAB2FB7B1344FB73BB7B0133BB73BB681B7FBA7B9A42CAD3FCF73BFEFCF72FFE4FF4E070FCF70F
:4049C0004DFEFCF71FFE03460933FA7B1A704FF4E070FCF78DFE054AFB7B9374FCF732FE1037BD46B0BD00BF00002440385E002080B586B000AF78607B687B617B691B7820
:404A0000002B22D1FBF718FF38613B69002B1BD07B693A695A633B697A69C3F890213B6923225A703B6964225A813B6941F288329A803B69194AC3F894213B6906229A7015
:404A40003B690322DA7025E024E07B691B78012B20D1FBF7F1FEF860FB68002B1AD07B69FA685A63FB687A69C3F89021FB6824225A70FB6864225A81FB6841F288329A807F
:404A8000FB68064AC3F89421FB6806229A70FB680322DA701837BD4680BD00BFD54A000080B485B000AF78607B68FB60FB685B6B002B0AD0FB685B6B002B03D0FB685B6B53
:404AC00001221A70FB6800225A631437BD465DF8047B704780B588B000AF78607B68FB61FB69D3F89031BB61BB69002B38D0BB6913229A72BB6903F11D02FB690C331046C3
:404B00001946082215F0D6FBBB6908221A77FBF793FE78617B69002B22D0134A07F10C031068516803C3BB691B78002B03D17B691B225A7002E07B691F225A707B69032204
:404B40009A707B690C331A4607F10C0303CB106051607B690822A3F88C217B690322DA702037BD4680BD00BFE4AC0100B0B590B004AF786004233B724FF6FF73BB81002308
:404B8000FB81C523BB727B68BB62BB6A1B78002B40F00482BB6A1B691B783E2B40F0FE81A320FBF7B5FA78627B6A002B00F01481002387F82F30FCF739FDFCF7E9FDFCF7AE
:404BC0006FFE07F1100318460021082215F07DFBFCF7D4FD034602331B7803F04003002B32D097F82F305A1C87F82F201C46FCF7C5FD034602331B781B09DBB2DBB203F054
:404C00000103DBB243F03003DBB2DAB207F13003234403F8202C97F82F305A1C87F82F201C46FCF7ABFD034602331B78DBB203F00F03DBB243F03003DBB2DAB207F1300382
:404C4000234403F8202C31E097F82F305A1C87F82F201C46FCF792FD034602331B781B09DBB2DBB203F00303DBB243F03003DBB2DAB207F13003234403F8202C97F82F3044
:404C80005A1C87F82F201C46FCF778FD034602331B78DBB203F00F03DBB243F03003DBB2DAB207F13003234403F8202C97F82F305A1C87F82F2007F1300213443A2203F854
:404CC000202C97F82F305A1C87F82F201C46FCF755FD034601331B781B09DBB2DBB203F00703DBB243F03003DBB2DAB207F13003234403F8202C97F82F305A1C87F82F202D
:404D00001C46FCF73BFD034601331B78DBB203F00F03DBB243F03003DBB2DAB207F13003234403F8202C97F82F305A1C87F82F2007F1300213443A2203F8202C97F82F301B
:404D40005A1C87F82F201C46FCF718FD03461B781B09DBB2DBB203F00703DBB243F03003DBB2DAB207F13003234403F8202C97F82F305A1C87F82F201C46FCF7FFFC0346BE
:404D80001B78DBB203F00F03DBB243F03003DBB2DAB207F13003234403F8202CFCF752FC7B6A1D1D97F82F309BB207F11004009301AA07F1080393E8030082E80300C9202D
:404DC000BA212A46234601F0DDFE03461A467B6A5A807B6AC2221A70A320FBF799F978627B6A002B00F0D980002387F82330FCF71DFCFCF7CDFCFCF753FD07F11003184695
:404E00000021082215F061FA97F823305A1C87F823201C46FCF7B2FC034604331B781B09DBB2DBB203F00303DBB243F03003DBB2DAB207F13003234403F8202C97F8233099
:404E40005A1C87F823201C46FCF798FC034604331B78DBB203F00F03DBB243F03003DBB2DAB207F13003234403F8202C97F823305A1C87F8232007F1300213442F2203F8A0
:404E8000202C97F823305A1C87F823201C46FCF775FC034605331B781B09DBB2DBB203F00103DBB243F03003DBB2DAB207F13003234403F8202C97F823305A1C87F823207E
:404EC0001C46FCF75BFC034605331B78DBB203F00F03DBB243F03003DBB2DAB207F13003234403F8202C97F823305A1C87F8232007F1300213442F2203F8202C97F8233066
:404F00005A1C87F823201C46FCF738FC034606331B781B09DBB2DBB243F03003DBB2DAB207F13003234403F8202C97F823305A1C87F823201C46FCF721FC034606331B7864
:404F4000DBB203F00F03DBB243F03003DBB2DAB207F13003234403F8202CFCF773FB7B6A1D1D97F823309BB207F11004009301AA07F1080393E8030082E80300C9204FF4A7
:404F800095712A46234601F0FDFD03461A467B6A5A807B6AC2221A70F5E1F4E1BB6A1B78012B40F0F081BB6A1B691B783E2B40F0EA81A420FBF7ACF8F861FB69002B00F0CA
:404FC0001481002387F82E30FCF730FBFCF7E0FBFCF766FC07F1100318460021082215F074F9FCF7CBFB034602331B7803F04003002B32D097F82E305A1C87F82E201C46F6
:40500000FCF7BCFB034602331B781B09DBB2DBB203F00103DBB243F03003DBB2DAB207F13003234403F8202C97F82E305A1C87F82E201C46FCF7A2FB034602331B78DBB2DB
:4050400003F00F03DBB243F03003DBB2DAB207F13003234403F8202C31E097F82E305A1C87F82E201C46FCF789FB034602331B781B09DBB2DBB203F00303DBB243F03003F1
:40508000DBB2DAB207F13003234403F8202C97F82E305A1C87F82E201C46FCF76FFB034602331B78DBB203F00F03DBB243F03003DBB2DAB207F13003234403F8202C97F8F8
:4050C0002E305A1C87F82E2007F1300213443A2203F8202C97F82E305A1C87F82E201C46FCF74CFB034601331B781B09DBB2DBB203F00703DBB243F03003DBB2DAB207F1D0
:405100003003234403F8202C97F82E305A1C87F82E201C46FCF732FB034601331B78DBB203F00F03DBB243F03003DBB2DAB207F13003234403F8202C97F82E305A1C87F873
:405140002E2007F1300213443A2203F8202C97F82E305A1C87F82E201C46FCF70FFB03461B781B09DBB2DBB203F00703DBB243F03003DBB2DAB207F13003234403F8202C32
:4051800097F82E305A1C87F82E201C46FCF7F6FA03461B78DBB203F00F03DBB243F03003DBB2DAB207F13003234403F8202CFCF749FAFB691D1D97F82E309BB207F110040D
:4051C000009301AA07F1080393E8030082E80300C920BA212A46234601F0D4FC03461A46FB695A80FB69C2221A70A420FAF790FFF861FB69002B00F0C6800023FB76FCF783
:4052000015FAFCF7C5FAFCF74BFB07F1100318460021082215F059F8FB7E5A1CFA761C46FCF7ACFA034604331B781B09DBB2DBB203F00303DBB243F03003DBB2DAB207F1C2
:405240003003234403F8202CFB7E5A1CFA761C46FCF794FA034604331B78DBB203F00F03DBB243F03003DBB2DAB207F13003234403F8202CFB7E5A1CFA7607F130021344A1
:405280002F2203F8202CFB7E5A1CFA761C46FCF775FA034605331B781B09DBB2DBB203F00103DBB243F03003DBB2DAB207F13003234403F8202CFB7E5A1CFA761C46FCF751
:4052C0005DFA034605331B78DBB203F00F03DBB243F03003DBB2DAB207F13003234403F8202CFB7E5A1CFA7607F1300213442F2203F8202CFB7E5A1CFA761C46FCF73EFA68
:40530000034606331B781B09DBB2DBB243F03003DBB2DAB207F13003234403F8202CFB7E5A1CFA761C46FCF729FA034606331B78DBB203F00F03DBB243F03003DBB2DAB238
:4053400007F13003234403F8202CFCF77BF9FB691D1DFB7E9BB207F11004009301AA07F1080393E8030082E80300C9204FF495712A46234601F006FC03461A46FB695A806C
:40538000FB69C2221A703037BD46B0BD80B586B000AF78607B687B617B691B78002B20D11D20FBF7F1FA38613B69002B18D07B693A695A633B697A69C3F890213B691C4A55
:4053C000C3F894213B691D225A703B6906229A703B694FF47A725A813B690322DA7023E022E07B691B78012B1ED12120FBF7CCFAF860FB68002B17D07B69FA685A63FB6836
:405400007A69C3F89021FB68094AC3F89421FB6821225A70FB6806229A70FB684FF47A725A81FB680322DA701837BD4680BD00BF6D4B000080B487B000AF78607B687B61FC
:405440007B691B78002B0AD17B695B6B3B613B69002B03D03B6901221A700DE00CE07B691B78012B08D17B695B6BFB60FB68002B02D0FB6801221A701C37BD465DF8047B82
:40548000704700BF80B584B000AF78607B68FB60FB68D3F89431002B07D0FB68D3F89431FA68D2F89021104698471037BD4680BD80B586B000AF78607B687B617B691B789F
:4054C000002B1ED11E20FBF75FFA38613B69002B16D01E4B00229A707B693A695A633B697A69C3F890213B691E225A703B6906229A703B6964225A813B690322DA7021E052
:4055000020E07B691B78012B1CD12220FBF73CFAF860FB68002B15D00C4B00225A727B69FA685A63FB687A69C3F89021FB6822225A70FB6806229A70FB6864225A81FB687F
:405540000322DA701837BD4680BD00BFBC83FF1F80B487B000AF78607B687B617B691B78002B0AD17B695B6B3B613B69002B03D03B6901221A700DE00CE07B691B78012B2E
:4055800008D17B695B6BFB60FB68002B02D0FB6801221A701C37BD465DF8047B704700BFB0B590B004AF786002233B724FF6FF73BB810023FB81C523BB727B68BB62BB6A2F
:4055C0001B78002B40F0DE81BB6A1B691B78012B40F0D881A320FAF79BFD78627B6A002B00F0EA80002387F82F30FCF71FF8FCF7CFF8FCF755F907F1100318460021082223
:4056000014F063FEFCF7BAF8034602331B7803F04003002B32D097F82F305A1C87F82F201C46FCF7ABF8034602331B781B09DBB2DBB203F00103DBB243F03003DBB2DAB270
:4056400007F13003234403F8202C97F82F305A1C87F82F201C46FCF791F8034602331B78DBB203F00F03DBB243F03003DBB2DAB207F13003234403F8202C31E097F82F30BA
:405680005A1C87F82F201C46FCF778F8034602331B781B09DBB2DBB203F00303DBB243F03003DBB2DAB207F13003234403F8202C97F82F305A1C87F82F201C46FCF75EF8D7
:4056C000034602331B78DBB203F00F03DBB243F03003DBB2DAB207F13003234403F8202CA74B5B78002B0BD097F82F305A1C87F82F2007F1300213443A2203F8202C0AE017
:4057000097F82F305A1C87F82F2007F130021344202203F8202C97F82F305A1C87F82F201C46FCF72BF8034601331B781B09DBB2DBB203F00703DBB243F03003DBB2DAB22C
:4057400007F13003234403F8202C97F82F305A1C87F82F201C46FCF711F8034601331B78DBB203F00F03DBB243F03003DBB2DAB207F13003234403F8202CFBF763FF7B6A00
:405780001D1D97F82F309BB207F11004009301AA07F1080393E8030082E8030010204FF4DD712A46234601F0EDF903461A467B6A5A807B6AC2221A70A320FAF7A9FC7862DD
:4057C0007B6A002B00F0DA80002387F82330FBF72DFFFBF7DDFFFCF763F807F1100318460021082214F071FD97F823305A1C87F823201C46FBF7C2FF034604331B781B0994
:40580000DBB2DBB203F00303DBB243F03003DBB2DAB207F13003234403F8202C97F823305A1C87F823201C46FBF7A8FF034604331B78DBB203F00F03DBB243F03003DBB236
:40584000DAB207F13003234403F8202C97F823305A1C87F8232007F1300213442F2203F8202C97F823305A1C87F823201C46FBF785FF034605331B781B09DBB2DBB203F059
:405880000103DBB243F03003DBB2DAB207F13003234403F8202C97F823305A1C87F823201C46FBF76BFF034605331B78DBB203F00F03DBB243F03003DBB2DAB207F130034A
:4058C000234403F8202C97F823305A1C87F8232007F1300213442F2203F8202C97F823305A1C87F823201C46FBF748FF034606331B781B09DBB2DBB243F03003DBB2DAB240
:4059000007F13003234403F8202C97F823305A1C87F823201C46FBF731FF034606331B78DBB203F00F03DBB243F03003DBB2DAB207F13003234403F8202CFBF783FE7B6A0C
:405940001D1D97F823309BB207F11004009301AA07F1080393E8030082E803004FF404704FF4DD712A46234601F00CF903461A467B6A5A807B6AC2221A70CFE1CEE100BF96
:40598000BC83FF1FBB6A1B78012B40F0C781BB6A1B691B78012B40F0C181A420FAF7B8FBF861FB69002B00F0EA80002387F82E30FBF73CFEFBF7ECFEFBF772FF07F1100334
:4059C00018460021082214F080FCFBF7D7FE034602331B7803F04003002B32D097F82E305A1C87F82E201C46FBF7C8FE034602331B781B09DBB2DBB203F00103DBB243F0F3
:405A00003003DBB2DAB207F13003234403F8202C97F82E305A1C87F82E201C46FBF7AEFE034602331B78DBB203F00F03DBB243F03003DBB2DAB207F13003234403F8202C89
:405A400031E097F82E305A1C87F82E201C46FBF795FE034602331B781B09DBB2DBB203F00303DBB243F03003DBB2DAB207F13003234403F8202C97F82E305A1C87F82E20A1
:405A80001C46FBF77BFE034602331B78DBB203F00F03DBB243F03003DBB2DAB207F13003234403F8202C9F4B1B7A002B0BD097F82E305A1C87F82E2007F1300213443A22FF
:405AC00003F8202C0AE097F82E305A1C87F82E2007F130021344202203F8202C97F82E305A1C87F82E201C46FBF748FE034601331B781B09DBB2DBB203F00703DBB243F066
:405B00003003DBB2DAB207F13003234403F8202C97F82E305A1C87F82E201C46FBF72EFE034601331B78DBB203F00F03DBB243F03003DBB2DAB207F13003234403F8202C09
:405B4000FBF780FDFB691D1D97F82E309BB207F11004009301AA07F1080393E8030082E8030010204FF4DD712A46234601F00AF803461A46FB695A80FB69C2221A70A4209C
:405B8000FAF7C6FAF861FB69002B00F0C7800023FB76FBF74BFDFBF7FBFDFBF781FE07F1100318460021082214F08FFBFB7E5A1CFA761C46FBF7E2FD034604331B781B09E1
:405BC000DBB2DBB203F00303DBB243F03003DBB2DAB207F13003234403F8202CFB7E5A1CFA761C46FBF7CAFD034604331B78DBB203F00F03DBB243F03003DBB2DAB207F18A
:405C00003003234403F8202CFB7E5A1CFA7607F1300213442F2203F8202CFB7E5A1CFA761C46FBF7ABFD034605331B781B09DBB2DBB203F00103DBB243F03003DBB2DAB25B
:405C400007F13003234403F8202CFB7E5A1CFA761C46FBF793FD034605331B78DBB203F00F03DBB243F03003DBB2DAB207F13003234403F8202CFB7E5A1CFA7607F13002F4
:405C800013442F2203F8202CFB7E5A1CFA761C46FBF774FD034606331B781B09DBB2DBB243F03003DBB2DAB207F13003234403F8202CFB7E5A1CFA761C46FBF75FFD0346CE
:405CC00006331B78DBB203F00F03DBB243F03003DBB2DAB207F13003234403F8202CFBF7B1FCFB691D1DFB7E9BB207F11004009301AA07F1080393E8030082E803004FF4E3
:405D000004704FF4DD712A46234600F03BFF03461A46FB695A80FB69C2221A703037BD46B0BD00BFBC83FF1FB0B59EB004AF7860042387F83C304FF6FF73A7F84030002376
:405D4000A7F84230C52387F83E307B687B667B6ED3F890313B663B6E1B78002B40F0A5813B6E1B691B78012B40F09F81A320FAF7CFF9F865FB6D002B2DD0AC4B1B785A1C01
:405D8000D1B2AA4A11701A46A84B1344DB7887F84430A64B1B78032B02D9A44B00221A70FB6D1D1D07F144040123009301AA07F13C0393E8030082E803004FF41470122173
:405DC0002A46234600F0DEFE03461A46FB6D5A80FB6DC2221A7007F1380318460021022214F073FA07F13803386E194601F00CFC4FF6FF73A7F840304FF47143A7F84230F7
:405E000097F83930002B03D13E2387F8443002E0202387F84430A320FAF77AF9F865FB6D002B1BD0FB6D1D1D07F144040123009301AA07F13C0393E8030082E803004FF454
:405E400014704FF4B8712A46234600F09BFE03461A46FB6D5A80FB6DC2221A7097F83830002B03D13C2387F8443002E0202387F84430A320FAF74CF9F865FB6D002B1AD0DC
:405E8000FB6D1D1D07F144040123009301AA07F13C0393E8030082E8030010204FF4B8712A46234600F06EFE03461A46FB6D5A80FB6DC2221A704FF6FF73A7F84030002301
:405EC000A7F84230594B9B781A46642303FB02F3B3F5FA6F15DD386EFFF762FB534B00229A70524B5B78002B14BF01230023DBB283F00103DBB203F00103DAB24B4B5A7011
:405F000005E04A4B9B780133DAB2484B9A70012387F83C30464B1B78DBB2002B5FD0A320FAF7F6F8F865FB6D002B00F0BD80404B5B78DBB2002B27D03E4BBB65FB6D1C1D47
:405F4000B86D14F037FA03462046B96D1A4614F0B1F9FB6D1C1DB86D14F02CFA03469BB2009301AA07F13C0393E8030082E80300B8204FF4E8712246BB6D00F003FE0346C0
:405F80001A46FB6D5A8026E02B4B7B65FB6D1C1D786D14F00FFA03462046796D1A4614F089F9FB6D1C1D786D14F004FA03469BB2009301AA07F13C0393E8030082E8030057
:405FC000B8204FF4E87122467B6D00F0DBFD03461A46FB6D5A80FB6DC2221A701BE2174B1B7883F00103DBB2002B5DD0A320FAF78FF8F865FB6D002B52D007F10C03184654
:406000002021282214F061F9094B9B78042B19D10B4B07F10C041D460FCD0FC40FCD0FC495E8030084E8030019E000BFBC83FF1F385E0020ECAC010014AD010000D3FF1FD2
:4060400068AD010007F10C03BA4A1C4615460FCD0FC40FCD0FC495E80F0007C42380FB6D1D1D07F10C03184614F0A4F903469BB207F10C04009301AA07F13C0393E80300B1
:4060800082E80300A0204FF4E8712A46234600F079FD03461A46FB6D5A80FB6DC2221A70A54B01221A70B6E1B5E13B6E1B78012B40F0B1813B6E1B691B78012B40F0AB813B
:4060C000A420FAF725F838653B6D002B2DD09B4BDB795A1CD1B2994AD1711A46974B13449B7A87F84430954BDB79032B02D9934B0022DA713B6D1D1D07F144040123009307
:4061000001AA07F13C0393E8030082E803004FF4147012212A46234600F034FD03461A463B6D5A803B6DC2221A7007F1340318460021022214F0C9F807F13403386E194692
:4061400001F062FA4FF6FF73A7F840304FF47143A7F8423097F83530002B03D13E2387F8443002E0202387F84430A420F9F7D0FF38653B6D002B1BD03B6D1D1D07F14404A5
:406180000123009301AA07F13C0393E8030082E803004FF414704FF4B8712A46234600F0F1FC03461A463B6D5A803B6DC2221A7097F83430002B03D13C2387F8443002E00B
:4061C000202387F84430A420F9F7A2FF38653B6D002B1AD03B6D1D1D07F144040123009301AA07F13C0393E8030082E8030010204FF4B8712A46234600F0C4FC03461A4646
:406200003B6D5A803B6DC2221A704FF6FF73A7F840300023A7F84230484B5B7A1A46642303FB02F3B3F5FA6F15DD386EFFF7B8F9424B00225A72414B1B7A002B14BF01237C
:406240000023DBB283F00103DBB203F00103DAB23A4B1A7205E0394B5B7A0133DAB2374B5A72012387F83C30354B1B78DBB2002B6CD0A420F9F74CFF38653B6D002B00F015
:40628000CA802F4B5B78DBB2002B27D02D4BFB643B6D1C1DF86C14F08DF803462046F96C1A4614F007F83B6D1C1DF86C14F082F803469BB2009301AA07F13C0393E8030030
:4062C00082E80300B8204FF4E8712246FB6C00F059FC03461A463B6D5A8026E01A4BBB643B6D1C1DB86C14F065F803462046B96C1A4613F0DFFF3B6D1C1DB86C14F05AF81E
:4063000003469BB2009301AA07F13C0393E8030082E80300B8204FF4E8712246BB6C00F031FC03461A463B6D5A803B6DC2221A7071E000BF38AD010000D3FF1FBC83FF1FC2
:40634000385E0020ECAC010014AD0100334B5B7883F00103DBB2002B5DD0A420F9F7D8FE38653B6D002B53D007F10C0318462021282213F0AAFF3B6D1C1D07F10C03184660
:4063800014F018F8024607F10C032046194613F091FF234B9B78042B0CD1224B07F10C041D460FCD0FC40FCD0FC495E8030084E803000CE007F10C031B4A1C4615460FCD7F
:4063C0000FC40FCD0FC495E80F0007C423803B6D1D1D07F10C03184613F0ECFF03469BB207F10C04009301AA07F13C0393E8030082E80300A0204FF4E8712A46234600F0C9
:40640000C1FB03461A463B6D5A803B6DC2221A70024B01225A706837BD46B0BD00D3FF1F385E002068AD010038AD010080B485B000AF78607B68FB60FB68DB78392B05D155
:40644000054B14221A70044B16225A701437BD465DF8047B704700BF5037002080B485B000AF78607B68FB60FB68DB788C2B02D08D2B07D00DE0094B16221A70074B1622F3
:406480005A7006E0054B14221A70044B14225A7000BF1437BD465DF8047B70475037002080B586B000AF78600023FB757B683B613B691B6BFB60786802F066FB0346FB721C
:4064C000FB7A524A40F6B81101FB03F3134408339B78DBB283F00103DBB2002B46D04C4B1B78DBB2012B40D1FB68002B3DD02E2002F002FB03461A46FB6813441B7B002B33
:4065000033D0042002F0F8FA03461A46FB6813441B7BBB72BB7A0E2B08D03B691B691B78042B22D13B69DB780E2B1ED10123FB753B69FF225A713B695A793B699A72042079
:4065400002F0DAFA03461A46FB68134400221A732E2002F0D1FA03461A46FB68134400221A733B698C229A704BE04AE0FB68002B47D02E2002F0C0FA03461A46FB68134473
:406580001B7B002B3DD0042002F0B6FA03461A46FB6813441B7B7B727B7A452B02D07B7A002B08D13B691B691B78042B29D13B69DB78452B25D0FB7A144A40F6B81101FB23
:4065C00003F3134408339B78FB753B69FF225A713B695A793B699A72042002F08DFA03461A46FB68134400221A732E2002F084FA03461A46FB68134400221A733B692B2269
:406600009A70FB7D18461837BD4680BD58370020A866002080B584B000AFFAF739FBF860FB68002B47D00023FB72FB7AFA6813441B225A70FB7A5A1CFA72FA6802339B0086
:406640001344544A5A60FB7AFA6813441F225A70FB7A5A1CFA72FA6802339B0013444E4A5A60FB7AFA68134425225A70FB7A5A1CFA72FA6802339B001344484A5A60FB7A20
:40668000FA6813441D225A70FB7A5A1CFA72FA6802339B001344424A5A60FB7AFA68134421225A70FB7A5A1CFA72FA6802339B0013443B4A5A60FAF7EBFAF860FB68002BDC
:4066C0001DD00023BB72BB7AFA6813441E225A70BB7A5A1CBA72FA6802339B001344314A5A60BB7AFA68134422225A70BB7A5A1CBA72FA6802339B0013442A4A5A6000F056
:4067000057F8FAF799F878607B68002B0BD07B6825225A707B6806229A707B680A225A817B680322DA701E20FAF72EF978607B68002B12D01C4A7B6853637B681A4AC3F863
:4067400090217B681E225A707B6806229A707B6864225A817B680322DA702220FAF714F978607B68002B12D0104A7B6853637B680E4AC3F890217B6822225A707B68062232
:406780009A707B6864225A817B680322DA701037BD4680BDDD320000853400008168000085540000295D00003083FF1F6C83FF1F90B587B000AFAA233B7370237B7300237A
:4067C000BB732D4B1B691B78FB73CC233B7433237B74C323BB743C23FB74A320F9F798FC78617B69002B15D0234B00221A637B6908225A807B691A1D7B695B889BB21C460E
:4068000007F10C0310461946224613F053FD7B69C2221A70AA233B7170237B710023BB71164B1B691B78FB71CC233B7233237B72C323BB723C23FB72A420F9F769FC7861B4
:406840007B69002B14D00D4B00221A637B6908225A807B691A1D7B695B889BB21C463B1D10461946224613F025FD7B69C2221A701C37BD4690BD00BF3083FF1F6C83FF1F89
:4068800080B594B000AF7860B34BFB64AFE0B34B1B691A78FB6C1B789A4240F0A580002387F84B30FB6C9B88002B50D0AB4B1B8901339AB2A94B1A81A84B1B891A461346C2
:4068C0009B0013445B00184612F0D0FE02460B46C7E91023A14B1B699B88184612F0B6FE02460B4610461946D7E9102313F0A0F90346002B2BD0994B0022DA70974B1B69F8
:406900009A79964B9A72F9F797FFF863FB6B002B1AD0934A07F120031068516803C3FB6B1B225A70FB6B03229A70FB6B0C331A4607F1200303CB10605160FB6B0822A3F8D0
:406940008C21FB6B0322DA70012387F84B3097F84B3083F00103DBB2002B44D0002387F84A303CE07D4B1A797C4B196997F84A300B44DB7C9A422DD1784B0022DA70774BD4
:406980001A6997F84A3013445A7E744B5A71F9F753FFB863BB6B002B1BD0714A07F118031068516803C3BB6B1B225A70BB6B03229A70BB6B0C331A4607F1180303CB10609C
:4069C0005160BB6B0822A3F88C21BB6B0322DA7009E008E097F84A30013387F84A3097F84A30052BBED907E0FB6C4433FB64FB6C1B78FF2B7FF44BAF5A4BFB64B9E05A4BEB
:406A00001B691A78FB6C1B789A4240F0AF80002387F84930FB6C9B88002B50D0524B1B8901339AB2504B1A814F4B1B891A4613469B0013445B00184612F018FE02460B46D1
:406A4000C7E90C23484B1B699B88184612F0FEFD02460B4610461946D7E90C2313F0DEF80346002B2BD0404B0022DA703E4B1B699A793D4B9A72F9F7DFFEF862FB6A002BBB
:406A80001AD0374A07F110031068516803C3FB6A1F225A70FB6A03229A70FB6A0C331A4607F1100303CB10605160FB6A0822A3F88C21FB6A0322DA70012387F8493097F811
:406AC000493083F00103DBB2002B44D0002387F848303CE0244B1A79234B196997F848300B44DB7C9A422DD11F4B0022DA701E4B1A6997F8483013445A7E1B4B5A71F9F712
:406B00009BFEB862BB6A002B1BD0154A07F108031068516803C3BB6A1F225A70BB6A03229A70BB6A0C331A4607F1080303CB10605160BB6A0822A3F88C21BB6A0322DA70A9
:406B400009E008E097F84830013387F8483097F84830052BBED911E0DC83FF1F3083FF1F90AD0100B08DFF1F6C83FF1FFB6C4433FB64FB6C1B78FF2B7FF441AF5037BD4611
:406B800080BD00BF80B588B000AFBA607B600346FB810B46BB810023FB83BB68002B00F08680454A07F118031068186092889A80FB8BBA681A4407F11803104619460222D9
:406BC00013F078FBFB8B0233FB83FB8B5A1CFA831A46BB681344FA89120A92B2D2B21A70FB8B5A1CFA831A46BB681344FA89D2B21A70FB8B5A1CFA831A46BB681344BA8928
:406C0000120A92B2D2B21A70FB8B5A1CFA831A46BB681344BA89D2B21A7097F82C30DBB203F00F03DBB243F02003DBB2DBB23B7497F82E307B740223BB747B8E1B0A9BB26E
:406C4000DBB2FB747B8EDBB23B753B8E1B0A9BB2DBB27B753B8EDBB2BB75FB8BBA6813441A4607F110031868106099889B7991809371FB8B0733FB83FB8BBA681A443B8DE4
:406C8000104679681A4613F015FBFA8B3B8D1344FB83FB8BBA681A4407F11803023310461946042213F006FBFB8B0433FB83FB8B18462037BD4680BD98AD010080B487B074
:406CC00000AF78607B68FB60FB685B697B613FE07B691A78FB681B691B789A4235D17B695A78FB681B695B789A422ED17B699A78FB681B699B789A4227D10023FB7420E03A
:406D0000FB7C7A691344DA79FB68DB789A4206D1FB7C7A6913445A7BFB689A7014E0FB7C7A691344DA7CFB681B799A4206D1FB7C7A6913445A7EFB685A7105E0FB7C013307
:406D4000FB74FB7C052BDBD906E07B6944337B617B691B78FF2BBBD11C37BD465DF8047B704700BF80B487B000AF786000237B617B68FB60FB685B693B611BE03B691A783C
:406D8000FB681B691B789A4211D13B695A78FB681B695B789A420AD13B699A78FB681B699B789A4203D13B699B6A7B6106E03B6944333B613B691B78FF2BDFD17B691846DF
:406DC0001C37BD465DF8047B704700BF80B487B000AF786000237B617B68FB60FB685B693B611BE03B691A78FB681B691B789A4211D13B695A78FB681B695B789A420AD1B1
:406E00003B699A78FB681B699B789A4203D13B695B6A7B6106E03B6944333B613B691B78FF2BDFD17B6918461C37BD465DF8047B704700BF80B487B000AF786000237B612C
:406E40007B68FB60FB685B693B611BE03B691A78FB681B691B789A4211D13B695A78FB681B695B789A420AD13B699A78FB681B699B789A4203D13B691B6A7B6106E03B69D2
:406E800044333B613B691B78FF2BDFD17B6918461C37BD465DF8047B704700BF80B487B000AF786000237B617B68FB60FB685B693B611BE03B691A78FB681B691B789A4253
:406EC00011D13B695A78FB681B695B789A420AD13B699A78FB681B699B789A4203D13B69DB6B7B6106E03B6944333B613B691B78FF2BDFD17B6918461C37BD465DF8047B89
:406F0000704700BF80B487B000AF786000237B617B68FB60FB685B693B611BE03B691A78FB681B691B789A4211D13B695A78FB681B695B789A420AD13B699A78FB681B69FC
:406F40009B789A4203D13B691B6C7B6106E03B6944333B613B691B78FF2BDFD17B6918461C37BD465DF8047B704700BF80B485B000AF78600B46FB700023FB73254A07F113
:406F80000803106818600423BB81FB78013B7A6813441A78BB89013B07F110010B4413F8083C9A422FD1FB78023B7A6813441A78BB89023B07F110010B4413F8083C9A4277
:406FC00021D1FB78033B7A6813441A78BB89033B07F110010B4413F8083C9A4213D1FB78043B7A6813441A78BB89043B07F110010B4413F8083C9A4205D1FB78053B7A684C
:4070000013441B78FB73FB7B18461437BD465DF8047B7047A0AD010080B487B000AF786000237B617B68FB60FB685B693B61FB689B78FF2B09D1FB685B79FF2B02D1FB68FA
:407040009B7A04E0FB685B7901E0FB689B78FB72FB68DB78BB72FB681B691B787B7220E03B691B78FA7A9A4218D13B695B787A7A9A4203D03B695B78FF2B0FD13B699B7810
:40708000BA7A9A4207D03B699B78FF2B03D03B695B78FF2B02D13B697B6106E03B6944333B613B691B78FF2BDAD17B6918461C37BD465DF8047B704780B584B000AF786085
:4070C0007B68FB60F868FFF7A7FF0246FB681A61FB68FF229A70FB68FF225A71FB6800221A71FB68FF229A72FB680022DA70FB6800221A81FB681D3318460021102213F05D
:40710000E4F811F037F803461A46FB68DA80FB6800221A77FB681D3318460021102213F0D4F81037BD4680BD80B485B000AF78600023FB737B68BB60BB681B7F002B01D0D5
:407140000123FB73FB7B18461437BD465DF8047B704700BF90B58DB000AF7860002387F82F307B68BB62BB6A1B7F002B03D0012387F82F3002E0002387F82F3097F82F3077
:40718000002B00F08280BB6A1B7FC3F1100387F82730BB6A07F10C041D33186859689A68DB680FC4BB6A1B7F87F82E300EE097F92E3007F130021344002203F8242C97F88B
:4071C0002E30DBB20133DBB287F82E3097F92E300F2BECDDBB6A1B7F013BDBB287F82E3022E097F92E2097F82730134497F92E2007F130010A4412F8242C02F00F02D2B25D
:4072000007F130010B4403F8242C97F92E3007F130021344002203F8242C97F82E30DBB2013BDBB287F82E3097F92E30002BD8DA07F10C031846102107F00CFE07F10C0326
