:400000000080002011000000816D0100816D010080B500AF024A034B1B68136016F0DCFEBC760040FA46004010B5054C237833B9044B13B10448AFF300800123237010BD49
:4000400038D8FF1F00000000E4CB0100084B10B51BB108480849AFF300800848036803B910BD074B002BFBD0BDE81040184700BF00000000E4CB01003CD8FF1F0881FF1FD3
:400080000000000080B582B000AF0023FB7118E0FB794FF4867202FB03F30D4A13443B603B681B78DBB2C22B08D13B68D3F808315B6838689847386800F0C6F8FB79013350
:4000C000FB71FB79132BE3D90837BD4680BD00BF98D8FF1F80B485B000AF0346FB710B4BFB6008E0FB681B78FA799A4200D106E0FB684C33FB60FB681B78A52BF2D1FB68CF
:4001000018461437BD465DF8047B70470C81FF1F90B585B000AF0346FB710023FB600023FB7245E0FB7A264A4FF4867101FB03F313441B78DBB2C02B37D1FB7A204A4FF42F
:40014000867101FB03F31344C1221A70FB7A1C4A4FF4867101FB03F3134400225A80FC7AFB791846FFF7B6FF0146154A4FF4867303FB04F3134403F584731960FB7A4FF437
:40018000867202FB03F30E4A13440433184600214FF480721CF0A1F8FB7A4FF4867202FB03F3074A1344FB6005E0FB7A0133FB72FB7A132BB6D9FB6818461437BD4690BDD6
:4001C00098D8FF1F80B582B000AF0023FB712DE0FB791B4A4FF4867101FB03F31344C0221A70FB79164A4FF4867101FB03F3134400225A80FB794FF4867202FB03F3104AA8
:4002000013440433184600214FF480721CF065F8FB790B4A4FF4867101FB03F3134403F5847300221A60FB790133FB71FB79132BCED9044800F052F80837BD4680BD00BF0B
:4002400098D8FF1F8500000080B582B000AF78607B68C0221A707B6800225A807B680433184600214FF480721CF037F87B680022C3F808210837BD4680BD00BF80B584B0B6
:4002800000AF03463960FB711346BB800023FB730E4BBB6010E0BB681B78FA799A4208D1BB685B68BA883868114698470346FB7306E0BB680833BB60BB681B78A52BEAD185
:4002C000FB7B18461037BD4680BD00BFD482FF1F80B400AFBD465DF8047B704780B483B000AF78600B4B93F840300F2B0CD8094B93F840305A1CD1B2064A82F840101946E1
:40030000044A7B6842F821300C37BD465DF8047B704700BF88EDFF1F80B582B000AF0023FB7111E0FB790D4A52F823300C4A13600B4B1B68002B03D0094B1B68984700E0AA
:4003400008E0FB790133FB71044B93F84030FA799A42E7D30837BD4680BD00BF88EDFF1FCCEDFF1FF0B587B000AFC7E902017A600123FB755FE0FB7D013B7A68D618FB7D9F
:4003800018461BF06BF902460B464FF000006B4919F046FF02460B46104619461BF06EFC03461A464FF00003D7E902011BF086FC14461D46FB7D013B18461BF05FF902461E
:4003C0000B464FF000005D4919F02AFF02460B46104619461BF052FC03461A464FF00003D7E902011BF06AFCA41A65EB0305FB7D013B18461BF042F902460B464FF0000089
:400400004E4919F00DFF02460B46104619461BF035FC03461A464FF00003204629461BF04DFC02460B46D3B243F03003DBB23370FB7D0133FB75FB7D18461BF00FF9024671
:400440000B464FF000003D4919F0EAFE02460B46104619461BF012FC03461A464FF00003D7E902011BF02AFC10461946D7E90223994208BF90427FF47EAFFB7D013B7A68EB
:40048000D618FB7D18461BF0E9F802460B464FF000002A4919F0C4FE02460B46104619461BF0ECFB03461A464FF00003D7E902011BF004FC14461D46FB7D013B18461BF0A3
:4004C000DDF802460B464FF000001C4919F0A8FE02460B46104619461BF0D0FB03461A464FF00003D7E902011BF0E8FBA41A65EB0305FB7D013B18461BF0C0F802460B46F7
:400500004FF000000D4919F08BFE02460B46104619461BF0B3FB03461A464FF00003204629461BF0CBFB02460B46D3B243F03003DBB233701C37BD46F0BD00BF0000244022
:4005400080B485B000AF78600B46FB7000237B730023FB7327E0FB78013B7A6813441B787B73FB78023BDBB2BB730FE097F90E3001337A68134497F90E2079680A441278B1
:400580001A70BB7BDBB2013BDBB2BB7397F90E20FB7B9A42EADAFB7B7A6813447A7B1A70FB7B0133FB73FA7BFB78013B9A42D2DB1437BD465DF8047B704700BFB0B584B0FF
:4005C00000AF78600B467B800023FB600023FB7234E0FB7A18461BF041F802460B461046194619F0C5FD04460D46FB7A7A6813441B7803F00F0318461BF040F802460B46B9
:40060000204629461BF0A0F802460B4614461D46F8681BF023F802460B461046194622462B461AF0DFFE02460B46104619461BF025FB0346FB60FB7A0133FB72FB7A9BB263
:400640007A889A42C5D8FB6818461037BD46B0BD80B485B000AF03460A46FB711346BB71FA79BB795340FB710023FB7312E0FB7903F00103002B07D0FB795B08DBB283F078
:400680007303DB43FB7102E0FB795B08FB71FB7B0133FB73FB7B072BE9D9FB7918461437BD465DF8047B704780B584B000AF78600B467B800023FB730023BB810DE0BB898B
:4006C0007A6813441B78FA7B10461946FFF7C0FF0346FB73BB890133BB81BA897B889A42EDD3FB7B18461037BD4680BD80B584B000AF0023FB732CE0FB7B484A4FF4CC716A
:4007000001FB03F3134400225A70FB7B434A4FF4CC7101FB03F313440122DA70FB7B3F4A4FF4CC7101FB03F3134401229A70FB7B4FF4CC7202FB03F30833384A1344043321
:40074000184600214FF4C0721BF0C7FDFB7B0133FB73FB7B2D2BCFD90023FB7323E0FB7B2F4A2C2101FB03F3134401221A70FB7B2C2202FB03F32A4A13440133184600212D
:4007800008221BF0AAFDFB7B2C2202FB03F30833234A134404331846002108221BF09DFDFB7B0133FB73FB7B0F2BD8D900F0D4FAB860BB68002B2BD00023FB71FB79BA6865
:4007C000134404225A70FB795A1CFA71BA6802339B001344134A5A60FB79BA68134405225A70FB795A1CFA71BA6802339B0013440D4A5A60FB79BA68134406225A70FB791D
:400800005A1CFA71BA6802339B001344074A5A600748FFF763FD1037BD4680BDE0EDFF1F303700202116000091160000AD160000C10D00000000000090B585B000AF00232A
:40084000FB601BF053FD034618461AF017FF02460B461046194646A3D3E900231BF09EF802460B46104619464FF00002424B1AF06BFF02460B46104619464FF000023F4B9B
:400880001AF0B0FD02460B46104619461BF0F6F90346FB8000237B8100BF7B895A1C7A81FA889A42F9D800237B7257E07B7A344A4FF4CC7101FB03F31344DB78DBB2012B64
:4008C00049D17B7A2E4A4FF4CC7101FB03F3134400221A707B7A2A4A4FF4CC7101FB03F3134400229A807B7A254A4FF4CC7101FB03F313440222DA707C7A19F029FC034686
:4009000019461F4A4FF4CC7303FB04F313440A46DA807B7A1A4A4FF4CC7101FB03F31344083300221A807B7A4FF4CC7202FB03F30833134A13440433184600214FF4C072DB
:400940001BF0CBFC7B7A4FF4CC7202FB03F30C4A1344FB6005E07B7A01337B727B7A2D2BA4D9FB6818461437BD4690BDAFF300800000C0FFFFFFDF410000904000002440E0
:40098000E0EDFF1FAFF3008080B584B000AF0346FB710023FB731BF0A9FC034618461AF06DFE02460B461046194623A3D3E900231AF0F4FF02460B46104619464FF0000281
:4009C0001F4B1AF0C1FE02460B46104619464FF000021C4B1AF006FD02460B46104619461BF04CF903463B810023BB8100BFBB895A1CBA813A899A42F9D80023FB7211E01A
:400A0000FB7A114A4FF4CC7101FB03F313445B78DBB2FA799A4202D10123FB7305E0FB7A0133FB72FB7A2D2BEAD9FB7B18461037BD4680BDAFF300800000C0FFFFFFDF4124
:400A40000000904000002440E0EDFF1FAFF3008090B587B000AF0346FB7100237B611BF045FC034618461AF009FE02460B461046194655A3D3E900231AF090FF02460B46FB
:400A8000104619464FF00002514B1AF05DFE02460B46104619464FF000024E4B1AF0A2FC02460B46104619461BF0E8F80346FB8100237B8200BF7B8A5A1C7A82FA899A42BC
:400AC000F9D800237B7418E07B7C434A4FF4CC7101FB03F313445B78DBB2FA799A4209D17B7C4FF4CC7202FB03F33B4A13447B617B6964E07B7C01337B747B7C2D2BE3D9D5
:400B000000237B7457E07B7C334A4FF4CC7101FB03F31344DB78DBB2012B49D17B7C2E4A4FF4CC7101FB03F3134400221A707B7C294A4FF4CC7101FB03F313440222DA7084
:400B40007C7C19F005FB03461946234A4FF4CC7303FB04F313440A46DA807B7C1E4A4FF4CC7101FB03F31344083300221A807B7C194A4FF4CC7101FB03F3134400229A8069
:400B80007B7C4FF4CC7202FB03F30833124A13440433184600214FF4C0721BF09EFB7B7C4FF4CC7202FB03F30B4A13447B6105E07B7C01337B747B7C2D2BA4D97B6918460D
:400BC0001C37BD4690BD00BF0000C0FFFFFFDF410000904000002440E0EDFF1FAFF3008080B584B000AF0346FB710023FB7307E0FB7B374A002142F82310FB7B0133FB7393
:400C0000FB7B032BF4D91BF071FB034618461AF035FD02460B46104619462BA3D3E900231AF0BCFE02460B46104619464FF00002284B1AF089FD02460B46104619464FF00B
:400C40000002254B1AF0CEFB02460B46104619461BF014F803463B810023BB8100BFBB895A1CBA813A899A42F9D80023FB730023FB721CE0FB7A194A4FF4CC7101FB03F3DB
:400C800013445B78DBB2FA799A420DD1FB7B5A1CFA731946FB7A4FF4CC7202FB03F30F4A13440B4A42F82130FB7A0133FB72FB7A2D2B02D8FB7B032BDCD9054B1846103714
:400CC000BD4680BDAFF300800000C0FFFFFFDF41D0EDFF1F0000904000002440E0EDFF1F80B483B000AF78607B6800225A707B680122DA707B6801229A707B680022DA803F
:400D00000C37BD465DF8047B704700BF80B584B000AF0346FB710023FB7314E0FB7B4FF4CC7202FB03F30B4A1344BB60BB685B78DBB2FA799A4203D1B868FFF7D1FF05E0AF
:400D4000FB7B0133FB73FB7B2D2BE7D91037BD4680BD00BFE0EDFF1F80B483B000AF00237B600023FB700023FB701CE0FB78134A2C2101FB03F313441B78DBB2012B0FD1DE
:400D8000FB780E4A2C2101FB03F3134403221A70FB782C2202FB03F3084A13447B6005E0FB780133FB70FB780F2BDFD97B6818460C37BD465DF8047B704700BF3037002037
:400DC000B0B586B000AF0023FB75CEE2FB7D4FF4CC7202FB03F3B44A13443B613B69DB78DBB2032B40F0BE823B699B78DBB2013B072B00F2B78201A252F823F06513000012
:400E00001D0E0000470E0000710E00009B0E00004F0F0000B11000000B120000FB7D4FF4CC7202FB03F3A04A1344184600F0A8FAFB7D4FF4CC7202FB03F39B4A134418462B
:400E4000FFF74EFF8EE2FB7D4FF4CC7202FB03F3954A1344184600F0DFFAFB7D4FF4CC7202FB03F3904A13441846FFF739FF79E2FB7D4FF4CC7202FB03F38B4A13441846FC
:400E800000F02AFBFB7D4FF4CC7202FB03F3864A13441846FFF724FF64E219F059F903461846FB7D804A4FF4CC7101FB03F3134408331B889BB21A464FF47A7303FB02F392
:400EC0000344FA7D78494FF4CC7000FB02F20A44D28892B29B1AFB60F8681AF0CFFB02460B46104619464FF00002704B1AF056FD02460B4614461D46FB7D6B4A4FF4CC712B
:400F000001FB03F313449B889BB218461AF0B6FB02460B46204629461AF0A6FE0346002B00D11FE2FB7D4FF4CC7202FB03F35E4A1344184600F0D0FAFB7D4FF4CC7202FB84
:400F400003F3594A13441846FFF7CAFE0AE219F0FFF803461846FB7D534A4FF4CC7101FB03F3134408331B889BB21A464FF47A7303FB02F30344FA7D4B494FF4CC7000FB7A
:400F800002F20A44D28892B29B1ABB60B8681AF075FB02460B46104619464FF00002434B1AF0FCFC02460B4614461D46FB7D3E4A4FF4CC7101FB03F3134408335B889BB23E
:400FC00018461AF05BFB02460B46204629461AF04BFE0346002B00D1C4E1B8681AF04EFB02460B46104619464FF000022F4B1AF0D5FC02460B4614461D46FB7D2A4A4FF4AC
:40100000CC7101FB03F313449B889BB218461AF035FB02460B46204629461AF025FE0346002B00D19EE1FB7D4FF4CC7202FB03F31D4A1344184600F0EFF9FC7D19F088F8E1
:4010400003461946184A4FF4CC7303FB04F313440A46DA80FB7D144A4FF4CC7101FB03F31344083300221A80FB7D0F4A4FF4CC7101FB03F3134400229A80FB7D0A4A4FF473
:40108000CC7101FB03F313441B78DBB2002B0AD0FB7D4FF4CC7202FB03F3034A13441846FFF71EFE5EE15DE1E0EDFF1F00408F4019F04EF803461846FB7DAF4A4FF4CC7127
:4010C00001FB03F3134408331B889BB21A464FF47A7303FB02F30344FA7DA7494FF4CC7000FB02F20A44D28892B29B1A7B6078681AF0C4FA02460B46104619464FF000022A
:401100009E4B1AF04BFC02460B4614461D46FB7D994A4FF4CC7101FB03F3134408335B889BB218461AF0AAFA02460B46204629461AF09AFD0346002B00D113E178681AF052
:401140009DFA02460B46104619464FF000028B4B1AF024FC02460B4614461D46FB7D864A4FF4CC7101FB03F313449B889BB218461AF084FA02460B46204629461AF074FDA3
:401180000346002B00D1EDE0FB7D4FF4CC7202FB03F3794A1344184600F0F8F9FC7D18F0D7FF03461946744A4FF4CC7303FB04F313440A46DA80FB7D6F4A4FF4CC7101FBF6
:4011C00003F31344083300221A80FB7D6A4A4FF4CC7101FB03F3134400229A80FB7D664A4FF4CC7101FB03F313441B78DBB2002B0AD0FB7D4FF4CC7202FB03F35E4A134479
:401200001846FFF76DFDADE0ACE018F0A1FF03461846FB7D584A4FF4CC7101FB03F3134408331B889BB21A464FF47A7303FB02F30344FA7D50494FF4CC7000FB02F20A44E4
:40124000D28892B29B1A3B6038681AF017FA02460B46104619464FF00002484B1AF09EFB02460B4614461D46FB7D434A4FF4CC7101FB03F3134408335B889BB218461AF009
:40128000FDF902460B46204629461AF0EDFC0346002B00D165E038681AF0F0F902460B46104619464FF00002344B1AF077FB02460B4614461D46FB7D2F4A4FF4CC7101FB6D
:4012C00003F313449B889BB218461AF0D7F902460B46204629461AF0C7FC0346002B00D13FE0FB7D4FF4CC7202FB03F3224A1344184600F0F1F8FC7D18F02AFF0346194622
:401300001D4A4FF4CC7303FB04F313440A46DA80FB7D194A4FF4CC7101FB03F31344083300221A80FB7D144A4FF4CC7101FB03F3134400229A80FB7D0F4A4FF4CC7101FB0B
:4013400003F313441B78DBB2002B0AD0FB7D4FF4CC7202FB03F3084A13441846FFF7C0FCFFE700BFFB7D0133FB75FB7D2D2B7FF62DAD1837BD46B0BDE0EDFF1F00408F40BD
:4013800080B584B000AF78600023FB730023BB730023FB7337E00023BB732EE0FA7BBB7B1C492C2000FB02F213440B445B78002B00D125E0FA7BB97B164813469B0013443D
:4013C0005B0013440B4402339B0003445B68002B0FD0FA7BB97B0F4813469B0013445B0013440B4402339B0003445B687868984700E005E0BB7B0133BB73BB7B072BCDD9B8
:40140000FB7B0133FB73FB7B0F2BC4D91037BD4680BD00BF3037002080B584B000AF78600023FB730023BB7300237B730023BB734AE000237B733DE0BA7B7B7B25492C2009
:4014400000FB02F213440B445B78002B00D134E0BA7B7B7B1F492C2000FB02F213440B445A787B685B78DBB29A4220D1BA7B797B184813469B0013445B0013440B44023394
:401480009B0003445B68002B0ED0BA7B797B114813469B0013445B0013440B4402339B0003445B68786898470123FB7305E07B7B01337B737B7B072BBED9FB7B002B00D058
:4014C00005E0BB7B0133BB73BB7B0F2BB1D91037BD4680BD3037002080B584B000AF78600023FB730023BB730023FB7345E00023BB733CE0FA7BBB7B23492C2000FB02F220
:4015000013440B445B78002B00D133E0FA7BBB7B1D492C2000FB02F213440B445A787B685B78DBB29A421FD1FA7BB97B164813469B0013445B0013440B4402339B000344E6
:401540005B68002B0FD0FA7BB97B0F4813469B0013445B0013440B4402339B0003445B687868984706E005E0BB7B0133BB73BB7B072BBFD9FB7B0133FB73FB7B0F2BB6D9FF
:401580001037BD4680BD00BF3037002080B584B000AF78600023FB730023BB730023FB7335E00023BB732CE0FA7BBB7B1B492C2000FB02F213440B445B78002B00D123E0C7
:4015C000FA7BB97B154813469B0013445B0013440B4402339B0003445B68002B0ED0FA7BB97B0E4813469B0013445B0013440B4402339B0003445B6878689847BB7B013368
:40160000BB73BB7B072BCFD9FB7B0133FB73FB7B0F2BC6D91037BD4680BD00BF3037002080B485B000AF78600023FB7325E0FB7B4FF4CC7202FB03F3144A1344BB60BB68D5
:401640009B78DBB2072B0ED0BB689B78DBB2062B09D0BB689B78DBB2082B04D0BB689B78DBB2052B06D1BB681B899BB201339AB2BB681A81FB7B0133FB73FB7B2D2BD6D972
:401680001437BD465DF8047B704700BFE0EDFF1F80B584B000AF78607B68FB60FB681B7B1846FFF733FB1037BD4680BD80B584B000AF78607B68FB60FB68D3F890311846FC
:4016C000FFF70EFB1037BD4680BD00BF80B400AF024B1846BD465DF8047B7047F239002080B500AF0248002142221AF0F6FD80BDF039002080B400AF034B01221A70BD4627
:401700005DF8047B704700BF54D8FF1F80B400AF034B00221A70BD465DF8047B704700BF54D8FF1F90B585B000AF0346FB8018F0C3FAFB881B0A9BB2DAB21E4B1A70FB88F8
:40174000DAB21C4B5A705420002118F05BF90346BB81BB89002B2AD10023FB7308E0FB7B144AD35C184618F029FAFB7B0133FB73FB7B012BF3D95420012118F0A1F90346C0
:40178000BB81BB89002B10D10223FB730AE0FC7B012018F053FA03461A46064B1A55FB7B0133FB73FB7B412BF1D918F0DBF91437BD4690BDF039002080B584B000AF0346E5
:4017C000FB800023FB73002018F0EAFA0023BB8118F072FAFB881B0A9BB2DAB2184B1A70FB88DAB2164B5A705420002118F00AF90346BB81BB89002B13D10023BB7308E0A5
:40180000BB7B0F4AD35C184618F0D8F9BB7B0133BB73BB7B412BF3D918F0A4F9052016F017F9BB89002B04D0FB7B5A1CFA73092BCED9012018F0B4FA1037BD4680BD00BF39
:40184000F039002080B400AF024B1846BD465DF8047B7047343A002080B500AF0248002110221AF03AFD80BD343A002080B582B000AF0023FB7118F01FFA6820002118F071
:40188000C1F80346BB71BB79002B53D1002018F095F9FB795A1CFA711A46314B9B5C03F07F03DBB2184618F089F9FB795A1CFA711A462B4B9B5C03F07F03DBB2184618F025
:4018C0007DF9FB795A1CFA711A46254B9B5C03F03F03DBB2184618F071F9FB795A1CFA711A461F4B9B5C03F00703DBB2184618F065F9FB795A1CFA711A46194B9B5C03F05D
:401900003F03DBB2184618F059F9FB795A1CFA711A46134B9B5C03F01F03DBB2184618F04DF9FB795A1CFA711A460D4B9B5C184618F044F918F016F96820002118F062F8FF
:401940000346BB71BB79002B07D10E2018F036F9042018F033F918F005F90837BD4680BD343A002090B583B000AF18F0A5F96820002118F047F80346BB80BB88002B02D169
:40198000002018F01BF918F0EDF818F095F96820012118F037F80346BB80BB88002B1CD10023FB7116E0FB79052B08D8FC79012018F044F903461A460A4B1A5507E0FC79FB
:4019C000002018F03BF903461A46064B1A55FB790133FB71FB79062BE5D918F0C3F80C37BD4690BD343A002080B582B000AF6820002118F007F80346FB71FB79002B07D1D5
:401A00000E2018F0DBF8042018F0D8F818F0AAF80837BD4680BD00BF80B500AF15F072FC16F024F916F04AFE17F098F916F0FAFA17F0FCFD00F014F8FEF758FE00F08CF8A4
:401A4000FEF7C0FBFEF744FC0EF02CFB05F024FB09F092FC01F0E8F809F080FD80BD00BF80B500AF18F026FB044817F0C7FC18F0EBF9034818F05EFA80BD00BF851A000029
:401A8000C51A000080B582B000AF18F033FB0420FEF7DEFF78607B68002B08D07B6804225A707B6803229A707B680322DA70044B5B680133024A53600837BD4680BD00BF8D
:401AC000346C002080B582B000AF18F0DDF90720FEF7BEFF78607B68002B08D07B6807225A707B6803229A707B680322DA700837BD4680BD80B584B000AF78600B467B80A6
:401B000013467B700023FB730023BB811AE018F0D3F80720002117F075FF0346FB73FB7B002B0CD17B78184618F048F8BB897A6813441B78184618F041F818F013F8BB890D
:401B40000133BB81BA897B889A42E0D3FB7B18461037BD4680BD00BF80B582B000AFFFF7FBF878607B68002B0FD00023FB70FB787A68134427225A70FB785A1CFA707A68C0
:401B800002339B001344044A5A600448FEF7A6FB0837BD4680BD00BFB91B0000A11B000080B500AF034B1B78DBB2002B01D016F007F880BD55D8FF1F80B500AF034B012216
:401BC0001A700320002115F0B5FF80BD55D8FF1F80B582B000AF78600B467B80184BDB889BB2002B07D0164BDB889BB27A889A4211D200231FE0124B9B68114A11687A885D
:401C0000084679689847034683F00103DBB2002B01D000230FE07B880A4879681A461AF051FB074A7B88D380054B01221A71064B02221A60012318460837BD4680BD00BFFB
:401C4000443A0020503A002080E100E080B584B000AF78607B68BB60BB68002B1CD0052015F0F6FE0023FB730FE0BB68D3F808319B6BFA7BB9680A44127910469847022022
:401C800015F0E6FEFB7B0133FB73FB7B9AB2BB685B889BB29A42E8D31037BD4680BD00BF80B588B000AF78607B683B610023FB614C4BBB612E2007F083FD03461A463B697A
:401CC00013441B7BFB730FE0BB691B78012B08D1BB695B78FA7B9A4203D1BB695B68FB6106E0BB690833BB61BB691B78FF2BEBD1FB69002B72D0FB6903F120023B690C3353
:401D0000104619464FF4C0721AF0DCFA0B2007F057FD03461A46FB69134493F82030392B0CBF01230023DAB2FB695A73042007F047FD03461A463B6913441B7BBB73BB7BB4
:401D40000D2B10D1052007F03BFD03461A463B6913441B7B7B737B7B18460AF0F7FA0246FB69DA6108E0BB7B0E2B05D144200AF0EDFA0246FB69DA61FB6900221A72FB69D9
:401D8000DB6904337B617B69002B27D022E0164BD3F8483814489847B860BB68002B16D0BB687A695A61BB6800229A61BB68FA69DA61BB68DB69D3F8B839BA68D2691046F9
:401DC0009847094BD3F84C380748B96898477B6934337B617B691B68002BD8D12037BD4680BD00BF0483FF1FCC63002080B588B000AF78607B683B610023FB614C4BBB61C1
:401E00002E2007F0DDFC03461A463B6913441B7BFB730FE0BB691B78022B08D1BB695B78FA7B9A4203D1BB695B68FB6106E0BB690833BB61BB691B78FF2BEBD1FB69002B44
:401E400072D0FB6903F120023B690C33104619464FF4C0721AF036FA0B2007F0B1FC03461A46FB69134493F82030392B0CBF01230023DAB2FB695A73042007F0A1FC03461D
:401E80001A463B6913441B7BBB73BB7B0D2B10D1052007F095FC03461A463B6913441B7B7B737B7B18460AF051FA0246FB69DA6108E0BB7B0E2B05D144200AF047FA02464B
:401EC000FB69DA61FB6900221A72FB69DB6904337B617B69002B27D022E0164BD3F8483814489847B860BB68002B16D0BB687A695A61BB6800229A61BB68FA69DA61BB6856
:401F0000DB69D3F8B839BA68D26910469847094BD3F84C380748B96898477B6934337B617B691B68002BD8D12037BD4680BD00BF0483FF1FCC63002080B588B000AF78607D
:401F40000023FB617B683B610023FB7636E0FB7E444A4FF41C6101FB03F3134408339B78DBB2012B27D1FB7E4FF41C6202FB03F33C4A1344FB61FB7E3A4A4FF41C6101FB8B
:401F800003F31344083302229A70FB7E0133364A9278934203DB334B01229A7213E0FB7E0133304A4FF41C6101FB03F31344083301229A7007E0FB7E0133FB762A4B9B78BC
:401FC000FA7E9A42C3D3FB69002B48D0FB6901225A7148200AF0BAF90246FB69DA61FB69DB6904337B617B69002B32D02DE01F4BD3F848381D489847F860FB68002B21D059
:40200000FB6800221A70FB687A695A61FB6800229A61FB68FA69DA61FB68DB69D3F8B839FA68D269104698473B69D3F89421FB681A62FB683A695A620C4BD3F84C380B481C
:40204000F96898477B6934337B617B691B68002BCDD1F86900F00CF8F86900F057F82037BD4680BDB83C0020B8630020CC63002080B586B000AF78607B683B613B699B7877
:40208000DBB20B2B04D03B699B78DBB20A2B37D149200AF05BF902463B69DA613B69DB6904337B617B69002B2AD025E0164BD3F8483815489847F860FB68002B19D0FB6807
:4020C00000221A70FB687A695A61FB6800229A61FB683A69DA61FB68DB69D3F8B839FA68D26910469847084BD3F84C380648F96898477B6934337B617B691B68002BD5D1AE
:402100001837BD4680BD00BFCC63002080B586B000AF78607B683B613B699B78DBB2062B04D03B699B78DBB2072B3CD13B69DB79DBB2002B37D046200AF008F902463B69C1
:40214000DA613B69DB6904337B617B69002B2AD025E0164BD3F8483814489847F860FB68002B19D0FB6800221A70FB687A695A61FB6800229A61FB683A69DA61FB68DB69ED
:40218000D3F8B839FA68D26910469847074BD3F84C380648F96898477B6934337B617B691B68002BD5D11837BD4680BDCC63002080B588B000AF78607B68BB61374B9B789D
:4021C000002B02D1354B01225A700023FB7500BF324B9B78FA7D9A4251D2FB7D4FF41C6202FB03F32E4A13443B613B69002B45D03869FFF73DFF3B6903F12002BB690C33B1
:40220000104619464FF4C0721AF05CF84E200AF09DF802463B69DA613B69DB690433FB61FB69002B2AD025E01E4BD3F848381D489847F860FB68002B19D0FB6800221A7013
:40224000FB68FA695A61FB6800229A61FB683A69DA61FB68DB69D3F8B839FA68D26910469847104BD3F84C380E48F9689847FB693433FB61FB691B68002BD5D100BF0A4BB4
:402280001B68002B03D0084B1B68B8699847BB6901221A702037BD4680BD00BFB8630020B83C0020CC63002058D8FF1F80B588B000AF78607B687B610023FB777AE0FB7F98
:4022C0004FF41C6202FB03F3404A13443B613B69002B6CD00023BB77FB7F032B1AD801A252F823F0F5220000FD220000052300000D230000364BDB78BB770BE0344B1B7921
:40230000BB7707E0324B5B79BB7703E0304B9B79BB7700BF3B690022DA7000237B7742E03B692033184600214FF4C07219F0D5FF45200AF00BF802463B69DA613B69DB691E
:402340000433BB61BB69002B2AD025E0214BD3F8483820489847F860FB68002B19D0FB6800221A70FB68BA695A61FB6800229A61FB683A69DA61FB68DB69D3F8B839FA6819
:40238000D26910469847134BD3F84C381148F9689847BB693433BB61BB691B68002BD5D17B7F01337B777A7FBB7F9A42B8D3FB7F0133FB77064B9B78FA7F9A42FFF47FAF94
:4023C0007B6901221A702037BD4680BDB83C0020B8630020CC63002090B58DB000AF78607B68BB62BB6A1B7B184600F0EBFB78627B6A002B00F0A081BB6A5A7B7B6ADA70FB
:40240000FFF778F9FFF76CF97B6A1B78184600F081FB03467B847B8C1846FFF783F97B6ADB78DBB2032B00F2458101A252F823F041240000DB24000079250000172600008F
:40244000A64BDB79032B3AD1A44B1B7A022B36D1BB6A03F10E02BB6A1B7D9BB210461946FEF7ACF8F861FB699D4AA2FB0323DB08184619F0F3F802460B461046194617F0B4
:402480007FFE02460B461046194619F0F7FB0346FB61BB6A03F10E02BB6A1B7D104600211A4619F01AFFFB691A464FF00003B96A01F10E04104619462246FDF753FFFFF74C
:4024C00005F90146BB6A03F10E02BB6A1B7D084611461A4619F0F6FEECE0804BDB79032B3AD17E4B1B7A022B36D1BB6A03F10E02BB6A1B7D9BB210461946FEF75FF8B861AC
:40250000BB69774AA2FB0323DB08184619F0A6F802460B461046194617F032FE02460B461046194619F0AAFB0346BB61BB6A03F10E02BB6A1B7D104600211A4619F0CDFE94
:40254000BB691A464FF00003B96A01F10E04104619462246FDF706FFFFF7B8F8034603F11001BB6A03F10E02BB6A1B7D084611461A4619F0A7FE9DE0584BDB79032B3AD11E
:40258000564B1B7A022B36D1BB6A03F10E02BB6A1B7D9BB210461946FEF710F878617B694F4AA2FB0323DB08184619F057F802460B461046194617F0E3FD02460B461046F6
:4025C000194619F05BFB03467B61BB6A03F10E02BB6A1B7D104600211A4619F07EFE7B691A464FF00003B96A01F10E04104619462246FDF7B7FEFFF769F8034603F120018E
:40260000BB6A03F10E02BB6A1B7D084611461A4619F058FE4EE0314BDB79032B3AD12F4B1B7A022B36D1BB6A03F10E02BB6A1B7D9BB210461946FDF7C1FF38613B69284A8B
:40264000A2FB0323DB08184619F008F802460B461046194617F094FD02460B461046194619F00CFB03463B61BB6A03F10E02BB6A1B7D104600211A4619F02FFE3B691A462D
:402680004FF00003B96A01F10E04104619462246FDF768FEFFF71AF8034603F13001BB6A03F10E02BB6A1B7D084611461A4619F009FE00BF7B8C1846FFF77EF8FFF726F825
:4026C000452009F043FE02467B6ADA617B6ADB690433FB62FB6A002B2ED029E0B8630020CDCCCCCC174BD3F8483816489847F860FB68002B19D0FB6800221A70FB68FA6A84
:402700005A61FB6800229A61FB687A6ADA61FB68DB69D3F8B839FA68D26910469847094BD3F84C380748F9689847FB6A3433FB62FB6A1B68002BD5D1BB6A01221A70343756
:40274000BD4690BDCC63002080B586B000AF78607B683B613B691B7B184600F033FAF860FB68002B37D0472009F0F0FD0246FB68DA61FB68DB6904337B617B69002B2AD0B1
:4027800025E0184BD3F8483816489847B860BB68002B19D0BB6800221A70BB687A695A61BB6800229A61BB68FA68DA61BB68DB69D3F8B839BA68D26910469847094BD3F876
:4027C0004C380848B96898477B6934337B617B691B68002BD5D13B6901221A701837BD4680BD00BFCC63002080B586B000AF7860FEF776FF4FF40070FEF794FFFEF766FFC7
:40280000034600221A704FF40070FEF7D5FFFEF767FF4FF41070FEF785FFFEF757FF034600221A704FF41070FEF7C6FFFEF758FF4FF42070FEF776FFFEF748FF03460022A3
:402840001A704FF42070FEF7B7FFFEF749FF4FF43070FEF767FFFEF739FF034600221A704FF43070FEF7A8FF2E4B00229A702E4B3B613B69002B51D03B6920331846002114
:402880004FF4C07219F029FD4A2009F05FFD02463B69DA613B69DB6904337B617B69002B3CD037E0214BD3F8483820489847F860FB68002B2BD0FB6801221A70FB687A692C
:4028C0005A61FB6800229A61FB683A69DA61FB68DB69D3F8B839FA68D26910469847FB68DB69012283F86029FB68DB69002283F86129FB68DB69FA68D26992F86029D2B2B0
:402900001A700A4BD3F84C380848F96898477B6934337B617B691B68002BC3D11837BD4680BD00BFB8630020B83C0020CC63002090B583B000AF7860FEF7D2FE4FF4E07049
:40294000FEF7F0FEFEF7C2FE03465A7A6C4B9A74FEF7BCFE03469A7A6A4B1A71FEF7B6FE03460B331B78002B04D0FEF7AFFE0346DB7A00E01423644A1370FEF7A7FE034664
:402980000C331B78002B04D0FEF7A0FE03461B7B00E016235C4A5370FEF7A2FE4FF4A070FEF7C0FEFEF792FE034601331B781B029CB2FEF78BFE03461B789BB22246134352
:4029C0009BB29AB2514B1A80FEF78AFE4FF4A070FEF7A8FEFEF77AFE0346023318460021102219F07AFCFEF771FE0346023300221A70FEF76BFE0346033300221A70FEF776
:402A000065FE0346043305221A70FEF75FFE0346053300221A704FF4A070FEF7CDFEFEF755FE0346023318460821FDF7C7FD03469AB2334B9A81FEF753FE4FF4C070FEF78F
:402A400071FEFEF743FE034618460821FDF7B6FD03469AB22A4BDA81FEF742FE4FF40070FEF760FEFEF732FE034605331B78002B0CBF01230023DAB2254BDA72FEF730FEB9
:402A80004FF41070FEF74EFEFEF720FE034605331B78002B0CBF01230023DAB21C4B83F8CB29FEF71DFE4FF42070FEF73BFEFEF70DFE034605331B78002B0CBF01230023EA
:402AC000DAB2134B03F59C530B331A70FEF708FE4FF43070FEF726FEFEF7F8FD034605331B78002B0CBF01230023DAB2084B03F5EA530B331A70FEF777FF0C37BD4690BD31
:402B0000B8630020286C0020B03C0020B4D7FF1FB83C002080B485B000AF0346FB710023FB81264B9B78022B02D0042B14D03DE0234B1B78FA799A4203D14FF48063FB81F8
:402B400009E01F4B93F8C039FA799A4203D14FF48863FB812AE029E0194B1B78FA799A4203D14FF48063FB811FE0154B93F8C039FA799A4203D14FF48863FB8115E0104BE2
:402B800003F59C531B78FA799A4203D14FF49063FB810AE00A4B03F5EA531B78FA799A4203D14FF49863FB81FFE700BFFB8918461437BD465DF8047B704700BFB863002088
:402BC000B83C002080B485B000AF0346FB710023FB600023FB7216E0FB7A114A4FF41C6101FB03F313441B78FA799A4208D1FB7A4FF41C6202FB03F3094A1344FB6007E047
:402C0000FB7A0133FB72074B9B78FA7A9A42E3D3FB6818461437BD465DF8047B704700BFB83C0020B863002080B584B000AF08F073FEFEF791F8F860FB68002B47D000234C
:402C4000FB72FB7AFA6813441C225A70FB7A5A1CFA72FA6802339B0013448B4A5A60FB7AFA68134420225A70FB7A5A1CFA72FA6802339B001344854A5A60FB7AFA68134471
:402C800007225A70FB7A5A1CFA72FA6802339B0013447F4A5A60FB7AFA6813440A225A70FB7A5A1CFA72FA6802339B001344794A5A60FB7AFA6813440C225A70FB7A5A1C2C
:402CC000FA72FA6802339B001344734A5A60FEF743F8F860FB68002B63D00023BB72BB7AFA6813440D225A70BB7A5A1CBA72FA6802339B001344694A5A60BB7AFA6813442D
:402D00000E225A70BB7A5A1CBA72FA6802339B001344634A5A60BB7AFA6813440F225A70BB7A5A1CBA72FA6802339B0013445D4A5A60BB7AFA68134411225A70BB7A5A1C92
:402D4000BA72FA6802339B001344574A5A60BB7AFA68134412225A70BB7A5A1CBA72FA6802339B001344514A5A60BB7AFA68134410225A70BB7A5A1CBA72FA6802339B00AF
:402D800013444B4A5A60BB7AFA68134413225A70BB7A5A1CBA72FA6802339B001344454A5A60FDF749FD78607B68002B0CD07B680D225A707B6842F210729A807B68052242
:402DC0009A707B680322DA70FDF736FD78607B68002B0CD07B680E225A707B6843F698229A807B6805229A707B680322DA70FDF723FD78607B68002B0CD07B6827225A708F
:402E00007B6844F620629A807B6805229A707B680322DA70FDF710FD78607B68002B0FD07B680A225A707B6844F620629A807B68FA225A817B6806229A707B680322DA70DA
:402E4000FDF7FAFC78607B68002B0ED07B6813225A707B6800229A807B6814225A817B6806229A707B680322DA7017F045F803461A46114B1A801148FDF730FA1048FDF7A2
:402E80002DFA1037BD4680BDA11C0000ED1D0000B5340000391F000031290000E9270000B1210000AD220000D9230000492700000D210000C52E00005CD8FF1F153100002C
:402EC0000D32000080B582B000AF8F4BD3F850388D48984778607B68002B00F011817B685B69002B00F00C810023FB700023BB7000237B70854B00221A71844B0022DA8033
:402F0000834800214FF4007219F0E7F97B68DB6903F5D073184600214FF4C07219F0DDF900233B7079E07B685A693B7813449B7FFF2B6ED00123BB70FB7883F00103DBB2B3
:402F4000002B05D07B685A693B7813449B7EFB707B68DB699B78DAB27B6859693B780B449B7F9A4256D17B685B69DB6A002B06D07B685B69DB6A7A68D269104698477B6885
:402F80005B695B68002B29D07B68DB695F4A13607B685B691B7E002B06D07B685B691B7E9AB25A4BDA8004E07B685B69DB68574A93607B685B691B687A68D2691046984779
:402FC0007B685A697B689A617B6800225A6116F093FF03461A467B681A8217E07B685B691B687A68D269104698477B681B6A002B05D07B681B6A7A68526A10469847424B2A
:40300000D3F854384048984700237B6001237B7006E005E03B7801333B703B78032B82D9BB7883F00103DBB2002B53D07B685B69DB6A002B06D07B685B69DB6A7A68D269B1
:40304000104698477B685B695B68002B29D07B68DB692E4A13607B685B691B7E002B06D07B685B691B7E9AB2284BDA8004E07B685B69DB68254A93607B685B691B687A68A5
:40308000D269104698477B685A697B689A617B6800225A6116F030FF03461A467B681A822EE07B685B691B687A68D269104698477B681B6A002B05D07B681B6A7A68526A07
:4030C00010469847104BD3F854380F48984700237B6015E07B7883F00103DBB2002B0FD0FB78002B07D0084BD3F854380648984700237B6004E0044BD3F8443802489847D2
:403100000837BD4680BD00BFCC630020443A0020503A0020B0B582B000AF3A4BD3F850383848984778607B68002B68D07B689B69002B64D07B689B691B8A002B5FD016F0ED
:40314000DBFE03461A467B685B8A9BB219464FF47A7303FB01F313447A68128A92B29B1A3B60386818F08AFA02460B46104619464FF00002244B18F011FC02460B4614469C
:403180001D467B689B691B8A184618F077FA02460B462046294618F067FD0346002B2ED07B6800225A827B6800221A827B68DB899BB201339AB27B68DA817B689B699B683F
:4031C000002B04D07B689B699B68786898477B68DB899BB2142B07D90A4BD3F854380948984700237B6006E07B689A697B685A617B6800229A6115F0F9F814F04FFF0837A9
:40320000BD46B0BDCC63002000408F4080B582B000AF884B1B79DBB283F00103DBB2002B00D03EE1844BD3F850388348984778607B68002B00F01B817B689B69002B00F058
:4032400016817B6800225A827B6800221A827B68DB6903F5D072774BDB889BB2104677491A4619F02FF87B68DB69724AD28892B2A3F820230023FB700023BB7000237B7073
:4032800000233B7061E07B689A693B78134493F82630FF2B55D00123BB70FB7883F00103DBB2002B06D07B689A693B78134493F82230FB707B689B695B68786898477B6894
:4032C000DB699B78DAB27B6899693B780B4493F826309A4236D17B681B78DBB283F00103DBB2002B13D07B689B691B6B002B04D07B689B691B6B786898477B681B6A002B00
:4033000005D07B681B6A7A68526A104698477B681B78DBB283F00103DBB2002B07D0464BD3F854384448984700237B6006E07B689A697B685A617B6800229A6101237B70AA
:4033400006E005E03B7801333B703B78032B9AD9BB7883F00103DBB2002B38D07B689B695B68786898477B681B78DBB283F00103DBB2002B13D07B689B691B6B002B04D048
:403380007B689B691B6B786898477B681B6A002B05D07B681B6A7A68526A104698477B681B78DBB283F00103DBB2002B07D0224BD3F854382048984700237B6057E07B6812
:4033C0009A697B685A617B6800229A614FE07B7883F00103DBB2002B49D0FB78002B07D0154BD3F854381448984700237B603EE07B689B695B7E002B22D07B681B899BB28E
:40340000132B07D90C4BD3F854380B48984700237B602CE07B681B899BB201339AB27B681A817B689A697B685A617B6800229A611DE000BF443A0020CC630020503A0020DB
:403440007B685B899BB2002B05D116F055FD03461A467B685A817B689A697B685A617B6800229A61104BD3F844380F4898470F4B00221A710D4B0022DA800D4800214FF488
:40348000007218F02AFF7B68DB6903F5D073184600214FF4C07218F020FF14F0A7FF14F0FDFD0837BD4680BDCC630020443A0020503A002080B584B000AF78601B4B1B8835
:4034C00001339AB2194B1A80194BD3F8503818489847F860FB68002B1BD0FB689B69002B17D0FB689B691B8A002B06D0FB685B8A9BB201339AB2FB685A82FB689B695B6982
:40350000002B06D0FB689B899BB201339AB2FB689A8116F0F1FC03461A46064B1A80034B00221A801037BD4680BD00BF5ED8FF1FCC6300205CD8FF1F90B58FB000AF7860E1
:403540007B68FB62664B1B78DBB2002B00D0BEE0644B00225A73FB6A03F10C02FB6AB3F88C319BB2DBB21046194604F041FA03461A465C4BDA705B4804F0E2F8594B9B784F
:40358000FF2B08D1574B5B79FF2B04D1554B9B7AFF2B00F09280534B9B6B002B03D0514B9B6B50489847012387F837304E4B3B630CE03B6B1A784B4BDB789A4203D10023D6
:4035C00087F8373006E03B6B01333B633B6B1B78FF2BEED197F83730002B1CD0414804F003F978627B6A002B15D07B6A3D489847034683F00103DBB2002B0CD0394BFF22CE
:403600009A70384B9A78374B5A71364B5A79354B9A7200BF5BE0334805F070FE314804F0B3F938623B6A002B02D03B6A2D4898472C4804F083FA2B4804F072F9F861FB6924
:40364000002B02D0FB6927489847AA233B7370237B730023BB73234B1B691B78FB73CC233B7433237B74C323BB743C23FB74A320FCF74EFDB861BB69002B12D0BB690822FC
:403680005A80BB691A1DBB695B889BB21C4607F10C0310461946224618F014FEBB69C2221A70104804F008F978617B69002B03D07B690C4898470AE009E00A4804F0C8F857
:4036C000B862BB6A002B02D0BB6A0648984715F0DBF915F02FF800BF3C37BD4690BD00BFB86300203083FF1F2C83FF1F90B58FB000AF78607B68FB62664B1B78DBB2002BD6
:4037000000D0BEE0644B00225A73FB6A03F10C02FB6AB3F88C319BB2DBB21046194604F067F903461A465C4BDA705B4804F008F8594B9B78FF2B08D1574B5B79FF2B04D106
:40374000554B9B7AFF2B00F09280534B9B6B002B03D0514B9B6B50489847012387F837304E4B3B630CE03B6B1A784B4BDB789A4203D1002387F8373006E03B6B01333B6348
:403780003B6B1B78FF2BEED197F83730002B1CD0414804F029F878627B6A002B15D07B6A3D489847034683F00103DBB2002B0CD0394BFF229A70384B9A78374B5A71364BBE
:4037C0005A79354B9A7200BF5BE0334805F096FD314804F0D9F838623B6A002B02D03B6A2D4898472C4804F0A9F92B4804F098F8F861FB69002B02D0FB6927489847AA23C0
:403800003B7370237B730023BB73234B1B691B78FB73CC233B7433237B74C323BB743C23FB74A420FCF774FCB861BB69002B12D0BB6908225A80BB691A1DBB695B889BB207
:403840001C4607F10C0310461946224618F03AFDBB69C2221A70104804F02EF878617B69002B03D07B690C4898470AE009E00A4803F0EEFFB862BB6A002B02D0BB6A0648F9
:40388000984715F051FC15F0A5FA00BF3C37BD4690BD00BFB86300206C83FF1F2C83FF1FB0B590B004AF786003233B724FF6FF73BB810023FB818523BB727B68FB62FDF73F
:4038C00019FFFDF70DFF4FF4E070FDF72BFFFDF7FDFE03461B7A87F82B30FDF717FFFB6A1B78002B47D1A320FCF712FC78627B6A002B3FD007F1100318460021102218F092
:40390000ECFC97F82B30012B09D197F82B3007F1100210463C491A4618F022FD08E097F82B3007F11002104638491A4618F018FD7B6A1D1D07F11003184618F043FD034610
:403940009BB207F11004009301AA07F1080393E8030082E80300F0204FF495712A46234603F052FE03461A467B6A5A807B6AC2221A7046E045E0A420FCF7CAFB38623B6A8C
:40398000002B3ED007F1100318460021102218F0A4FC97F82B30012B09D197F82B3007F11002104618491A4618F0DAFC08E097F82B3007F11002104614491A4618F0D0FCCE
:4039C0003B6A1D1D07F11003184618F0FBFC03469BB207F11004009301AA07F1080393E8030082E80300F0204FF495712A46234603F00AFE03461A463B6A5A803B6AC222D4
:403A00001A703037BD46B0BDF0CB0100FCCB010090B58DB004AF786003233B724FF6FF73BB810023FB81C523BB72294BFB617B68BB61BB691B78002B24D1A320FCF768FB5B
:403A400078617B69002B1CD07B691C1DF86918F0B9FC03469BB2009301AA07F1080393E8030082E803006020EA212246FB6903F0CBFD03461A467B695A807B69C2221A70AA
:403A800023E022E0A420FCF743FB38613B69002B1BD03B691C1DF86918F094FC03469BB2009301AA07F1080393E8030082E803006020EA212246FB6903F0A6FD03461A468B
:403AC0003B695A803B69C2221A702437BD4690BD08CC010090B58DB004AF786003233B724FF6FF73BB810023FB81C523BB72294BFB617B68BB61BB691B78002B24D1A320C6
:403B0000FCF706FB78617B69002B1CD07B691C1DF86918F057FC03469BB2009301AA07F1080393E8030082E803002020EA212246FB6903F069FD03461A467B695A807B6967
:403B4000C2221A7023E022E0A420FCF7E1FA38613B69002B1BD03B691C1DF86918F032FC03469BB2009301AA07F1080393E8030082E803002020EA212246FB6903F044FD6C
:403B800003461A463B695A803B69C2221A702437BD4690BD44CC010090B585B000AF78607B68FB60FB681B78002B48D1FB681C6B2E2005F005FE034623441B7B562B19D1B6
:403BC000FDF798FDFDF78CFD4FF40070FDF7AAFDFDF77CFD03465B79FB72FDF797FDFB7A002B03D1FB68A5221A7173E0FB68A6221A716FE0FB681C6B2E2005F0E1FD03461D
:403C000023441B7B572B19D1FDF774FDFDF768FD4FF42070FDF786FDFDF758FD03465B79BB72FDF773FDBB7A002B03D1FB68A5221A7103E0FB68A6221A714BE04AE0FB68E2
:403C40001B78012B46D1FB681C6B2E2005F0B8FD034623441B7B562B19D1FDF74BFDFDF73FFD4FF43070FDF75DFDFDF72FFD03465B797B72FDF74AFD7B7A002B03D1FB6882
:403C8000A5221A7126E0FB68A6221A7122E0FB681C6B2E2005F094FD034623441B7B572B18D1FDF727FDFDF71BFD4FF41070FDF739FDFDF70BFD03465B793B72FDF726FD97
:403CC0003B7A002B03D1FB68A5221A7102E0FB68A6221A711437BD4690BD00BFB0B586B000AF78607B687B61786905F0B1FD03461A464FF41C6303FB02F3464A13443B6123
:403D00003B69002B00F083803B69D3F83C39386998473B69D3F8503938699847F8603B69D3F8403938699847FB68002B6FD00023FB72FB68E3225A70FB7A5A1CFA721946E0
:403D40003B691A78FB680B449A70FB7AFA6813449D1C7B691C6B242005F032FD0346083323441C1D242005F04FFD0346284621461A4618F0A7FA242005F046FD03461A46A2
:403D8000FB7A1344FB72FB7AFA6813449D1C7B691C6B252005F014FD0346083323441C1D252005F031FD0346284621461A4618F089FAFB7AFA6813449C1CFB7AFA68134484
:403DC0000233184618F0FEFA0346DBB220461946FCF7B6FB252005F017FD03461A46FB7A1344FB72FB7A9AB2FB68A3F802213B69D3F83C39386998473B69D3F848393869EA
:403E0000F96898473B69D3F84039386998471837BD46B0BDB83C0020F0B58FB004AF786003233B734FF6FF733B8200237B82C523BB734F4BBB607B687B627B6A1B78002B02
:403E40004AD1A320FCF764F938623B6A002B42D00023FB77BA23BB833B6A00225A803B6A5B889BB21A463B6A13441D1DFB7F9B0007F12802134453F8204CFB7F9B0007F18A
:403E80002802134453F8203C184618F09BFA03469BB2BE8B009301AA07F10C0393E8030082E803001A2031462A46234603F0ACFB03461A463B6A5B889BB213449AB23B6AE6
:403EC0005A80BB8B2033BB83FB7F0133FB773B6AC2221A7049E048E0A420FCF719F9B861BB69002B41D00023FB75BA23BB82BB6900225A80BB695B889BB21A46BB6913444F
:403F00001D1DFB7D9B0007F12802134453F8204CFB7D9B0007F12802134453F8203C184618F050FA03469BB2BE8A009301AA07F10C0393E8030082E803001A2031462A46F2
:403F4000234603F061FB03461A46BB695B889BB213449AB2BB695A80BB8A2033BB82FB7D0133FB75BB69C2221A702C37BD46F0BDF0CC01002DE9F04196B004AF786003235A
:403F80003B7500233B834FF6FF737B838523BB75002387F847300023A7F844300023A7F842307B68FB63F86B05F052FC0346032B3ED801A252F823F0C93F0000E33F0000C2
:403FC000FD3F000017400000D34BDB7887F847304FF40073A7F844304FF44073A7F8423026E0CD4B1B7987F847304FF41073A7F844304FF45073A7F8423019E0C64B5B7981
:4040000087F847304FF42073A7F844304FF46073A7F842300CE0C04B9B7987F847304FF43073A7F844304FF47073A7F8423000BFFB6B1B78002B40F00881FDF75BFBFDF76F
:404040004FFBB7F844301846FDF76CFBFDF73EFB03465A1C07F1100310681860FDF756FBFDF748FBFDF73CFBB7F842301846FDF759FB002387F84130DDE097F8413007F1FD
:404080004802134413F8383C013B032B00F2CE8001A252F823F000BFA94000000741000069410000CB410000A320FCF731F8B863BB6B002B26D097F84130984A32F82360C0
:4040C00097F84130954A9B0013445D88BB6B1C1DFDF7FCFA86461023009301AA07F1140393E8030082E80300304629462246734603F08AFA03461A46BB6B5A80BB6BC2225A
:404100001A7093E092E0A320FCF702F878637B6B002B28D097F84130804A32F8238097F841307E4A9B0013445E887B6B1D1DFDF7CDFA034603F110041023009301AA07F1B0
:40414000140393E8030082E80300404631462A46234603F059FA03461A467B6B5A807B6BC2221A7062E061E0A320FBF7D1FF38633B6B002B28D097F84130684A32F8238079
:4041800097F84130654A9B0013445E883B6B1D1DFDF79CFA034603F120041023009301AA07F1140393E8030082E80300404631462A46234603F028FA03461A463B6B5A802E
:4041C0003B6BC2221A7031E030E0A320FBF7A0FFF862FB6A002B28D097F841304F4A32F8238097F841304D4A9B0013445E88FB6A1D1DFDF76BFA034603F130041023009350
:4042000001AA07F1140393E8030082E80300404631462A46234603F0F7F903461A46FB6A5A80FB6AC2221A70FFE700BF97F84130013387F8413097F8412097F847309A42CA
:40424000FFF41BAFFDF762FA0BE1FDF753FAFDF747FAB7F844301846FDF764FAFDF736FA03465A1C07F10C0310681860FDF74EFAFDF740FAFDF734FAB7F842301846FDF723
:4042800051FA002387F84030E2E097F8403007F14802134413F83C3C013B032B00F2D38001A252F823F000BFB94200002143000083430000E5430000A420FBF729FFB86211
:4042C000BB6A002B26D097F84030144A32F8236097F84030114A9B0013445D88BB6A1C1DFDF7F4F986461023009301AA07F1140393E8030082E803003046294622467346C1
:4043000003F082F903461A46BB6A5A80BB6AC2221A7098E097E000BFB8630020A883FF1FA420FBF7F5FE78627B6A002B28D097F840304E4A32F8238097F840304B4A9B0084
:4043400013445E887B6A1D1DFDF7C0F9034603F110041023009301AA07F1140393E8030082E80300404631462A46234603F04CF903461A467B6A5A807B6AC2221A7062E06D
:4043800061E0A420FBF7C4FE38623B6A002B28D097F84030354A32F8238097F84030334A9B0013445E883B6A1D1DFDF78FF9034603F120041023009301AA07F1140393E88C
:4043C000030082E80300404631462A46234603F01BF903461A463B6A5A803B6AC2221A7031E030E0A420FBF793FEF861FB69002B28D097F840301D4A32F8238097F84030BB
:404400001A4A9B0013445E88FB691D1DFDF75EF9034603F130041023009301AA07F1140393E8030082E80300404631462A46234603F0EAF803461A46FB695A80FB69C222A1
:404440001A70FFE700BF97F84030013387F8403097F8402097F847309A42FFF416AFFDF755F94837BD46BDE8F08100BFA883FF1FF0B58FB004AF786003233B734FF6FF7386
:404480003B8200237B82C523BB734F4BBB607B687B627B6A1B78002B4AD1A320FBF738FE38623B6A002B42D00023FB77BA23BB833B6A00225A803B6A5B889BB21A463B6A44
:4044C00013441D1DFB7F9B0007F12802134453F8204CFB7F9B0007F12802134453F8203C184617F06FFF03469BB2BE8B009301AA07F10C0393E8030082E803001A2031461E
:404500002A46234603F080F803461A463B6A5B889BB213449AB23B6A5A80BB8B2033BB83FB7F0133FB773B6AC2221A7049E048E0A420FBF7EDFDB861BB69002B41D0002300
:40454000FB75BA23BB82BB6900225A80BB695B889BB21A46BB6913441D1DFB7D9B0007F12802134453F8204CFB7D9B0007F12802134453F8203C184617F024FF03469BB294
:40458000BE8A009301AA07F10C0393E8030082E803001A2031462A46234603F035F803461A46BB695B889BB213449AB2BB695A80BB8A2033BB82FB7D0133FB75BB69C22242
:4045C0001A702C37BD46F0BD18CD0100B0B588B000AF78607B68BB61B86905F039F903461A464FF41C6303FB02F3834A13447B617B69D3F83C39786998477B69D3F8503953
:404600007869984738617B69D3F84039786998473B69002B00F0ED800023FB773B69A2225A70FB7F5A1CFA7719467B691A783B690B449A70FB7F5A1CFA771D46BB691C6BA4
:40464000072005F0BDF8034623441A7B3B692B449A70FB7F3A6913449D1CBB691C6B122005F0AEF80346083323441C1D122005F0CBF80346284621461A4617F023FEFB7F34
:404680003A6913449C1C122005F0BEF8034620461946FBF755FF122005F0B6F803461A46FB7F1344FB77FB7F02333A6913449D1CBB691C6B0E2005F083F8034608332344C0
:4046C0001C1D0E2005F0A0F80346284621461A4617F0F8FDFB7F3A6913449C1C0E2005F093F8034620461946FBF72AFF0E2005F08BF803460233DAB2FB7F1344FB77BB6932
:404700001C6B052005F05CF8034623441B7BFB73FB7B102B0CD0432B13D00F2B1AD1FB7F5A1CFA771A463B69134402229A7011E0FB7F5A1CFA771A463B69134401229A7009
:4047400008E0FB7F5A1CFA771A463B69134403229A7000BFFB7F3A6913449D1CBB691C6B062005F02DF8034608332344043328461946082217F0A6FDFB7B102B07D1FB7FC9
:404780003A69134402331846082102F0D3FBFB7F3A691344023318460821FBF7D1FEFB7F0833FB77BB691C6B062005F009F8034608332344043318460021082217F08DFD48
:4047C000FB7F9AB23B69A3F802217B69002283F8A0297B69D3F83C39786998477B69D3F848397869396998477B69D3F84039786998472037BD46B0BDB83C002090B585B094
:4048000000AF78607B68FB60F86805F021F803461A464FF41C6303FB02F31C4A1344BB60BB6893F8A039DBB2002B28D0BB68002283F8A029FB681C6B0B2004F0C1FF03463D
:40484000083323441C1D0B2004F0DEFF0346204600211A4617F041FDFB681C6B0B2004F0AFFF0346234439221A73FB681C6B052004F0A6FF0346234444221A7302E0BB684D
:4048800008221A731437BD4690BD00BFB83C002090B585B000AF78607B68FB60FB68002B3DD0FCF727FFFCF71BFF4FF4A070FCF739FFFCF70BFF034601331B781B029CB2DD
:4048C000FCF704FF03461B789BB2224613439BB27B81FCF71BFFFB681D3318460021102217F0FBFC7A894FF00003F96801F11D04104619462246FBF735FDFB681D33184618
:4049000017F060FD0346DAB2FB681A77FB6803F11D02FB681B7F10461946FBF711FE1437BD4690BDF0B58BB004AF78607B687B617B69002B65D07B691B699A8D7B691A8308
:404940007B691B69DA8D7B695A837B691B78002B2CD1A320FBF7DCFB38613B69002B24D07B69B3F818E07B695E8B3B691D1D7B6903F11D047B691B6993F830309BB27A6972
:404980001269009301AB32321068516803C3704631462A46234602F037FE03461A463B695A803B69C2221A702BE02AE0A420FBF7AFFBF860FB68002B23D07B69B3F818E0A7
:4049C0007B695E8BFB681D1D7B6903F11D047B691B6993F830309BB27A691269009301AB32321068516803C3704631462A46234602F00AFE03461A46FB685A80FB68C2228F
:404A00001A701C37BD46F0BDB0B584B000AF78607B68BB60BB68002B58D00023FB8100237B732EE0BB681B7F1A467B7BD31A013B184616F023FE02460B464FF00000254990
:404A400015F0EEFB04460D467B7BBA6813445B7F03F00F03184616F011FE02460B462046294616F071FE02460B461046194617F005F903469AB2FB891344FB817B7B01339E
:404A80007B73BB681B7F7A7B9A42CBD3FCF732FEFCF726FE4FF4A070FCF744FEFCF716FE0346FA89D2B21A70FCF710FE03460133FA89120A92B2D2B21A704FF4A070FCF784
:404AC0007BFE054AFB891380FCF720FE1037BD46B0BD00BF00002440B4D7FF1F90B585B000AF78607B68FB60FB68002B32D0FCF701FEFCF7F5FD4FF4E070FCF713FEFCF713
:404B0000E5FD03465B7AFB72FCF700FEFB681D3318460021102217F0E0FBFA7A4FF00003F96801F11D04104619462246FBF71AFCFB681D33184617F045FC0346DAB2FB68F1
:404B40001A77FB6803F11D02FB681B7F10461946FBF7F6FC1437BD4690BD00BFF0B58BB004AF78607B687B617B69002B65D07B691B699A8D7B691A837B691B69DA8D7B690D
:404B80005A837B691B78002B2CD1A320FBF7C0FA38613B69002B24D07B69B3F818E07B695E8B3B691D1D7B6903F11D047B691B6993F830309BB27A691269009301AB3232E2
:404BC0001068516803C3704631462A46234602F01BFD03461A463B695A803B69C2221A702BE02AE0A420FBF793FAF860FB68002B23D07B69B3F818E07B695E8BFB681D1D53
:404C00007B6903F11D047B691B6993F830309BB27A691269009301AB32321068516803C3704631462A46234602F0EEFC03461A46FB685A80FB68C2221A701C37BD46F0BD47
:404C4000B0B584B000AF78607B68BB60BB68002B50D00023FB730023BB732FE0BB681B7F1A46BB7BD31A013B184616F007FD02460B464FF00000214915F0D2FA04460D4623
:404C8000BB7BBA6813445B7F03F00F03184616F0F5FC02460B462046294616F055FD02460B461046194616F0E9FF03469BB2DAB2FB7B1344FB73BB7B0133BB73BB681B7F5D
:404CC000BA7B9A42CAD3FCF715FDFCF709FD4FF4E070FCF727FDFCF7F9FC03460933FA7B1A704FF4E070FCF767FD054AFB7B9374FCF70CFD1037BD46B0BD00BF0000244066
:404D0000B863002080B586B000AF78607B687B617B691B78002B22D1FBF78EFD38613B69002B1BD07B693A695A633B697A69C3F890213B6923225A703B6932225A813B69C1
:404D40004FF47A729A803B69194AC3F894213B6906229A703B690322DA7025E024E07B691B78012B20D1FBF767FDF860FB68002B1AD07B69FA685A63FB687A69C3F8902112
:404D8000FB6824225A70FB6832225A81FB684FF47A729A80FB68064AC3F89421FB6806229A70FB680322DA701837BD4680BD00BFE94D000080B485B000AF78607B68FB6006
:404DC000FB685B6B002B0AD0FB685B6B002B03D0FB685B6B01221A70FB6800225A631437BD465DF8047B704780B588B000AF78607B68FB61FB69D3F89031BB61BB69002BDF
:404E000038D0BB6913229A72BB6903F11D02FB690C3310461946082217F054FABB6908221A77FBF709FD78617B69002B22D0134A07F10C031068516803C3BB691B78002B09
:404E400003D17B691B225A7002E07B691F225A707B6903229A707B690C331A4607F10C0303CB106051607B690822A3F88C217B690322DA702037BD4680BD00BF40CD010009
:404E8000B0B590B004AF786004233B724FF6FF73BB810023FB81C523BB727B68BB62BB6A1B78002B40F00482BB6A1B691B783E2B40F0FE81A320FBF72BF978627B6A002B97
:404EC00000F01481002387F82F30FCF713FCFCF7C3FCFCF747FD07F1100318460021082217F0FBF9FCF7AEFC034602331B7803F04003002B32D097F82F305A1C87F82F204F
:404F00001C46FCF79FFC034602331B781B09DBB2DBB203F00103DBB243F03003DBB2DAB207F13003234403F8202C97F82F305A1C87F82F201C46FCF785FC034602331B783D
:404F4000DBB203F00F03DBB243F03003DBB2DAB207F13003234403F8202C31E097F82F305A1C87F82F201C46FCF76CFC034602331B781B09DBB2DBB203F00303DBB243F0B2
:404F80003003DBB2DAB207F13003234403F8202C97F82F305A1C87F82F201C46FCF752FC034602331B78DBB203F00F03DBB243F03003DBB2DAB207F13003234403F8202C6F
:404FC00097F82F305A1C87F82F2007F1300213443A2203F8202C97F82F305A1C87F82F201C46FCF72FFC034601331B781B09DBB2DBB203F00703DBB243F03003DBB2DAB252
:4050000007F13003234403F8202C97F82F305A1C87F82F201C46FCF715FC034601331B78DBB203F00F03DBB243F03003DBB2DAB207F13003234403F8202C97F82F305A1C14
:4050400087F82F2007F1300213443A2203F8202C97F82F305A1C87F82F201C46FCF7F2FB03461B781B09DBB2DBB203F00703DBB243F03003DBB2DAB207F13003234403F81A
:40508000202C97F82F305A1C87F82F201C46FCF7D9FB03461B78DBB203F00F03DBB243F03003DBB2DAB207F13003234403F8202CFCF72CFB7B6A1D1D97F82F309BB207F18A
:4050C0001004009301AA07F1080393E8030082E80300C920BA212A46234602F095FA03461A467B6A5A807B6AC2221A70A320FBF70FF878627B6A002B00F0D980002387F806
:405100002330FCF7F7FAFCF7A7FBFCF72BFC07F1100318460021082217F0DFF897F823305A1C87F823201C46FCF78CFB034604331B781B09DBB2DBB203F00303DBB243F0F7
:405140003003DBB2DAB207F13003234403F8202C97F823305A1C87F823201C46FCF772FB034604331B78DBB203F00F03DBB243F03003DBB2DAB207F13003234403F8202CA4
:4051800097F823305A1C87F8232007F1300213442F2203F8202C97F823305A1C87F823201C46FCF74FFB034605331B781B09DBB2DBB203F00103DBB243F03003DBB2DAB2AE
:4051C00007F13003234403F8202C97F823305A1C87F823201C46FCF735FB034605331B78DBB203F00F03DBB243F03003DBB2DAB207F13003234403F8202C97F823305A1C54
:4052000087F8232007F1300213442F2203F8202C97F823305A1C87F823201C46FCF712FB034606331B781B09DBB2DBB243F03003DBB2DAB207F13003234403F8202C97F8DD
:4052400023305A1C87F823201C46FCF7FBFA034606331B78DBB203F00F03DBB243F03003DBB2DAB207F13003234403F8202CFCF74DFA7B6A1D1D97F823309BB207F1100439
:40528000009301AA07F1080393E8030082E80300C9204FF495712A46234602F0B5F903461A467B6A5A807B6AC2221A70F5E1F4E1BB6A1B78012B40F0F081BB6A1B691B78F0
:4052C0003E2B40F0EA81A420FAF722FFF861FB69002B00F01481002387F82E30FCF70AFAFCF7BAFAFCF73EFB07F1100318460021082216F0F2FFFCF7A5FA034602331B784F
:4053000003F04003002B32D097F82E305A1C87F82E201C46FCF796FA034602331B781B09DBB2DBB203F00103DBB243F03003DBB2DAB207F13003234403F8202C97F82E30DD
:405340005A1C87F82E201C46FCF77CFA034602331B78DBB203F00F03DBB243F03003DBB2DAB207F13003234403F8202C31E097F82E305A1C87F82E201C46FCF763FA03465B
:4053800002331B781B09DBB2DBB203F00303DBB243F03003DBB2DAB207F13003234403F8202C97F82E305A1C87F82E201C46FCF749FA034602331B78DBB203F00F03DBB211
:4053C00043F03003DBB2DAB207F13003234403F8202C97F82E305A1C87F82E2007F1300213443A2203F8202C97F82E305A1C87F82E201C46FCF726FA034601331B781B0928
:40540000DBB2DBB203F00703DBB243F03003DBB2DAB207F13003234403F8202C97F82E305A1C87F82E201C46FCF70CFA034601331B78DBB203F00F03DBB243F03003DBB2C3
:40544000DAB207F13003234403F8202C97F82E305A1C87F82E2007F1300213443A2203F8202C97F82E305A1C87F82E201C46FCF7E9F903461B781B09DBB2DBB203F00703F5
:40548000DBB243F03003DBB2DAB207F13003234403F8202C97F82E305A1C87F82E201C46FCF7D0F903461B78DBB203F00F03DBB243F03003DBB2DAB207F13003234403F8B2
:4054C000202CFCF723F9FB691D1D97F82E309BB207F11004009301AA07F1080393E8030082E80300C920BA212A46234602F08CF803461A46FB695A80FB69C2221A70A420B1
:40550000FAF706FEF861FB69002B00F0C6800023FB76FCF7EFF8FCF79FF9FCF723FA07F1100318460021082216F0D7FEFB7E5A1CFA761C46FCF786F9034604331B781B0956
:40554000DBB2DBB203F00303DBB243F03003DBB2DAB207F13003234403F8202CFB7E5A1CFA761C46FCF76EF9034604331B78DBB203F00F03DBB243F03003DBB2DAB207F16F
:405580003003234403F8202CFB7E5A1CFA7607F1300213442F2203F8202CFB7E5A1CFA761C46FCF74FF9034605331B781B09DBB2DBB203F00103DBB243F03003DBB2DAB241
:4055C00007F13003234403F8202CFB7E5A1CFA761C46FCF737F9034605331B78DBB203F00F03DBB243F03003DBB2DAB207F13003234403F8202CFB7E5A1CFA7607F13002DA
:4056000013442F2203F8202CFB7E5A1CFA761C46FCF718F9034606331B781B09DBB2DBB243F03003DBB2DAB207F13003234403F8202CFB7E5A1CFA761C46FCF703F9034612
:4056400006331B78DBB203F00F03DBB243F03003DBB2DAB207F13003234403F8202CFCF755F8FB691D1DFB7E9BB207F11004009301AA07F1080393E8030082E80300C92022
:405680004FF495712A46234601F0BEFF03461A46FB695A80FB69C2221A703037BD46B0BD80B586B000AF78607B687B617B691B78002B20D11D20FBF7CBF938613B69002BEB
:4056C00018D07B693A695A633B697A69C3F890213B691C4AC3F894213B691D225A703B6906229A703B694FF47A725A813B690322DA7023E022E07B691B78012B1ED12120F5
:40570000FBF7A6F9F860FB68002B17D07B69FA685A63FB687A69C3F89021FB68094AC3F89421FB6821225A70FB6806229A70FB684FF47A725A81FB680322DA701837BD469A
:4057400080BD00BF814E000080B487B000AF78607B687B617B691B78002B0AD17B695B6B3B613B69002B03D03B6901221A700DE00CE07B691B78012B08D17B695B6BFB609D
:40578000FB68002B02D0FB6801221A701C37BD465DF8047B704700BF80B584B000AF78607B68FB60FB68D3F89431002B07D0FB68D3F89431FA68D2F890211046984710376A
:4057C000BD4680BD80B586B000AF78607B687B617B691B78002B1ED11E20FBF739F938613B69002B16D01E4B00229A707B693A695A633B697A69C3F890213B691E225A70FD
:405800003B6906229A703B6964225A813B690322DA7021E020E07B691B78012B1CD12220FBF716F9F860FB68002B15D00C4B00225A727B69FA685A63FB687A69C3F89021E1
:40584000FB6822225A70FB6806229A70FB6864225A81FB680322DA701837BD4680BD00BFBC83FF1F80B487B000AF78607B687B617B691B78002B0AD17B695B6B3B613B69C9
:40588000002B03D03B6901221A700DE00CE07B691B78012B08D17B695B6BFB60FB68002B02D0FB6801221A701C37BD465DF8047B704700BFB0B590B004AF786002233B722D
:4058C0004FF6FF73BB810023FB81C523BB727B68BB62BB6A1B78002B40F0DE81BB6A1B691B78012B40F0D881A320FAF711FC78627B6A002B00F0EA80002387F82F30FBF7A6
:40590000F9FEFBF7A9FFFCF72DF807F1100318460021082216F0E1FCFBF794FF034602331B7803F04003002B32D097F82F305A1C87F82F201C46FBF785FF034602331B7813
:405940001B09DBB2DBB203F00103DBB243F03003DBB2DAB207F13003234403F8202C97F82F305A1C87F82F201C46FBF76BFF034602331B78DBB203F00F03DBB243F0300387
:40598000DBB2DAB207F13003234403F8202C31E097F82F305A1C87F82F201C46FBF752FF034602331B781B09DBB2DBB203F00303DBB243F03003DBB2DAB207F13003234427
:4059C00003F8202C97F82F305A1C87F82F201C46FBF738FF034602331B78DBB203F00F03DBB243F03003DBB2DAB207F13003234403F8202CA74B5B78002B0BD097F82F3062
:405A00005A1C87F82F2007F1300213443A2203F8202C0AE097F82F305A1C87F82F2007F130021344202203F8202C97F82F305A1C87F82F201C46FBF705FF034601331B783E
:405A40001B09DBB2DBB203F00703DBB243F03003DBB2DAB207F13003234403F8202C97F82F305A1C87F82F201C46FBF7EBFE034601331B78DBB203F00F03DBB243F0300302
:405A8000DBB2DAB207F13003234403F8202CFBF73DFE7B6A1D1D97F82F309BB207F11004009301AA07F1080393E8030082E8030010204FF4DD712A46234601F0A5FD0346BF
:405AC0001A467B6A5A807B6AC2221A70A320FAF71FFB78627B6A002B00F0DA80002387F82330FBF707FEFBF7B7FEFBF73BFF07F1100318460021082216F0EFFB97F82330ED
:405B00005A1C87F823201C46FBF79CFE034604331B781B09DBB2DBB203F00303DBB243F03003DBB2DAB207F13003234403F8202C97F823305A1C87F823201C46FBF782FE22
:405B4000034604331B78DBB203F00F03DBB243F03003DBB2DAB207F13003234403F8202C97F823305A1C87F8232007F1300213442F2203F8202C97F823305A1C87F823204E
:405B80001C46FBF75FFE034605331B781B09DBB2DBB203F00103DBB243F03003DBB2DAB207F13003234403F8202C97F823305A1C87F823201C46FBF745FE034605331B7841
:405BC000DBB203F00F03DBB243F03003DBB2DAB207F13003234403F8202C97F823305A1C87F8232007F1300213442F2203F8202C97F823305A1C87F823201C46FBF722FE6D
:405C0000034606331B781B09DBB2DBB243F03003DBB2DAB207F13003234403F8202C97F823305A1C87F823201C46FBF70BFE034606331B78DBB203F00F03DBB243F03003A8
:405C4000DBB2DAB207F13003234403F8202CFBF75DFD7B6A1D1D97F823309BB207F11004009301AA07F1080393E8030082E803004FF404704FF4DD712A46234601F0C4FC8E
:405C800003461A467B6A5A807B6AC2221A70CFE1CEE100BFBC83FF1FBB6A1B78012B40F0C781BB6A1B691B78012B40F0C181A420FAF72EFAF861FB69002B00F0EA80002336
:405CC00087F82E30FBF716FDFBF7C6FDFBF74AFE07F1100318460021082216F0FEFAFBF7B1FD034602331B7803F04003002B32D097F82E305A1C87F82E201C46FBF7A2FDEA
:405D0000034602331B781B09DBB2DBB203F00103DBB243F03003DBB2DAB207F13003234403F8202C97F82E305A1C87F82E201C46FBF788FD034602331B78DBB203F00F038C
:405D4000DBB243F03003DBB2DAB207F13003234403F8202C31E097F82E305A1C87F82E201C46FBF76FFD034602331B781B09DBB2DBB203F00303DBB243F03003DBB2DAB2E9
:405D800007F13003234403F8202C97F82E305A1C87F82E201C46FBF755FD034602331B78DBB203F00F03DBB243F03003DBB2DAB207F13003234403F8202C9F4B1B7A002B02
:405DC0000BD097F82E305A1C87F82E2007F1300213443A2203F8202C0AE097F82E305A1C87F82E2007F130021344202203F8202C97F82E305A1C87F82E201C46FBF722FDAD
:405E0000034601331B781B09DBB2DBB203F00703DBB243F03003DBB2DAB207F13003234403F8202C97F82E305A1C87F82E201C46FBF708FD034601331B78DBB203F00F0307
:405E4000DBB243F03003DBB2DAB207F13003234403F8202CFBF75AFCFB691D1D97F82E309BB207F11004009301AA07F1080393E8030082E8030010204FF4DD712A4623464B
:405E800001F0C2FB03461A46FB695A80FB69C2221A70A420FAF73CF9F861FB69002B00F0C7800023FB76FBF725FCFBF7D5FCFBF759FD07F1100318460021082216F00DFAFF
:405EC000FB7E5A1CFA761C46FBF7BCFC034604331B781B09DBB2DBB203F00303DBB243F03003DBB2DAB207F13003234403F8202CFB7E5A1CFA761C46FBF7A4FC0346043335
:405F00001B78DBB203F00F03DBB243F03003DBB2DAB207F13003234403F8202CFB7E5A1CFA7607F1300213442F2203F8202CFB7E5A1CFA761C46FBF785FC034605331B7897
:405F40001B09DBB2DBB203F00103DBB243F03003DBB2DAB207F13003234403F8202CFB7E5A1CFA761C46FBF76DFC034605331B78DBB203F00F03DBB243F03003DBB2DAB239
:405F800007F13003234403F8202CFB7E5A1CFA7607F1300213442F2203F8202CFB7E5A1CFA761C46FBF74EFC034606331B781B09DBB2DBB243F03003DBB2DAB207F1300396
:405FC000234403F8202CFB7E5A1CFA761C46FBF739FC034606331B78DBB203F00F03DBB243F03003DBB2DAB207F13003234403F8202CFBF78BFBFB691D1DFB7E9BB207F1AB
:406000001004009301AA07F1080393E8030082E803004FF404704FF4DD712A46234601F0F3FA03461A46FB695A80FB69C2221A703037BD46B0BD00BFBC83FF1FB0B5D6B08A
:4060400004AF3B1D1860042387F814314FF6FF73A7F818310023A7F81A31C52387F816313B1D1B68C7F84431D7F84431D3F89031C7F84031D7F840311B78002B40F0128386
:40608000D7F840311B691B78012B40F00B83A320FAF73EF8C7F83C01D7F83C31002B30D0CA4B1B785A1CD1B2C84A11701A46C74B1344DB7887F81C31C44B1B78032B02D98B
:4060C000C24B00221A70D7F83C311D1D07F58E740123009301AA07F58A7393E8030082E803004FF4147012212A46234601F08CFA03461A46D7F83C315A80D7F83C31C22204
:406100001A7007F5887318460021022216F0E5F807F58873D7F84001194602F06BF807F58673D7F84001194602F0AAF997F81131002B44D1A320F9F7EBFFC7F83C01D7F82B
:406140003C31002B5FD097F80D31002B1BD0A04A07F580731068516803C312891A80D7F83C3104331A4607F5807303CB106051601B881381D7F83C310A225A80D7F83C310A
:40618000C2221A703FE0934A07F1F4031068516803C312891A80D7F83C3104331A4607F1F40303CB106051601B881381D7F83C310A225A80D7F83C31C2221A7023E0A320C0
:4061C000F9F7A6FFC7F83C01D7F83C31002B1AD0814A07F1E8031068516803C312891A80D7F83C3104331A4607F1E80303CB106051601B881381D7F83C310A225A80D7F8F6
:406200003C31C2221A70A320F9F782FFC7F83C01D7F83C31002B1DD0704A07F1D803144620686168A26807C3A2891A80D7F83C3104331C4607F1D80307CB20606160A26071
:406240001B88A381D7F83C310E225A80D7F83C31C2221A7097F81031002B44D1A320F9F757FFC7F83C01D7F83C31002B5FD097F80C31002B1BD0564A07F1CC031068516842
:4062800003C312891A80D7F83C3104331A4607F1CC0303CB106051601B881381D7F83C310A225A80D7F83C31C2221A703FE0494A07F1C0031068516803C312891A80D7F8CF
:4062C0003C3104331A4607F1C00303CB106051601B881381D7F83C310A225A80D7F83C31C2221A7023E0A320F9F712FFC7F83C01D7F83C31002B1AD0374A07F1B403106811
:40630000516803C312891A80D7F83C3104331A4607F1B40303CB106051601B881381D7F83C310A225A80D7F83C31C2221A70A320F9F7EEFEC7F83C01D7F83C31002B1DD026
:40634000274A07F1A403144620686168A26807C3A2891A80D7F83C3104331C4607F1A40307CB20606160A2601B88A381D7F83C310E225A80D7F83C31C2221A704FF6FF73D2
:40638000A7F818310023A7F81A31104B9B781A46642303FB02F3B3F5FA6F23DDD7F84001FFF788FA094B00229A70084B5B78002B14BF01230023DBB283F00103DBB203F098
:4063C0000103DAB2014B5A7012E000BFBC83FF1FE8CD0100F4CD010028CC010000CE010010CE0100A54B9B780133DAB2A34B9A70012387F81431A24B5B7B83F00103DBB264
:40640000002B64D09F4B1B781846FAF7BDFA0346002B2ED0A320F9F77BFEC7F83C01D7F83C31002B53D0984BC7F83831D7F83C311C1DD7F8380115F0C5FF03469BB20093DC
:4064400001AA07F58A7393E8030082E80300B8204FF4E8712246D7F8383101F0D5F803461A46D7F83C315A80D7F83C31C2221A702DE0A320F9F74CFEC7F83C01D7F83C3110
:40648000002B24D007F10C0318460021202215F024FFD7F83C311D1D07F10C042023009301AA07F58A7393E8030082E80300B8204FF4E8712A46234601F0A6F803461A4665
:4064C000D7F83C315A80D7F83C31C2221A706F4B1B78DBB2002B72D0A320F9F719FEC7F83C01D7F83C31002B00F0C780674B5B78DBB2002B2FD0664BC7F83431D7F83C31E4
:406500001C1DD7F8340115F05DFF03462046D7F834111A4615F0D6FED7F83C311C1DD7F8340115F04FFF03469BB2009301AA07F58A7393E8030082E80300B8204FF4E871C9
:406540002246D7F8343101F05FF803461A46D7F83C315A802EE04F4BC7F83031D7F83C311C1DD7F8300115F02DFF03462046D7F830111A4615F0A6FED7F83C311C1DD7F8FE
:40658000300115F01FFF03469BB2009301AA07F58A7393E8030082E80300B8204FF4E8712246D7F8303101F02FF803461A46D7F83C315A80D7F83C31C2221A7081E3364B5D
:4065C0001B7883F00103DBB2002B56D0A320F9F79FFDC7F83C01D7F83C31002B49D007F10C0318462021282215F077FE274B9B78042B0DD107F10C03284A1C4615460FCDDA
:406600000FC40FCD0FC495E8030084E803000CE007F10C03224A1C4615460FCD0FC40FCD0FC495E80F0007C42380D7F83C311D1D07F10C03184615F0C5FE03469BB207F144
:406640000C04009301AA07F58A7393E8030082E80300A0204FF4E8712A46234600F0D4FF03461A46D7F83C315A80D7F83C31C2221A70094B01221A7023E322E3BC83FF1F1E
:406680003083FF1FB03C002048CD0100B86300206CCD010094CD010060D8FF1F20CE0100B8CD0100D7F840311B78012B40F00983D7F840311B691B78012B40F00283A4208E
:4066C000F9F726FDC7F82C01D7F82C31002B30D0C94BDB795A1CD1B2C74AD1711A46C64B13449B7A87F81C31C34BDB79032B02D9C14B0022DA71D7F82C311D1D07F58E749F
:406700000123009301AA07F58A7393E8030082E803004FF4147012212A46234600F074FF03461A46D7F82C315A80D7F82C31C2221A7007F1A00318460021022215F0CDFD87
:4067400007F1A003D7F84001194601F053FD07F19C03D7F84001194601F092FE97F8A130002B44D1A420F9F7D3FCC7F82C01D7F82C31002B5FD097F89D30002B1BD09F4A57
:4067800007F190031068516803C312891A80D7F82C3104331A4607F1900303CB106051601B881381D7F82C310A225A80D7F82C31C2221A703FE0924A07F184031068516837
:4067C00003C312891A80D7F82C3104331A4607F1840303CB106051601B881381D7F82C310A225A80D7F82C31C2221A7023E0A420F9F78EFCC7F82C01D7F82C31002B1AD0FC
:40680000804A07F178031068516803C312891A80D7F82C3104331A4607F1780303CB106051601B881381D7F82C310A225A80D7F82C31C2221A70A420F9F76AFCC7F82C01C1
:40684000D7F82C31002B1DD06F4A07F16803144620686168A26807C3A2891A80D7F82C3104331C4607F1680307CB20606160A2601B88A381D7F82C310E225A80D7F82C310E
:40688000C2221A7097F8A030002B44D1A420F9F73FFCC7F82C01D7F82C31002B5ED097F89C30002B1BD0554A07F15C031068516803C312891A80D7F82C3104331A4607F11D
:4068C0005C0303CB106051601B881381D7F82C310A225A80D7F82C31C2221A703EE0484A07F150031068516803C312891A80D7F82C3104331A4607F1500303CB1060516023
:406900001B881381D7F82C310A225A80D7F82C31C2221A7022E0A420F9F7FAFBC7F82C01D7F82C31002B19D007F14403354A1068516803C312891A80D7F82C311A1D07F138
:40694000440303CB106051601B881381D7F82C310A225A80D7F82C31C2221A70A420F9F7D7FBC7F82C01D7F82C31002B1DD007F13403264A144620686168A26807C3A289DF
:406980001A80D7F82C311A1D07F13403144607CB20606160A2601B88A381D7F82C310E225A80D7F82C31C2221A704FF6FF73A7F818310023A7F81A310F4B5B7A1A466423E3
:4069C00003FB02F3B3F5FA6F22DDD7F84001FEF771FF094B00225A72074B1B7A002B14BF01230023DBB283F00103DBB203F00103DAB2014B1A7211E0BC83FF1FE8CD0100C1
:406A0000F4CD010028CC010000CE010010CE0100AE4B5B7A0133DAB2AC4B5A72012387F81431AB4B5B7B83F00103DBB2002B64D0A84B5B781846F9F7A7FF0346002B2ED05D
:406A4000A420F9F765FBC7F82C01D7F82C31002B53D0A14BC7F82831D7F82C311C1DD7F8280115F0AFFC03469BB2009301AA07F58A7393E8030082E80300B8204FF4E8715F
:406A80002246D7F8283100F0BFFD03461A46D7F82C315A80D7F82C31C2221A702DE0A420F9F736FBC7F82C01D7F82C31002B24D007F10C0318460021202215F00EFCD7F882
:406AC0002C311D1D07F10C042023009301AA07F58A7393E8030082E80300B8204FF4E8712A46234600F090FD03461A46D7F82C315A80D7F82C31C2221A70784B1B78DBB29C
:406B0000002B72D0A420F9F703FBC7F82C01D7F82C31002B00F0D580704B5B78DBB2002B2FD06F4BC7F82431D7F82C311C1DD7F8240115F047FC03462046D7F824111A46E7
:406B400015F0C0FBD7F82C311C1DD7F8240115F039FC03469BB2009301AA07F58A7393E8030082E80300B8204FF4E8712246D7F8243100F049FD03461A46D7F82C315A8025
:406B80002EE0584BC7F82031D7F82C311C1DD7F8200115F017FC03462046D7F820111A4615F090FBD7F82C311C1DD7F8200115F009FC03469BB2009301AA07F58A7393E861
:406BC000030082E80300B8204FF4E8712246D7F8203100F019FD03461A46D7F82C315A80D7F82C31C2221A706BE03F4B5B7883F00103DBB2002B64D0A420F9F789FAC7F8D9
:406C00002C01D7F82C31002B58D007F10C0318462021282215F061FBD7F82C311C1D07F10C03184615F0CEFB024607F10C032046194615F047FB294B9B78042B0DD107F1D8
:406C40000C032A4A1C4615460FCD0FC40FCD0FC495E8030084E803000CE007F10C03244A1C4615460FCD0FC40FCD0FC495E80F0007C42380D7F82C311D1D07F10C03184646
:406C800015F0A0FB03469BB207F10C04009301AA07F58A7393E8030082E80300A0204FF4E8712A46234600F0AFFC03461A46D7F82C315A80D7F82C31C2221A700A4B0122E3
:406CC0005A7007F5A477BD46B0BD00BFBC83FF1F6C83FF1FB03C002048CD0100B86300206CCD010094CD010060D8FF1F20CE0100B8CD010080B584B000AF78607B68FB6028
:406D0000FB68DB78392B1DD1104B14221A700F4B16225A70FAF7E4FC4FF4E070FAF702FDFAF7D4FC03460B33084A12781A70FAF7CDFC03460C33054A52781A704FF4E0705A
:406D4000FAF73AFD1037BD4680BD00BFB03C002080B584B000AF78607B68FB60FB68DB788C2B02D08D2B07D00DE0144B16221A70124B16225A7006E0104B14221A700F4BD5
:406D800014225A7000BFFAF7ABFC4FF4E070FAF7C9FCFAF79BFC03460B33084A12781A70FAF794FC03460C33044A52781A704FF4E070FAF701FD1037BD4680BDB03C0020FE
:406DC00080B586B000AF78600023FB757B683B613B691B6BFB60786802F03AFD0346FB72FB7A524A4FF41C6101FB03F313440833DB78DBB283F00103DBB2002B46D04C4B3A
:406E00001B78DBB2012B40D1FB68002B3DD02E2002F0D6FC03461A46FB6813441B7B002B33D0042002F0CCFC03461A46FB6813441B7BBB72BB7A0E2B08D03B691B691B781C
:406E4000042B22D13B69DB780E2B1ED10123FB753B69FF225A713B695A793B699A72042002F0AEFC03461A46FB68134400221A732E2002F0A5FC03461A46FB68134400224E
:406E80001A733B698C229A704BE04AE0FB68002B47D02E2002F094FC03461A46FB6813441B7B002B3DD0042002F08AFC03461A46FB6813441B7B7B727B7A452B02D07B7A40
:406EC000002B08D13B691B691B78042B29D13B69DB78452B25D0FB7A144A4FF41C6101FB03F313440833DB78FB753B69FF225A713B695A793B699A72042002F061FC034601
:406F00001A46FB68134400221A732E2002F058FC03461A46FB68134400221A733B692B229A70FB7D18461837BD4680BDB83C0020286C002080B485B000AF78600B46FB700E
:406F40000023FB730023BB73FB78013BDBB27B732CE097F90D307A6813441B782C2B07D1BB7B83F00103DBB2002B01D00123BB73BB7B002B12D097F90D307A68134497F9D0
:406F80000D20013A79680A4412781A7097F90D30013B7A68134400221A7002E0FB7B0133FB737B7BDBB2013BDBB27B7397F90D30002BCEDCBB7B83F00103DBB2002B01D02C
:406FC0000023FB73334B5B7AFA7BD31ADBB23B7397F90C30002B29DD23E0FB78013BDBB27B7315E097F90D307A68134497F90D20013A79680A4412781A7097F90D307A6801
:40700000134400221A707B7BDBB2013BDBB27B7397F90D30002BE5DC3B7BDBB2013BDBB23B7397F90C30002BD7DC2DE097F90C30002B29DA24E000237B7316E097F90D3017
:407040007A68134497F90D20013279680A4412781A7097F90D3001337A68134430221A707B7BDBB20133DBB27B7397F90D20FB78013B9A42E2DB3B7BDBB20133DBB23B73A5
:4070800097F90C30002BD6DB1437BD465DF8047B704700BFB863002080B584B000AFF9F75BFEF860FB68002B47D00023FB72FB7AFA6813441B225A70FB7A5A1CFA72FA6879
:4070C00002339B001344544A5A60FB7AFA6813441F225A70FB7A5A1CFA72FA6802339B0013444E4A5A60FB7AFA68134425225A70FB7A5A1CFA72FA6802339B001344484AF5
:407100005A60FB7AFA6813441D225A70FB7A5A1CFA72FA6802339B001344424A5A60FB7AFA68134421225A70FB7A5A1CFA72FA6802339B0013443B4A5A60F9F70DFEF8608B
:40714000FB68002B1DD00023BB72BB7AFA6813441E225A70BB7A5A1CBA72FA6802339B001344314A5A60BB7AFA68134422225A70BB7A5A1CBA72FA6802339B0013442A4AE7
:407180005A6000F057F8F9F757FB78607B68002B0BD07B6825225A707B6806229A707B680A225A817B680322DA701E20F9F750FC78607B68002B12D01C4A7B6853637B686A
:4071C0001A4AC3F890217B681E225A707B6806229A707B6864225A817B680322DA702220F9F736FC78607B68002B12D0104A7B6853637B680E4AC3F890217B6822225A7070
:407200007B6806229A707B6864225A817B680322DA701037BD4680BD39350000ED36000005730000995700003D6000003083FF1F6C83FF1F90B587B000AFAA233B7370236F
